:1000000000800020BD010000ED290000A5290000AE
:10001000A5290000A5290000A5290000A5290000A8
:10002000A5290000A5290000A5290000ED29000050
:10003000ED290000A5290000ED2900009529000008
:10004000ED290000ED290000ED290000ED29000058
:10005000ED290000ED290000ED290000ED29000048
:10006000ED290000ED290000ED290000ED29000038
:10007000ED290000ED290000ED290000ED29000028
:10008000ED290000ED290000ED290000ED29000018
:10009000ED290000ED290000ED290000ED29000008
:1000A000ED290000ED290000ED290000ED290000F8
:1000B000ED290000ED290000ED290000ED290000E8
:1000C000ED290000ED290000ED290000ED290000D8
:1000D000ED290000ED290000ED290000ED290000C8
:1000E000ED290000ED290000ED290000ED290000B8
:1000F000ED29000041440000ED290000854B00007F
:10010000ED290000F5500000ED290000ED29000068
:10011000ED290000ED290000ED290000ED29000087
:10012000ED290000ED290000ED290000ED29000077
:10013000ED290000ED290000ED290000ED29000067
:10014000ED290000ED290000ED290000ED29000057
:10015000ED290000ED290000ED290000ED29000047
:10016000ED290000652E0000ED290000ED290000BA
:10017000ED290000ED290000ED290000ED29000027
:10018000ED290000ED290000ED290000ED29000017
:10019000ED290000ED290000ED290000ED29000007
:1001A000ED290000ED290000ED290000ED290000F7
:1001B000ED290000ED290000ED290000564B4CF21E
:1001C000205210B51A804DF628121A8000BF00BFC9
:1001D00002F010FC514B4FF010621A60504A9A60C6
:1001E000504ADA60504A136813F4807304D14F49BF
:1001F0000B604FF4A85313604D4B1A78110703D5C9
:100200001A7842F008021A704A4B4B492A221A7097
:100210004A4A4B4B8B4204D252F8040F43F8040B6A
:10022000F8E7484B484900228B4202D243F8042B9E
:10023000FAE74649464A002352F8230041F82300D2
:1002400001336F2BF8D1434B434A802103F8011B44
:100250009342FBD1414B3D4A1A60414B8A221A70AE
:10026000A3F5805324225A70A0221A709A7992071B
:10027000FCD59A79D406FCD43A4A937903F00C035E
:10028000082B384BF9D103221A7140225A719A79FE
:100290009006FCD5334A9179324B4906FBD5324A58
:1002A000324911600221516020221A709A7902F0BD
:1002B0000C020C2AFAD12E4B2E4A1A602E4B2F4AD2
:1002C0001A6000225A60072243F8042C2C4AC3F813
:1002D0000C2D62B602F09EFC144B1B68DA0705D5A4
:1002E000284802F02BFC284B284A1A60284B1B7820
:1002F0005B0609D5244C254B22689A4204D121483B
:1003000002F01CFC0023236006F056F802F078FB94
:1003100003F03EFCFEE700BF0E20054030800440A5
:10032000823F04000100002B10D0034014D0034092
:1003300002D0074000E007401490FF1F78750000CE
:100340002087FF1F1890FF1FE096FF1F0082FF1FEE
:100350000000000000E400E05FE400E008ED00E0E1
:100360000050064000400640448004400000030165
:1003700004800440C010050014E000E0FF76010096
:10038000000020206AFDFD021CE00340A5C3945A32
:1003900000F00740FFFFFFFFFFFFFFFFFFFFFFFF32
:1003A000FFFFFFFFFFFFFFFFFFFFFFFFFFFFFFFF5D
:1003B000FFFFFFFFFFFFFFFFFFFFFFFFFFFFFFFF4D
:1003C000FFFFFFFFFFFFFFFFFFFFFFFFFFFFFFFF3D
:1003D000FFFFFFFFFFFFFFFFFFFFFFFFFFFFFFFF2D
:1003E000FFFFFFFFFFFFFFFFFFFFFFFFFFFFFFFF1D
:1003F000FFFFFFFFFFFFFFFFFFFFFFFFFFFFFFFF0D
:10040000FFFFFFFFFFFFFFFFFFFFFFFFDEF9FFFF23
:1004100010B5054C237833B9044B13B10448AFF33E
:1004200000800123237010BD1890FF1F0000000002
:100430007C750000084B10B51BB108490848AFF3A4
:1004400000800848036803B910BD074B002BFBD0A0
:10045000BDE81040184700BF000000001C90FF1FBF
:100460007C7500001490FF1F0000000070B51B4C4D
:1004700040F6B831204600F0A5FC204618494FF45C
:10048000E13200F079FC2046012100F053FC58B124
:10049000606C1449036811225B6898470A2002F0D7
:1004A0006BFB204600F066FC012200210B480E4C3D
:1004B0000E4E00F037FD0E4A0E4910680B783BB126
:1004C00023789B0704D0136835685B1B182B04D86E
:1004D00013681B1AB3F57A7FF0D970BD5C93FF1FC8
:1004E000D094FF1FF4700000BC94FF1FD896FF1F2C
:1004F000C093FF1FA494FF1F70B5274C84B02368DE
:100500000193019B23B923680293029B012B1ED9FF
:10051000224D234E284600F091FB3268214990423B
:100520000346086018D39A1AF92A10D94FF4FA71C1
:100530002846336000F08CFB0121284600F0FAFBCE
:1005400080B9052002F018FB144800F0E9FB1648BA
:1005500002F080F904B070BD1348336002F07AF9FC
:1005600004B070BD2846012100F084FB686C0F497F
:10057000036801225B689847236803930399686CBA
:1005800000230A2203F01EFB284600F0B9FB284690
:1005900000F0F0FBD5E700BFC093FF1F5C93FF1F87
:1005A0003490FF1F5893FF1F3890FF1F0871000001
:1005B00000B50F2283B005238DE80C000449054ADD
:1005C00005480E2300F06AFD03B05DF804FB00BF90
:1005D000D094FF1FC094FF1F3890FF1F38B5124AF8
:1005E000124B00F1AC050021044600F05BFA2846EE
:1005F0000F4B104A012100F055FA0F490F4A022310
:1006000084F858310B68C4F8605143F00063C4F8B3
:100610006851C4F85C41C4F864410B60136843F04E
:1006200000632046136038BD10710000687100003F
:100630000C7100003C7100003C800440308004409C
:10064000012A03D0D0F85C0100F0BCB8D0F86001FA
:1006500000F0B8B8012A03D0D0F85C0100F0FAB875
:10066000D0F8600100F0F6B8012A03D0D0F85C01A0
:1006700000F004B8D0F8600100F000B838B5437E4F
:1006800004460D46DBB9A36D012D4FEA43131DD976
:1006900003F184430122042D9A6009D9082D23D93E
:1006A000102D1AD91A605A60202384F8203038BDE2
:1006B00000221A605A60042384F8203038BD00F00C
:1006C0001BF8A36D012D4FEA4313E1D803F18442D7
:1006D0000023936084F8203038BD002183E80600B1
:1006E000102384F8203038BD00211A605960082397
:1006F00084F8203038BD00BFF8B5836D5B0103F18D
:1007000084430446DA6942B103F0B4FAA36D5B0195
:1007100003F18443DA69002AF6D19B6923B1E38AA5
:100720009BB243F00203E38272B6637E002B37D0A4
:10073000216F636FA26F0F68E06F1B68D4F88010A1
:1007400016680568D4F8842009681268606E3B4416
:1007500033442B440B441344C3F34E03D4F88C505E
:10076000D4F89010D4F8942043F4004303602F6829
:10077000D4F898000B681668D4F89C100568D4F873
:10078000A02009681268A06E3B4433442B440B44FC
:100790001344C3F34E0343F4004300220360627624
:1007A00062B6A37E6BB10221204600F053F802210D
:1007B000204600F0D1F804212046FFF75FFF002318
:1007C000A376F8BD38B5C37E8B4211D0437E044674
:1007D0000D466BBB092D0CD8E36B5B0103F1844321
:1007E0000022DA609A60FF210823E161E37638BDD8
:1007F00038BD0B2D1FD90D2D0DD8E36B5B0103F117
:10080000844300200121D860996040F6FF720C23D8
:10081000E261E37638BDE36B5B0103F184430122BF
:10082000DA609A604FF6FF711023E161E37638BD1C
:10083000FFF762FFCEE7E36B5B0103F18443012026
:100840000021D860996040F2FF320A23E261E3762A
:1008500038BD00BF90F824308B4256D070B5437E2F
:1008600005460C46002B34D1A31F032B2A6C16D946
:10087000520102F184420021D1606CBBEB6B9460A9
:100880005B0103F1844301221046DA610026012155
:1008900083E8420098615A6185F8244070BDEB6B93
:1008A00052015B0103F1844302F1844201210020E3
:1008B000062CD160596019605861986126D0072CC8
:1008C00029D0082C0CBF90609160D86185F8244035
:1008D00070BDFFF711FFC7E7012C0DD0022C31D0FE
:1008E000032C1BD0042C19D0052C21D0EB8A9BB2F1
:1008F00043F00103EB8270BDEB6B91605B0103F190
:1009000084432046DC612246C0E770479060D9618D
:1009100085F8244070BD9160D961BDE7EB6B5B0148
:1009200003F18443012090600246D9610846ADE797
:10093000EB6B5B0103F184430126966008460A468F
:10094000D961A3E7EB6B91605B0103F184430A4635
:10095000D96101209AE700BF38B590F825308B4265
:1009600021D0437E05460C46F3B974B1012C2DD03D
:10097000022C38D0032C1CD0042C14D1EB6B5B015F
:1009800003F1844300221A610BE0EA6B2B6C5201E5
:100990005B0103F1844302F18442012111615C6037
:1009A0001C6085F8254038BDFFF7A6FE002CDDD180
:1009B000EBE7EA6B2B6C52015B0103F1844302F11C
:1009C00084420121116159601960EAE7EA6B2B6CDE
:1009D00052015B0103F1844302F18442002114615E
:1009E0001C605960DDE7EA6B2B6C52015B0102F180
:1009F0008442012103F184430020116183E8030054
:100A0000CFE700BF70B5026C04460023C376012116
:100A1000052504200226E361AA4084F8203084F8EA
:100A2000216084F8223084F8231084F8245084F85C
:100A300025006376E38202F1844294F82100637515
:100A4000116188B1164A1370626D84F82130AA4092
:100A500002F18442136072B6A36D6176AB4003F17C
:100A600084439961D96162B6012520460A21FFF7C6
:100A7000A9FE2046A5762021FFF700FE2946204644
:100A8000FFF7E8FE29462046FFF766FF72B6A36D22
:100A900065765B0103F184439D61DD6162B670BDE3
:100AA000014007402DE9F0418262454A454EC3624C
:100AB000CD0401EB81072A44FF004FF400330029E5
:100AC00001763E4403634264DFF83CE13E4F3F4918
:100AD0003F4A404BDFF8348105F1804CAE442F444F
:100AE00029442A442B440CF56C3CC0F834C0C0F8AF
:100AF00038E0C7630164C2650366DFF814C1DFF83C
:100B000014E1354F3549364A364BA844AC44AE441F
:100B10002F4429442A442B44C0F84880C0F84CC0D4
:100B2000C0F850E04765816542678367DFF8E88079
:100B3000DFF8E8C0DFF8E8E02B4F2C492C4A2D4BBA
:100B4000A844AC44AE442F4429442A442B44C0F862
:100B50006480C0F868C0C0F86CE00767C167C0F87F
:100B60008820C0F88C30DFF8BC80DFF8BCC0DFF82C
:100B7000BCE0214F2149224A224BAC44AE442944D7
:100B80002A442B44A8442F4414BF3A25392504464F
:100B9000C0F88080C0F884C0C0F890E0C0F89470BD
:100BA000C0F89810C0F89C20C0F8A030C0F8A4602D
:100BB00080F8A850FFF726FF2046BDE8F08100BF6F
:100BC00010B003401060034008B003400CB0034075
:100BD00050B0034028B0034020B0034024B003408D
:100BE0003CB0034040B0034038B0034044B0034041
:100BF00054B0034058B0034060B0034064B00340B9
:100C000068B003406CB0034004B0034014B003402C
:100C100018B003401CB003402CB0034030B0034078
:100C200034B0034048B003404CB003405CB00340D4
:100C300002F0E4BD02F006BE02F01CBE034B82B01F
:100C40001B680193019802B0704700BFC093FF1F5B
:100C500010B4074B82681B68016183B000240193C4
:100C6000019B4461C260836003B010BC704700BF49
:100C7000C093FF1FF0B51E4B1E4D1A680446406C12
:100C800083B0036801920F465B681B49019E0622F0
:100C900098473946606C00230A2202F093FF606C8B
:100CA0001649036803225B6898473146606C00234D
:100CB0000A2202F087FF606C036829465B68012204
:100CC0009847A168606C711A00230A2202F07AFF2B
:100CD000606C036829465B6801229847E368A16855
:100CE000606CC91A0A22002302F06CFF03B0F0BD49
:100CF000C093FF1F787100006C71000074710000D8
:100D000010B5446C0549236820465B680622984765
:100D10002046BDE8104002F045BF00BF7C710000D6
:100D2000034B82B01B680193019B836002B0704744
:100D3000C093FF1F30B5044683B00D4D81B92B68B9
:100D400000934268009B9B1A312B09D8032001F0C5
:100D500013FF2B680093009B62689B1A312BF5D917
:100D60002B680193019B6360012003B030BD00BF7D
:100D7000C093FF1F704700BF2DE9F0410D4D0E4E8F
:100D8000DFF83C800D4F41641B2401E001F0F4FECC
:100D90002B78C82043B133789B0705D0D8F80030B2
:100DA0003A689B1A182B03D8013CEFD1BDE8F081BB
:100DB000BDE8F081A494FF1FBC94FF1FD896FF1FCD
:100DC000C093FF1F00238364436001B97047084646
:100DD00001F0D2BE30B50F4B83B00446406C1B68A7
:100DE00001930368019A62600D465B680A49062216
:100DF00098472946606C00230A2202F0E3FE606CEB
:100E00000649036808225B689847322001F0B4FE67
:100E100003B030BDC093FF1F847100008C710000CF
:100E2000F8B5037E0BB96320F8BD0446406C3B4E19
:100E300003689B68B3420D466AD102F01BFD10F0B7
:100E4000FF0F01D16520F8BD354F606C03689B68CA
:100E5000B3425FD102F00EFD10F0FF0FF2D0606CD4
:100E60000368DB68BB4257D102F0C8FCC3B2A3F1F0
:100E700058021E2AE9D801A151F822F0090F0000FA
:100E80004B0E00004B0E00004B0E00004B0E0000FE
:100E90004B0E00004B0E00004B0E00004B0E0000EE
:100EA0004B0E00004B0E0000FD0E00004B0E00002C
:100EB0004B0E00004B0E00004B0E0000270E0000F2
:100EC0004B0E00004B0E00004B0E00004B0E0000BE
:100ED0004B0E00004B0E00004B0E00004B0E0000AE
:100EE000270E00004B0E00004B0E00004B0E0000C2
:100EF0004B0E0000F90E00001846F8BD20462946AA
:100F0000FFF768FF6320F8BD002323766320F8BD58
:100F1000984794E798479FE79847A7E7390C000060
:100F2000310C000038B50446154639B1012303766B
:100F300000212046FFF774FF6328F9D1257638BDDC
:100F4000034B00229A60DA601A615A61704700BF51
:100F50005C93FF1F2DE9D043224C82B0246801949A
:100F60001F46019B0C99036600230160C381037433
:100F700004461646104639460022002304F0FAFEC5
:100F800000282BD100220023DDE9080104F0F2FE45
:100F900020BB00220023DDE90A0104F0EBFEE8B9E2
:100FA000DDE90823D4E90689C4E90A23DDE90A2337
:100FB000C4E90867C4E90C23C4E90E67DDE9082326
:100FC0004046494604F064FC4246C4E910014B46E1
:100FD000DDE90A0104F086FDC4E91201204602B0F1
:100FE000BDE8D083C093FF1F2DE9F041846874B140
:100FF000A3686568033323F00303CA18AA42A360F9
:1010000005D804F10C00A2601844BDE8F081C7685F
:10101000B942884638BFB846054608F10C000E466E
:1010200005F0F2F940B17F0080E81001A860866009
:10103000EF600C30BDE8F081BDE8F081084602F0B9
:10104000C7BC00BF10B504464FF0FF32D0F8040112
:101050001021FFF7F5FAD4F804014FF0FF32102108
:10106000FFF702FBD4F804014FF0FF320221FFF733
:10107000F1FAD4F8040101221021FFF7E1FAD4F8C3
:10108000040101221021FFF7EFFAD4F80401012234
:101090000221BDE81040FFF7DDBA00BF2DE9F04D99
:1010A000294F8AB000260446154604928A469B467C
:1010B00032463B46CDE90267CDE900670021BDF825
:1010C0004C80FFF747FF3246012104953B46CDE9AE
:1010D0000267CDE9006704F18000FFF73BFF9DF850
:1010E000483084F8013184F800B14FF4B67002F052
:1010F00057FD0546FFF772FA144BC4F804511A68FD
:10110000099209991A680892089A1B680793079B25
:10111000C4F81823C4F81C33C4F810A1A4F80C8335
:101120004046C4F8141104F03DFB0022084B04F0C3
:10113000D9FC04F54473C3E900012046FFF782FFA0
:1011400020460AB0BDE8F08D00002440C093FF1F88
:1011500000408F402DE9F04F0378013B87B00646F1
:101160000D46072B17D8DFE813F0080033014900BC
:10117000260019005B0083000A0146680C683046AF
:1011800005F09EFD236802465B683146204698477D
:101190006B681844686007B0BDE8F08F0868AA4A19
:1011A00003681B68934240F059832D2002F010FC25
:1011B0006B681844686006AC0022736804F8032D5D
:1011C000A248A0FB0312D20802EB8201A3EB410369
:1011D000303304F8013D1346002AF2D12E68204630
:1011E00005F06EFD3368024621465B68304698473D
:1011F0006B681844686007B0BDE8F08F08687468D1
:10120000934A036893495B68002C16BF1146052278
:10121000042298476B681844686007B0BDE8F08FF7
:101220000868894F036874681B68BB4240F01383E9
:101230005B2002F0CDFB6B686468184468602CB9D1
:1012400059E202F0C5FB6B6803446B60201D294620
:10125000FFF780FF24682C20002C00F04C822A68C5
:1012600013681B68BB42ECD010462C219847EAE774
:101270000868754F036874681B68BB4240F0E882D9
:101280007B2002F0A5FB6B68D4F8048018446860EA
:10129000B8F1000F00F02582D8F804602868002E0D
:1012A0005DD003681B68BB4240F00A82222002F036
:1012B0008FFB6B68013E03446B6016F8010FD8B1D9
:1012C000222800F0BE81644B03E05A78824200F08D
:1012D000B9819C780233002CF7D12B681A68126808
:1012E000BA4240F0CC8102F073FB6B68184468602E
:1012F00016F8010F0028E3D1286803681B68BB4279
:1013000040F0DB81222002F063FB6B680344286815
:101310006B6003681B68BB422ED13A2002F058FB79
:101320006B6803446B6008F108002946FFF712FF61
:10133000D8F80080B8F1000F00F0D3812868036866
:101340001B68BB4240F0BF812C2002F041FB6B6860
:10135000D8F8046003446B602868002EA1D10368AC
:101360003E495B68042298476B68184468602868A7
:1013700003681B68BB42D0D03A219847D0E7466843
:101380003146304604F0C0FF002800F057820021AB
:10139000304604F0C3FF002840F0CB8200213046E5
:1013A00004F0B2FF00285DD13146304604F010FD54
:1013B0000146304604F0A8FF002853D02868284989
:1013C000036808225B6898476B6818446860E2E627
:1013D00046680868002E00F0528203681A4F1B68A6
:1013E000BB4240F04782222002F0F2FA6B681844B8
:1013F000013E686016F8010FD8B1222800F0438141
:10140000154B03E05A78824200F03E819C7802330B
:10141000002CF7D12B681A681268BA4240F05D813F
:1014200002F0D6FA6B681844686016F8010F0028BD
:10143000E3D1286803681B68BB4240F01282222077
:1014400002F0C6FAD4E600BF3D100000CDCCCCCCF3
:10145000EC710000F47100000C72000004720000D6
:101460001C720000A949304604F06CFF002840F0CF
:10147000718104460021304604F06EFF002863D0DD
:10148000A349304604F054FF00285DD000213046C7
:1014900004F044FF002840F064820021304604F04C
:1014A0003DFF002840F096820021304604F036FFD0
:1014B000002840F086829749304604F02FFF30B173
:1014C0003046954904F08CFD203C064624B29349F1
:1014D000304604F023FF30B13046914904F080FDDE
:1014E000103C064624B28F49304604F017FF30B155
:1014F00030468D4904F074FD083C064624B28B4901
:10150000304604F00BFF30B13046894904F068FDE5
:10151000043C064624B28749304604F0FFFE30B151
:101520003046854904F05CFD023C064624B24FF08B
:101530007E51304604F0F2FE30B130467F4904F06F
:101540004FFD013C064624B2304604F00FFF8046B2
:1015500004F0EEFC0146304604F038FC784904F013
:101560003FFD064604F002FF074604F0E1FC014699
:10157000304604F02BFC014604F02AFC04F0F6FE91
:10158000704B07449F420DD908F10108002C00F070
:10159000DF81B8F1090F40F22682013424B200271E
:1015A0004FF0010806AE002306F8033D6649B14638
:1015B000A1FB0823DB0803EB8302A8EB42023032D5
:1015C00009F8012D9846DFF880A1002BF0D1D5F85D
:1015D00000B0484605F074FBDBF8003002465B685B
:1015E0004946584698476B6818446860002F40F099
:1015F0004F81002CC0F2BF813FF4CDAD2868534A23
:1016000003681B68934240F0D581652002F0E0F941
:101610006B684F491844002368608DF8153081FBD2
:101620000432E317C3EBA20202EB8203A4EB4303F1
:10163000303314B206F8013D002CF0D130462C684E
:101640009EE50446286803681B68BB4210D15C20F5
:1016500002F0BEF9D5F800E06B68DEF800201268F1
:101660000344BA426B6006D1204602F0B1F93CE671
:101670005C219847EEE721467046904735E60146E3
:101680001846904731E60446286803681B68BB4249
:1016900020D15C2002F09CF9D5F800E06B68DEF800
:1016A000002012680344BA426B600FD1204602F05A
:1016B0008FF96B6803446B609CE62221984724E60F
:1016C00022219847F5E52C21984740E621467046AF
:1016D0009047EEE75C219847DEE7014618469047C1
:1016E000A0E6286803681B68BB4240F0C0807D20EC
:1016F00002F06EF97CE5286803681B68BB4240F085
:10170000B3805D2002F064F972E500BF8096184B4B
:10171000ACC52737B3CE010CAEC59D747D1D902698
:10172000CA1B0E5A95BFD63320BCBE4C6F12833AEB
:1017300000401C46CDCCCC3D0000C84200002041FA
:10174000002474493F420F00CDCCCCCC3D100000AA
:1017500067666666A649304604F0FEFD002800F084
:101760008C8030464FF0FF4104F0EEFC4FF4807463
:1017700006469F49304604F0EFFD38B130464FF041
:10178000FF4104F0E1FC8034064624B2984930461B
:1017900004F0E2FD38B130464FF0FF4104F0D4FCD4
:1017A0004034064624B29349304604F0CBFD30B1B4
:1017B0003046904904F0C8FC2034064624B28E49D5
:1017C000304604F0BFFD30B130468B4904F0BCFC1C
:1017D0001034064624B28949304604F0B3FD30B1D6
:1017E0003046864904F0B0FC0834064624B28449E9
:1017F000304604F0A7FD30B13046814904F0A4FC26
:101800000434064624B27F49304604F09BFD30B1D3
:1018100030467C4904F098FC0234064624B27A49EA
:10182000304604F08FFD00283FF424AE3046764960
:1018300004F08AFC0134064624B21BE6286873498A
:10184000036803225B6898476B6818446860A2E4E9
:101850007B21984717E55B219847ECE42D219847B9
:10186000A6E422219847C3E45D219847C0E47D2186
:101870009847BDE422219847B8E5044679E7036814
:1018800063495B68042298476B681844686082E487
:10189000AAFB0723DB0803EB8303B7EB430F5CD101
:1018A000062002E0002900F08880AAFB0737FF0825
:1018B000AAFB0712C3B2D208591E02EB8202C9B2B8
:1018C000B7EB420F48B2EDD0023B00225BB28DF87D
:1018D000072000283ED0DBB206AAC3EB020EDFF8D9
:1018E00040C1AEF1120E0DF10700ACFB0712D20899
:1018F00002EB8201A7EB4101303100F8011D704578
:101900001746F2D1DB430DF10702134403F1FF3810
:101910002E222F6803F8012C404605F0D1F93B68D0
:1019200002465B684146384698476B6818446860D1
:101930005FE62868374A03681B68934255D12D201B
:1019400002F046F86B68184406F10046686025E529
:10195000274627E60DF10703D8E78DF80780052312
:10196000B9E730464FF0FF4104F03AFBA4F580742C
:10197000064624B291E528682749036802225B687D
:1019800098476B68254918440022644268608DF8C6
:10199000152081FB0432E317C3EBA20202EB8203A2
:1019A000A4EB430404F1300306F8013D1446002A79
:1019B000EFD143E6652198472AE606AB03F8111DEF
:1019C000A4E730464FF0FF4104F00AFB403C0646D6
:1019D00024B270E530464FF0FF4104F001FB803C3B
:1019E000064624B260E50027DCE52D219847A9E7EB
:1019F000FFFF7F7FAEC59D74CA1B0E5A20BCBE4C34
:101A000000401C460000C84200002041FC7100005C
:101A1000047200003D1000000072000067666666F8
:101A2000CDCCCCCC2DE9F04186B0DFF8CC82CDF81E
:101A3000088000254FF480764FF486700495059653
:101A400004F0E2FC002800F0998108230DEB030468
:101A50004FF4007283609B4B056180E86000049046
:101A60000592C46000F10C052046102198470446F9
:101A700010B10023036003726B680BB99CE113463D
:101A80001A68002AFBD11C602CB18F4B63608F4B0E
:101A9000E360022323726E68002E00F0AF813446AB
:101AA00003E02468002C00F0EE806168884804F0B0
:101AB0009BFF0028F5D10222864B2272E3606E68FC
:101AC000002E00F09781344603E02468002C00F0DB
:101AD00015816168804804F087FF0028F5D1022253
:101AE0007E4B2272E3606E68002E00F07F813446E8
:101AF00003E02468002C00F01E816168784804F03F
:101B000073FF0028F5D10223764A237200238DE863
:101B10000C007549E1607B2001F05AFF019B6F6862
:101B2000724E18440190002F00F094807D68009858
:101B3000002D54D003681B68B34240F088802220F7
:101B400001F046FF019B013D0344019315F8010F8D
:101B5000C0B1222853D0664B02E05A7882424FD05F
:101B60009C780233002CF8D1009B1A681268B242AC
:101B70005CD101F02DFF019B1844019015F8010F75
:101B80000028E6D1009803681B68B3425CD122208C
:101B900001F01EFF019B03440098019303681B683A
:101BA000B34229D13A2001F013FF019B6946034457
:101BB00007F108000193FFF7CDFA3F68002F49D0E5
:101BC000009803681B68B3423BD12C2001F000FF52
:101BD000019B7D68034401930098002DAAD10368FE
:101BE00044495B6804229847019B1844019000987F
:101BF00003681B68B342D5D03A219847D5E704461D
:101C0000009803681B68B34218D15C2001F0E0FE25
:101C1000DDF800E0019BDEF8002012680344B242C8
:101C2000019307D1204601F0D3FEA4E701461846F0
:101C30009047A0E72146704690479CE75C21984773
:101C4000E6E72C219847C3E722219847A2E7222103
:101C5000984777E7009803681B68B34240F08B8091
:101C60007D2001F0B5FE1F4801F09CFF0498CDF8DF
:101C7000088028B1046804F0CFFB2046002CF9D17D
:101C800006B0BDE8F0812868002800F0A68003684F
:101C900010211B6898470646002800F0A580002206
:101CA0006B680260027243B96E60002E3FF407AFAA
:101CB000074B73603446FEE613461A68002AFBD1D0
:101CC0001E60F2E7E90F0000287200002C7200008D
:101CD000387200003C720000507200005872000020
:101CE00060720000D094FF1F6C7200003D10000075
:101CF0000C72000004720000E871000028680028DF
:101D000068D0036810211B6898470646002869D0F0
:101D100000226B680260027243B96E60002E3FF4CD
:101D2000E2AE394B73603446D9E613461A68002A8E
:101D3000FBD11E60F2E7286898B1036810211B6888
:101D40009847044600284BD000236E680360037256
:101D50003EB9264634466E604CB12C4B6360D2E6E9
:101D60001E463368002BFBD13460002CF5D1284B84
:101D70008DE81800CFE67D21984774E7254E33683B
:101D800013F001041AD0244D6C6814B909E02468DA
:101D90003CB16168214804F027FE0028F7D11E4DB0
:101DA00075E62C681CB123681B4D1B685CE61A4D58
:101DB0006B68002B7FF464AE6C6065E6304600F023
:101DC00037FE154D0028DFD030462C606C6000F0E7
:101DD00035FED9E733462646A8E7334626466CE764
:101DE0006E68B5E76B6897E76B685CE72868002862
:101DF000B0D0A2E7286800288FD082E728680028A2
:101E00003FF452AF43E700BF507200006072000021
:101E1000D094FF1FA893FF1FAC93FF1F28720000F0
:101E200003681A78093A262A27D8DFE802F01A1A36
:101E300026261A262626262626262626262626264E
:101E400026262626261A262626262626262626263E
:101E50002626262614005A782A2A0FD02F2A07D0A1
:101E60007047591C01605A780B46DBE70A2AF8D004
:101E7000013303601A78002AF8D17047591C4A1CB4
:101E800002604B78002BF8D02A2B01D01146F6E7E0
:101E900053782F2BFAD1CB1C0360CA78C2E700BF5E
:101EA0002DE9F04F056885B081465DB32A680821A9
:101EB00012682846904728B3002205604260044615
:101EC00009F104063046FFF7ABFFD9F8042011787A
:101ED0007B291FD0B74E336813F0010503D0B648F5
:101EE00005B0BDE8F08F304600F0A2FD0028F6D026
:101EF000B14C30462560656000F0A0FD204605B07D
:101F0000BDE8F08FAB4E326812F0010500F0C980D9
:101F1000A94CD5E70132C9F804203046FFF780FF0D
:101F2000D9F8042011787D2900F0EA8047F6ED7891
:101F300001943046D9F80850FFF772FFD9F8042011
:101F40001078272879D0222877D020F02003413B31
:101F5000A0F12B01192BC9B262D90E2928FA01F37D
:101F60005CD9D9F8083000245A1CC9F808201C7024
:101F7000002DAFD03046FFF753FFD9F804301A7860
:101F80003A2AA7D199F80C200133C9F80430002A65
:101F9000A0D0013A89F80C203046FFF741FFD9F86C
:101FA00004301F785B2F00F0E4807B2F40F0AF807F
:101FB0004846FFF775FF03688246002B00F06181F9
:101FC0004FF0070B99F80C30013389F80C30019B66
:101FD0005F683C461FB9BCE12468002C6ED0616884
:101FE000284604F001FD0028F6D184F808B0C4F8B2
:101FF0000CA03046FFF714FFD9F8042013787D2B8E
:102000007DD03046FFF70CFFD9F804301A782C2A1F
:102010007FF460AF0133C9F804308AE7DC07A0D54C
:10202000D9F808300132591CC9F80420C9F8081041
:102030001870D9F80420107887E7571CC9F8047085
:102040005378002B8DD002329842C9F8042012D167
:1020500087E7D9F80820511CC9F808101370D9F87F
:1020600004703B78002B3FF47CAF7A1C9842C9F88F
:1020700004203FF476AF5C2BEBD17B784F49622B89
:1020800002D10CE093420AD011F8022F002AF9D1B4
:10209000002B3FF466AF0237C9F80470D9E74B78DC
:1020A000F6E7304600F0C4FC00283FF431AF424C64
:1020B00030462560656000F0C1FC01E7019B1868AF
:1020C000002800F0C980036810211B689847074664
:1020D000002800F07282019A0023516803600372A5
:1020E000002900F03B813C4600E019460B68002BBC
:1020F000FBD10C60002C3FF4EDAE656075E7019CF0
:1021000001322046C9F8042005B0BDE8F08F272F22
:102110001CBF223FB7FA87F7304614BF7F0901275B
:10212000D9F808A0FFF77CFED9F8042010782728FA
:1021300052D0222850D020F02003413BA0F12B01A7
:10214000192BC9B279D90E2928FA01F373D9D9F814
:1021500008300022591CC9F808101A70BAF1000F93
:1021600000F08F8097420CBF4FF0010B4FF0020B35
:1021700028E7D9F800703FB33B6808211B68384650
:10218000984708B30760446007463046FFF748FEAB
:10219000D9F804301A785B2A79D0094B1B6813F000
:1021A00001075BD0074F3B68002B6AD0BA464FF05F
:1021B000060B07E7A893FF1FAC93FF1F10720000E8
:1021C000B493FF1FB893FF1FBA4B1B6813F00107AE
:1021D00000F0C880B84FD8E7541CC9F804405378C1
:1021E000002BB4D002328342C9F8042010D1AEE7EC
:1021F000D9F80820511CC9F808101370D9F8044008
:102200002378002BA3D0621C9842C9F804209ED0EA
:102210005C2BEDD16378A949622B02D11AE093427D
:1022200018D011F8022F002AF9D1002B8FD00234D8
:10223000C9F80440DCE7DB0789D5D9F8083001325A
:10224000591CC9F80420C9F808101870D9F80420DE
:10225000107870E74B78E8E7394647E7954800F093
:10226000E7FB00289ED0944B92481F605F6000F00F
:10227000E5FB914F97E70133C9F804303B68002B29
:1022800094D199F80C20013289F80C2022E6013310
:10229000C9F804303046FFF7C3FDD9F804301A7886
:1022A0005D2AE8D099F80C30002B3FF476AF013B63
:1022B00089F80C303046FFF7B3FDD9F8043093F8B5
:1022C00000A0BAF15B0F60D0BAF17B0F40F08580BF
:1022D0004846FFF7E5FD03680446002B00F07781D0
:1022E0004FF0070A99F80C30013389F80C30386840
:1022F00038B103680C211B68984710B100230360B4
:1023000003717A680AB93AE01A461368002BFBD1C8
:10231000106000283FF441AF80F804A0846030468C
:10232000FFF77EFDD9F804301A785D2A29D03046AF
:10233000FFF776FDD9F8042013782C2B7FF42DAF0E
:1023400099F80C300132C9F80420002B3FF425AF76
:10235000ADE7019B186800287FF4B5AE019B3C46B1
:102360005F60C7E6534800F063FB00283FF432AFDC
:10237000514B50481F605F6000F060FB2AE77860B7
:10238000C7E70133C9F804300DE7D9F80040002C45
:1023900000F0FC80236808211B682046984700282D
:1023A00000F0F48000230460436004463046FFF7E9
:1023B00037FDD9F804301A785B2A00F09D803D4B38
:1023C0001B6813F0010400F089803B4C2368002B4C
:1023D00000F0FD804FF0060A84E7BAF1270F1CBF1A
:1023E000AAF1220ABAFA8AFA304614BF4FEA5A1AF8
:1023F0004FF0010AD9F80840FFF712FDD9F8042080
:1024000092F800E0BEF1270F30D0BEF1220F2DD0A0
:102410002EF020014139AEF12B031929DBB216D978
:102420000E2B28FA03F110D9D9F808300022591CD4
:10243000C9F808101A70002C00F0C98092450CBF32
:102440004FF0010A4FF0020A4CE7C907ECD5D9F862
:1024500008300132591CC9F80420C9F8081083F863
:1024600000E0D9F8042092F800E0D1E7501CC9F848
:1024700004005378002BD7D002329E45C9F80420BF
:1024800010D1D1E7D9F80820511CC9F808101370F1
:10249000D9F804000378002BC6D0421C9E45C9F829
:1024A0000420C1D05C2BEDD143780449622B09D1C3
:1024B00012E000BFB493FF1FB893FF1F107200001B
:1024C000934209D011F8022F002AF9D1002BABD08A
:1024D0000230C9F80400D5E74B78F7E7414800F02F
:1024E000A7FA00283FF471AF3F4B3E481C605C6088
:1024F00000F0A4FA3C4C69E70133C9F804303046D7
:10250000FFF78EFCD9F804301A785D2A58D00DF107
:10251000080B4FF0000A594648468DF808A000F015
:1025200065F800283FF44BAF2068002837D00368D7
:102530000C211B689847034618B1C0F800A080F82A
:1025400004A062680AB928E00A4611680029FBD194
:102550001360002B3FF433AF9BE80300043383E8A0
:1025600003003046FFF75CFCD9F804301A785D2A86
:1025700033D03046FFF754FCD9F804301A782C2AAF
:102580007FF41DAF0133C9F80430C4E7154B1B6855
:1025900013F0010405D0144C08E76360D9E7034643
:1025A000CFE7104800F044FA0028F4D00E4B0D4855
:1025B0001C605C6000F042FAEDE7019B59688FE512
:1025C0000133C9F804302368002B7FF403AF99F876
:1025D0000C30013389F80C30DFE50133C9F80430E1
:1025E000F4E600BFB493FF1FB893FF1F2DE9F0433B
:1025F000057B83B01DB9284603B0BDE8F0830446CF
:10260000013D071D057338460E46FFF709FC636858
:102610001D785B2D4BD07B2D33D0272D1CBF223D49
:10262000B5FA85F5384614BF6D090125A768FFF78F
:10263000F7FB6068017827295ED022295CD047F635
:10264000ED7E21F02003413BA1F12B02192BD2B2E8
:1026500024D90E2A2EFA02F31ED9A3680022591C8F
:10266000A1601A70002F00F08780002D75D1012520
:1026700077603570237B28460133237303B0BDE8B0
:10268000F0832046FFF70CFC0368002B74D007236F
:10269000706033700125EDE7DB07DED5A3680130FC
:1026A0005A1C6060A260197060680178C9E72568EB
:1026B000002D63D02B6808211B6828469847002806
:1026C0005CD000230560436005463846FFF7A8FB51
:1026D00063681A785B2A5AD0DFF874815A4DD8F8AB
:1026E000003013F001073CD02B68002B44D00623A8
:1026F000756033700125BDE700F1010EC4F804E0F8
:102700004378002BA9D002308B4260600FD1A4E740
:10271000A268501CA0601370D4F804E09EF800304A
:10272000002B9AD00EF101029942626095D05C2B89
:10273000EED19EF801304548622B02D10BE0934266
:1027400009D010F8022F002AF9D1002B85D00EF104
:1027500002026260DCE74378F7E7022377603370B8
:1027600088E7404600F064F90028BDD040462F605D
:102770006F6000F063F9B7E700257BE7DFF8D080F2
:10278000D8F8003013F001054BD02F4D9DE70133F1
:1027900063603846FFF744FB63681A785D2A3BD0D4
:1027A000E8464FF00009414620468DF80090FFF7BB
:1027B0001DFF002890D0286888B303680C211B688F
:1027C0009847864618B1C0F8009080F804906A686F
:1027D0000AB936E01A461368002BFBD1C2F800E0B4
:1027E000BEF1000F3FF478AF98E803000EF1040E3D
:1027F0008EE803003846FFF713FB63681A785D2AFA
:102800000AD03846FFF70CFB63681A782C2A7FF44D
:1028100063AF01336360C6E70133636064E78646F4
:10282000D5E7404600F004F90028AED0DFF8189054
:102830004046C9F80050C9F8045000F0FFF84D4672
:1028400043E7C5F804E0CBE7B893FF1F1072000020
:10285000B493FF1FF0B50546D0F8100103688BB0A4
:102860009B68984700283DD0424C434E2368019313
:10287000019BC5F8143100214FF480720296049137
:10288000059205F2171722680092009AD31AB3F541
:10289000FA6F09D316E023680093009BD5F8142142
:1028A0009B1AB3F5FA6F0DD200F0E4FF0028F2D0C6
:1028B00000F0A4FFC0B20D2807F8010F14D0D5F81E
:1028C0001431E0E707212D4800F0FEFF2C4801F00D
:1028D00069F90498029628B1046803F09DFD20462A
:1028E000002CF9D10BB0F0BD05F58C7302A90A22BA
:1028F00006A80793089306918DF82420FFF7D0FAD5
:10290000446814B929E024683CB361681D4804F0A8
:102910006BF80028F7D1237A012B20D0022B00D1AD
:10292000E06804461849204604F05EF858B9049857
:1029300002960028D6D0046803F06EFD2046002CD5
:10294000F9D10BB0F0BD2046104904F04DF8002835
:10295000EDD12846FFF766F8E9E70024E2E7E468EE
:102960002CB121460A4804F03FF80028D9D020466F
:10297000D7E700BFC093FF1FE8710000747200002A
:10298000D094FF1F287200007C7200008872000043
:1029900004720000024A136801331360704700BFDD
:1029A000C093FF1F08B5104C08E0236859050DD4EB
:1029B00023681A050FD42368DB0411D42368580355
:1029C000F3D500F04FFA23685905F1D501F038FD31
:1029D00023681A05EFD502F0D5F82368DB04EDD59E
:1029E00002F088FBEAE700BF3480044008B5FFF737
:1029F000D9FF00BF014B10221A807047002005400C
:102A0000704700BF094908B50B6830B16A461844E1
:102A1000A2F58052904202D20860184608BD03F029
:102A2000C5FC0C2303604FF0FF3008BD2087FF1F5B
:102A30000078B0FA80F04009704700BF01230370AE
:102A4000704700BFEFF3138070B9EFF310836BB9D9
:102A5000EFF305825AB94FF48070EFF311832BB175
:102A6000984228BF184670474FF0FF3070470F2A32
:102A700001D81846F1E7014BD05CEEE7F0E300E047
:102A800010B40F4B53F8302092F880422CB1012340
:102A900069B182F8803010BC704703EBC0035B68FB
:102AA0001A6841B922F002021A6010BC704782F81D
:102AB000003110BC704742F003021A6010BC70472E
:102AC000987200001C4A02EBC00301295B6811D018
:102AD00004291BD052F83000002280F8802229B14E
:102AE000022920D0032922D01A6070474FF4807247
:102AF0001A60704752F830004FF4A27280F88012CA
:102B00001A601A6822F020021A60704752F83010DA
:102B10004FF4A272012081F880021A601A6842F014
:102B200020021A60704740F203121A6070474FF497
:102B300081721A60704700BF9872000030B4054B74
:102B4000054D064C002210211A602A602060196091
:102B500030BC704714D0034004D0034000D0034081
:102B6000212801D8FFF78CBF704700BF212801D86A
:102B7000FFF7A8BF704700BF2DE9F843054672B6BE
:102B8000204F214B214A1B683C68126862B65201F3
:102B900002D5322B88BF013495B3C3F5BB331C4E2D
:102BA000DFF86490DFF86480FF334FF47A72A6FB9D
:102BB000031302FB04F404EB931472B6D9F800106B
:102BC0003A68D8F800E062B6C1F5BB33FF33A6FB24
:102BD00003031EF0806FC4EB93134FF47A7002D09E
:102BE000322988BF013200FB0233B3F57A7F04D368
:102BF000013D05D004F57A74DFE701F03BF8DCE72E
:102C0000BDE8F883C093FF1F18E000E004ED00E08A
:102C1000ABAAAAAAF8B52D4B2D49DFF8D0E0DFF812
:102C2000D0C02C4E2C4D2D4C2D4A2E4F4FF4000071
:102C300018604FF0807018604FF0007018604FF00F
:102C4000806018604FF00060186000200860282342
:102C50004BF6FF71CCF80010CEF8003033601360F3
:102C60002B6023603B60B3629362092245F8242CF9
:102C7000C4F8D80F05F57F65C7F8D41F07F5FF27FF
:102C800007F5FA67C6F8F83F2B6006F5FF26C4F88B
:102C9000D42F05F5FD2504F5FF24386006F2F476FF
:102CA0001148316005F5FF6504F5FD642B60236074
:102CB000026001F00DF83220FFF75EFF00F0FCFC2F
:102CC0004FF4AF70BDE8F840FFF756BF08E100E0F1
:102CD0000480034014800340248003402C80034080
:102CE0001C8003403480034000800B400C80034074
:102CF00008800340431E032B14D872B60A4951F8CA
:102D0000230068B170B4094C058834F81320466874
:102D100041F82360521B24F8132062B670BC704740
:102D200062B67047002070471C94FF1FC896FF1FB3
:102D3000013803280BD872B6074B53F8203043B143
:102D400000205B680130002BFBD162B67047002089
:102D500070471846F9E700BF7094FF1FF0B472B6D1
:102D60001A491B4E012311F8014B194F9A002407F1
:102D700042F0010505D556F8324064B156F83520C9
:102D8000BAB10133052BEED162B6124B00221A7094
:102D9000F0BC00F00DBD0F4C0F4D217847F83250BC
:102DA00007EB431308304A1E5860227062B6F0BC2D
:102DB00070470849094B0A7847F8353007EBC503D7
:102DC0000830013A58600A7062B6F0E730740000CB
:102DD0000080FF1F9994FF1F88004000C80040003A
:102DE000431E032B1DD81B4A400140F0100030B495
:102DF000104472B6184CE25C032A1BD8DFE802F0DC
:102E00000212151703220D88E25410F0080F14BFA8
:102E1000C823882343EA054308310360416062B652
:102E200030BC704708300222EDE70522EBE708309E
:102E30000422E8E7094A52F8230038B1084A52F858
:102E40002300416042F8231062B6E9E742F82310FC
:102E5000034AF7E70080FF1FA894FF1F7094FF1F2D
:102E60008094FF1F2DE9F04FDFF800A3DFF800B3D7
:102E700087B044E0A84F4FEA930807EBC809013E2A
:102E8000D9F8042003F00803F6B2A2F1080003F019
:102E9000FF04002B40F0FC8057F838301B0C99B22F
:102EA00022F8081C002B00F0EA809C4B22F8064C0C
:102EB00042F8044C53F82620002A00F02982984D4D
:102EC00055F826305860974C45F8260034F81630EF
:102ED000194424F8161000F04BFC002800F0118271
:102EE000914A924B19F0080F00F1080018BF1346E1
:102EF000C9F8040047F8383008238AF800309AF8F7
:102F00000040E4B260071AD5894B1B78A3B1894908
:102F10000A7802F0FF0322B1013BDBB20B7003B968
:102F200000BE85490A7802F0FF032AB1013BDBB2FB
:102F30000B70002B00F0BB8104238AF8003004F0F2
:102F4000080303F0FF02002B00F0C6809BF800305E
:102F5000DBB21E098ED19C086F4F57F8342007EB67
:102F6000C401C2F38302013A49680C2A00F283804B
:102F7000DFE802F0777781818181818140818181E1
:102F8000070008686D4B6E4D0193674B4A686D4EA4
:102F900047F8343081B240F28164684B6A6028603F
:102FA00000220120A1421A603A61BA61307000F239
:102FB000E180B1F5D06F80F02582B1F5817F00F01E
:102FC000DE8100F2C181802900F03482822940F044
:102FD000DC81A9885C4B042900F2D8815B4C890014
:102FE0000B44227062701A78930740F1228320709C
:102FF000022023E2514B01931A683AB3544B514ECD
:103000005449188834780D784028864645F00208DF
:1030100028BF4FF0400E002C84F001043470CEEB3A
:1030200000000CBF8824C82407EBC80680B285F0D6
:10303000010544EA0E447260188047F83840724433
:103040000D70002800F0B780019B1A603C4B1A8875
:10305000B2F5A06F0FD100219A7859703E4B1A70CB
:1030600009E0374A108842F22102904200F0A8801D
:103070002D4A47F83420394A012313703CE72A4A85
:103080002A4B19F0080F18BF134647F8383033E7BA
:1030900000F08EFB324A334952F82630002B00F004
:1030A0003B8158688C5D42F8260003F10802C9F89C
:1030B0000420032C05D8DFE804F02C022926022284
:1030C0008A551A8819F0080F0CBF8823C82343EAD1
:1030D000024347F838300FE7E00700F1EB802106A4
:1030E00000F12881A20706D51F4A20491378022043
:1030F000DBB213700870E30602D51C4B10221A7065
:1031000007B0BDE8F08F04228A55DAE705228A5518
:10311000D7E703228A55D4E70080FF1F1C94FF1FC6
:10312000C893FF1FC896FF1FC800400088004000DA
:10313000A494FF1F2D94FF1FAC94FF1FC493FF1F87
:103140009094FF1F2C94FF1FC02007409C94FF1FEA
:10315000D893FF1F9894FF1F9820074094200740A2
:103160007094FF1FA894FF1F88200740802007400D
:103170009020074042F22104A14200F0948043D8FD
:10318000B1F5086F00F0A881B1F5106F40F0FD8037
:10319000B84AB94CA978117004F1800503E00834ED
:1031A000AC4200F09E81236A1906F8D5606A08389F
:1031B00000F0FEFAF3E7BEF1400F18BF002243E72C
:1031C000AE4ACD1D11F8013B02F8013FA942F9D1E9
:1031D000AB4A1268862A00F01181AA49AA4E0A78E1
:1031E000307882F00105002842F002020D700CBF19
:1031F0008821C82147F8321007EBC20280F0010095
:1032000000213070516033E742F22124A14240F0A6
:10321000FE81DFF8BCC29D4B9D49AC78DCF80050C4
:103220001D6081460C700020029080468446044652
:1032300094490D7845F0020E07EBCE03B9F1000F6B
:103240005C600CBF8824C82444EA080385F00104AC
:1032500047F83E3032700C70DFF81CE28A4BDFF822
:103260002482002840F09880BCF1400F1BD144F02C
:10327000020407EBC403029FDFF8FCE15F60002A51
:1032800040F09F80020442F0880207444EF8342048
:1032900086F800900D703B46402804D100207D4AFE
:1032A000019910800B607C4A01231370E3E600F063
:1032B000C7FB41E6704B784872491A614FF0020E25
:1032C00080F800E0754F0A70754919609960754E75
:1032D000754D764C9A610D213970FF213170DFF800
:1032E000F4E129702270724D724A8EF800109F2707
:1032F000012406F8047C5D600470DA6007B0BDE864
:10330000F08F6D4A47F83800137801331370F3E5F6
:1033100043F82600694DD6E58B5D032B67D801A2E3
:1033200052F823F0F92E0000F92E00007933000046
:103330007333000059495C4B80220D2008701A70CD
:10334000A2077FF5D8AECFE640F20232914240F0BC
:103350005681A98801F07F01042916D86A88A2B98C
:103360004E4C89000C448146217841F002012170C5
:1033700059E701238B55BFE500238B55BCE5A98890
:1033800001F07F01042940F24781444B0F221A705B
:10339000414A012313706EE640287FF668AF44F07F
:1033A00002040EEBC401029E4E60AAB1444A83F8A7
:1033B00000903346403888F8005040334EF83420AF
:1033C0006DE70204029B86F8009042F0C8020D707F
:1033D00003444EF834205FE783F80090029B304AA4
:1033E00088F80050403840334EF8342057E719F041
:1033F000080F0CBF022303238B557DE5314A0F21B3
:103400001170EAE6304A5468002CBED06888B5F8DE
:1034100004E003E00C325468002CB6D013888342D9
:10342000F8D153887345F5D1000A03280CBF2078E2
:10343000108903E0254C022022706270EA888242E3
:1034400080F00C810F490D78402A45F0020E944619
:1034500007EBCE0028BF4FF0400C04EB0C03446098
:103460000293CCEB02004FEA0C484FF00109002216
:10347000C824E9E6A494FF1F0080FF1FCF96FF1F1A
:10348000D096FF1F9894FF1F2C94FF1FD896FF1F04
:10349000BC94FF1FD893FF1F94200740C020074013
:1034A000880040008820074080200740982007407F
:1034B000DC93FF1F3094FF1F9994FF1FC893FF1FD9
:1034C000C80040002D94FF1F347400009C94FF1F1F
:1034D000C093FF1F8C200740684A694C1278227005
:1034E000ACE76849684B694A02916949694C6A4D81
:1034F000039405964FF0000988461C46164604952D
:10350000206828B1456800F053F92846002DF9D10C
:1035100000232360049B30681A46002342F82930B8
:1035200028B1456800F044F92846002DF9D1002261
:103530003260029A98F800301146002241F8042BBC
:10354000039A0291023B4FF0000122F81910032B5D
:1035500007D8DFE803F0340234024FF0010388F8A3
:10356000003009F10109B9F1040F04F1040406F176
:10357000040608F10108C3D1484B059EDFF83091DD
:10358000DFF8308100211970012518F8013B09F896
:10359000043B1A0718D4AC0044F0020244F00304C0
:1035A000002347F8323047F834303D4B994505F158
:1035B0000105EAD196F8009089F0010233E64FF058
:1035C000000388F80030CCE700F0D2F8AC0007EB3D
:1035D000451300F10802002837D05A60314B47F8F4
:1035E000343000F0C5F844F0010307EBC30200F1EA
:1035F000080100B351602C4A47F83320CCE7B1F5FD
:10360000A06F7FF4C2AE00224FF001090BE642F238
:1036100021329142F7D0B8E66A88002A7FF4B5AE2D
:10362000224C89000C448146217821F0020121704E
:10363000F9E5022002E7194B44F001021B7847F834
:103640003200164A01331370A6E7144B134A1B7855
:10365000AC00013347F834001370C2E740288446B9
:1036600028BF4FF0400C04EB0C03CCEB00004FEAFA
:103670000C48029300224FF00109D9E5A494FF1FE2
:103680009C94FF1F8094FF1F1C94FF1F7094FF1FCA
:10369000A894FF1FC896FF1FC893FF1F9994FF1F90
:1036A000D420074088004000C8004000C0200740E8
:1036B000C4200740307400002DE9F843204C01F08D
:1036C00085FD002204F1880023461A605A60083301
:1036D00083424FF00001F8D11A4A1B4F13681B4D6B
:1036E0001B481C4EDFF87880DFF878C0DFF8789050
:1036F000DFF878E043F480231360C4F307233B70C2
:10370000C4F307432B70240EFF2302F52832047004
:10371000114D88F8003011488CF80030D4323370E5
:10372000012389F8003070268EF800104FF40074E1
:10373000102107F8183C2E7004601170BDE8F88362
:103740000080FF1F348004409C200740B0200740C9
:10375000B42007401020074049E400E008E100E001
:103760008020074088200740942007400021074020
:1037700072B60D480268B2FA82F30B2B10DC4FF0E0
:103780000041D94022EA0102026062B6074803EB19
:10379000C303DB00C2180021C150104651607047BE
:1037A00062B60020704700BF2487FF1FBC83FF1F45
:1037B0000D4B0E4AC31AA2FB03231B090B2B0CD87B
:1037C0000B4A127852B972B60A484FF000410268AB
:1037D00021FA03F31A43026062B67047064A127870
:1037E000002AF0D0FFF7BABABC83FF1F398EE33846
:1037F0009994FF1F2487FF1FA494FF1F38B50F4D16
:10380000286878B143880288C118013393420C7A42
:1038100002D24380204638BDFFF7CAFF002320466E
:103820002B6038BD064B1B782BB10320FFF762FAE3
:1038300028600028E6D14FF0FF3038BDB894FF1F54
:10384000A494FF1F10B5094C206818B14388184490
:10385000007A10BD064B1B782BB10320FFF74AFA04
:1038600020600028F2D14FF0FF3010BDB894FF1F48
:10387000A494FF1F044B054A1B6890881BB11A884B
:103880005B88D31A18447047B894FF1FC896FF1F6F
:103890000B4B1B789BB110B50A4C206848B1FFF761
:1038A00087FF002303202360FFF724FA30B1FFF7DE
:1038B0007FFF0320FFF71EFA0028F8D110BD7047E4
:1038C000A494FF1FB894FF1F2DE9F04FDFF8F89084
:1038D00083B0012289F80020019169B3DFF8EC8000
:1038E000364F019E8346D8F80000B0B3344D44886B
:1038F000C4F14001B14228BF314604EB010E002261
:103900001FFA8EFE2A70761AA0F802E000F1080273
:1039100051B1013C224459441BF8014B02F8014FBC
:103920008B45F9D1B0F802E0BEF13F0F0BD8254A24
:1039300005211170002ED6D10198002389F800309E
:1039400003B0BDE8F08F4022028001460420FFF75B
:1039500047FA0022C8F80020E9E73A782AB3184D60
:103960004AF2F9244FF0010A07E0013C16D02A7808
:10397000A2B900F07FF93A78BAB10420FFF7D8F97C
:103980000728F2D889F800A0FFF7F2FEC8F8000077
:103990000028ACD10C4B013C1870E8D101234FF04A
:1039A000FF302B7003B0BDE8F08F00234FF0FF30E5
:1039B00089F8003003B0BDE8F08F00BFA494FF1F6A
:1039C000B494FF1FAC94FF1FAD94FF1FB094FF1F72
:1039D00000B583B002AB012103F8010D1846FFF7D3
:1039E00073FF03B05DF804FBF8B5114B1B788BB186
:1039F000104E114D346801272F7064B10F4A63884F
:103A000000271770214623800420FFF7E9F937606B
:103A100000232B70F8BDFFF7ABFE084B28B1014621
:103A200004201C70FFF7DCF9F2E71F70F0E700BF1D
:103A3000A494FF1FB094FF1FAD94FF1FAC94FF1F11
:103A400038B50E4B1B7873B90D4C216861B103F08A
:103A5000FF054B880B800420FFF7C2F9256038BDB5
:103A6000084B01221A7038BDFFF782FE0028F7D0FC
:103A70000146BDE838400420FFF7B2B9AD94FF1FFE
:103A8000B094FF1FAC94FF1F0368C9B21B681847AE
:103A90000368C9B21B6818470368C9B21B68184796
:103AA0000368C9B21B68184708B5084600F0BAFB9E
:103AB000012008BD08B5084600F0B4FB012008BD90
:103AC00038B508460D4603F0FBF804460146284683
:103AD00000F0B2FB204638BD10B50846144611462A
:103AE00000F0AAFB204610BD00F016BC00F082BC1E
:103AF00008B5084600F06EFB003018BF012008BD75
:103B000008B5084600F044FB003018BF012008BD8E
:103B10000846114600F0D8BA084600F00FBB00BFB7
:103B2000084600F0B5BA00BF00F054BA4B0803F1E4
:103B3000376000F5D830B0FBF1F000F0B1B900BF4C
:103B400010B54B0803F13760144600F5D830B0FBD0
:103B5000F1F000F0A5F92046BDE8104000F00EBAE3
:103B600000F0CEBB00F02EBC00F0F8BB00F0E6BBCE
:103B7000704700BF044B054A1A604FF47A71002267
:103B800099601A711A737047C094FF1FB0730000D8
:103B900008B5FCF76BFCFCF7AFFC00F06BF8FAE73C
:103BA00002F032BC00B5064A036812885B6883B035
:103BB00001A9ADF804200222984703B05DF804FB88
:103BC00008740000F0B507468BB0002A33D0012AF4
:103BD00008BF0A2251B3212400E0F4B2B1FBF2F590
:103BE00002FB1511C8B2092900F1300198BFC8B213
:103BF0000AA988BF3730214488BFC0B201F8240C1D
:103C0000661E2946002DE8D133B1013CE4B20AAB6F
:103C100023442D2203F8242C3B6801AA11195B6868
:103C20003846C4F1220298470BB0F0BD30228DF81F
:103C300025202124E8E70368C9B21B6898470BB028
:103C4000F0BD00BFFFF724BEFFF7CEBE0846114609
:103C5000FFF73ABE704700BF044B054A1A604FF4A5
:103C60007A71002299601A711A737047D094FF1FFD
:103C70001474000010B5154C237803B110BD012356
:103C80002370FFF7F7FD58B900F058FB70B900F04A
:103C9000F7FE88B901F0C0F9A0B90023237010BD68
:103CA000FFF7D8FF00F04AFB0028F0D0FFF760FFD5
:103CB00000F0E6FE0028EDD001F06EFB01F0ACF95B
:103CC0000028EAD001F01CFCE7E700BFE094FF1FEA
:103CD00030B42948294A2A4B2A4D6024E121047036
:103CE00011701B78284C082B30D00A2B2748284904
:103CF00037D00C2B0CBF35223D2212232A602360C3
:103D000002600B60234B24491B78244ABBB101237A
:103D10000B601360224B23491B78234A012B26D9C1
:103D2000042B0FD9082B1ED9102B94BF8623872371
:103D30000B6013601D4B01221A7030BC70470B6082
:103D40001360E7E784230B601360F3E700F58E2030
:103D50000F490830012213232A60236002600B60A0
:103D6000D0E73922F7E785230B601360E2E7802371
:103D70000B601360DEE700BF0040074001400740D2
:103D80002887FF1F08B003400CB0034008B00B4069
:103D90000CB00B40E294FF1F20B0034020B00B405A
:103DA0002987FF1F24B0034024B00B40E194FF1F7C
:103DB000F0B44D1E2E46002400E00134B0FBF2F3B7
:103DC00002FB1300092800F130078ABF3730F8B230
:103DD000C0B206F8010F1846002BEED10A19537035
:103DE0004CB1107815F8016F28700133E01A834246
:103DF00002F80169F5DB0846F0BC70472DE9F84F81
:103E0000214B1B6807460BB101221A70DFF888901E
:103E10001E4D99F80040DFF884801D4E01343F2C80
:103E20008ABF4FF0000A5FFA84FA5446AB462B78FB
:103E3000A34216D1FEF706FE40281FDC33791B068D
:103E4000F5D59BF8003001333F2B86BF0022134687
:103E5000DAB218F80330DBB2F3712A702B78A34280
:103E6000E8D00C490A4BFFB208F804700120BC22CC
:103E7000087089F800A0DA70BDE8F88FFF28D6DD59
:103E8000FFF7F8FED3E700BF7495FF1F7195FF1F82
:103E900000A006407095FF1F7895FF1FEC94FF1F50
:103EA000274A28491368F0B543F4806313600A7801
:103EB000254F264E264D274C274900233B70337053
:103EC0002B7023700B70002A35D0152A26D0234B77
:103ED0001B78012B2AD0052B03D1214B4FF45172B3
:103EE0001A60204B204C2149C0F34436C0F34715DB
:103EF0001E7000F01F005D7004224FF0020E882734
:103F00003C26402598729A704FF4005083F813E0D5
:103F10005A751F74DE7025700860F0BD144B40F2B6
:103F200013321A600D4B1B78012BD4D1114B4FF477
:103F300051721A60D5E7104B40F213321A60C6E78F
:103F4000348004402C95FF1FE894FF1FE994FF1F65
:103F50007895FF1F7195FF1F7095FF1F2A87FF1F20
:103F60001CC0044000A006402DE400E004E100E095
:103F700018C0044044A0044040A00440144B14491D
:103F80009B7803F0EC0200F003031343420700F0B8
:103F90000F0248BF43F01003042A8B7013D00C4B60
:103FA0000B4A5B79C10603F0EF0348BF43F01003EF
:103FB00053719379820603F0EF03054A48BF43F03B
:103FC0001003937170478B7943F040038B71E6E7E0
:103FD00000A00640214B1B685B053ED510B5204C68
:103FE000237823B1FFF746FE2378002BFAD11D4832
:103FF0001D4A1E4B4FF4005400210460D1701B7801
:10400000E3B1152B03D11A4B40F203121A60194B7E
:104010001B7803F07F03012B1AD0052B03D1164B1D
:1040200040F203121A60154B154816491A6800230E
:1040300003700B700AB10123137010BD124B40F2D4
:1040400003121A600B4B1B7803F07F03012BE4D1A2
:104050000E4B40F203121A60E5E7704734800440CB
:104060007095FF1F84E100E000A006402C95FF1F23
:1040700018C004402A87FF1F1CC00440E494FF1F9F
:10408000E894FF1FE994FF1F40A0044044A00440AF
:104090000A4A38B50546137803F0FF04002BFAD11D
:1040A00001212846FEF762FD21462846FEF758FD0D
:1040B000034A044B52F835201A6038BD7095FF1F33
:1040C000987200007495FF1F09B140F08000174AF4
:1040D0001378984216D010B4154C246864050FD597
:1040E00003F07F03012B1CD0052B11D0002900F019
:1040F0007F0114BF6023442301290DD0052902D07C
:10410000107010BC70470B4943F440730B60F7E725
:10411000084B00241C60E9E7074943F440730B6037
:10412000EEE7054B00241C60E0E700BF2A87FF1F75
:10413000348004401CC0044044A00440104B1A7852
:1041400082420AD00F490968490505D5AAB1152A46
:1041500009D068B1152801D0187070470A4A40F29A
:1041600013311160F8E7084A002111600028F1D1ED
:10417000064A40F213311160EEE704490A60E8E7AD
:104180002C95FF1F3480044018C0044040A0044018
:104190000D4B1B6813F4806305D0212805D90B4B08
:1041A00000201860704718467047094B10B5074C3F
:1041B00053F8303023600121FEF7D8FC2368002239
:1041C0001A70012010BD00BF34800440E494FF1F2A
:1041D000987200000F4B1B6813F4806308D01228FC
:1041E00008D0142811D00C4A537B03F0FE035373FC
:1041F00000207047094B40F202321A60064A537B96
:1042000043F00103537301207047054B40F2023223
:104210001A60F3E73480044000A006400CA004407C
:1042200014C00440034B1B685B0501D5FFF7E6BDD6
:10423000704700BF348004402DE9F84F294B1B68BC
:104240005A0548D5284B1B6805460BB101221A7048
:1042500005EB010A554540D2DFF89C80234CDFF87E
:104260009C90234F0AE015F8012B09F80B20214AF6
:104270000123AA45137088F800602ED098F800300A
:10428000227803F1010BBBF13F0F86BF0026B34636
:104290005FFA8BF69345E6D1BC22FA7005E03A79D5
:1042A00013060BD422789345DDD1FEF7CBFB4028D3
:1042B000F5DDFF28F6DDFFF7DDFCF3E722780132BC
:1042C0003F2A86BF00210A46D1B219F80220D2B295
:1042D000FA712170E6E7BDE8F88F054BBC22DA7071
:1042E000BDE8F88F348004407495FF1F7195FF1F5F
:1042F00000A006407095FF1F7895FF1FEC94FF1FEC
:1043000010B5044C237823B1FFF7B4FC2378002BBD
:10431000FAD110BD7095FF1F064A074B1B78107825
:10432000DBB2C0B283422CBF3F3000F1FF30C01A75
:10433000704700BF7195FF1F7895FF1F054A064B18
:1043400010781B78C0B2DBB2984238BF4030C01A38
:10435000704700BFE894FF1FE994FF1F30B4154B6E
:10436000154C1A782378D2B2DBB29A421ED00133B0
:104370003F2B0ED91149124B087819680023C0B29F
:10438000237021B1D31A1A2B01DC00230B7030BC2F
:1043900070470A480A49C05C0968DDB2C0B225709E
:1043A0000029F4D09A4238BF4032EBE74FF0FF309B
:1043B000EDE700BFE894FF1FE994FF1F3095FF1F52
:1043C000E494FF1F084A094B12781B78DBB29A422B
:1043D00007D00133402B28BF0023054AD05CC0B270
:1043E00070474FF0FF307047E894FF1FE994FF1FBC
:1043F0003095FF1F0D4B1B685B0516D530B40C4B79
:104400000C4CDA780C480D4902F0CB024025DA70EA
:104410005D74DA7842F03402DA7023780268DBB235
:104420000B700AB10023137030BC70473480044015
:1044300000A00640E994FF1FE494FF1FE894FF1FCB
:10444000F0B4384B1A7912F0300F2CD072B6997D37
:1044500001F0FF0200293DD062B6334F334938786E
:104460000D78334E1C46C0B2EDB2431C402BE179AF
:1044700028BF0023AB4202F1FF32C9B21CBFF15486
:10448000184612F0FF02F0D12A4B1B68C2B23A70F4
:104490004BB1A84236BFC5F14005401B4019272843
:1044A000C4BF01221A701F49CA78D2B2150616D4A9
:1044B00052060DD51B4B1B795B0609D51E4B1F49B8
:1044C0001B6800220A7003B11A70164B3C22DA7086
:1044D000F0BC70474022D9795A7462B6E3E70B7991
:1044E0001C06E5D5164B174E1C783378E4B2DBB2C8
:1044F0009C420ED0144D01E0A3420AD00133402B60
:1045000028BF00230879E85CC0B2C871087D07287D
:10451000F2D9DBB2034933700B79180644BF7C2310
:10452000CB70C5E700A00640E894FF1FE994FF1F89
:104530003095FF1FE494FF1F7495FF1F7095FF1FB8
:104540007895FF1F7195FF1FEC94FF1F274A28499C
:104550001368F0B543F4006313600A78254F264EC4
:10456000264D274C27490023092A3B7033702B70B6
:1045700023700B7035D01A2A26D0234B1B780A2BB8
:104580002AD01F2B03D1214B4FF451721A60204BBC
:10459000204C2149C0F34436C0F347151E7000F08B
:1045A0001F005D7004224FF0020E88273C26402534
:1045B00098729A704FF4004083F813E05A751F7494
:1045C000DE7025700860F0BD144B40F213321A60A3
:1045D0000D4B1B780A2BD4D1114B4FF451721A603A
:1045E000D5E7104B40F213321A60C6E7348004401E
:1045F0002B87FF1FEC95FF1F8195FF1FF495FF1F71
:10460000ED95FF1F8095FF1F2C87FF1F00D00440F2
:1046100000B006402FE400E004E100E004D00440D4
:1046200010B004400CB00440144B14499B7803F0C4
:10463000EC0200F003031343420700F00F0248BFEF
:1046400043F01003042A8B7013D00C4B0B4A5B7998
:10465000C10603F0EF0348BF43F010035371937991
:10466000820603F0EF03054A48BF43F0100393713D
:1046700070478B7943F040038B71E6E700B006404A
:10468000224B1B681B053FD510B5214C237823B165
:10469000FFF7F0FA2378002BFAD11E481E4A1F4B71
:1046A0004FF4004400210460D1701B78092B1CD00A
:1046B0001A2B03D11A4B40F203121A60194B1B78C4
:1046C00003F07F030A2B1AD01F2B03D1164B40F2A5
:1046D00003121A60154B164816491A680023037016
:1046E0000B700AB10123137010BD134B40F203127B
:1046F0001A600C4B1B7803F07F030A2BE4D10F4B9D
:1047000040F203121A60E5E7704700BF34800440AE
:104710008095FF1F84E100E000B006402B87FF1F5B
:1047200004D004402C87FF1F00D004407C95FF1F5D
:10473000EC95FF1F8195FF1F0CB0044010B00440A2
:104740000A4A38B50546137803F0FF04002BFAD166
:1047500001212846FEF70AFA21462846FEF700FA0C
:10476000034A044B52F835201A6038BD8095FF1F6C
:1047700098720000F095FF1F09B140F08000174AC1
:104780001378984216D010B4154C246824050FD520
:1047900003F07F030A2B1CD01F2B11D0002900F03F
:1047A0007F0114BF602344230A290DD01F2902D0A2
:1047B000107010BC70470B4943F440730B60F7E76F
:1047C000084B00241C60E9E7074943F440730B6081
:1047D000EEE7054B00241C60E0E700BF2C87FF1FBD
:1047E0003480044000D0044010B00440124B1A78CA
:1047F00082420CD011490968090507D5092A16D04B
:104800001A2A0AD009280DD01A2801D0187070472A
:104810000B4A40F213311160F8E7094A00210928D8
:104820001160F1D1074A40F213311160EEE7054AF9
:1048300000211160E6E700BF2B87FF1F3480044092
:1048400004D004400CB004400D4B1B6813F400630B
:1048500005D0212805D90B4B002018607047184659
:104860007047094B10B5074C53F8303023600121D5
:10487000FEF77CF9236800221A70012010BD00BFEA
:10488000348004407C95FF1F987200000C4B1B681D
:1048900013F4006306D0172806D00A4A537B03F0AE
:1048A000FE03537300207047074B064A40F2023163
:1048B0001960537B43F0010353730120704700BF1D
:1048C0003480044000B0064008B004402DE9F84FA1
:1048D000234B1B681A053BD5224B1B680BB10122E9
:1048E0001A70DFF89090204D99F80040DFF888802A
:1048F0001E4E0134272C8ABF4FF0000A5FFA84FA5B
:1049000054460746AB462B789C4216D1FEF79AF8E0
:1049100040281FDC33791B06F5D59BF800300133A6
:10492000272B86BF00221346DAB218F80330DBB219
:10493000F3712A702B789C42E8D00D490B4BFFB2E3
:104940000120BC2208F80470087089F800A0DA7011
:10495000BDE8F88FFF28D6DDFFF78CF9D3E700BF5D
:1049600034800440F095FF1FED95FF1F00B0064016
:104970008095FF1FF495FF1F8495FF1F2DE9F84FC9
:10498000294B1B681A0548D5284B1B6805460BB1F7
:1049900001221A7005EB010A554540D2DFF89C80D0
:1049A000234CDFF89C90234F0AE015F8012B09F8FF
:1049B0000B20214A0123AA45137088F800602ED0ED
:1049C00098F80030227803F1010BBBF1270F86BF66
:1049D0000026B3465FFA8BF69345E6D1BC22FA7007
:1049E00005E03A7913060BD422789345DDD1FEF722
:1049F00029F84028F5DDFF28F6DDFFF73BF9F3E75E
:104A000022780132272A86BF00210A46D1B219F83E
:104A10000220D2B2FA712170E6E7BDE8F88F054BAB
:104A2000BC22DA70BDE8F88F34800440F095FF1F97
:104A3000ED95FF1F00B006408095FF1FF495FF1F06
:104A40008495FF1F10B5044C237823B1FFF712F9AA
:104A50002378002BFAD110BD8095FF1F064A074B23
:104A60001B781078DBB2C0B283422CBF273000F134
:104A7000FF30C01A704700BFED95FF1FF495FF1F70
:104A8000054A064B10781B78C0B2DBB2984238BF9B
:104A90004030C01A704700BFEC95FF1F8195FF1F83
:104AA00030B4154B154C1A782378D2B2DBB29A4247
:104AB0001ED001333F2B0ED91149124B08781968CB
:104AC0000023C0B2237021B1D31A1A2B01DC0023BA
:104AD0000B7030BC70470A480A49C05C0968DDB2F7
:104AE000C0B225700029F4D09A4238BF4032EBE7BB
:104AF0004FF0FF30EDE700BFEC95FF1F8195FF1FE2
:104B0000AC95FF1F7C95FF1F084A094B12781B7854
:104B1000DBB29A4207D00133402B28BF0023054A5D
:104B2000D05CC0B270474FF0FF307047EC95FF1F6C
:104B30008195FF1FAC95FF1F0D4B1B681B0516D5FC
:104B400030B40C4B0C4CDA780C480D4902F0CB0217
:104B50004025DA705D74DA7842F03402DA70237836
:104B60000268DBB20B700AB10023137030BC7047CF
:104B70003480044000B006408195FF1F7C95FF1FE4
:104B8000EC95FF1FF0B4384B1A7912F0300F2CD08F
:104B900072B6997D01F0FF0200293DD062B6334F15
:104BA000334938780D78334E1C46C0B2EDB2431C01
:104BB000402BE17928BF0023AB4202F1FF32C9B29A
:104BC0001CBFF154184612F0FF02F0D12A4B1B68AB
:104BD000C2B23A704BB1A84236BFC5F14005401B86
:104BE00040192728C4BF01221A701F49CA78D2B2BF
:104BF000150616D452060DD51B4B1B795B0609D53D
:104C00001E4B1F491B6800220A7003B11A70164B15
:104C10003C22DA70F0BC70474022D9795A7462B6EF
:104C2000E3E70B791C06E5D5164B174E1C78337855
:104C3000E4B2DBB29C420ED0144D01E0A3420AD094
:104C40000133282B28BF00230879E85CC0B2C87163
:104C5000087D0728F2D9DBB2034933700B791806B7
:104C600044BF7C23CB70C5E700B00640EC95FF1F26
:104C70008195FF1FAC95FF1F7C95FF1FF095FF1FCF
:104C80008095FF1FF495FF1FED95FF1F8495FF1F73
:104C90002DE9F84F214B1B6807460BB101221A7012
:104CA000DFF888901E4D99F80040DFF884801D4E93
:104CB0000134272C8ABF4FF0000A5FFA84FA544669
:104CC000AB462B78A34216D1FDF7BCFE40281FDC73
:104CD00033791B06F5D59BF800300133272B86BFAF
:104CE00000221346DAB218F80330DBB2F3712A70EF
:104CF0002B78A342E8D00C490A4BFFB208F80470A5
:104D00000120AC22087089F800A0DA70BDE8F88FA5
:104D1000FF28D6DDFEF7AEFFD3E700BF6C96FF1F7E
:104D20006996FF1F00C006406896FF1F7096FF1F20
:104D30000096FF1F184A19491368F0B543F48053D1
:104D4000174C184D184FDFF878E01360174E184ACB
:104D5000002323708EF80030164C2B700B703B70C4
:104D600040F213373760144D1449C0F344364FF402
:104D7000517727601670C0F347142C2700F01F00EE
:104D80004026547090724FF4003493701374D770AF
:104D90002E700C60F0BD00BF348004406996FF1F88
:104DA000FC95FF1F7096FF1F6896FF1F08C0044008
:104DB00000C006400CC0044031E400E004E100E023
:104DC000FD95FF1F144B14499B7803F0EC0200F093
:104DD00003031343420700F00F0248BF43F01003E0
:104DE000042A8B7013D00C4B0B4A5B79C10603F07D
:104DF000EF0348BF43F0100353719379820603F029
:104E0000EF03054A48BF43F01003937170478B7955
:104E100043F040038B71E6E700C00640F8B5124B43
:104E20001B68DB041DD5114C237823B1FEF722FF4C
:104E30002378002BFAD10E4B0E4F0F4E0F4D104C16
:104E4000104811494FF400321A600023FB7040F201
:104E5000031232602A60226803700B7012B10123C2
:104E60001370F8BDF8BD00BF348004406896FF1F82
:104E700084E100E000C0064008C004400CC00440CB
:104E8000F895FF1FFC95FF1FFD95FF1F0A4A38B5D7
:104E90000546137803F0FF04002BFAD101212846C0
:104EA000FDF764FE21462846FDF75AFE034A044BEF
:104EB00052F835201A6038BD6896FF1F98720000BE
:104EC0006C96FF1F09B140F080000F4A137898429A
:104ED00019D010B40D4C2468E40412D503F07F03FC
:104EE000082B02D10A4B00241C60002900F07F032C
:104EF00014BF60214421082B03D1054B41F44071BC
:104F00001960107010BC70472D87FF1F348004405B
:104F10000CC00440704700BF0D4B1B6813F4805356
:104F200005D0212805D90B4B002018607047184682
:104F30007047094B10B5074C53F8303023600121FE
:104F4000FDF714FE236800221A70012010BD00BF77
:104F500034800440F895FF1F987200000C4B1B68CA
:104F600013F4805306D00E2806D00A4A537B03F070
:104F7000FE03537300207047074B064A40F202318C
:104F80001960537B43F0010353730120704700BF46
:104F90003480044000C0064004C00440034B1B683A
:104FA000DB0401D5FFF774BE704700BF34800440B6
:104FB00070B5094E04464518AC4204F101040AD00C
:104FC0003368DB04F8D514F8010CFFF761FEAC423E
:104FD00004F10104F4D170BD3480044010B5044CD8
:104FE000237823B1FEF746FE2378002BFAD110BDBB
:104FF0006896FF1F064A074B1B781078DBB2C0B2D9
:1050000083422CBF273000F1FF30C01A704700BF29
:105010006996FF1F7096FF1F054A064B10781B7894
:10502000C0B2DBB2984238BF4030C01A704700BFF0
:10503000FC95FF1FFD95FF1F30B4154B154C1A78DA
:105040002378D2B2DBB29A421ED001333F2B0ED965
:105050001149124B087819680023C0B2237021B19E
:10506000D31A1A2B01DC00230B7030BC70470A489E
:105070000A49C05C0968DDB2C0B225700029F4D0CD
:105080009A4238BF4032EBE74FF0FF30EDE700BF08
:10509000FC95FF1FFD95FF1F2896FF1FF895FF1F2A
:1050A000084A094B12781B78DBB29A4207D00133C9
:1050B000402B28BF0023054AD05CC0B270474FF098
:1050C000FF307047FC95FF1FFD95FF1F2896FF1FBF
:1050D000054B064A1B7806491268DBB20B700AB111
:1050E00000231370704700BFFD95FF1FF895FF1F49
:1050F000FC95FF1F30B42B4B1A7994061FD52A4814
:10510000DA790378294901333F2B0978C8BF002396
:105110008B42D2B203D0264CD9B2E2540170254A58
:10512000116861B1244A1278D2B2934236BFC2F1FB
:1051300040029B1A9B18272BC4BF01230B70194AEE
:10514000D378DBB2180611D45A060DD5154B1B794E
:105150005B0609D5194B1A491B6800220A7003B176
:105160001A70104B2C22DA7030BC70471179090686
:10517000EAD5144910480C780178C9B28C420DD098
:105180004A1C272A84BF00210A460F4D054C98BFB0
:10519000D1B2AA5CD2B2E2710170D5E76C21D170B4
:1051A000D2E700BF00C00640FC95FF1FFD95FF1F22
:1051B0002896FF1FF895FF1F6996FF1F6C96FF1F2B
:1051C0006896FF1F7096FF1F0096FF1F70B584B092
:1051D00072B6194B194D1A48702241260F248021AE
:1051E0001A702E701A460470197013781B06FCD5BD
:1051F000144B186862B6144B144C984298BF00EBDD
:10520000800001A998BF40000A22FEF7D1FD01A944
:105210002046002311F8012B01333AB10A2B20F864
:10522000022FF7D11623237004B070BD5B00DBB2F0
:10523000237004B070BD00BF0000024007000240B0
:1052400006000240080002407F969800BC87FF1FBE
:1052500008B50846FFF73AFB012008BD08B5084627
:10526000FFF734FB012008BD38B508460D4601F0B4
:1052700027FD044601462846FFF780FB204638BD3F
:1052800010B5084614461146FFF778FB204610BDBE
:10529000FFF7E4BBFFF750BC08B50846FFF7F6FA86
:1052A000003018BF012008BD08B50846FFF7CCFA4A
:1052B000003018BF012008BD08461146FFF75CBA50
:1052C0000846FFF793BA00BF0846FFF739BA00BF98
:1052D000FFF7D6B94B0803F1376000F5D830B0FBC3
:1052E000F1F0FFF733B900BF10B54B0803F1376099
:1052F000144600F5D830B0FBF1F0FFF727F920464F
:10530000BDE81040FFF790B9FFF79CBBFFF7FCBB6F
:10531000FFF7C6BBFFF7B4BB0368064A1B6893429E
:1053200005D110B5C8B2FFF7D1FA012010BDC9B23E
:10533000184700BF5D5200000368064A1B6893428D
:1053400005D110B5C8B2FFF7C1FA012010BDC9B22E
:10535000184700BF5D5200000368064A1B6893426D
:1053600005D110B5C8B2FFF7B1FA012010BDC9B21E
:10537000184700BF5D5200000368064A1B6893424D
:1053800005D110B5C8B2FFF7A1FA012010BDC9B20E
:10539000184700BF5D520000704700BF044B054A2C
:1053A0001A604FF47A71002299601A711A7370476B
:1053B0007496FF1F9074000008B50846FFF7EEFDD5
:1053C000012008BD08B50846FFF7E8FD012008BD2B
:1053D00038B508460D4601F073FC044601462846E0
:1053E000FFF7E6FD204638BD10B5084614461146C5
:1053F000FFF7DEFD204610BDFFF7FCBDFFF768BEDE
:1054000008B50846FFF7AAFD003018BF012008BD07
:1054100008B50846FFF780FD003018BF012008BD21
:1054200008461146FFF74EBD0846FFF773BD00BFA3
:105430000846FFF72BBD00BFFFF7F0BC4B0803F198
:10544000B76000F55840B0FBF1F0FFF773BC00BF48
:1054500010B54B0803F1B760144600F55840B0FB97
:10546000F1F0FFF767FC2046BDE81040FFF7AABC4B
:10547000FFF7B4BDFFF714BEFFF7DEBDFFF7CCBDED
:105480000368064A1B68934205D110B5C8B2FFF7FE
:1054900085FD012010BDC9B2184700BFC5530000EB
:1054A0000368064A1B68934205D110B5C8B2FFF7DE
:1054B00075FD012010BDC9B2184700BFC5530000DB
:1054C0000368064A1B68934205D110B5C8B2FFF7BE
:1054D00065FD012010BDC9B2184700BFC5530000CB
:1054E0000368064A1B68934205D110B5C8B2FFF79E
:1054F00055FD012010BDC9B2184700BFC5530000BB
:10550000704700BF044B054A1A604FF47A710022BD
:1055100099601A711A7370478496FF1FF074000027
:1055200081F0004102E000BF83F0004330B54FEA54
:1055300041044FEA430594EA050F08BF90EA020FC1
:105540001FBF54EA000C55EA020C7FEA645C7FEA54
:10555000655C00F0E2804FEA5454D4EB5555B8BF77
:105560006D420CDD2C4480EA020281EA030382EAE8
:10557000000083EA010180EA020281EA0303362D7A
:1055800088BF30BD11F0004F4FEA01314FF4801C4D
:105590004CEA113102D0404261EB410113F0004F5F
:1055A0004FEA03334CEA133302D0524263EB430316
:1055B00094EA050F00F0A780A4F10104D5F1200EB4
:1055C0000DDB02FA0EFC22FA05F2801841F100010F
:1055D00003FA0EF2801843FA05F359410EE0A5F1E3
:1055E00020050EF1200E012A03FA0EFC28BF4CF014
:1055F000020C43FA05F3C01851EBE37101F00045CA
:1056000007D54FF0000EDCF1000C7EEB00006EEBD6
:105610000101B1F5801F1BD3B1F5001F0CD3490860
:105620005FEA30004FEA3C0C04F101044FEA4452B7
:1056300012F5800F80F09A80BCF1004F08BF5FEA3E
:10564000500C50F1000041EB045141EA050130BD1E
:105650005FEA4C0C404141EB010111F4801FA4F1C1
:105660000104E9D191F0000F04BF01460020B1FA16
:1056700081F308BF2033A3F10B03B3F120020CDA4E
:105680000C3208DD02F1140CC2F10C0201FA0CF02C
:1056900021FA02F10CE002F11402D8BFC2F1200C91
:1056A00001FA02F120FA0CFCDCBF41EA0C01904047
:1056B000E41AA2BF01EB0451294330BD6FEA040490
:1056C0001F3C1CDA0C340EDC04F11404C4F120027B
:1056D00020FA04F001FA02F340EA030021FA04F38D
:1056E00045EA030130BDC4F10C04C4F1200220FAE4
:1056F00002F001FA04F340EA0300294630BD21FA22
:1057000004F0294630BD94F0000F83F4801306BFE7
:1057100081F480110134013D4EE77FEA645C18BFDB
:105720007FEA655C29D094EA050F08BF90EA020F72
:1057300005D054EA000C04BF1946104630BD91EA6A
:10574000030F1EBF0021002030BD5FEA545C05D16D
:105750004000494128BF41F0004130BD14F58004AC
:105760003CBF01F5801130BD01F0004545F0FE4120
:1057700041F470014FF0000030BD7FEA645C1ABF55
:10578000194610467FEA655C1CBF0B46024650EA8C
:10579000013406BF52EA033591EA030F41F40021B8
:1057A00030BD00BF90F0000F04BF0021704730B53E
:1057B0004FF4806404F132044FF000054FF0000113
:1057C00050E700BF90F0000F04BF0021704730B5D4
:1057D0004FF4806404F1320410F0004548BF4042A9
:1057E0004FF000013EE700BF42004FEAE2014FEAFE
:1057F00031014FEA02701FBF12F07F4393F07F4FD9
:1058000081F06051704792F0000F14BF93F07F4F0A
:10581000704730B54FF4607401F0004521F000414D
:1058200020E700BF50EA010208BF704730B54FF0D3
:1058300000050AE050EA010208BF704730B511F0D8
:10584000004502D5404261EB41014FF4806404F110
:1058500032045FEA915C3FF4DCAE4FF003025FEA92
:10586000DC0C18BF03325FEADC0C18BF033202EB1A
:10587000DC02C2F1200300FA03FC20FA02F001FA74
:1058800003FE40EA0E0021FA02F11444C1E600BF13
:1058900070B54FF0FF0C4CF4E06C1CEA11541DBFC6
:1058A0001CEA135594EA0C0F95EA0C0F00F0DEF891
:1058B0002C4481EA030621EA4C5123EA4C5350EA76
:1058C000013518BF52EA033541F4801143F48013C7
:1058D00038D0A0FB02CE4FF00005E1FB02E506F058
:1058E0000042E0FB03E54FF00006E1FB03569CF0AD
:1058F000000F18BF4EF0010EA4F1FF04B6F5007FB3
:1059000064F5407404D25FEA4E0E6D4146EB060624
:1059100042EAC62141EA55514FEAC52040EA5E50AD
:105920004FEACE2EB4F1FD0C88BFBCF5E06F1ED857
:10593000BEF1004F08BF5FEA500E50F1000041EB8E
:10594000045170BD06F0004646EA010140EA02003B
:1059500081EA0301B4EB5C04C2BFD4EB0C0541EA5D
:10596000045170BD41F480114FF0000E013C00F372
:10597000AB8014F1360FDEBF002001F0004170BD96
:10598000C4F10004203C35DA0C341BDC04F11404AF
:10599000C4F1200500FA05F320FA04F001FA05F23B
:1059A00040EA020001F0004221F0004110EBD37008
:1059B00021FA04F642EB06015EEA430E08BF20EA34
:1059C000D37070BDC4F10C04C4F1200500FA04F3D7
:1059D00020FA05F001FA04F240EA020001F0004169
:1059E00010EBD37041F100015EEA430E08BF20EADC
:1059F000D37070BDC4F1200500FA05F24EEA020E24
:105A000020FA04F301FA05F243EA020321FA04F052
:105A100001F0004121FA04F220EA020000EBD37009
:105A20005EEA430E08BF20EAD37070BD94F0000F09
:105A30000FD101F00046400041EB010111F4801F3D
:105A400008BF013CF7D041EA060195F0000F18BFEE
:105A5000704703F00046520043EB030313F4801F2A
:105A600008BF013DF7D043EA0603704794EA0C0FE4
:105A70000CEA135518BF95EA0C0F0CD050EA4106FA
:105A800018BF52EA4306D1D181EA030101F0004177
:105A90004FF0000070BD50EA410606BF104619469F
:105AA00052EA430619D094EA0C0F02D150EA0136AB
:105AB00013D195EA0C0F05D152EA03361CBF1046EC
:105AC00019460AD181EA030101F0004141F0FE418B
:105AD00041F470014FF0000070BD41F0FE4141F40F
