:1000000000800020BD010000BD1B0000751B00002A
:10001000751B0000751B0000751B0000751B0000A0
:10002000751B0000751B0000751B0000BD1B000048
:10003000BD1B0000751B0000BD1B0000651B000000
:10004000BD1B0000BD1B0000BD1B0000BD1B000050
:10005000BD1B0000BD1B0000BD1B0000BD1B000040
:10006000BD1B0000BD1B0000BD1B0000BD1B000030
:10007000BD1B0000BD1B0000BD1B0000BD1B000020
:10008000BD1B0000BD1B0000BD1B0000BD1B000010
:10009000BD1B0000BD1B0000BD1B0000BD1B000000
:1000A000BD1B0000BD1B0000BD1B0000BD1B0000F0
:1000B000BD1B0000BD1B0000BD1B0000BD1B0000E0
:1000C000BD1B0000BD1B0000BD1B0000BD1B0000D0
:1000D000BD1B0000BD1B0000BD1B0000BD1B0000C0
:1000E000BD1B0000BD1B0000BD1B0000BD1B0000B0
:1000F000BD1B0000CD220000BD1B0000112A000026
:10010000BD1B0000812F0000BD1B0000BD1B0000B7
:10011000BD1B0000BD1B0000BD1B0000BD1B00007F
:10012000BD1B0000BD1B0000BD1B0000BD1B00006F
:10013000BD1B0000BD1B0000BD1B0000BD1B00005F
:10014000BD1B0000BD1B0000BD1B0000BD1B00004F
:10015000BD1B0000BD1B0000BD1B0000BD1B00003F
:10016000BD1B00001D0D0000BD1B0000BD1B0000DD
:10017000BD1B0000BD1B0000BD1B0000BD1B00001F
:10018000BD1B0000BD1B0000BD1B0000BD1B00000F
:10019000BD1B0000BD1B0000BD1B0000BD1B0000FF
:1001A000BD1B0000BD1B0000BD1B0000BD1B0000EF
:1001B000BD1B0000BD1B0000BD1B0000564B4CF2D8
:1001C000205210B51A804DF628121A8000BF00BFC9
:1001D00001F0F8FC514B4FF010621A60504A9A60DF
:1001E000504ADA60504A136813F4807304D14F49BF
:1001F0000B604FF4A85313604D4B1A78110703D5C9
:100200001A7842F008021A704A4B4B492A221A7097
:100210004A4A4B4B8B4204D252F8040F43F8040B6A
:10022000F8E7484B484900228B4202D243F8042B9E
:10023000FAE74649464A002352F8230041F82300D2
:1002400001336F2BF8D1434B434A802103F8011B44
:100250009342FBD1414B3D4A1A60414B8A221A70AE
:10026000A3F5805324225A70A0221A709A7992071B
:10027000FCD59A79D406FCD43A4A937903F00C035E
:10028000082B384BF9D103221A7140225A719A79FE
:100290009006FCD5334A9179324B4906FBD5324A58
:1002A000324911600221516020221A709A7902F0BD
:1002B0000C020C2AFAD12E4B2E4A1A602E4B2F4AD2
:1002C0001A6000225A60072243F8042C2C4AC3F813
:1002D0000C2D62B600F0FAFB144B1B68DA0705D54B
:1002E000284800F087FB284B284A1A60284B1B78C7
:1002F0005B0609D5244C254B22689A4204D121483B
:1003000000F078FB0023236003F0DAF801F060FCD2
:1003100001F016FBFEE700BF0E20054030800440D0
:10032000823F04000100002B10D0034014D0034092
:1003300002D0074000E007401490FF1F7042000009
:100340002087FF1F1490FF1FB493FF1F0082FF1F21
:100350000000000000E400E05FE400E008ED00E0E1
:100360000050064000400640448004400000030165
:1003700004800440C010050014E000E0FF76010096
:10038000000020209E38BC021CE00340A5C3945A04
:1003900000F00740FFFFFFFFFFFFFFFFFFFFFFFF32
:1003A000FFFFFFFFFFFFFFFFFFFFFFFFFFFFFFFF5D
:1003B000FFFFFFFFFFFFFFFFFFFFFFFFFFFFFFFF4D
:1003C000FFFFFFFFFFFFFFFFFFFFFFFFFFFFFFFF3D
:1003D000FFFFFFFFFFFFFFFFFFFFFFFFFFFFFFFF2D
:1003E000FFFFFFFFFFFFFFFFFFFFFFFFFFFFFFFF1D
:1003F000FFFFFFFFFFFFFFFFFFFFFFFFFFFFFFFF0D
:10040000FFFFFFFFFFFFFFFFFFFFFFFFDEF9FFFF23
:1004100010B5054C237833B9044B13B10448AFF33E
:1004200000800123237010BD1490FF1F0000000006
:1004300074420000084B10B51BB108490848AFF3DF
:1004400000800848036803B910BD074B002BFBD0A0
:10045000BDE81040184700BF000000001890FF1FC3
:10046000744200001490FF1F0000000070B51D4C86
:1004700040F6B831204600F069F920461A494FF499
:10048000E13200F03DF92046012100F017F958B1A2
:10049000606C1649036811225B6898470A2000F0D7
:1004A000C7FA204600F02AF9012200210D48104C1D
:1004B000104E00F0FBF9104A104910680B783BB160
:1004C00023789B0704D0136835685B1B182B04D86E
:1004D00013681B1AB3F57A7FF0D90948BDE870405C
:1004E00000F028BA4890FF1F9491FF1FF43E0000CF
:1004F0009091FF1FAC93FF1F9490FF1F7891FF1FF7
:100500003490FF1F70B5244C84B023680193019B85
:1005100023B923680293029B012B1ED91F4D204E45
:10052000284600F04FF832681E49904203460860A2
:1005300015D39A1AF92A10D94FF4FA712846336064
:1005400000F04AF80121284600F0B8F850B905201B
:1005500000F06EFA114800F0A7F804B070BD3360E7
:1005600004B070BD2846012100F048F8686C0E49BF
:10057000036801225B689847236803930399686CBA
:1005800000230A2201F0F4F9284600F07DF82846FD
:1005900000F0B4F8DBE700BF9490FF1F4890FF1F06
:1005A0003090FF1F4490FF1F083F0000014800F0FB
:1005B000A9B900BF3490FF1F01F07CB801F09EB8CC
:1005C00001F0B4B8034B82B01B680193019802B0EC
:1005D000704700BF9490FF1F10B4074B82681B68E0
:1005E000016183B000240193019B4461C260836078
:1005F00003B010BC704700BF9490FF1FF0B51E4BB6
:100600001E4D1A680446406C83B0036801920F4681
:100610005B681B49019E062298473946606C00239F
:100620000A2201F0A5F9606C1649036803225B6891
:1006300098473146606C00230A2201F099F9606CFA
:10064000036829465B6801229847A168606C711AAB
:1006500000230A2201F08CF9606C036829465B686C
:1006600001229847E368A168606CC91A0A22002336
:1006700001F07EF903B0F0BD9490FF1F183F000019
:100680000C3F0000143F000010B5446C054923687E
:1006900020465B68062298472046BDE8104001F0DE
:1006A00057B900BF1C3F0000034B82B01B68019389
:1006B000019B836002B070479490FF1F30B50446E1
:1006C00083B00D4D81B92B6800934268009B9B1A43
:1006D000312B09D8032000F0ABF92B680093009B65
:1006E00062689B1A312BF5D92B680193019B6360DB
:1006F000012003B030BD00BF9490FF1F704700BFC2
:100700002DE9F0410D4D0E4EDFF83C800D4F416458
:100710001B2401E000F08CF92B78C82043B133781A
:100720009B0705D0D8F800303A689B1A182B03D8DD
:10073000013CEFD1BDE8F081BDE8F0817891FF1F69
:100740009091FF1FAC93FF1F9490FF1F00238364C1
:10075000436001B97047084600F06AB930B50F4BE5
:1007600083B00446406C1B6801930368019A626081
:100770000D465B680A49062298472946606C0023AB
:100780000A2201F0F5F8606C0649036808225B68EC
:100790009847322000F04CF903B030BD9490FF1F11
:1007A000243F00002C3F0000F8B5037E0BB9632006
:1007B000F8BD0446406C3B4E03689B68B3420D464F
:1007C0006AD100F0B3FF10F0FF0F01D16520F8BD32
:1007D000354F606C03689B68B3425FD100F0A6FFA1
:1007E00010F0FF0FF2D0606C0368DB68BB4257D19A
:1007F00000F060FFC3B2A3F158021E2AE9D801A19C
:1008000051F822F091080000D3070000D307000040
:10081000D3070000D3070000D3070000D307000070
:10082000D3070000D3070000D3070000D307000060
:1008300085080000D3070000D3070000D30700009D
:10084000D3070000AF070000D3070000D307000064
:10085000D3070000D3070000D3070000D307000030
:10086000D3070000D3070000AF070000D307000044
:10087000D3070000D3070000D30700008108000061
:100880001846F8BD20462946FFF768FF6320F8BDEB
:10089000002323766320F8BD984794E798479FE7A5
:1008A0009847A7E7C1050000B905000038B5044620
:1008B000154639B10123037600212046FFF774FF66
:1008C0006328F9D1257638BD034B00229A60DA609F
:1008D0001A615A61704700BF4890FF1F059B036073
:1008E000704700BF10B504680549236820465B685F
:1008F0000C2298472046BDE8104001F029B800BFFF
:10090000803F000010B586B0084B094905910022D0
:100910000E210491CDE90223CDE9002300210446F4
:10092000FFF7DCFF204606B010BD00BF00002440EA
:100930009491FF1FFFF7D6BF10B40F4B53F8302030
:1009400092F880422CB1012369B182F8803010BC4A
:10095000704703EBC0035B681A6841B922F00202DA
:100960001A6010BC704782F8003110BC704742F02A
:1009700003021A6010BC7047903F00001C4A02EB53
:10098000C00301295B6811D004291BD052F8300044
:10099000002280F8802229B1022920D0032922D008
:1009A0001A6070474FF480721A60704752F8300036
:1009B0004FF4A27280F880121A601A6822F02002A6
:1009C0001A60704752F830104FF4A272012081F87B
:1009D00080021A601A6842F020021A60704740F2E2
:1009E00003121A6070474FF481721A60704700BF9B
:1009F000903F000030B4054B054D064C00221021FD
:100A00001A602A602060196030BC704714D003401F
:100A100004D0034000D00340212801D8FFF78CBF49
:100A2000704700BF212801D8FFF7A8BF704700BF5B
:100A30002DE9F843054672B6204F214B214A1B6829
:100A40003C68126862B6520102D5322B88BF01346D
:100A500095B3C3F5BB331C4EDFF86490DFF86480B8
:100A6000FF334FF47A72A6FB031302FB04F404EB8A
:100A7000931472B6D9F800103A68D8F800E062B65C
:100A8000C1F5BB33FF33A6FB03031EF0806FC4EB3D
:100A900093134FF47A7002D0322988BF013200FBE1
:100AA0000233B3F57A7F04D3013D05D004F57A749F
:100AB000DFE700F0B9FFDCE7BDE8F8839490FF1FA3
:100AC00018E000E004ED00E0ABAAAAAAF8B52D4BAF
:100AD0002D49DFF8D0E0DFF8D0C02C4E2C4D2D4C46
:100AE0002D4A2E4F4FF4000018604FF080701860B0
:100AF0004FF0007018604FF0806018604FF0006099
:100B000018600020086028234BF6FF71CCF8001015
:100B1000CEF80030336013602B6023603B60B3621B
:100B20009362092245F8242CC4F8D80F05F57F6597
:100B3000C7F8D41F07F5FF2707F5FA67C6F8F83F8F
:100B40002B6006F5FF26C4F8D42F05F5FD2504F526
:100B5000FF24386006F2F4761148316005F5FF6530
:100B600004F5FD642B602360026000F08BFF3220EF
:100B7000FFF75EFF00F0FCFC4FF4AF70BDE8F840FB
:100B8000FFF756BF08E100E00480034014800340F3
:100B9000248003402C8003401C80034034800340A9
:100BA00000800B400C80034008800340431E032B51
:100BB00014D872B60A4951F8230068B170B4094CD0
:100BC000058834F81320466841F82360521B24F846
:100BD000132062B670BC704762B670470020704741
:100BE000F090FF1F9C93FF1F013803280BD872B6AB
:100BF000074B53F8203043B100205B680130002BD5
:100C0000FBD162B67047002070471846F9E700BF75
:100C10004491FF1FF0B472B61A491B4E012311F81C
:100C2000014B194F9A00240742F0010505D556F8EB
:100C3000324064B156F83520BAB10133052BEED1FC
:100C400062B6124B00221A70F0BC00F00DBD0F4CC2
:100C50000F4D217847F8325007EB431308304A1EF6
:100C60005860227062B6F0BC70470849094B0A7898
:100C700047F8353007EBC5030830013A58600A7071
:100C800062B6F0E7C84000000080FF1F6D91FF1FB3
:100C900088004000C8004000431E032B1DD81B4A9B
:100CA000400140F0100030B4104472B6184CE25CC1
:100CB000032A1BD8DFE802F00212151703220D8861
:100CC000E25410F0080F14BFC823882343EA0543F9
:100CD00008310360416062B630BC704708300222C0
:100CE000EDE70522EBE708300422E8E7094A52F86D
:100CF000230038B1084A52F82300416042F823101B
:100D000062B6E9E742F82310034AF7E70080FF1FC5
:100D10007C91FF1F4491FF1F5491FF1F2DE9F04F5D
:100D2000DFF800A3DFF800B387B044E0A84F4FEA34
:100D3000930807EBC809013ED9F8042003F0080323
:100D4000F6B2A2F1080003F0FF04002B40F0FC8093
:100D500057F838301B0C99B222F8081C002B00F011
:100D6000EA809C4B22F8064C42F8044C53F82620AB
:100D7000002A00F02982984D55F826305860974C8B
:100D800045F8260034F81630194424F8161000F0FF
:100D90004BFC002800F01182914A924B19F0080F89
:100DA00000F1080018BF1346C9F8040047F83830AE
:100DB00008238AF800309AF80040E4B260071AD598
:100DC000894B1B78A3B189490A7802F0FF0322B14D
:100DD000013BDBB20B7003B900BE85490A7802F013
:100DE000FF032AB1013BDBB20B70002B00F0BB818B
:100DF00004238AF8003004F0080303F0FF02002BFC
:100E000000F0C6809BF80030DBB21E098ED19C0832
:100E10006F4F57F8342007EBC401C2F38302013A45
:100E200049680C2A00F28380DFE802F0777781813D
:100E30008181818140818181070008686D4B6E4D01
:100E40000193674B4A686D4E47F8343081B240F2E7
:100E50008164684B6A60286000220120A1421A6008
:100E60003A61BA61307000F2E180B1F5D06F80F084
:100E70002582B1F5817F00F0DE8100F2C1818029F9
:100E800000F03482822940F0DC81A9885C4B04297F
:100E900000F2D8815B4C89000B44227062701A7892
:100EA000930740F122832070022023E2514B0193EB
:100EB0001A683AB3544B514E5449188834780D7817
:100EC0004028864645F0020828BF4FF0400E002C0F
:100ED00084F001043470CEEB00000CBF8824C824D9
:100EE00007EBC80680B285F0010544EA0E44726043
:100EF000188047F8384072440D70002800F0B78021
:100F0000019B1A603C4B1A88B2F5A06F0FD10021EB
:100F10009A7859703E4B1A7009E0374A108842F2AD
:100F20002102904200F0A8802D4A47F83420394A27
:100F3000012313703CE72A4A2A4B19F0080F18BF07
:100F4000134647F8383033E700F08EFB324A334916
:100F500052F82630002B00F03B8158688C5D42F837
:100F6000260003F10802C9F80420032C05D8DFE8A5
:100F700004F02C02292602228A551A8819F0080F3B
:100F80000CBF8823C82343EA024347F838300FE7F1
:100F9000E00700F1EB80210600F12881A20706D5C9
:100FA0001F4A204913780220DBB213700870E30651
:100FB00002D51C4B10221A7007B0BDE8F08F042236
:100FC0008A55DAE705228A55D7E703228A55D4E7FE
:100FD0000080FF1FF090FF1F9C90FF1F9C93FF1F3E
:100FE000C8004000880040007891FF1F0191FF1F5A
:100FF0008091FF1F9890FF1F6491FF1F0091FF1FBA
:10100000C02007407091FF1FAC90FF1F6C91FF1F25
:1010100098200740942007404491FF1F7C91FF1FB8
:1010200088200740802007409020074042F221049A
:10103000A14200F0948043D8B1F5086F00F0A88178
:10104000B1F5106F40F0FD80B84AB94CA978117025
:1010500004F1800503E00834AC4200F09E81236A6D
:101060001906F8D5606A083800F0FEFAF3E7BEF119
:10107000400F18BF002243E7AE4ACD1D11F8013BD7
:1010800002F8013FA942F9D1AB4A1268862A00F062
:101090001181AA49AA4E0A78307882F00105002809
:1010A00042F002020D700CBF8821C82147F83210AF
:1010B00007EBC20280F0010000213070516033E77D
:1010C00042F22124A14240F0FE81DFF8BCC29D4BD8
:1010D0009D49AC78DCF800501D6081460C70002002
:1010E000029080468446044694490D7845F0020EED
:1010F00007EBCE03B9F1000F5C600CBF8824C82455
:1011000044EA080385F0010447F83E3032700C7061
:10111000DFF81CE28A4BDFF82482002840F0988038
:10112000BCF1400F1BD144F0020407EBC403029F43
:10113000DFF8FCE15F60002A40F09F80020442F08B
:10114000880207444EF8342086F800900D703B4624
:10115000402804D100207D4A019910800B607C4A10
:1011600001231370E3E600F0C7FB41E6704B7848BB
:1011700072491A614FF0020E80F800E0754F0A7054
:10118000754919609960754E754D764C9A610D21BF
:101190003970FF213170DFF8F4E129702270724D4F
:1011A000724A8EF800109F27012406F8047C5D60C7
:1011B0000470DA6007B0BDE8F08F6D4A47F8380078
:1011C000137801331370F3E543F82600694DD6E533
:1011D0008B5D032B67D801A252F823F0B10D0000FC
:1011E000B10D0000311200002B12000059495C4B78
:1011F00080220D2008701A70A2077FF5D8AECFE6C6
:1012000040F20232914240F05681A98801F07F01FC
:10121000042916D86A88A2B94E4C89000C4481462C
:10122000217841F00201217059E701238B55BFE578
:1012300000238B55BCE5A98801F07F01042940F209
:101240004781444B0F221A70414A012313706EE606
:1012500040287FF668AF44F002040EEBC401029E02
:101260004E60AAB1444A83F800903346403888F86B
:10127000005040334EF834206DE70204029B86F89C
:10128000009042F0C8020D7003444EF834205FE72E
:1012900083F80090029B304A88F800504038403371
:1012A0004EF8342057E719F0080F0CBF0223032330
:1012B0008B557DE5314A0F211170EAE6304A5468BA
:1012C000002CBED06888B5F804E003E00C32546806
:1012D000002CB6D013888342F8D153887345F5D1DA
:1012E000000A03280CBF2078108903E0254C022057
:1012F00022706270EA88824280F00C810F490D787A
:10130000402A45F0020E944607EBCE0028BF4FF06E
:10131000400C04EB0C0344600293CCEB02004FEA58
:101320000C484FF001090022C824E9E67891FF1F1C
:101330000080FF1FA393FF1FA493FF1F6C91FF1F4B
:101340000091FF1FAC93FF1F9091FF1FAC90FF1FF8
:1013500094200740C02007408800400088200740B4
:101360008020074098200740B090FF1F0491FF1F86
:101370006D91FF1F9C90FF1FC80040000191FF1F4F
:10138000CC4000007091FF1F9490FF1F8C200740FD
:10139000684A694C12782270ACE76849684B694A20
:1013A00002916949694C6A4D039405964FF0000912
:1013B00088461C4616460495206828B1456800F00A
:1013C00053F92846002DF9D100232360049B30688F
:1013D0001A46002342F8293028B1456800F044F944
:1013E0002846002DF9D100223260029A98F8003088
:1013F0001146002241F8042B039A0291023B4FF060
:10140000000122F81910032B07D8DFE803F034029B
:1014100034024FF0010388F8003009F10109B9F1F5
:10142000040F04F1040406F1040608F10108C3D115
:10143000484B059EDFF83091DFF8308100211970AC
:10144000012518F8013B09F8043B1A0718D4AC0031
:1014500044F0020244F00304002347F8323047F816
:1014600034303D4B994505F10105EAD196F80090DD
:1014700089F0010233E64FF0000388F80030CCE732
:1014800000F0D2F8AC0007EB451300F10802002889
:1014900037D05A60314B47F8343000F0C5F844F08B
:1014A000010307EBC30200F1080100B351602C4AAD
:1014B00047F83320CCE7B1F5A06F7FF4C2AE00222D
:1014C0004FF001090BE642F221329142F7D0B8E623
:1014D0006A88002A7FF4B5AE224C89000C4481460C
:1014E000217821F002012170F9E5022002E7194B71
:1014F00044F001021B7847F83200164A013313709A
:10150000A6E7144B134A1B78AC00013347F83400AC
:101510001370C2E74028844628BF4FF0400C04EB0C
:101520000C03CCEB00004FEA0C48029300224FF072
:101530000109D9E57891FF1F7091FF1F5491FF1F9A
:10154000F090FF1F4491FF1F7C91FF1F9C93FF1F92
:101550009C90FF1F6D91FF1FD42007408800400022
:10156000C8004000C0200740C4200740C840000019
:101570002DE9F843204C01F06FFD002204F18800B2
:1015800023461A605A60083383424FF00001F8D1B5
:101590001A4A1B4F13681B4D1B481C4EDFF87880FE
:1015A000DFF878C0DFF87890DFF878E043F4802344
:1015B0001360C4F307233B70C4F307432B70240E5E
:1015C000FF2302F528320470114D88F800301148CD
:1015D0008CF80030D4323370012389F80030702643
:1015E0008EF800104FF40074102107F8183C2E708C
:1015F00004601170BDE8F8830080FF1F3480044050
:101600009C200740B0200740B4200740102007402E
:1016100049E400E008E100E080200740882007401E
:10162000942007400021074072B60D480268B2FAC4
:1016300082F30B2B10DC4FF00041D94022EA01026B
:10164000026062B6074803EBC303DB00C218002147
:10165000C15010465160704762B60020704700BF0D
:101660002087FF1FBC83FF1F0D4B0E4AC31AA2FB2E
:1016700003231B090B2B0CD80B4A127852B972B6F4
:101680000A484FF00041026821FA03F31A4302604E
:1016900062B67047064A1278002AF0D0FFF7BABA4D
:1016A000BC83FF1F398EE3386D91FF1F2087FF1F1A
:1016B0007891FF1F38B50F4D286878B143880288AC
:1016C000C118013393420C7A02D24380204638BDC0
:1016D000FFF7CAFF002320462B6038BD064B1B785E
:1016E0002BB10320FFF762FA28600028E6D14FF003
:1016F000FF3038BD8C91FF1F7891FF1F10B5094C4A
:10170000206818B143881844007A10BD064B1B7836
:101710002BB10320FFF74AFA20600028F2D14FF0E6
:10172000FF3010BD8C91FF1F7891FF1F044B054ABD
:101730001B6890881BB11A885B88D31A18447047BD
:101740008C91FF1F9C93FF1F0B4B1B789BB110B517
:101750000A4C206848B1FFF787FF0023032023606D
:10176000FFF724FA30B1FFF77FFF0320FFF71EFADF
:101770000028F8D110BD70477891FF1F8C91FF1F92
:101780002DE9F04FDFF8F89083B0012289F80020AE
:10179000019169B3DFF8EC80364F019E8346D8F89B
:1017A0000000B0B3344D4488C4F14001B14228BFB9
:1017B000314604EB010E00221FFA8EFE2A70761AC3
:1017C000A0F802E000F1080251B1013C2244594462
:1017D0001BF8014B02F8014F8B45F9D1B0F802E03C
:1017E000BEF13F0F0BD8254A05211170002ED6D12E
:1017F0000198002389F8003003B0BDE8F08F402243
:10180000028001460420FFF747FA0022C8F80020B2
:10181000E9E73A782AB3184D4AF2F9244FF0010A61
:1018200007E0013C16D02A78A2B900F0FDF83A781A
:10183000BAB10420FFF7D8F90728F2D889F800A038
:10184000FFF7F2FEC8F800000028ACD10C4B013CB9
:101850001870E8D101234FF0FF302B7003B0BDE8C2
:10186000F08F00234FF0FF3089F8003003B0BDE85F
:10187000F08F00BF7891FF1F8891FF1F8091FF1F9D
:101880008191FF1F8491FF1F00B583B002AB01213E
:1018900003F8010D1846FFF773FF03B05DF804FB72
:1018A000F8B5114B1B788BB1104E114D34680127E0
:1018B0002F7064B10F4A6388002717702146238078
:1018C0000420FFF7E9F9376000232B70F8BDFFF71C
:1018D000ABFE084B28B1014604201C70FFF7DCF971
:1018E000F2E71F70F0E700BF7891FF1F8491FF1FA0
:1018F0008191FF1F8091FF1F38B50E4B1B7873B984
:101900000D4C216861B103F0FF054B880B8004206A
:10191000FFF7C2F9256038BD084B01221A7038BDA7
:10192000FFF782FE0028F7D00146BDE838400420CA
:10193000FFF7B2B98191FF1F8491FF1F8091FF1FB4
:1019400008B5FEF793FDFEF7DDFD00F06DF8FAE750
:1019500000B5064A036812885B6883B001A9ADF838
:1019600004200222984703B05DF804FBA040000069
:10197000F0B507468BB0002A33D0012A08BF0A22EF
:1019800051B3212400E0F4B2B1FBF2F502FB1511D2
:10199000C8B2092900F1300198BFC8B20AA988BFAE
:1019A0003730214488BFC0B201F8240C661E294696
:1019B000002DE8D133B1013CE4B20AAB23442D221F
:1019C00003F8242C3B6801AA11195B683846C4F15E
:1019D000220298470BB0F0BD30228DF8252021243B
:1019E000E8E70368C9B21B6898470BB0F0BD00BFB9
:1019F000FFF7AABEFFF754BF08461146FFF7C0BE67
:101A00000846FFF741BF00BF704700BF044B054ABF
:101A10001A604FF47A71002299601A711A73704734
:101A20009491FF1FAC40000010B5154C237803B112
:101A300010BD01232370FFF779FE58B900F0C4FBF5
:101A400070B900F063FF88B901F02CFAA0B9002347
:101A5000237010BDFFF7D8FF00F0B6FB0028F0D0D0
:101A600001F0B0FB00F052FF0028EDD001F05EFC69
:101A700001F018FA0028EAD001F00CFDE7E700BFFA
:101A8000A491FF1F30B42948294A2A4B2A4D6024CB
:101A9000E121047011701B78284C082B30D00A2BE0
:101AA0002748284937D00C2B0CBF35223D22122362
:101AB0002A60236002600B60234B24491B78244A70
:101AC000BBB101230B601360224B23491B78234ACF
:101AD000012B26D9042B0FD9082B1ED9102B94BF0C
:101AE000862387230B6013601D4B01221A7030BCC4
:101AF00070470B601360E7E784230B601360F3E724
:101B000000F58E200F490830012213232A6023603C
:101B100002600B60D0E73922F7E785230B60136082
:101B2000E2E780230B601360DEE700BF0040074060
:101B3000014007402487FF1F08B003400CB003405A
:101B400008B00B400CB00B40A691FF1F20B0034023
:101B500020B00B402587FF1F24B0034024B00B406A
:101B6000A591FF1F024A136801331360704700BF3D
:101B70009490FF1F08B5104C08E0236859050DD458
:101B800023681A050FD42368DB0411D42368580393
:101B9000F3D5FFF7C3F823685905F1D500F096FB9C
:101BA00023681A05EFD500F033FF2368DB04EDD579
:101BB00001F0E6F9EAE700BF3480044008B5FFF71A
:101BC000D9FF00BF014B10221A807047002005404A
:101BD000704700BF094908B50B6830B16A46184420
:101BE000A2F58052904202D20860184608BD01F06A
:101BF00061FC0C2303604FF0FF3008BD2887FF1FF6
:101C0000EFF3138070B9EFF310836BB9EFF3058234
:101C10005AB94FF48070EFF311832BB1984228BF6B
:101C2000184670474FF0FF3070470F2A01D818460A
:101C3000F1E7014BD05CEEE7F0E300E0F0B44D1EBD
:101C40002E46002400E00134B0FBF2F302FB130047
:101C5000092800F130078ABF3730F8B2C0B206F861
:101C6000010F1846002BEED10A1953704CB11078B1
:101C700015F8016F28700133E01A834202F80169F8
:101C8000F5DB0846F0BC70472DE9F84F214B1B6887
:101C900007460BB101221A70DFF888901E4D99F8A3
:101CA0000040DFF884801D4E01343F2C8ABF4FF086
:101CB000000A5FFA84FA5446AB462B78A34216D149
:101CC000FFF79EFF40281FDC33791B06F5D59BF8F4
:101CD000003001333F2B86BF00221346DAB218F8DA
:101CE0000330DBB2F3712A702B78A342E8D00C49A1
:101CF0000A4BFFB208F804700120BC22087089F872
:101D000000A0DA70BDE8F88FFF28D6DDFFF78CFE63
:101D1000D3E700BF3892FF1F3592FF1F00A0064097
:101D20003492FF1F3C92FF1FB091FF1F274A2849A2
:101D30001368F0B543F4806313600A78254F264E8C
:101D4000264D274C274900233B7033702B7023709E
:101D50000B70002A35D0152A26D0234B1B78012B77
:101D60002AD0052B03D1214B4FF451721A60204B1E
:101D7000204C2149C0F34436C0F347151E7000F0D3
:101D80001F005D7004224FF0020E88273C2640257C
:101D900098729A704FF4005083F813E05A751F74CC
:101DA000DE7025700860F0BD144B40F213321A60EB
:101DB0000D4B1B78012BD4D1114B4FF451721A608B
:101DC000D5E7104B40F213321A60C6E73480044066
:101DD000F091FF1FAC91FF1FAD91FF1F3C92FF1FC1
:101DE0003592FF1F3492FF1F2C87FF1F1CC0044039
:101DF00000A006402DE400E004E100E018C004402B
:101E000044A0044040A00440144B14499B7803F0C4
:101E1000EC0200F003031343420700F00F0248BF37
:101E200043F01003042A8B7013D00C4B0B4A5B79E0
:101E3000C10603F0EF0348BF43F0100353719379D9
:101E4000820603F0EF03054A48BF43F01003937185
:101E500070478B7943F040038B71E6E700A00640A2
:101E6000214B1B685B053ED510B5204C237823B170
:101E7000FFF7DAFD2378002BFAD11D481D4A1E4BCF
:101E80004FF4005400210460D1701B78E3B1152B8E
:101E900003D11A4B40F203121A60194B1B7803F05E
:101EA0007F03012B1AD0052B03D1164B40F20312EE
:101EB0001A60154B154816491A68002303700B70F9
:101EC0000AB10123137010BD124B40F203121A60C5
:101ED0000B4B1B7803F07F03012BE4D10E4B40F238
:101EE00003121A60E5E77047348004403492FF1F04
:101EF00084E100E000A00640F091FF1F18C00440FC
:101F00002C87FF1F1CC00440A891FF1FAC91FF1F2E
:101F1000AD91FF1F40A0044044A004400A4A38B5D8
:101F20000546137803F0FF04002BFAD1012128465F
:101F3000FEF778FD21462846FEF76EFD034A044B66
:101F400052F835201A6038BD3492FF1F903F0000D0
:101F50003892FF1F09B140F08000174A1378984269
:101F600016D010B4154C246864050FD503F07F0318
:101F7000012B1CD0052B11D0002900F07F0114BFCC
:101F80006023442301290DD0052902D0107010BC14
:101F900070470B4943F440730B60F7E7084B00248C
:101FA0001C60E9E7074943F440730B60EEE7054B1B
:101FB00000241C60E0E700BF2C87FF1F3480044032
:101FC0001CC0044044A00440104B1A7882420AD03E
:101FD0000F490968490505D5AAB1152A09D068B184
:101FE000152801D0187070470A4A40F21331116069
:101FF000F8E7084A002111600028F1D1064A40F2B2
:1020000013311160EEE704490A60E8E7F091FF1F21
:102010003480044018C0044040A004400D4B1B68AD
:1020200013F4806305D0212805D90B4B00201860DC
:10203000704718467047094B10B5074C53F83030BD
:1020400023600121FEF7EEFC236800221A700120B4
:1020500010BD00BF34800440A891FF1F903F0000D6
:102060000F4B1B6813F4806308D0122808D0142883
:1020700011D00C4A537B03F0FE03537300207047CA
:10208000094B40F202321A60064A537B43F00103C7
:10209000537301207047054B40F202321A60F3E798
:1020A0003480044000A006400CA0044014C004404A
:1020B000034B1B685B0501D5FFF7E6BD704700BF0A
:1020C000348004402DE9F84F294B1B685A0548D548
:1020D000284B1B6805460BB101221A7005EB010A5B
:1020E000554540D2DFF89C80234CDFF89C90234F6D
:1020F0000AE015F8012B09F80B20214A0123AA4513
:10210000137088F800602ED098F80030227803F120
:10211000010BBBF13F0F86BF0026B3465FFA8BF67B
:102120009345E6D1BC22FA7005E03A7913060BD448
:1021300022789345DDD1FFF763FD4028F5DDFF28C8
:10214000F6DDFFF771FCF3E7227801323F2A86BF04
:1021500000210A46D1B219F80220D2B2FA712170D8
:10216000E6E7BDE8F88F054BBC22DA70BDE8F88FD2
:10217000348004403892FF1F3592FF1F00A00640B4
:102180003492FF1F3C92FF1FB091FF1F10B5044C0B
:10219000237823B1FFF748FC2378002BFAD110BD38
:1021A0003492FF1F064A074B1B781078DBB2C0B28F
:1021B00083422CBF3F3000F1FF30C01A704700BF90
:1021C0003592FF1F3C92FF1F054A064B10781B7883
:1021D000C0B2DBB2984238BF4030C01A704700BF6F
:1021E000AC91FF1FAD91FF1F30B4154B154C1A7801
:1021F0002378D2B2DBB29A421ED001333F2B0ED9E4
:102200001149124B087819680023C0B2237021B11C
:10221000D31A1A2B01DC00230B7030BC70470A481C
:102220000A49C05C0968DDB2C0B225700029F4D04B
:102230009A4238BF4032EBE74FF0FF30EDE700BF86
:10224000AC91FF1FAD91FF1FF491FF1FA891FF1FDD
:10225000084A094B12781B78DBB29A4207D0013347
:10226000402B28BF0023054AD05CC0B270474FF016
:10227000FF307047AC91FF1FAD91FF1FF491FF1F1E
:102280000D4B1B685B0516D530B40C4B0C4CDA7843
:102290000C480D4902F0CB024025DA705D74DA7803
:1022A00042F03402DA7023780268DBB20B700AB1B4
:1022B0000023137030BC70473480044000A00640F7
:1022C000AD91FF1FA891FF1FAC91FF1FF0B4384BD9
:1022D0001A7912F0300F2CD072B6997D01F0FF02FE
:1022E00000293DD062B6334F334938780D78334EEC
:1022F0001C46C0B2EDB2431C402BE17928BF00233D
:10230000AB4202F1FF32C9B21CBFF154184612F0C1
:10231000FF02F0D12A4B1B68C2B23A704BB1A842FF
:1023200036BFC5F14005401B40192728C4BF012214
:102330001A701F49CA78D2B2150616D452060DD5A6
:102340001B4B1B795B0609D51E4B1F491B680022DE
:102350000A7003B11A70164B3C22DA70F0BC704759
:102360004022D9795A7462B6E3E70B791C06E5D5A9
:10237000164B174E1C783378E4B2DBB29C420ED079
:10238000144D01E0A3420AD00133402B28BF0023A3
:102390000879E85CC0B2C871087D0728F2D9DBB2C1
:1023A000034933700B79180644BF7C23CB70C5E713
:1023B00000A00640AC91FF1FAD91FF1FF491FF1FDD
:1023C000A891FF1F3892FF1F3492FF1F3C92FF1FFE
:1023D0003592FF1FB091FF1F274A28491368F0B5B7
:1023E00043F4006313600A78254F264E264D274C90
:1023F00027490023092A3B7033702B7023700B7020
:1024000035D01A2A26D0234B1B780A2B2AD01F2B13
:1024100003D1214B4FF451721A60204B204C2149BB
:10242000C0F34436C0F347151E7000F01F005D7006
:1024300004224FF0020E88273C26402598729A709D
:102440004FF4004083F813E05A751F74DE70257056
:102450000860F0BD144B40F213321A600D4B1B782C
:102460000A2BD4D1114B4FF451721A60D5E7104B9F
:1024700040F213321A60C6E7348004402D87FF1FF4
:10248000B092FF1F4592FF1FB892FF1FB192FF1F2E
:102490004492FF1F2E87FF1F00D0044000B006406B
:1024A0002FE400E004E100E004D0044010B0044058
:1024B0000CB00440144B14499B7803F0EC0200F07C
:1024C00003031343420700F00F0248BF43F0100319
:1024D000042A8B7013D00C4B0B4A5B79C10603F0B6
:1024E000EF0348BF43F0100353719379820603F062
:1024F000EF03054A48BF43F01003937170478B798F
:1025000043F040038B71E6E700B00640224B1B68A6
:102510001B053FD510B5214C237823B1FFF784FA72
:102520002378002BFAD11E481E4A1F4B4FF400445B
:1025300000210460D1701B78092B1CD01A2B03D109
:102540001A4B40F203121A60194B1B7803F07F03F9
:102550000A2B1AD01F2B03D1164B40F203121A601C
:10256000154B164816491A68002303700B700AB100
:102570000123137010BD134B40F203121A600C4B71
:102580001B7803F07F030A2BE4D10F4B40F20312B8
:102590001A60E5E7704700BF348004404492FF1F93
:1025A00084E100E000B006402D87FF1F04D0044006
:1025B0002E87FF1F00D004404092FF1FB092FF1FE4
:1025C0004592FF1F0CB0044010B004400A4A38B5D1
:1025D0000546137803F0FF04002BFAD101212846A9
:1025E000FEF720FA21462846FEF716FA034A044B66
:1025F00052F835201A6038BD4492FF1F903F00000A
:10260000B492FF1F09B140F08000174A1378984236
:1026100016D010B4154C246824050FD503F07F03A1
:102620000A2B1CD01F2B11D0002900F07F0114BFF2
:10263000602344230A290DD01F2902D0107010BC3A
:1026400070470B4943F440730B60F7E7084B0024D5
:102650001C60E9E7074943F440730B60EEE7054B64
:1026600000241C60E0E700BF2E87FF1F3480044079
:1026700000D0044010B00440124B1A7882420CD0B3
:1026800011490968090507D5092A16D01A2A0AD05E
:1026900009280DD01A2801D0187070470B4A40F253
:1026A00013311160F8E7094A002109281160F1D1BE
:1026B000074A40F213311160EEE7054A002111602C
:1026C000E6E700BF2D87FF1F3480044004D004409C
:1026D0000CB004400D4B1B6813F4006305D0212897
:1026E00005D90B4B00201860704718467047094BFE
:1026F00010B5074C53F8303023600121FEF792F9F2
:10270000236800221A70012010BD00BF34800440ED
:102710004092FF1F903F00000C4B1B6813F40063B6
:1027200006D0172806D00A4A537B03F0FE035373E2
:1027300000207047074B064A40F202311960537B74
:1027400043F0010353730120704700BF34800440FD
:1027500000B0064008B004402DE9F84F234B1B6839
:102760001A053BD5224B1B680BB101221A70DFF80A
:102770009090204D99F80040DFF888801E4E01347B
:10278000272C8ABF4FF0000A5FFA84FA54460746A6
:10279000AB462B789C4216D1FFF732FA40281FDC5B
:1027A00033791B06F5D59BF800300133272B86BF04
:1027B00000221346DAB218F80330DBB2F3712A7044
:1027C0002B789C42E8D00D490B4BFFB20120BC2274
:1027D00008F80470087089F800A0DA70BDE8F88F76
:1027E000FF28D6DDFFF720F9D3E700BF348004408F
:1027F000B492FF1FB192FF1F00B006404492FF1F2A
:10280000B892FF1F4892FF1F2DE9F84F294B1B6814
:102810001A0548D5284B1B6805460BB101221A70D2
:1028200005EB010A554540D2DFF89C80234CDFF8C8
:102830009C90234F0AE015F8012B09F80B20214A40
:102840000123AA45137088F800602ED098F8003054
:10285000227803F1010BBBF1270F86BF0026B34698
:102860005FFA8BF69345E6D1BC22FA7005E03A791F
:1028700013060BD422789345DDD1FFF7C1F9402828
:10288000F5DDFF28F6DDFFF7CFF8F3E72278013218
:10289000272A86BF00210A46D1B219F80220D2B2F7
:1028A000FA712170E6E7BDE8F88F054BBC22DA70BB
:1028B000BDE8F88F34800440B492FF1FB192FF1F2F
:1028C00000B006404492FF1FB892FF1F4892FF1FBE
:1028D00010B5044C237823B1FFF7A6F82378002B1A
:1028E000FAD110BD4492FF1F064A074B1B7810789F
:1028F000DBB2C0B283422CBF273000F1FF30C01AD8
:10290000704700BFB192FF1FB892FF1F054A064BE8
:1029100010781B78C0B2DBB2984238BF4030C01A82
:10292000704700BFB092FF1F4592FF1F30B4154B98
:10293000154C1A782378D2B2DBB29A421ED00133FA
:102940003F2B0ED91149124B087819680023C0B2E9
:10295000237021B1D31A1A2B01DC00230B7030BC79
:1029600070470A480A49C05C0968DDB2C0B22570E8
:102970000029F4D09A4238BF4032EBE74FF0FF30E5
:10298000EDE700BFB092FF1F4592FF1F7092FF1F3F
:102990004092FF1F084A094B12781B78DBB29A421B
:1029A00007D00133402B28BF0023054AD05CC0B2BA
:1029B00070474FF0FF307047B092FF1F4592FF1FE6
:1029C0007092FF1F0D4B1B681B0516D530B40C4BC6
:1029D0000C4CDA780C480D4902F0CB024025DA7035
:1029E0005D74DA7842F03402DA7023780268DBB280
:1029F0000B700AB10023137030BC70473480044060
:102A000000B006404592FF1F4092FF1FB092FF1F8B
:102A1000F0B4384B1A7912F0300F2CD072B6997D81
:102A200001F0FF0200293DD062B6334F33493878B8
:102A30000D78334E1C46C0B2EDB2431C402BE179F9
:102A400028BF0023AB4202F1FF32C9B21CBFF154D0
:102A5000184612F0FF02F0D12A4B1B68C2B23A703E
:102A60004BB1A84236BFC5F14005401B401927288D
:102A7000C4BF01221A701F49CA78D2B2150616D4F3
:102A800052060DD51B4B1B795B0609D51E4B1F4902
:102A90001B6800220A7003B11A70164B3C22DA70D0
:102AA000F0BC70474022D9795A7462B6E3E70B79DB
:102AB0001C06E5D5164B174E1C783378E4B2DBB212
:102AC0009C420ED0144D01E0A3420AD00133282BC2
:102AD00028BF00230879E85CC0B2C871087D0728C8
:102AE000F2D9DBB2034933700B79180644BF7C235B
:102AF000CB70C5E700B00640B092FF1F4592FF1FA4
:102B00007092FF1F4092FF1FB492FF1F4492FF1F5D
:102B1000B892FF1FB192FF1F4892FF1F2DE9F84F97
:102B2000214B1B6807460BB101221A70DFF8889011
:102B30001E4D99F80040DFF884801D4E0134272C8B
:102B40008ABF4FF0000A5FFA84FA5446AB462B78EE
:102B5000A34216D1FFF754F840281FDC33791B0637
:102B6000F5D59BF800300133272B86BF0022134692
:102B7000DAB218F80330DBB2F3712A702B78A34273
:102B8000E8D00C490A4BFFB208F804700120AC22CF
:102B9000087089F800A0DA70BDE8F88FFF28D6DD4C
:102BA000FEF742FFD3E700BF3093FF1F2D93FF1FB7
:102BB00000C006402C93FF1F3493FF1FC492FF1FD9
:102BC000184A19491368F0B543F48053174C184D4F
:102BD000184FDFF878E01360174E184A002323706F
:102BE0008EF80030164C2B700B703B7040F2133790
:102BF0003760144D1449C0F344364FF451772760C1
:102C00001670C0F347142C2700F01F0040265470A4
:102C100090724FF4003493701374D7702E700C6060
:102C2000F0BD00BF348004402D93FF1FC092FF1FF2
:102C30003493FF1F2C93FF1F08C0044000C00640C0
:102C40000CC0044031E400E004E100E0C192FF1F49
:102C5000144B14499B7803F0EC0200F00303134378
:102C6000420700F00F0248BF43F01003042A8B70A4
:102C700013D00C4B0B4A5B79C10603F0EF0348BF3E
:102C800043F0100353719379820603F0EF03054A72
:102C900048BF43F01003937170478B7943F04003B2
:102CA0008B71E6E700C00640F8B5124B1B68DB04E9
:102CB0001DD5114C237823B1FEF7B6FE2378002BE7
:102CC000FAD10E4B0E4F0F4E0F4D104C10481149BC
:102CD0004FF400321A600023FB7040F2031232609E
:102CE0002A60226803700B7012B101231370F8BDC3
:102CF000F8BD00BF348004402C93FF1F84E100E046
:102D000000C0064008C004400CC00440BC92FF1F35
:102D1000C092FF1FC192FF1F0A4A38B505461378BB
:102D200003F0FF04002BFAD101212846FDF77AFEBB
:102D300021462846FDF770FE034A044B52F8352021
:102D40001A6038BD2C93FF1F903F00003093FF1F87
:102D500009B140F080000F4A1378984219D010B49E
:102D60000D4C2468E40412D503F07F03082B02D134
:102D70000A4B00241C60002900F07F0314BF60216F
:102D80004421082B03D1054B41F4407119601070A8
:102D900010BC70472F87FF1F348004400CC00440D4
:102DA000704700BF0D4B1B6813F4805305D02128DA
:102DB00005D90B4B00201860704718467047094B27
:102DC00010B5074C53F8303023600121FDF72AFE7F
:102DD000236800221A70012010BD00BF3480044017
:102DE000BC92FF1F903F00000C4B1B6813F48053F4
:102DF00006D00E2806D00A4A537B03F0FE03537315
:102E000000207047074B064A40F202311960537B9D
:102E100043F0010353730120704700BF3480044026
:102E200000C0064004C00440034B1B68DB0401D50E
:102E3000FFF774BE704700BF3480044070B5094E80
:102E400004464518AC4204F101040AD03368DB049F
:102E5000F8D514F8010CFFF761FEAC4204F101044F
:102E6000F4D170BD3480044010B5044C237823B1F4
:102E7000FEF7DAFD2378002BFAD110BD2C93FF1F4B
:102E8000064A074B1B781078DBB2C0B283422CBFD6
:102E9000273000F1FF30C01A704700BF2D93FF1F8D
:102EA0003493FF1F054A064B10781B78C0B2DBB283
:102EB000984238BF4030C01A704700BFC092FF1F11
:102EC000C192FF1F30B4154B154C1A782378D2B23B
:102ED000DBB29A421ED001333F2B0ED91149124B5F
:102EE000087819680023C0B2237021B1D31A1A2BB5
:102EF00001DC00230B7030BC70470A480A49C05CF3
:102F00000968DDB2C0B225700029F4D09A4238BFFA
:102F10004032EBE74FF0FF30EDE700BFC092FF1FFC
:102F2000C192FF1FEC92FF1FBC92FF1F084A094B82
:102F300012781B78DBB29A4207D00133402B28BFAE
:102F40000023054AD05CC0B270474FF0FF30704795
:102F5000C092FF1FC192FF1FEC92FF1F054B064A54
:102F60001B7806491268DBB20B700AB1002313709C
:102F7000704700BFC192FF1FBC92FF1FC092FF1F8E
:102F800030B42B4B1A7994061FD52A48DA79037886
:102F9000294901333F2B0978C8BF00238B42D2B2A5
:102FA00003D0264CD9B2E2540170254A116861B1B0
:102FB000244A1278D2B2934236BFC2F140029B1A21
:102FC0009B18272BC4BF01230B70194AD378DBB29F
:102FD000180611D45A060DD5154B1B795B0609D579
:102FE000194B1A491B6800220A7003B11A70104B62
:102FF0002C22DA7030BC704711790906EAD51449E1
:1030000010480C780178C9B28C420DD04A1C272A8E
:1030100084BF00210A460F4D054C98BFD1B2AA5C6F
:10302000D2B2E2710170D5E76C21D170D2E700BF56
:1030300000C00640C092FF1FC192FF1FEC92FF1F0D
:10304000BC92FF1F2D93FF1F3093FF1F2C93FF1F78
:103050003493FF1FC492FF1F70B584B072B6194B32
:10306000194D1A48702241260F2480211A702E70A3
:103070001A460470197013781B06FCD5144B186897
:1030800062B6144B144C984298BF00EB800001A923
:1030900098BF40000A22FEF7D1FD01A92046002377
:1030A00011F8012B01333AB10A2B20F8022FF7D186
:1030B0001623237004B070BD5B00DBB2237004B034
:1030C00070BD00BF00000240070002400600024041
:1030D000080002407F969800BC87FF1F0368C9B2B2
:1030E0001B6818470368C9B21B6818470368C9B250
:1030F0001B6818470368C9B21B68184708B508461B
:10310000FEF7D6FF012008BD08B50846FEF7D0FF40
:10311000012008BD38B508460D4600F0D1FC044634
:1031200001462846FEF7CEFF204638BD10B50846BA
:1031300014461146FEF7C6FF204610BDFFF732B811
:10314000FFF79EB808B50846FEF78AFF003018BFA3
:10315000012008BD08B50846FEF760FF003018BF23
:10316000012008BD08461146FEF7F4BE0846FEF7EA
:103170002BBF00BF0846FEF7D1BE00BFFEF770BEF2
:103180004B0803F1376000F5D830B0FBF1F0FEF7E3
:10319000CDBD00BF10B54B0803F13760144600F5F4
:1031A000D830B0FBF1F0FEF7C1FD2046BDE810407D
:1031B000FEF72ABEFEF7EABFFFF74AB8FFF714B8DA
:1031C000FFF702B8704700BF044B054A1A604FF47E
:1031D0007A71002299601A711A7370473893FF1F31
:1031E0002841000008B50846FFF7B6FA012008BDDF
:1031F00008B50846FFF7B0FA012008BD38B5084603
:103200000D4600F05DFC044601462846FFF7FCFA37
:10321000204638BD10B5084614461146FFF7F4FAAB
:10322000204610BDFFF760BBFFF7CCBB08B50846D2
:10323000FFF772FA003018BF012008BD08B5084634
:10324000FFF748FA003018BF012008BD08461146B4
:10325000FFF7D8B90846FFF70FBA00BF0846FFF7D7
:10326000B5B900BFFFF752B94B0803F1376000F55D
:10327000D830B0FBF1F0FFF7AFB800BF10B54B0886
:1032800003F13760144600F5D830B0FBF1F0FFF7DA
:10329000A3F82046BDE81040FFF70CB9FFF718BBB4
:1032A000FFF778BBFFF742BBFFF730BB0368064A66
:1032B0001B68934205D110B5C8B2FFF74DFA012043
:1032C00010BDC9B2184700BFF13100000368064ABB
:1032D0001B68934205D110B5C8B2FFF73DFA012033
:1032E00010BDC9B2184700BFF13100000368064A9B
:1032F0001B68934205D110B5C8B2FFF72DFA012023
:1033000010BDC9B2184700BFF13100000368064A7A
:103310001B68934205D110B5C8B2FFF71DFA012012
:1033200010BDC9B2184700BFF1310000704700BF9F
:10333000044B054A1A604FF47A71002299601A71A1
:103340001A7370474893FF1F8841000008B508466C
:10335000FFF76AFD012008BD08B50846FFF764FDC8
:10336000012008BD38B508460D4600F0A9FB04460B
:1033700001462846FFF762FD204638BD10B50846D5
:1033800014461146FFF75AFD204610BDFFF778BDE1
:10339000FFF7E4BD08B50846FFF726FD003018BF6B
:1033A000012008BD08B50846FFF7FCFC003018BF37
:1033B000012008BD08461146FFF7CABC0846FFF7C2
:1033C000EFBC00BF0846FFF7A7BC00BFFFF76CBC0F
:1033D0004B0803F1B76000F55840B0FBF1F0FFF780
:1033E000EFBB00BF10B54B0803F1B760144600F502
:1033F0005840B0FBF1F0FFF7E3FB2046BDE810407A
:10340000FFF726BCFFF730BDFFF790BDFFF75ABDB1
:10341000FFF748BD0368064A1B68934205D110B503
:10342000C8B2FFF701FD012010BDC9B2184700BFA7
:10343000593300000368064A1B68934205D110B552
:10344000C8B2FFF7F1FC012010BDC9B2184700BF98
:10345000593300000368064A1B68934205D110B532
:10346000C8B2FFF7E1FC012010BDC9B2184700BF88
:10347000593300000368064A1B68934205D110B512
:10348000C8B2FFF7D1FC012010BDC9B2184700BF78
:1034900059330000704700BF044B054A1A604FF4CF
:1034A0007A71002299601A711A7370475893FF1F3E
:1034B000E8410000014B1868704700BF008CFF1FF7
:1034C00070B50F4E0F4D761BB61018BF002405D0F7
:1034D000013455F8043B9847A642F9D10A4E0B4DEA
:1034E000761B00F0AFFEB61018BF002406D00134E2
:1034F00055F8043B9847A642F9D170BD70BD00BF96
:103500005042000050420000704200005042000053
:10351000024B0146186800F003B800BF008CFF1F83
:103520002DE9F04F01F10B05162D83B0064640F250
:103530009F8035F0070500F1BF80A94200F2BC80F2
:1035400000F0A6FAB5F5FC7FC0F09C826B0A00F093
:10355000BA80042B00F28381A80900F1390E4FEAEA
:103560004E033830C44F07EB8303A3F108015C68B6
:10357000A14207D1ACE0002A80F2AC80E468A1420D
:1035800000F0A680636823F003035A1B0F2AF2DDC4
:10359000B9493C6901F1080E744500F0B3816368D4
:1035A00023F003035A1B0F2A00F39981002AC1F864
:1035B00014E0C1F810E080F29E80B3F5007F80F047
:1035C0006781DB0803F1010C01229B1002FA03F36F
:1035D0004A6851F83C80C4F8088001EBCC091A43D2
:1035E000A9F10803E3604A6041F83C40C8F80C4088
:1035F000831001249C40944200F28A80144206D138
:1036000020F003006400144200F10400FAD007EB3C
:10361000C009CC468046DCF80C108C4507D173E11C
:10362000002A80F28181C9688C4500F06D814B6869
:1036300023F003035A1B0F2AF2DD0C46D1F80CC00D
:1036400054F8088F4B1945F001054D6042F0010117
:10365000C8F80CC03046CCF808807B613B61C3F8E9
:103660000CE0C3F808E059609A5000F013FA1FE02C
:10367000102921D800F00CFA1025062302207E4FD5
:1036800007EB8303A3F108025C68944200F04581D4
:103690006368E168A56823F00303234430465A6851
:1036A000E96042F001028D605A6000F0F3F90834DD
:1036B000204603B0BDE8F08F00240C232046336081
:1036C00003B0BDE8F08F80234FF0400E3F2049E764
:1036D00070465DE72344E1685A68A56842F001023C
:1036E000E96030468D605A6000F0D4F90834204615
:1036F00003B0BDE8F08F234430465A6842F001021F
:103700005A6000F0C7F90834204603B0BDE8F08FD6
:10371000BC68636823F00308A84504D3C5EB08031D
:103720000F2B00F38C80554BDFF860911A68D9F8A5
:10373000003001332A4404EB080A00F0608102F5EE
:1037400080520F3222F47F6222F00F02114630467F
:10375000019200F0A1F9B0F1FF3F8346019A00F019
:103760005881824500F2FC80454B1968DA451144C6
:10377000196000F05381D9F80000DFF810E1013042
:103780001BBFCAEB0B0A5144CEF800B019601BF006
:10379000070100F01781C1F10800C1F58051834491
:1037A00008315A44C2F30B02C2EB010949463046C4
:1037B000019300F071F9431C019B00F03F81CBEBBA
:1037C00000024A4442F001021968C7F808B04944AF
:1037D000BC42CBF804201960DFF8A49016D0B8F1F1
:1037E0000F0F40F2FD806268A8F10C0323F007037D
:1037F000E01802F001024FF0050E1A430F2B626031
:10380000C0F804E0C0F808E000F21C811D4BBC6861
:103810001A68914288BF19601B4B1A68914262680E
:1038200088BF196022F003029542A2EB050301D87C
:103830000F2B04DC304600F02DF9002438E7621924
:1038400043F0010345F0010565603046BA605360FE
:1038500000F020F90834204603B0BDE8F08F142BA7
:1038600071D9542B00F2A480280B00F16F0E4FEA9F
:103870004E036E3076E600BF048CFF1F7093FF1F6F
:103880007493FF1F6C93FF1F6893FF1F1090FF1F1F
:103890005A0A042A5ED9142A00F2B38002F15C01AC
:1038A00049005B3207EB810C57F82110DFF8DC810F
:1038B000ACF1080C8C4500F088804A6822F00302C5
:1038C000934202D289688C45F7D1D1F80CC07A684E
:1038D000C4F80CC0A160CCF80840CC6088E663193D
:1038E00042F0010745F00105656030464B610B6110
:1038F000C3F80CE0C3F808E05F609A50083400F0A9
:10390000C9F8D5E64A6873E608F1010818F0030F14
:103910000CF1080C7FF47FAE30E0DC68A34208BFF6
:1039200002303FF435AEB3E60B440C465A68C96822
:1039300054F8085F42F001025A603046E9608D6039
:1039400000F0A8F8B4E603F15C0E03F15B004FEA67
:103950004E0307E69A0902F1390149003832A1E71E
:10396000BC424A4B3FF400AF9C68626822F00302FD
:103970005AE759F80839994540F0828010F0030F52
:1039800000F1FF30F5D17B6823EA04037B6064001B
:103990009C423FF6BDAE002C3FF4BAAE1C424046FE
:1039A0007FF435AE64001C4200F10400FAD02EE62C
:1039B000B3F5AA7F18D8E80B00F1780E4FEA4E0352
:1039C0007730CFE54FF48051EBE60121D8F8043091
:1039D000921001FA02F21A43C8F80420614677E710
:1039E0000123CBF8043025E740F25452934220D80B
:1039F000A80C00F17D0E4FEA4E037C30B2E5103288
:103A0000A4E6542A26D81A0B02F16F0149006E323F
:103A100048E7BC68626822F0030205E7CAF30B00BE
:103A200000287FF4A8AE4244BB6842F001025A600D
:103A3000ECE6FE234FF07F0E7E2093E501224FF04F
:103A40000009C1E604F10801304600F019F9D9F87F
:103A50000010DBE6B2F5AA7F05D8DA0B02F1780197
:103A6000490077321EE740F254518A4205D89A0C39
:103A700002F17D0149007C3214E7FE217E2211E72C
:103A80007B6884E7E808431C5B00F8E5048CFF1FB3
:103A9000704700BF704700BF38B5074C002305468C
:103AA00008462360FEF796F8431C00D038BD236813
:103AB000002BFBD02B6038BDB093FF1FFFFFFFFF33
:103AC00090F800F06DE9024520F007016FF0000C5E
:103AD00010F0070491F820F040F049804FF0000406
:103AE0006FF00700D1E9002391F840F000F10800E1
:103AF00082FA4CF2A4FA8CF283FA4CF3A2FA8CF319
:103B00004BBBD1E9022382FA4CF200F10800A4FA7F
:103B10008CF283FA4CF3A2FA8CF3E3B9D1E90423D3
:103B200082FA4CF200F10800A4FA8CF283FA4CF30A
:103B3000A2FA8CF37BB9D1E9062301F1200182FAC4
:103B40004CF200F10800A4FA8CF283FA4CF3A2FACA
:103B50008CF3002BC6D0002A04BF04301A4612BAD8
:103B6000B2FA82F2FDE8024500EBD2007047D1E9DB
:103B7000002304F00305C4F100004FEAC50514F06A
:103B8000040F91F840F00CFA05F562EA05021CBF3B
:103B900063EA050362464FF00004A9E7024B13B144
:103BA000024800F005B8704700000000BD3B00006F
:103BB000002301461A46184600F04AB938B5074DA9
:103BC000074C2C1BA41005D0013C55F8043D984728
:103BD000002CF9D1BDE8384000F04ABB00000000DD
:103BE00000000000F8B5234F0C460646FFF750FFD3
:103BF000BB685D6825F00305291B01F6EF7121F410
:103C00007F6121F00F01A1F58054B4F5805F07DBDF
:103C100000213046FFF740FFBB682B44984204D098
:103C20003046FFF737FF0020F8BD61423046FFF70E
:103C300033FF01300DD0104BBA6819682D1B45F0C9
:103C400001053046091B55601960FFF723FF01206D
:103C5000F8BD00213046FFF71FFFBA68831A0F2B0B
:103C6000DEDD064C0449246843F00103001B536069
:103C70000860D5E7048CFF1F7493FF1F1090FF1F8F
:103C8000002945D02DE9F0410D468046FFF700FFA1
:103C900055F8047C6A4927F00103A5F10804E218ED
:103CA0008E685068B24220F0030062D0FE07506078
:103CB0000BD455F8087CE41B01F1080EA568754586
:103CC0003B446FD0E768EF60BD6015186D68ED0785
:103CD00042D543F001026260E350B3F5007F18D291
:103CE000DB085A1C4D6851F83270A76001209B1008
:103CF00000FA03F301EBC2001D430838E0604D6099
:103D000041F83240FC604046BDE8F041FFF7C2BEDA
:103D100070475A0A042A53D89A0902F139077F00DA
:103D200002F1380501EB870051F827204449083893
:103D300090424DD0516821F003018B4202D292682B
:103D40009042F7D1D068E060A2608460D4604046C1
:103D5000BDE8F041FFF79EBE95683A4FBD4203446F
:103D60003FD0D068E86043F0010285606260E350B4
:103D7000B3E7FF07034407D455F8082CA41A1344EB
:103D8000A068E268C26090602F4A126843F00100A8
:103D9000934260608C60B6D32C4B40461968FFF7A5
:103DA00021FFB0E711184968C90744D49168D26867
:103DB000CA60034443F0010091606060E350A2E7F1
:103DC000142A17D802F15C077F0002F15B05A9E70E
:103DD000AA104B68012505FA02F213434B60024614
:103DE000B1E743F001024C610C61E560A5606260DF
:103DF000E35088E7542A06D81A0B02F16F077F00B8
:103E000002F16E058EE7B2F5AA7F06D8DA0B02F151
:103E100078077F0002F1770584E740F25450824230
:103E200006D89A0C02F17D077F0002F17C0579E744
:103E3000FE277E2576E743F001026260E35062E7E9
:103E4000048CFF1F0C8CFF1F0C90FF1F7093FF1F33
:103E50002DE9F047254C2568D5F8484106468846A7
:103E600092469946C4B360681F2817DC431C76B19C
:103E700004EB80050122C5F888A0D4F8881182409F
:103E80001143022EC4F88811C5F808911ED00230E3
:103E9000636044F820800020BDE8F087144B03B332
:103EA0004FF4C870FFF734FB0446D0B1D5F8483161
:103EB000002780E88800C5F8484138460123C4F847
:103EC0008871C4F88C71002EE1D0D1E7D4F88C1140
:103ED0000A43C4F88C21DAE705F5A674C5F8484111
:103EE000C1E74FF0FF30BDE8F08700BF404200005F
:103EF00011350000564D4450565F317C315F564DB0
:103F00004450560D0A0000007C00FFFF564D4450FF
:103F1000455F00003A323A003A0000005F564D44D7
:103F200050450000564D4450435F00005F564D44DD
:103F300050430D0A000000004572726F723A204132
:103F40007474656D707420746F20736574206120C3
:103F5000726561642D6F6E6C792076617269616241
:103F60006C65206F722064617461207479706520C3
:103F70006E6F7420737570706F727465640D0A00D3
:103F800048656C6C6F20576F726C642100000000F4
:103F90004008FE4340A004404408FE4344A00440BF
:103FA0000018FE4300C004403000FE43309004403F
:103FB0003400FE43349004401C18FE431CC00440EF
:103FC0001018FE4310C004400818FE4308C0044007
:103FD0000C18FE430CC004400C10FE430CB004400F
:103FE0001010FE4310B004401810FE4318B00440F7
:103FF0001C10FE431CB004401410FE4314B00440D7
:104000000418FE4304C004400010FE4300B0044006
:104010000008FE4300A004400408FE4304A004403E
:104020000C08FE430CA004400808FE4308A004400E
:104030001418FE4314C004401818FE4318C004406E
:104040000410FE4304B004400810FE4308B00440CE
:104050001400FE43149004404C08FE434CA004405E
:104060000420FE4304D004402410FE4324B0044046
:104070002010FE4320B004402810FE4328B0044026
:104080002C10FE432CB004400020FE4300D004401E
:104090004808FE4348A004401000FE43109004402E
:1040A0000D0AFFFF0000000000000000011A0000E0
:1040B000F9190000C1050000B9050000BD050000A8
:1040C000F5190000F1190000001519150001000094
:1040D0003087FF1F12000000000200005C87FF1FF6
:1040E0004300000000030000B887FF1F000000002D
:1040F000010309044487FF1F0000000002030904B4
:10410000A087FF1F0000000003030904BC87FF1FF6
:10411000000000000000000000000000000000009F
:104120000000000000000000093100002D310000F7
:10413000C1310000BD310000B9310000B5310000CF
:1041400081310000953100007D31000075310000A3
:104150006D3100006531000055310000453100002F
:10416000413100003D310000DD300000E53000004D
:10417000ED300000F530000015310000FD3000008A
:104180000000000000000000F131000015320000C6
:10419000A9320000A5320000A13200009D320000CB
:1041A000693200007D320000653200005D3200009F
:1041B000553200004D3200003D3200002D3200002B
:1041C0002932000025320000CD320000ED3200001F
:1041D0000D330000AD320000FD310000E53100007C
:1041E0000000000000000000593300007D33000093
:1041F000113400000D3400000934000005340000C3
:10420000D1330000E5330000CD330000C53300009A
:10421000BD330000B5330000A53300009533000026
:10422000913300008D330000353400005534000018
:104230007534000015340000653300004D33000074
:10424000D887FF1FF8B500BFF8BC08BC9E46704772
:104250009D3B000035040000AD050000C9080000CA
:104260000D1A0000C93100003133000099340000FC
:04427000F8B500BFDE
:10427400FFFFFFFF0A040000B493FF1F01090A08AF
:104284001201010102000040C01683040002010271
:104294000301000018035400650065006E007300FC
:1042A40079006400750069006E006F000902430024
:1042B400020100C0320904000001020201000524C9
:1042C400001001052401010104240206052406004E
:1042D400010705820310004009040100020A0000DE
:1042E40000070503024000000705840240000000A7
:1042F400160355005300420020005300650072006D
:10430400690061006C000000040309040C03000050
:104314000000000000000000000000000000000099
:10432400000000000000000000000000C48AFF1F1D
:104334002C8BFF1F948BFF1F000000000000000067
:104344000000000000000000000000000000000069
:104354000000000000000000000000000000000059
:104364000000000000000000000000000000000049
:104374000000000000000000000000000000000039
:104384000000000000000000000000000000000029
:104394000000000000000000000000000000000019
:1043A4000000000000000000000000000000000009
:1043B40000000000000000000000000000000000F9
:1043C40000000000000000000000000000000000E9
:1043D40001000000000000000E33CDAB34126DE686
:1043E400ECDE05000B0000000000000000000000EF
:1043F40000000000000000000000000000000000B9
:1044040000000000000000000000000000000000A8
:104414000000000000000000000000000000000098
:104424000000000000000000000000000000000088
:10475400D887FF1F0000000000000000048CFF1F2A
:10476400048CFF1F0C8CFF1F0C8CFF1F148CFF1F6D
:10477400148CFF1F1C8CFF1F1C8CFF1F248CFF1F1D
:10478400248CFF1F2C8CFF1F2C8CFF1F348CFF1FCD
:10479400348CFF1F3C8CFF1F3C8CFF1F448CFF1F7D
:1047A400448CFF1F4C8CFF1F4C8CFF1F548CFF1F2D
:1047B400548CFF1F5C8CFF1F5C8CFF1F648CFF1FDD
:1047C400648CFF1F6C8CFF1F6C8CFF1F748CFF1F8D
:1047D400748CFF1F7C8CFF1F7C8CFF1F848CFF1F3D
:1047E400848CFF1F8C8CFF1F8C8CFF1F948CFF1FED
:1047F400948CFF1F9C8CFF1F9C8CFF1FA48CFF1F9D
:10480400A48CFF1FAC8CFF1FAC8CFF1FB48CFF1F4C
:10481400B48CFF1FBC8CFF1FBC8CFF1FC48CFF1FFC
:10482400C48CFF1FCC8CFF1FCC8CFF1FD48CFF1FAC
:10483400D48CFF1FDC8CFF1FDC8CFF1FE48CFF1F5C
:10484400E48CFF1FEC8CFF1FEC8CFF1FF48CFF1F0C
:10485400F48CFF1FFC8CFF1FFC8CFF1F048DFF1FBB
:10486400048DFF1F0C8DFF1F0C8DFF1F148DFF1F68
:10487400148DFF1F1C8DFF1F1C8DFF1F248DFF1F18
:10488400248DFF1F2C8DFF1F2C8DFF1F348DFF1FC8
:10489400348DFF1F3C8DFF1F3C8DFF1F448DFF1F78
:1048A400448DFF1F4C8DFF1F4C8DFF1F548DFF1F28
:1048B400548DFF1F5C8DFF1F5C8DFF1F648DFF1FD8
:1048C400648DFF1F6C8DFF1F6C8DFF1F748DFF1F88
:1048D400748DFF1F7C8DFF1F7C8DFF1F848DFF1F38
:1048E400848DFF1F8C8DFF1F8C8DFF1F948DFF1FE8
:1048F400948DFF1F9C8DFF1F9C8DFF1FA48DFF1F98
:10490400A48DFF1FAC8DFF1FAC8DFF1FB48DFF1F47
:10491400B48DFF1FBC8DFF1FBC8DFF1FC48DFF1FF7
:10492400C48DFF1FCC8DFF1FCC8DFF1FD48DFF1FA7
:10493400D48DFF1FDC8DFF1FDC8DFF1FE48DFF1F57
:10494400E48DFF1FEC8DFF1FEC8DFF1FF48DFF1F07
:10495400F48DFF1FFC8DFF1FFC8DFF1F048EFF1FB6
:10496400048EFF1F0C8EFF1F0C8EFF1F148EFF1F63
:10497400148EFF1F1C8EFF1F1C8EFF1F248EFF1F13
:10498400248EFF1F2C8EFF1F2C8EFF1F348EFF1FC3
:10499400348EFF1F3C8EFF1F3C8EFF1F448EFF1F73
:1049A400448EFF1F4C8EFF1F4C8EFF1F548EFF1F23
:1049B400548EFF1F5C8EFF1F5C8EFF1F648EFF1FD3
:1049C400648EFF1F6C8EFF1F6C8EFF1F748EFF1F83
:1049D400748EFF1F7C8EFF1F7C8EFF1F848EFF1F33
:1049E400848EFF1F8C8EFF1F8C8EFF1F948EFF1FE3
:1049F400948EFF1F9C8EFF1F9C8EFF1FA48EFF1F93
:104A0400A48EFF1FAC8EFF1FAC8EFF1FB48EFF1F42
:104A1400B48EFF1FBC8EFF1FBC8EFF1FC48EFF1FF2
:104A2400C48EFF1FCC8EFF1FCC8EFF1FD48EFF1FA2
:104A3400D48EFF1FDC8EFF1FDC8EFF1FE48EFF1F52
:104A4400E48EFF1FEC8EFF1FEC8EFF1FF48EFF1F02
:104A5400F48EFF1FFC8EFF1FFC8EFF1F048FFF1FB1
:104A6400048FFF1F0C8FFF1F0C8FFF1F148FFF1F5E
:104A7400148FFF1F1C8FFF1F1C8FFF1F248FFF1F0E
:104A8400248FFF1F2C8FFF1F2C8FFF1F348FFF1FBE
:104A9400348FFF1F3C8FFF1F3C8FFF1F448FFF1F6E
:104AA400448FFF1F4C8FFF1F4C8FFF1F548FFF1F1E
:104AB400548FFF1F5C8FFF1F5C8FFF1F648FFF1FCE
:104AC400648FFF1F6C8FFF1F6C8FFF1F748FFF1F7E
:104AD400748FFF1F7C8FFF1F7C8FFF1F848FFF1F2E
:104AE400848FFF1F8C8FFF1F8C8FFF1F948FFF1FDE
:104AF400948FFF1F9C8FFF1F9C8FFF1FA48FFF1F8E
:104B0400A48FFF1FAC8FFF1FAC8FFF1FB48FFF1F3D
:104B1400B48FFF1FBC8FFF1FBC8FFF1FC48FFF1FED
:104B2400C48FFF1FCC8FFF1FCC8FFF1FD48FFF1F9D
:104B3400D48FFF1FDC8FFF1FDC8FFF1FE48FFF1F4D
:104B4400E48FFF1FEC8FFF1FEC8FFF1FF48FFF1FFD
:104B5400F48FFF1FFC8FFF1FFC8FFF1F000002005C
:044B6400FFFFFFFF51
:00000001FF
