:1000000000800020BD010000913C0000493C000040
:10001000493C0000493C0000493C0000493C0000CC
:10002000493C0000493C0000493C0000913C000074
:10003000913C0000493C0000913C0000393C00002C
:10004000913C0000913C0000913C0000913C00007C
:10005000913C0000913C0000913C0000913C00006C
:10006000913C0000913C0000913C0000913C00005C
:10007000913C0000913C0000913C0000913C00004C
:10008000913C0000913C0000913C0000913C00003C
:10009000913C0000913C0000913C0000913C00002C
:1000A000913C0000913C0000913C0000913C00001C
:1000B000913C0000913C0000913C0000913C00000C
:1000C000913C0000913C0000913C0000913C0000FC
:1000D000913C0000913C0000913C0000913C0000EC
:1000E000913C0000913C0000913C0000913C0000DC
:1000F000913C000071560000913C0000B55D00008D
:10010000913C000025630000913C0000913C000000
:10011000913C0000913C0000913C0000913C0000AB
:10012000913C0000913C0000913C0000913C00009B
:10013000913C0000913C0000913C0000913C00008B
:10014000913C0000913C0000913C0000913C00007B
:10015000913C0000913C0000913C0000913C00006B
:10016000913C000009410000913C0000913C0000DE
:10017000913C0000913C0000913C0000913C00004B
:10018000913C0000913C0000913C0000913C00003B
:10019000913C0000913C0000913C0000913C00002B
:1001A000913C0000913C0000913C0000913C00001B
:1001B000913C0000913C0000913C0000564B4CF2F9
:1001C000205210B51A804DF628121A8000BF00BFC9
:1001D00003F062FD514B4FF010621A60504A9A6072
:1001E000504ADA60504A136813F4807304D14F49BF
:1001F0000B604FF4A85313604D4B1A78110703D5C9
:100200001A7842F008021A704A4B4B492A221A7097
:100210004A4A4B4B8B4204D252F8040F43F8040B6A
:10022000F8E7484B484900228B4202D243F8042B9E
:10023000FAE74649464A002352F8230041F82300D2
:1002400001336F2BF8D1434B434A802103F8011B44
:100250009342FBD1414B3D4A1A60414B8A221A70AE
:10026000A3F5805324225A70A0221A709A7992071B
:10027000FCD59A79D406FCD43A4A937903F00C035E
:10028000082B384BF9D103221A7140225A719A79FE
:100290009006FCD5334A9179324B4906FBD5324A58
:1002A000324911600221516020221A709A7902F0BD
:1002B0000C020C2AFAD12E4B2E4A1A602E4B2F4AD2
:1002C0001A6000225A60072243F8042C2C4AC3F813
:1002D0000C2D62B603F0F0FD144B1B68DA0705D550
:1002E000284803F07DFD284B284A1A60284B1B78CC
:1002F0005B0609D5244C254B22689A4204D121483B
:1003000003F06EFD0023236007F0B6F903F0CAFC8A
:1003100004F090FDFEE700BF0E2005403080044051
:10032000823F04000100002B10D0034014D0034092
:1003300002D0074000E007401490FF1F288800000B
:100340002087FF1F1890FF1F9096FF1F0082FF1F3E
:100350000000000000E400E05FE400E008ED00E0E1
:100360000050064000400640448004400000030165
:1003700004800440C010050014E000E0FF76010096
:10038000000020207194A4021CE00340A5C3945AED
:1003900000F00740FFFFFFFFFFFFFFFFFFFFFFFF32
:1003A000FFFFFFFFFFFFFFFFFFFFFFFFFFFFFFFF5D
:1003B000FFFFFFFFFFFFFFFFFFFFFFFFFFFFFFFF4D
:1003C000FFFFFFFFFFFFFFFFFFFFFFFFFFFFFFFF3D
:1003D000FFFFFFFFFFFFFFFFFFFFFFFFFFFFFFFF2D
:1003E000FFFFFFFFFFFFFFFFFFFFFFFFFFFFFFFF1D
:1003F000FFFFFFFFFFFFFFFFFFFFFFFFFFFFFFFF0D
:10040000FFFFFFFFFFFFFFFFFFFFFFFFDEF9FFFF23
:1004100010B5054C237833B9044B13B10448AFF33E
:1004200000800123237010BD1890FF1F0000000002
:100430002C880000084B10B51BB108490848AFF3E1
:1004400000800848036803B910BD074B002BFBD0A0
:10045000BDE81040184700BF000000001C90FF1FBF
:100460002C8800001490FF1F0000000038B50E4AD1
:100470000E490F4D0F4C1378002BFCD00B789B07C7
:10048000F9D02B6820681B1A182BF4D900210E20F4
:1004900003F0BEFC0F20002103F0BAFC0648BDE8C3
:1004A000384000F0A5BE00BF5494FF1F6C94FF1F9E
:1004B0007093FF1F8896FF1F3890FF1F014803F0BD
:1004C0008FBB00BF3890FF1F00B50F2283B04FF4E1
:1004D000FA738DE80C000449044A05480E2300F025
:1004E000CBFD03B05DF804FB8094FF1F7094FF1FE9
:1004F0003890FF1F38B5124A124B00F1AC050021AD
:10050000044600F0AFFA28460F4B104A012100F0D4
:10051000A9FA0F490F4A022384F858310B68C4F82E
:10052000605143F00063C4F86851C4F85C41C4F8FA
:1005300064410B60136843F000632046136038BDCC
:10054000B883000010840000B4830000E48300003E
:100550003C80044030800440012A03D0D0F85C0184
:1005600000F010B9D0F8600100F00CB9012A03D0F6
:10057000D0F85C0100F04EB9D0F8600100F04AB943
:10058000012A03D0D0F85C0100F058B8D0F860011F
:1005900000F054B8531C13D02AB1012A07D1D0F867
:1005A000600100F047BBD0F85C0100F043BBD0F81D
:1005B0005C212148D38A9BB243F00103D382704768
:1005C00070B50446D0F85C010D4600F011FB2946D9
:1005D0000646D4F8600100F00BFB76B1A8B1D4F860
:1005E0005C31D4F86001597D427D914298BF184634
:1005F0002946BDE8704000F01DBB68B12946D4F81B
:100600006001BDE8704000F015BB2946D4F85C01DC
:10061000BDE8704000F00EBBD4F85C11D4F8602146
:10062000CB8A05489BB243F00403CB82D38A9BB2AA
:1006300043F00403D38270BD90EEFEFF38B5437ED5
:1006400004460D46DBB9A36D012D4FEA43131DD9B6
:1006500003F184430122042D9A6009D9082D23D97E
:10066000102D1AD91A605A60202384F8203038BD22
:1006700000221A605A60042384F8203038BD00F04C
:100680001BF8A36D012D4FEA4313E1D803F1844217
:100690000023936084F8203038BD002183E80600F1
:1006A000102384F8203038BD00211A6059600823D7
:1006B00084F8203038BD00BFF8B5836D5B0103F1CD
:1006C00084430446DA6942B104F0ECFBA36D5B019C
:1006D00003F18443DA69002AF6D19B6923B1E38AE6
:1006E0009BB243F00203E38272B6637E002B37D0E5
:1006F000216F636FA26F0F68E06F1B68D4F88010E2
:1007000016680568D4F8842009681268606E3B4456
:1007100033442B440B441344C3F34E03D4F88C509E
:10072000D4F89010D4F8942043F4004303602F6869
:10073000D4F898000B681668D4F89C100568D4F8B3
:10074000A02009681268A06E3B4433442B440B443C
:100750001344C3F34E0343F4004300220360627664
:1007600062B6A37E6BB10221204600F053F802214D
:10077000204600F0D1F804212046FFF75FFF002358
:10078000A376F8BD38B5C37E8B4211D0437E0446B4
:100790000D466BBB092D0CD8E36B5B0103F1844361
:1007A0000022DA609A60FF210823E161E37638BD18
:1007B00038BD0B2D1FD90D2D0DD8E36B5B0103F157
:1007C000844300200121D860996040F6FF720C2319
:1007D000E261E37638BDE36B5B0103F18443012200
:1007E000DA609A604FF6FF711023E161E37638BD5D
:1007F000FFF762FFCEE7E36B5B0103F18443012067
:100800000021D860996040F2FF320A23E261E3766A
:1008100038BD00BF90F824308B4256D070B5437E6F
:1008200005460C46002B34D1A31F032B2A6C16D986
:10083000520102F184420021D1606CBBEB6B9460E9
:100840005B0103F1844301221046DA610026012195
:1008500083E8420098615A6185F8244070BDEB6BD3
:1008600052015B0103F1844302F184420121002023
:10087000062CD160596019605861986126D0072C08
:1008800029D0082C0CBF90609160D86185F8244075
:1008900070BDFFF711FFC7E7012C0DD0022C31D03E
:1008A000032C1BD0042C19D0052C21D0EB8A9BB231
:1008B00043F00103EB8270BDEB6B91605B0103F1D0
:1008C00084432046DC612246C0E770479060D961CE
:1008D00085F8244070BD9160D961BDE7EB6B5B0189
:1008E00003F18443012090600246D9610846ADE7D8
:1008F000EB6B5B0103F184430126966008460A46D0
:10090000D961A3E7EB6B91605B0103F184430A4675
:10091000D96101209AE700BF38B590F825308B42A5
:1009200021D0437E05460C46F3B974B1012C2DD07D
:10093000022C38D0032C1CD0042C14D1EB6B5B019F
:1009400003F1844300221A610BE0EA6B2B6C520125
:100950005B0103F1844302F18442012111615C6077
:100960001C6085F8254038BDFFF7A6FE002CDDD1C0
:10097000EBE7EA6B2B6C52015B0103F1844302F15C
:1009800084420121116159601960EAE7EA6B2B6C1E
:1009900052015B0103F1844302F18442002114619E
:1009A0001C605960DDE7EA6B2B6C52015B0102F1C0
:1009B0008442012103F184430020116183E8030094
:1009C000CFE700BF70B5026C04460023C376012157
:1009D000052504200226E361AA4084F8203084F82B
:1009E000216084F8223084F8231084F8245084F89D
:1009F00025006376E38202F1844294F82100637556
:100A0000116188B1164A1370626D84F82130AA40D2
:100A100002F18442136072B6A36D6176AB4003F1BC
:100A200084439961D96162B6012520460A21FFF706
:100A3000A9FE2046A5762021FFF700FE2946204684
:100A4000FFF7E8FE29462046FFF766FF72B6A36D62
:100A500065765B0103F184439D61DD6162B670BD23
:100A6000014007402DE9F0418262454A454EC3628C
:100A7000CD0401EB81072A44FF004FF40033002925
:100A800001763E4403634264DFF83CE13E4F3F4958
:100A90003F4A404BDFF8348105F1804CAE442F448F
:100AA00029442A442B440CF56C3CC0F834C0C0F8EF
:100AB00038E0C7630164C2650366DFF814C1DFF87C
:100AC00014E1354F3549364A364BA844AC44AE4460
:100AD0002F4429442A442B44C0F84880C0F84CC015
:100AE000C0F850E04765816542678367DFF8E880BA
:100AF000DFF8E8C0DFF8E8E02B4F2C492C4A2D4BFB
:100B0000A844AC44AE442F4429442A442B44C0F8A2
:100B10006480C0F868C0C0F86CE00767C167C0F8BF
:100B20008820C0F88C30DFF8BC80DFF8BCC0DFF86C
:100B3000BCE0214F2149224A224BAC44AE44294417
:100B40002A442B44A8442F4414BF3A25392504468F
:100B5000C0F88080C0F884C0C0F890E0C0F89470FD
:100B6000C0F89810C0F89C20C0F8A030C0F8A4606D
:100B700080F8A850FFF726FF2046BDE8F08100BFAF
:100B800010B003401060034008B003400CB00340B5
:100B900050B0034028B0034020B0034024B00340CD
:100BA0003CB0034040B0034038B0034044B0034081
:100BB00054B0034058B0034060B0034064B00340F9
:100BC00068B003406CB0034004B0034014B003406D
:100BD00018B003401CB003402CB0034030B00340B9
:100BE00034B0034048B003404CB003405CB0034015
:100BF0002B2907D8836A585C00F01F001F3818BFE4
:100C00000120704700207047836A026C5B5C5201D0
:100C1000190602F184424CBF00210121116172B614
:100C200090F82210426B03F01F0303EB8113136053
:100C300062B670472B292DE9F84F82465BD8836A4C
:100C40005B5C03F01F031F2B55D0437D427E0133B5
:100C50008B464375002A75D1DAF854305B0103F1F5
:100C60008443DC69003418BF0124002C4DD1A04618
:100C7000A146264627462546DAF858305B0103F19F
:100C8000844300225946DA605046FFF7BDFF01E079
:100C900004F008F9DAF854305B0103F18443DB69AE
:100CA000002BF5D172B6DAF834305B0103F18443DE
:100CB000DB69002B3DD0DAF84430186880B262B6A8
:100CC00094B172B6DAF83C20DAF84030DAF8541011
:100CD000C2F80090DAF85820C3F80080DAF834300F
:100CE0000F6016601D6062B69AF81530013B8AF8F5
:100CF0001530BDE8F88FBAF8163014489BB243F0AF
:100D00000403AAF81630BDE8F88F72B6DAF834504A
:100D1000DAF83C00DAF84010DAF85420DAF8583003
:100D20002D68D0F80090D1F8008017681E6862B670
:100D3000A2E7BAF8163005489BB243F01003AAF8B0
:100D40001630BCE7FFF7B8FC86E700BF90EEFEFF69
:100D5000F0B50E4C83B024680194019C0466DDE973
:100D60000867DDE90A450C99C160C0E90A234FF61E
:100D7000FF73038386460023C0E90C67C0E90E4574
:100D8000C3824383037703B0F0BD00BF7093FF1F9E
:100D9000037F002B66D02DE9F047D0E9004582B0F3
:100DA000824622462B46D0E9160105F0D5FCDAE949
:100DB00012230FF2D409D9E90089CDE9000105F029
:100DC0007FFEDAE91A2305F0C9FC42464B46064687
:100DD0000F4606F005F9002835D0CAE91A894646BB
:100DE0004F46DAE91023DDE9000105F069FE3246DD
:100DF0003B4605F0B3FCDAE91C2306460F462046C5
:100E0000294605F0A9FCDAE9142305F059FE02464B
:100E10000B463046394605F09FFC00221E4B05F07C
:100E20004FFE1BA3D3E9002306460F4606F0D8F871
:100E3000C8B90022194B3046394606F0B3F8D0B194
:100E40006FF07F0010E0DFF858904FF00008424646
:100E50004B463046394606F0A5F80028BDD1CAE910
:100E60001A67BEE770477F20CAE91C458AF8080068
:100E700002B0BDE8F0873046394606F0BBF840B214
:100E8000F2E700BFAFF3008000000000C0FFDF40CA
:100E90000000000000C05F400000703F000060C024
:100EA0000000E0C0D0B516461F4604460022104B95
:100EB0003046394605F02EFF06460F4602460B46E1
:100EC000C4E90867D4E90C0105F0FAFD0022C4E981
:100ED000120100233046394606F05AF838B9324636
:100EE0003B46D4E90E0105F015FFC4E91401D0BD5D
:100EF00000408F4010B50446084605F06BFDC4E97C
:100F0000000110BD012A10B5044605D0D0E9160134
:100F100006F098F880B210BDB0F91A20038BC08A91
:100F200011449942A8BF19468142A8BF88B205F072
:100F300051FDC4E9160106F085F880B210BD00BF6E
:100F4000A3F5FF437F3B43830183C282704700BF09
:100F50002DE9F047D0E90023D0E90A678246002452
:100F60000025C0E91C2382B030463946CAE91A453B
:100F700022462B4606F016F8002830D1DAE90C8913
:100F800022462B464046494606F00CF838BBDAE9C3
:100F90000E231046194622462B46CDE9000106F0E5
:100FA00001F8E0B9DAE90812CAE9106713464046C9
:100FB0000A46494616461F4605F082FD2246CAE902
:100FC00012012B463046394605F0E2FF38B9324669
:100FD0003B46DDE9000105F09DFECAE9140102B0BF
:100FE000BDE8F087027F02B1704710B50446FFF7F5
:100FF000AFFF0123237710BD2DE9F041846874B160
:10100000A3686568033323F00303CA18AA42A360E8
:1010100005D804F10C00A2601844BDE8F081C7684F
:10102000B942884638BFB846054608F10C000E465E
:1010300006F04AFB40B17F0080E81001A86086609E
:10104000EF600C30BDE8F081BDE8F081084603F0A8
:1010500011BE00BF08B5064802F03CFE30B1054B9A
:10106000034800221A605A6002F03AFE08BD00BF31
:101070006493FF1F6893FF1F2DE9F04F8DB030A7D9
:10108000D7E900679046049207932FA3D3E9002382
:10109000DFF8C4B0BDF85C504FF0000ACDE9022380
:1010A000894632463B46CDE900AB00210446FFF7B6
:1010B0004FFE25A3D3E900230121CDE90223CDF87A
:1010C000108032463B46CDE900AB04F18000FFF7CB
:1010D0003FFE9DF81C3084F800319DF8583084F8AC
:1010E00001314FF4B67003F0ADFE0646FFF702FA89
:1010F000174BC4F804611A680B920B991A680A928C
:101100000A9A1B680993099BC4F81823C4F81C3376
:10111000C4F81091A4F80C532846C4F8141105F033
:1011200059FC00220B4B05F0F5FD04F54473C3E9AF
:10113000000120460DB0BDE8F08F00BFAFF3008086
:10114000000000A09999A93F000000E04D62503FC7
:101150007093FF1F00408F400000F03F10B54FF02C
:10116000FF32044690F80011D0F80401FFF712FA9C
:1011700081B22046FFF7BEFE94F80111D4F80401B5
:101180004FF0FF32FFF706FA81B204F18000BDE8AC
:101190001040FFF7AFBE00BF10B504464FF0FF325E
:1011A000D0F804011021FFF7D7F9D4F804014FF06B
:1011B000FF321021FFF7E4F9D4F804014FF0FF32B9
:1011C0000221FFF7D3F9D4F8040101221021FFF71F
:1011D000C3F9D4F8040101221021FFF7D1F9D4F8A2
:1011E000040101220221BDE81040FFF7BFB900BF92
:1011F00038B5044600F18005FFF7CEFF20460122F6
:101200004FF40041FFF77EFE012228464FF40041D3
:10121000FFF778FEB4F80C0305F0DCFB02460B4642
:101220002046FFF73FFEB4F80C0305F0D3FB02465F
:101230000B462846FFF736FE2046FFF7D3FE28462A
:10124000BDE83840FFF7CEBE2DE9F04F0378013BF3
:1012500087B006460D46072B17D8DFE813F00800C5
:1012600033014900260019005B0083000A0146682B
:101270000C68304606F084FE236802465B683146FF
:10128000204698476B681844686007B0BDE8F08F47
:101290000868AA4A03681B68934240F059832D20CE
:1012A00003F0E8FC6B681844686006AC00227368C1
:1012B00004F8032DA248A0FB0312D20802EB82011E
:1012C000A3EB4103303304F8013D1346002AF2D169
:1012D0002E68204606F054FE3368024621465B68BD
:1012E000304698476B681844686007B0BDE8F08FD7
:1012F00008687468934A036893495B68002C16BFBA
:1013000011460522042298476B681844686007B0AC
:10131000BDE8F08F0868894F036874681B68BB429A
:1013200040F013835B2003F0A5FC6B6864681844ED
:1013300068602CB959E203F09DFC6B6803446B6054
:10134000201D2946FFF780FF24682C20002C00F088
:101350004C822A6813681B68BB42ECD010462C21D3
:101360009847EAE70868754F036874681B68BB42D2
:1013700040F0E8827B2003F07DFC6B68D4F80480A9
:1013800018446860B8F1000F00F02582D8F80460B6
:101390002868002E5DD003681B68BB4240F00A82BB
:1013A000222003F067FC6B68013E03446B6016F873
:1013B000010FD8B1222800F0BE81644B03E05A78B7
:1013C000824200F0B9819C780233002CF7D12B685F
:1013D0001A681268BA4240F0CC8103F04BFC6B688B
:1013E0001844686016F8010F0028E3D128680368E4
:1013F0001B68BB4240F0DB81222003F03BFC6B68A2
:10140000034428686B6003681B68BB422ED13A20F6
:1014100003F030FC6B6803446B6008F10800294658
:10142000FFF712FFD8F80080B8F1000F00F0D38169
:10143000286803681B68BB4240F0BF812C2003F082
:1014400019FC6B68D8F8046003446B602868002EB0
:10145000A1D103683E495B68042298476B68184431
:101460006860286803681B68BB42D0D03A2198475F
:10147000D0E746683146304606F0A6F8002800F06E
:1014800057820021304606F0A9F8002840F0CB82B0
:101490000021304606F098F800285DD131463046EC
:1014A00005F0F6FD0146304606F08EF8002853D0D0
:1014B00028682849036808225B6898476B681844C5
:1014C0006860E2E646680868002E00F05282036811
:1014D0001A4F1B68BB4240F04782222003F0CAFB30
:1014E0006B681844013E686016F8010FD8B12228D5
:1014F00000F04381154B03E05A78824200F03E81B0
:101500009C780233002CF7D12B681A681268BA4213
:1015100040F05D8103F0AEFB6B681844686016F81C
:10152000010F0028E3D1286803681B68BB4240F024
:101530001282222003F09EFBD4E600BF4D10000073
:10154000CDCCCCCC20840000288400004084000056
:101550003884000050840000A949304606F052F853
:10156000002840F0718104460021304606F054F80E
:10157000002863D0A349304606F03AF800285DD031
:101580000021304606F02AF8002840F0648200214D
:10159000304606F023F8002840F0968200213046BD
:1015A00006F01CF8002840F086829749304606F085
:1015B00015F830B13046954905F072FE203C0646DC
:1015C00024B29349304606F009F830B130469149CB
:1015D00005F066FE103C064624B28F49304605F001
:1015E000FDFF30B130468D4905F05AFE083C0646F5
:1015F00024B28B49304605F0F1FF30B130468949BD
:1016000005F04EFE043C064624B28749304605F0FC
:10161000E5FF30B13046854905F042FE023C064602
:1016200024B24FF07E51304605F0D8FF30B130463D
:101630007F4905F035FE013C064624B2304605F0F0
:10164000F5FF804605F0D4FD0146304605F01EFD4D
:10165000784905F025FE064605F0E8FF074605F047
:10166000C7FD0146304605F011FD014605F010FDAD
:1016700005F0DCFF704B07449F420DD908F10108CB
:10168000002C00F0DF81B8F1090F40F2268201340E
:1016900024B200274FF0010806AE002306F8033DF0
:1016A0006649B146A1FB0823DB0803EB8302A8EBE4
:1016B0004202303209F8012D9846DFF880A1002B54
:1016C000F0D1D5F800B0484606F05AFCDBF80030FF
:1016D00002465B684946584698476B6818446860FC
:1016E000002F40F04F81002CC0F2BF813FF4CDAD00
:1016F0002868534A03681B68934240F0D5816520EF
:1017000003F0B8FA6B684F491844002368608DF8FD
:10171000153081FB0432E317C3EBA20202EB820314
:10172000A4EB4303303314B206F8013D002CF0D192
:1017300030462C689EE50446286803681B68BB4257
:1017400010D15C2003F096FAD5F800E06B68DEF863
:10175000002012680344BA426B6006D1204603F0B1
:1017600089FA3CE65C219847EEE7214670469047AF
:1017700035E601461846904731E604462868036876
:101780001B68BB4220D15C2003F074FAD5F800E05E
:101790006B68DEF8002012680344BA426B600FD118
:1017A000204603F067FA6B6803446B609CE62221D5
:1017B000984724E622219847F5E52C21984740E6F2
:1017C000214670469047EEE75C219847DEE70146E8
:1017D00018469047A0E6286803681B68BB4240F0A3
:1017E000C0807D2003F046FA7CE5286803681B680A
:1017F000BB4240F0B3805D2003F03CFA72E500BFCD
:101800008096184BACC52737B3CE010CAEC59D747E
:101810007D1D9026CA1B0E5A95BFD63320BCBE4CE8
:101820006F12833A00401C46CDCCCC3D0000C8422C
:1018300000002041002474493F420F00CDCCCCCCA5
:101840004D10000067666666A649304605F0E4FE66
:10185000002800F08C8030464FF0FF4105F0D4FDA9
:101860004FF4807406469F49304605F0D5FE38B1E6
:1018700030464FF0FF4105F0C7FD8034064624B2E4
:101880009849304605F0C8FE38B130464FF0FF4168
:1018900005F0BAFD4034064624B29349304605F0BF
:1018A000B1FE30B13046904905F0AEFD2034064619
:1018B00024B28E49304605F0A5FE30B130468B4942
:1018C00005F0A2FD1034064624B28949304605F0E1
:1018D00099FE30B13046864905F096FD083406463B
:1018E00024B28449304605F08DFE30B1304681493E
:1018F00005F08AFD0434064624B27F49304605F0DF
:1019000081FE30B130467C4905F07EFD023406464A
:1019100024B27A49304605F075FE00283FF424AE23
:101920003046764905F070FD0134064624B21BE6C8
:1019300028687349036803225B6898476B681844FA
:101940006860A2E47B21984717E55B219847ECE4A7
:101950002D219847A6E422219847C3E45D219847AA
:10196000C0E47D219847BDE422219847B8E50446AC
:1019700079E7036863495B68042298476B681844F9
:10198000686082E4AAFB0723DB0803EB8303B7EB61
:10199000430F5CD1062002E0002900F08880AAFBFA
:1019A0000737FF08AAFB0712C3B2D208591E02EB81
:1019B0008202C9B2B7EB420F48B2EDD0023B00221F
:1019C0005BB28DF8072000283ED0DBB206AAC3EB3D
:1019D000020EDFF840C1AEF1120E0DF10700ACFBB4
:1019E0000712D20802EB8201A7EB4101303100F867
:1019F000011D70451746F2D1DB430DF10702134478
:101A000003F1FF382E222F6803F8012C404606F020
:101A1000B7FA3B6802465B684146384698476B68B0
:101A2000184468605FE62868374A03681B68934279
:101A300055D12D2003F01EF96B68184406F10046BD
:101A4000686025E5274627E60DF10703D8E78DF8FE
:101A500007800523B9E730464FF0FF4105F020FC31
:101A6000A4F58074064624B291E5286827490368E6
:101A700002225B6898476B6825491844002264423B
:101A800068608DF8152081FB0432E317C3EBA202D6
:101A900002EB8203A4EB430404F1300306F8013D9A
:101AA0001446002AEFD143E6652198472AE606ABA3
:101AB00003F8111DA4E730464FF0FF4105F0F0FB9D
:101AC000403C064624B270E530464FF0FF4105F039
:101AD000E7FB803C064624B260E50027DCE52D21CB
:101AE0009847A9E7FFFF7F7FAEC59D74CA1B0E5ABA
:101AF00020BCBE4C00401C460000C84200002041F3
:101B000030840000388400004D1000003484000050
:101B100067666666CDCCCCCC2DE9F04186B0DFF8A7
:101B2000CC82CDF8088000254FF480764FF4867083
:101B30000495059605F0C8FD002800F0998108235A
:101B40000DEB03044FF4007283609B4B056180E84A
:101B5000600004900592C46000F10C05204610213D
:101B60009847044610B10023036003726B680BB9F9
:101B70009CE113461A68002AFBD11C602CB18F4BE4
:101B800063608F4BE360022323726E68002E00F0C7
:101B9000AF81344603E02468002C00F0EE806168D9
:101BA000884806F081F80028F5D10222864B22727F
:101BB000E3606E68002E00F09781344603E02468ED
:101BC000002C00F015816168804806F06DF800284F
:101BD000F5D102227E4B2272E3606E68002E00F087
:101BE0007F81344603E02468002C00F01E81616888
:101BF000784806F059F80028F5D10223764A237276
:101C000000238DE80C007549E1607B2003F032F879
:101C1000019B6F68724E18440190002F00F0948071
:101C20007D680098002D54D003681B68B34240F0D3
:101C30008880222003F01EF8019B013D034401939C
:101C400015F8010FC0B1222853D0664B02E05A7834
:101C500082424FD09C780233002CF8D1009B1A6846
:101C60001268B2425CD103F005F8019B1844019060
:101C700015F8010F0028E6D1009803681B68B342ED
:101C80005CD1222002F0F6FF019B034400980193EF
:101C900003681B68B34229D13A2002F0EBFF019B95
:101CA0006946034407F108000193FFF7CDFA3F6846
:101CB000002F49D0009803681B68B3423BD12C2009
:101CC00002F0D8FF019B7D68034401930098002D2A
:101CD000AAD1036844495B6804229847019B1844D1
:101CE0000190009803681B68B342D5D03A21984709
:101CF000D5E70446009803681B68B34218D15C20FE
:101D000002F0B8FFDDF800E0019BDEF80020126869
:101D10000344B242019307D1204602F0ABFFA4E78F
:101D2000014618469047A0E72146704690479CE739
:101D30005C219847E6E72C219847C3E72221984782
:101D4000A2E72221984777E7009803681B68B3420F
:101D500040F08B807D2002F08DFF1F4803F074F867
:101D60000498CDF8088028B1046805F0B5FC204639
:101D7000002CF9D106B0BDE8F0812868002800F0F9
:101D8000A680036810211B6898470646002800F0CB
:101D9000A58000226B680260027243B96E60002E5B
:101DA0003FF407AF074B73603446FEE613461A68EC
:101DB000002AFBD11E60F2E7F90F00005C840000EE
:101DC000608400006C840000708400008484000043
:101DD0008C840000948400008094FF1FA084000085
:101DE0004D10000040840000388400001C84000076
:101DF0002868002868D0036810211B6898470646A9
:101E0000002869D000226B680260027243B96E60DC
:101E1000002E3FF4E2AE394B73603446D9E61346E8
:101E20001A68002AFBD11E60F2E7286898B103689F
:101E300010211B689847044600284BD000236E6889
:101E4000036003723EB9264634466E604CB12C4B9B
:101E50006360D2E61E463368002BFBD13460002C51
:101E6000F5D1284B8DE81800CFE67D21984774E71F
:101E7000254E336813F001041AD0244D6C6814B950
:101E800009E024683CB16168214805F00DFF002895
:101E9000F7D11E4D75E62C681CB123681B4D1B68DD
:101EA0005CE61A4D6B68002B7FF464AE6C6065E6EF
:101EB000304601F00FFF154D0028DFD030462C6072
:101EC0006C6001F00DFFD9E733462646A8E733469C
:101ED00026466CE76E68B5E76B6897E76B685CE76A
:101EE00028680028B0D0A2E7286800288FD082E7B1
:101EF000286800283FF452AF43E700BF8484000005
:101F0000948400008094FF1F5893FF1F5C93FF1F71
:101F10005C8400002DE9F04F89B0944B04930025B8
:101F20004FF480764FF486700695079605F0CCFB4B
:101F3000002800F09383082380E860004FF40072CB
:101F400004AC83608A4B069005610792C46000F17F
:101F50000C08204610219847044610B10023036066
:101F60000372D8F804300BB99DE313461A68002AAF
:101F7000FBD11C602CB17F4B63607F4BE36002237D
:101F80002372D8F80040002C40F0F5827B4E336875
:101F900013F0010400F0A783794E37680196DFF84B
:101FA00008B2DFF800A20025002F00F0C9803B68CE
:101FB00008211B6838469847002800F0E18100237B
:101FC000076043600446019B186838B103680C2120
:101FD0001B68984710B1002303600371019B5A6886
:101FE0000AB9A9E21A461368002BFBD1106040B170
:101FF0002368002B16BFA14600230723C0F80890D2
:1020000003716768002F00F0A5803E4603E0366844
:10201000002E00F09C8171685A4805F045FE0028AA
:10202000F5D10422F56032726768002F00F0FA8261
:102030003E4603E03668002E00F06B81716852481E
:1020400005F032FE0028F5D10422F560327267688F
:10205000002F00F0EE823E4603E03668002E00F0CE
:102060003A817168494805F01FFE0028F5D1042225
:10207000F56032726768002F00F0E2823E4603E0AE
:102080003668002E00F009817168414805F00CFEA9
:102090000028F5D10422F56032726768002F00F045
:1020A000D6823E4603E03668002E00F0D880716884
:1020B000384805F0F9FD0028F5D10422F5603272A8
:1020C0006768002F00F099823E4603E03668002ED4
:1020D00000F0A7807168304805F0E6FD0028F5D1D2
:1020E0000422F56032726768002F00F08D823E4650
:1020F00002E03668002E76D07168284805F0D4FDDD
:102100000028F6D10422F56032726768002F00F0D3
:1021100082823E4602E03668002E47D07168204831
:1021200005F0C2FD0028F6D10422F56032720135B7
:10213000022D00F02D81019B1F68002F7FF437AF27
:10214000DBF80030DB0740F1FA81164C6768002F9E
:102150007FF45BAF2068002840F0FB800646666095
:10216000002E3FF461AF074A72605AE71C840000FA
:10217000F90F00005C840000A88400006493FF1F36
:102180006893FF1FB4840000B8840000C48400007A
:10219000C8840000CC840000D0840000D4840000F7
:1021A000D88400005C93FF1F5893FF1F206888B1FC
:1021B000036810211B6898470646002800F0DB8260
:1021C0000022676802600272002F00F029823A68DC
:1021D0001AB117463A68002AFBD13E60002EA6D0FD
:1021E0007F4A7260A0E7206888B1036810211B68ED
:1021F00098470646002800F0BC820022676802600B
:102200000272002F00F005823A681AB117463A6848
:10221000002AFBD13E60002E3FF477AF714A726016
:1022200070E7206888B1036810211B68984706464C
:10223000002800F09C820022676802600272002F72
:1022400000F0E0813A681AB117463A68002AFBD1DB
:102250003E60002E3FF447AF634A726040E720685B
:1022600088B1036810211B6898470646002800F0D3
:102270007C820022676802600272002F00F0EC810D
:102280003A681AB117463A68002AFBD13E60002E20
:102290003FF416AF554A72600FE7206888B10368B3
:1022A00010211B6898470646002800F05C82002237
:1022B000676802600272002F00F0C7813A681AB1A5
:1022C00017463A68002AFBD13E60002E3FF4E5AE87
:1022D000474A7260DEE6206888B1036810211B68F7
:1022E00098470646002800F03C820022676802609A
:1022F0000272002F00F0A2813A681AB117463A68BC
:10230000002AFBD13E60002E3FF4B4AE394A726021
:10231000ADE6206888B1036810211B68984706461F
:10232000002800F01C820022676802600272002F01
:1023300000F07D813A681AB117463A68002AFBD14D
:102340003E60002E3FF483AE2B4A72607CE620682C
:1023500088B1036810211B6898470646002800F0E2
:10236000FC810022676802600272002F3FF4F7AE22
:102370003A681AB117463A68002AFBD13E60EFE688
:10238000DBF8003013F0010400F0E7801B4C1AE684
:102390001B4B02937B200023039302F06BFC039BF7
:1023A000D8F80470174E18440390002F00F0AB804B
:1023B0007D680298002D6BD003681B68B34240F023
:1023C0009F80222002F056FC039B013D03440393AF
:1023D00015F8010F00282ED0222869D00A4B18E0EA
:1023E000D8840000D4840000D0840000CC84000095
:1023F000C8840000C4840000B88400005C93FF1F00
:102400008094FF1F4D100000408400005A788242E3
:102410004FD09C780233002CF8D1029B1A681268C6
:10242000B2425CD102F026FC039B1844039015F8DD
:10243000010F0028D0D1029803681B68B3425CD119
:10244000222002F017FC039B0344029803930368C5
:102450001B68B34229D13A2002F00CFC039B02A96D
:10246000034407F108000393FEF7EEFE3F68002FD8
:1024700049D0029803681B68B3423BD12C2002F07C
:10248000F9FB039B7D68034403930298002D93D1CD
:102490000368A2495B6804229847039B1844039091
:1024A000029803681B68B342D5D03A219847D5E714
:1024B0000446029803681B68B34218D15C2002F0FE
:1024C000D9FBDDF808E0039BDEF800201268034426
:1024D000B242039307D1204602F0CCFBA4E70146A9
:1024E00018469047A0E72146704690479CE75C213C
:1024F0009847E6E72C219847C3E722219847A2E7AF
:102500002221984760E7029803681B68B34240F0B5
:10251000C0807D2002F0AEFB814802F095FC069859
:10252000804B049328B1046805F0D6F82046002CAF
:10253000F9D109B0BDE8F08F019B586057E57A48A2
:1025400001F0C8FB00283FF400AE7748CAF80070DD
:10255000CAF8047001F0C4FBF7E5734801F0BAFB58
:1025600000283FF413AF7048CAF80040CAF804408E
:1025700001F0B6FB0AE7236808211B68204698474C
:10258000002800F093800023046043600646D8F8DA
:102590000450002D00F095802C4601E0246884B1A1
:1025A0006168624805F080FB0028F7D13768019622
:1025B000002F15BF06220022334600232272E3605B
:1025C000EDE4D8F8000070B1036810211B6898474B
:1025D0000446002800F0B4800023D8F804500360BB
:1025E0000372AFE01D462B68002BFBD12C60002C42
:1025F00000F0B0804D4B6360D8E7206800287FF47E
:1026000012AE0646666024E6206800287FF4EDAD31
:1026100006466660FFE5206800287FF4C9AD0646DF
:102620006660DBE5206800287FF475AE06466660CC
:1026300087E6206800287FF450AE0646666062E6B2
:10264000206800287FF42BAE064666603DE62068D1
:1026500000287FF406AE0646666018E6324E336800
:1026600013F0010433D0324D6C6814B90AE02468C9
:1026700044B161682F4805F017FB0028F7D1DFF857
:10268000B0807AE42C683CB12368DFF8A4801B6832
:102690005FE47D2198473FE7DFF89480D8F8043065
:1026A000002B7FF463ACC8F8044063E4224D2B6830
:1026B00013F0010426D0D8F80450204E002D7FF4EA
:1026C0006BAFD8F8000000287FF47EAF3EE03046C4
:1026D00001F000FB164D0028C6D030462C606C601F
:1026E00001F0FEFAC0E7304601F0F4FA00283FF4AA
:1026F00053AC124D019530462C606C6001F0F0FA3D
:102700002F684CE4284601F0E5FA0028D3D00B4EA0
:1027100028463460746001F0E3FA38E7388400003A
:102720008094FF1F1C8400005893FF1FA8840000A2
:102730005C93FF1F5C8400006493FF1F6893FF1F7E
:10274000D8F80450002D7FF44EAF2546C8F8045049
:102750002C464CE73768019621E4676805E6676810
:10276000E5E56768C5E56768A5E5676885E56768C5
:1027700065E5676845E5676826E500BF03681A7880
:10278000093A262A27D8DFE802F01A1A26261A263E
:1027900026262626262626262626262626262626D9
:1027A000261A2626262626262626262626262626D5
:1027B00014005A782A2A0FD02F2A07D07047591CA4
:1027C00001605A780B46DBE70A2AF8D00133036030
:1027D0001A78002AF8D17047591C4A1C02604B78BD
:1027E000002BF8D02A2B01D01146F6E753782F2B77
:1027F000FAD1CB1C0360CA78C2E700BF2DE9F04FC5
:10280000056885B081465DB32A68082112682846AC
:10281000904728B3002205604260044609F104068F
:102820003046FFF7ABFFD9F8042011787B291FD081
:10283000B74E336813F0010503D0B64805B0BDE8C4
:10284000F08F304601F046FA0028F6D0B14C304601
:102850002560656001F044FA204605B0BDE8F08FC0
:10286000AB4E326812F0010500F0C980A94CD5E7E3
:102870000132C9F804203046FFF780FFD9F8042060
:1028800011787D2900F0EA8047F6ED780194304612
:10289000D9F80850FFF772FFD9F8042010782728DC
:1028A00079D0222877D020F02003413BA0F12B01E2
:1028B000192BC9B262D90E2928FA01F35CD9D9F8CB
:1028C000083000245A1CC9F808201C70002DAFD015
:1028D0003046FFF753FFD9F804301A783A2AA7D1C7
:1028E00099F80C200133C9F80430002AA0D0013A2D
:1028F00089F80C203046FFF741FFD9F804301F78E3
:102900005B2F00F0E4807B2F40F0AF804846FFF75C
:1029100075FF03688246002B00F061814FF0070BC2
:1029200099F80C30013389F80C30019B5F683C4604
:102930001FB9BCE12468002C6ED06168284605F000
:10294000B3F90028F6D184F808B0C4F80CA03046DA
:10295000FFF714FFD9F8042013787D2B7DD0304683
:10296000FFF70CFFD9F804301A782C2A7FF460AFF7
:102970000133C9F804308AE7DC07A0D5D9F808305C
:102980000132591CC9F80420C9F808101870D9F888
:102990000420107887E7571CC9F804705378002B7F
:1029A0008DD002329842C9F8042012D187E7D9F8B5
:1029B0000820511CC9F808101370D9F804703B782E
:1029C000002B3FF47CAF7A1C9842C9F804203FF4F6
:1029D00076AF5C2BEBD17B784F49622B02D10CE0B8
:1029E00093420AD011F8022F002AF9D1002B3FF4AC
:1029F00066AF0237C9F80470D9E74B78F6E730467E
:102A000001F068F900283FF431AF424C30462560B0
:102A1000656001F065F901E7019B1868002800F086
:102A2000C980036810211B6898470746002800F0FA
:102A30007282019A0023516803600372002900F03A
:102A40003B813C4600E019460B68002BFBD10C6033
:102A5000002C3FF4EDAE656075E7019C0132204625
:102A6000C9F8042005B0BDE8F08F272F1CBF223F16
:102A7000B7FA87F7304614BF7F090127D9F808A0B5
:102A8000FFF77CFED9F804201078272852D022289E
:102A900050D020F02003413BA0F12B01192BC9B2EB
:102AA00079D90E2928FA01F373D9D9F80830002210
:102AB000591CC9F808101A70BAF1000F00F08F8085
:102AC00097420CBF4FF0010B4FF0020B28E7D9F8EB
:102AD00000703FB33B6808211B683846984708B32D
:102AE0000760446007463046FFF748FED9F80430D7
:102AF0001A785B2A79D0094B1B6813F001075BD069
:102B0000074F3B68002B6AD0BA464FF0060B07E729
:102B10005893FF1F5C93FF1F448400006493FF1FC2
:102B20006893FF1FBA4B1B6813F0010700F0C880C1
:102B3000B84FD8E7541CC9F804405378002BB4D0E0
:102B400002328342C9F8042010D1AEE7D9F8082038
:102B5000511CC9F808101370D9F804402378002BD1
:102B6000A3D0621C9842C9F804209ED05C2BEDD102
:102B70006378A949622B02D11AE0934218D011F868
:102B8000022F002AF9D1002B8FD00234C9F804405B
:102B9000DCE7DB0789D5D9F808300132591CC9F8C0
:102BA0000420C9F808101870D9F80420107870E7CC
:102BB0004B78E8E7394647E7954801F08BF800285D
:102BC0009ED0944B92481F605F6001F089F8914F4E
:102BD00097E70133C9F804303B68002B94D199F88A
:102BE0000C20013289F80C2022E60133C9F80430A8
:102BF0003046FFF7C3FDD9F804301A785D2AE8D0D3
:102C000099F80C30002B3FF476AF013B89F80C307B
:102C10003046FFF7B3FDD9F8043093F800A0BAF1BD
:102C20005B0F60D0BAF17B0F40F085804846FFF71C
:102C3000E5FD03680446002B00F077814FF0070A9A
:102C400099F80C30013389F80C30386838B10368D2
:102C50000C211B68984710B10023036003717A6848
:102C60000AB93AE01A461368002BFBD1106000281D
:102C70003FF441AF80F804A084603046FFF77EFD4A
:102C8000D9F804301A785D2A29D03046FFF776FD4E
:102C9000D9F8042013782C2B7FF42DAF99F80C3041
:102CA0000132C9F80420002B3FF425AFADE7019BAA
:102CB000186800287FF4B5AE019B3C465F60C7E60C
:102CC000534801F007F800283FF432AF514B504809
:102CD0001F605F6001F004F82AE77860C7E70133FE
:102CE000C9F804300DE7D9F80040002C00F0FC8052
:102CF000236808211B6820469847002800F0F480CC
:102D000000230460436004463046FFF737FDD9F8DE
:102D100004301A785B2A00F09D803D4B1B6813F04D
:102D2000010400F089803B4C2368002B00F0FD80FB
:102D30004FF0060A84E7BAF1270F1CBFAAF1220A56
:102D4000BAFA8AFA304614BF4FEA5A1A4FF0010A0B
:102D5000D9F80840FFF712FDD9F8042092F800E0F6
:102D6000BEF1270F30D0BEF1220F2DD02EF0200162
:102D70004139AEF12B031929DBB216D90E2B28FAF3
:102D800003F110D9D9F808300022591CC9F80810ED
:102D90001A70002C00F0C98092450CBF4FF0010A58
:102DA0004FF0020A4CE7C907ECD5D9F808300132D8
:102DB000591CC9F80420C9F8081083F800E0D9F8B4
:102DC000042092F800E0D1E7501CC9F804005378C1
:102DD000002BD7D002329E45C9F8042010D1D1E78C
:102DE000D9F80820511CC9F808101370D9F804004C
:102DF0000378002BC6D0421C9E45C9F80420C1D0E0
:102E00005C2BEDD143780449622B09D112E000BF5D
:102E10006493FF1F6893FF1F44840000934209D00E
:102E200011F8022F002AF9D1002BABD00230C9F8DB
:102E30000400D5E74B78F7E7414800F04BFF002846
:102E40003FF471AF3F4B3E481C605C6000F048FFB0
:102E50003C4C69E70133C9F804303046FFF78EFC7B
:102E6000D9F804301A785D2A58D00DF1080B4FF0CC
:102E7000000A594648468DF808A000F065F8002879
:102E80003FF44BAF2068002837D003680C211B6843
:102E90009847034618B1C0F800A080F804A0626803
:102EA0000AB928E00A4611680029FBD11360002BFB
:102EB0003FF433AF9BE80300043383E8030030465C
:102EC000FFF75CFCD9F804301A785D2A33D030461D
:102ED000FFF754FCD9F804301A782C2A7FF41DAF80
:102EE0000133C9F80430C4E7154B1B6813F0010423
:102EF00005D0144C08E76360D9E70346CFE71048D4
:102F000000F0E8FE0028F4D00E4B0D481C605C6019
:102F100000F0E6FEEDE7019B59688FE50133C9F843
:102F200004302368002B7FF403AF99F80C30013391
:102F300089F80C30DFE50133C9F80430F4E600BF4E
:102F40006493FF1F6893FF1F2DE9F043057B83B057
:102F50001DB9284603B0BDE8F0830446013D071DB6
:102F6000057338460E46FFF709FC63681D785B2D34
:102F70004BD07B2D33D0272D1CBF223DB5FA85F5D4
:102F8000384614BF6D090125A768FFF7F7FB606895
:102F9000017827295ED022295CD047F6ED7E21F00A
:102FA0002003413BA1F12B02192BD2B224D90E2AC6
:102FB0002EFA02F31ED9A3680022591CA1601A70D0
:102FC000002F00F08780002D75D1012577603570C6
:102FD000237B28460133237303B0BDE8F0832046EA
:102FE000FFF70CFC0368002B74D00723706033706C
:102FF0000125EDE7DB07DED5A36801305A1C6060D0
:10300000A260197060680178C9E72568002D63D057
:103010002B6808211B682846984700285CD00023AD
:103020000560436005463846FFF7A8FB63681A78D9
:103030005B2A5AD0DFF874815A4DD8F8003013F06B
:1030400001073CD02B68002B44D0062375603370F9
:103050000125BDE700F1010EC4F804E04378002B20
:10306000A9D002308B4260600FD1A4E7A268501C47
:10307000A0601370D4F804E09EF80030002B9AD0C2
:103080000EF101029942626095D05C2BEED19EF860
:1030900001304548622B02D10BE0934209D010F871
:1030A000022F002AF9D1002B85D00EF102026260B6
:1030B000DCE74378F7E702237760337088E7404620
:1030C00000F008FE0028BDD040462F606F6000F081
:1030D00007FEB7E700257BE7DFF8D080D8F800309F
:1030E00013F001054BD02F4D9DE701336360384647
:1030F000FFF744FB63681A785D2A3BD0E8464FF03F
:103100000009414620468DF80090FFF71DFF00287A
:1031100090D0286888B303680C211B6898478646BE
:1031200018B1C0F8009080F804906A680AB936E0D7
:103130001A461368002BFBD1C2F800E0BEF1000F65
:103140003FF478AF98E803000EF1040E8EE8030018
:103150003846FFF713FB63681A785D2A0AD03846B1
:10316000FFF70CFB63681A782C2A7FF463AF0133F6
:103170006360C6E70133636064E78646D5E740468F
:1031800000F0A8FD0028AED0DFF818904046C9F83E
:103190000050C9F8045000F0A3FD4D4643E7C5F8C0
:1031A00004E0CBE76893FF1F448400006493FF1F93
:1031B0002DE9F04F0546D0F8100103688BB09B68ED
:1031C000984700283DD09B4C9B4E23680193019B60
:1031D000C5F8143100214FF48072029604910592D3
:1031E00005F2171722680092009AD31AB3F5FA6F06
:1031F00009D316E023680093009BD5F814219B1A8D
:10320000B3F5FA6F0DD201F087FC0028F2D001F07F
:1032100047FCC0B20D2807F8010F15D0D5F81431BE
:10322000E0E70721854801F0A1FC854801F00CFE8C
:103230000498029628B1046804F04EFA2046002C47
:10324000F9D10BB0BDE8F08F05F58C7302A90A2205
:1032500006A80793089306918DF82420FFF7CEFA6D
:1032600003688046002B4AD04768002F45D03C4673
:1032700002E02468002C40D06168724804F014FD1C
:103280000028F6D1237A012B2DD0022B00D1E06843
:1032900004466D49204604F007FDB8B16B4920464D
:1032A00004F002FD002832D06949204604F0FCFCFD
:1032B00060B16849204604F0F7FC60B320466649D7
:1032C00004F0F2FC10B92846FEF724FE049802969A
:1032D0000028B6D0046804F0FFF92046002CF9D18C
:1032E0000BB0BDE8F08FE4682CB121465B4804F0D8
:1032F000DBFC0028CCD02046CAE70024C9E7142113
:10330000574801F033FC4E4801F09EFD90E72846F7
:10331000FEF702FCDAE727B93CE33F68002F00F034
:10332000398379684F4804F0BFFC0028F5D13B7A17
:10333000062B00F0AB83DFF84491D9F8003013F08E
:10334000010700F09583484B5B681BB11A79072A87
:1033500000F07683454B464C1B68DA0740F1498301
:10336000646814B91AE02468C4B16168414804F083
:103370009BFC0028F7D1237A052B00F2EB83DFE8D2
:1033800013F00D00B602B6027E027E027A02A3F1AD
:103390003002092A98BF002140F2C0820027D8F8E5
:1033A000044024B9E6E22468002C00F0E38261685E
:1033B0002C4804F079FC0028F5D1237A062B00F084
:1033C000AF83DFF8B8A0DAF8003013F0010900F09D
:1033D0007383254B5B681BB11A79072A00F0A2831F
:1033E000224B234C1B68DB0740F11083646814B93F
:1033F0001AE02468C4B161681F4804F055FC002835
:10340000F7D1237A052B00F29583DFE813F00D0046
:1034100007020702400240023A02A3F13002092AE1
:1034200098BF002040F211824FF00009D8F8044004
:1034300054BB8FE27093FF1F1C840000E0840000E7
:103440008094FF1F5C840000008500000C85000054
:103450001C850000248500003885000038840000A9
:10346000E8840000A88400006893FF1F5893FF1FA2
:103470005C93FF1FD0840000D48400006493FF1F7E
:103480002468002C00F066826168924804F00CFC0D
:103490000028F5D1237A062B00F02E83DFF850B2F6
:1034A000DBF8003013F0010A00F016838A4B5B68EA
:1034B0001BB11A79072A00F02183884B884C1B68BE
:1034C000D80740F1B082646814B91AE02468C4B126
:1034D0006168844804F0E8FB0028F7D1237A052BC3
:1034E00000F23D83DFE813F00D00D801D801D601CA
:1034F000D6019601A2F13001092998BF002140F2BE
:10350000E381002328464A463946FDF719FDD8F8DD
:103510000440803524B925E22468002C00F0228282
:1035200061686C4804F0C0FB0028F5D1237A062BB3
:1035300000F09682DFF8B891D9F8003013F0010757
:1035400000F08082644B5B682BB11B681BB11A7959
:10355000072A00F08782614B614C1B68D90740F154
:103560002E82646814B91AE02468C4B161685E48A8
:1035700004F09AFB0028F7D1237A052B00F2E582AC
:10358000DFE813F00D00F000F000EE00EE00EA00BE
:10359000A3F13002092A98BF002140F2FA800027E7
:1035A000D8F8044024B9CDE12468002C00F0CA8189
:1035B0006168484804F078FB0028F5D1237A062B8F
:1035C00000F07682DFF828A1DAF8003013F0010964
:1035D00000F05E82404B5B682BB11B681BB11A790F
:1035E000072A00F067823D4B3D4C1B68DA0740F12B
:1035F000D981646814B91AE02468C4B161683B4891
:1036000004F052FB0028F7D1237A052B00F28C82BC
:10361000DFE813F00D00D300D3009F009F00990056
:10362000A3F13002092A98BF002040F2DD804FF05C
:103630000009D8F8044024B9A4E12468002C00F063
:10364000A1816168234804F02FFB0028F5D1237A7B
:10365000062B00F00982DFF898A0DAF8003013F0AA
:10366000010800F04D821C4B5B682BB11B681BB13D
:103670001A79072A00F0FA81184B194C1B68DB07EE
:1036800040F1AA81646814B916E02468A4B16168A5
:10369000144804F009FB0028F7D1237A052B00F227
:1036A0004F82DFE803F0092727141410A2F130033A
:1036B000092B98BF002434D900234A4639462846AE
:1036C000FDF73EFC02E6E3685B429BB2F5E7A389A7
:1036D000F3E700BFA88400006893FF1F5893FF1F03
:1036E0005C93FF1FD8840000D0840000D4840000C5
:1036F0006493FF1FE168002900F049820A78742A68
:1037000000F043822B2A00F03E822D2ACED10124E4
:103710004A78A2F13000092801F1010300F2408249
:103720001946002303EB830302EB430311F8012F37
:10373000A2F13000303B09289BB2F3D9002CBCD059
:103740005B429BB2B9E7E368C3F100091FFA89F94C
:103750006FE7B4F80C906CE7E7687F42BFB21FE7F1
:10376000A7891DE7E768002F3FF41AAF3B78742B59
:1037700000F020822B2B00F01B822D2B7FF408AF52
:1037800001217B78A3F13002092A07F1010700F239
:103790000D821A46002303EB830302EB430317F861
:1037A000012FA2F13000303B09289BB2F3D9002948
:1037B00000F0DC815F42BFB2F2E6E168002900F070
:1037C000E0810B78742B00F0D9812B2B00F0D48191
:1037D0002D2B7FF425AF01204B78A3F13002092A6D
:1037E00001F1010100F2C4811A46002303EB8303B7
:1037F00002EB430311F8012FA2F13004303B092CF6
:103800009BB2F3D9002800F0CD81C3F100091FFA63
:1038100089F90EE7E3685B429BB273E6E168002931
:1038200000F0BC810B78742B00F0B5812B2B00F0DD
:10383000B0812D2B7FF4F1AD01204B78A3F1300244
:10384000092A01F1010100F2BF811A46002303EBAE
:10385000830302EB430311F8012FA2F13004303B44
:10386000092C9BB2F3D9002800F0B281C3F1000902
:103870001FFA89F9DAE5E7687F42BFB28FE5A789C9
:103880008DE5E368C3F100091FFA89F9CEE5B4F8C4
:103890000C90CBE5A38935E6E068002800F0908124
:1038A0000278742A00F08A812B2A00F085812D2A63
:1038B0007FF420AE01214278A2F13004092C00F1FE
:1038C000010300F283811846002303EB830302EB1C
:1038D000430310F8012FA2F13004303B092C9BB2B6
:1038E000F3D900293FF40EAE5B429BB20AE6E768CB
:1038F000002F3FF454AD3B78742B00F035812B2B17
:1039000000F052812D2B7FF442AD01217B78A3F191
:103910003002092A07F1010700F254811A460023F8
:1039200003EB830302EB430317F8012FA2F13000EE
:10393000303B09289BB2F3D9002900F01B815F427C
:10394000BFB22CE5A34B1B68DA073FF543AEFDF78A
:1039500081FB3FE69F4B1B68D8073FF5A7ADFDF7FE
:1039600079FBA3E59B4B1B68D9073FF5EBADFDF752
:1039700071FBE7E5974B1B68DC073FF52AADFDF7C8
:1039800069FB26E5934B1B68DB073FF56CAEFDF743
:1039900061FB68E68F4B1B68DF073FF5D4ACFDF792
:1039A00059FBD0E48C4800F095F900283FF421AE93
:1039B000002389482360636000F092F919E6864885
:1039C00000F088F900283FF4CCAD00238248236042
:1039D000636000F085F9C4E57F4800F07BF90028BA
:1039E0003FF450AE00237C482360636000F078F918
:1039F00048E6794800F06EF900283FF4B1AC0023A6
:103A000075482360636000F06BF9A9E4724800F028
:103A100061F900283FF4EAAC00236F48236063603B
:103A200000F05EF9E2E46C4800F054F900283FF43D
:103A30004AAD002368482360636000F051F942E515
:103A40009C688DE4484600F045F900283FF47AADC3
:103A5000624C48462760676000F042F9234672E5F1
:103A6000E36870E59C687CE5E368FDE59C6809E631
:103A7000484600F02FF900283FF465AC574C484603
:103A80002760676000F02CF923465DE4FB685BE487
:103A9000504600F01FF900283FF49CAD4F4C5046B3
:103AA000C4F80090C4F8049000F01AF9234692E597
:103AB000E36890E59C689CE5504600F00BF900280F
:103AC0003FF487AC454C5046C4F80090C4F80490CD
:103AD00000F006F923467DE4584600F0FBF8002884
:103AE0003FF4E4AC3D4C5846C4F800A0C4F804A030
:103AF00000F0F6F82346DAE4E368D8E49C68E2E4F0
:103B0000504600F0E7F800283FF4ADAD334C504686
:103B1000C4F80080C4F8048000F0E2F82346A3E56E
:103B2000E36857E49C6861E4E06803F07FFD1FFAF6
:103B300080F97EE5E06803F079FD1FFA80F975E40D
:103B4000E06803F073FD83B2B7E5E06803F06EFD53
:103B500087B225E5E06803F069FD87B21FE4E068FD
:103B600003F064FD83B2CDE4012718E41F4617E596
:103B7000002347E61F4612E400202DE64FF001091E
:103B800057E5894655E50024C2E5012395E50B4636
:103B900093E5002051E64FF0010947E4894645E4EA
:103BA0000023CBE5994644E50021AFE60023FEE57E
:103BB0000021E6E50127F3E400217CE60123A1E4EE
:103BC00003469FE40023B7E600234CE6002388E683
:103BD00099462BE46493FF1F5893FF1F6893FF1FC0
:103BE00030B5144D83B00446FFF7E2FA2B6800931A
:103BF000009AD4F81C339A4215D12B680193019B8B
:103C0000D4F81823B4F80C139B1A994209D80A4423
:103C10002046C4F81823FDF7BBF804F18000FDF737
:103C2000B7F803B030BD0133C4F81C332046FDF7AC
:103C300095FAE2E77093FF1F024A1368013313609D
:103C4000704700BF7093FF1F08B5104C08E0236851
:103C500059050DD423681A050FD42368DB0411D449
:103C600023685803F3D500F04FFA23685905F1D5BE
:103C700001F0FEFC23681A05EFD502F09BF82368DB
:103C8000DB04EDD502F04EFBEAE700BF34800440D0
:103C900008B5FFF7D9FF00BF014B10221A8070470B
:103CA00000200540704700BF094908B50B6830B1D6
:103CB0006A461844A2F58052904202D20860184623
:103CC00008BD03F0D3FC0C2303604FF0FF3008BDA8
:103CD0002087FF1F0078B0FA80F04009704700BFCE
:103CE00001230370704700BFEFF3138070B9EFF347
:103CF00010836BB9EFF305825AB94FF48070EFF37C
:103D000011832BB1984228BF184670474FF0FF30FF
:103D100070470F2A01D81846F1E7014BD05CEEE757
:103D2000F0E300E010B40F4B53F8302092F88042DB
:103D30002CB1012369B182F8803010BC704703EBCD
:103D4000C0035B681A6841B922F002021A6010BC15
:103D5000704782F8003110BC704742F003021A60CD
:103D600010BC70474C8500001C4A02EBC0030129BF
:103D70005B6811D004291BD052F83000002280F873
:103D8000802229B1022920D0032922D01A6070474D
:103D90004FF480721A60704752F830004FF4A272EC
:103DA00080F880121A601A6822F020021A607047A8
:103DB00052F830104FF4A272012081F880021A608C
:103DC0001A6842F020021A60704740F203121A602B
:103DD00070474FF481721A60704700BF4C85000035
:103DE00030B4054B054D064C002210211A602A60A4
:103DF0002060196030BC704714D0034004D00340E9
:103E000000D00340212801D8FFF78CBF704700BFC6
:103E1000212801D8FFF7A8BF704700BF2DE9F8435C
:103E2000054672B6204F214B214A1B683C68126838
:103E300062B6520102D5322B88BF013495B3C3F567
:103E4000BB331C4EDFF86490DFF86480FF334FF41F
:103E50007A72A6FB031302FB04F404EB931472B60C
:103E6000D9F800103A68D8F800E062B6C1F5BB3363
:103E7000FF33A6FB03031EF0806FC4EB93134FF4D4
:103E80007A7002D0322988BF013200FB0233B3F5C9
:103E90007A7F04D3013D05D004F57A74DFE701F0A1
:103EA00001F8DCE7BDE8F8837093FF1F18E000E03D
:103EB00004ED00E0ABAAAAAAF8B52D4B2D49DFF816
:103EC000D0E0DFF8D0C02C4E2C4D2D4C2D4A2E4F7B
:103ED0004FF4000018604FF0807018604FF00070D1
:103EE00018604FF0806018604FF00060186000208C
:103EF000086028234BF6FF71CCF80010CEF8003094
:103F0000336013602B6023603B60B36293620922CD
:103F100045F8242CC4F8D80F05F57F65C7F8D41FE1
:103F200007F5FF2707F5FA67C6F8F83F2B6006F597
:103F3000FF26C4F8D42F05F5FD2504F5FF243860CD
:103F400006F2F4761148316005F5FF6504F5FD646D
:103F50002B602360026000F0D3FF3220FFF75EFF8A
:103F600000F0FCFC4FF4AF70BDE8F840FFF756BF1F
:103F700008E100E0048003401480034024800340F3
:103F80002C8003401C8003403480034000800B40A1
:103F90000C80034008800340431E032B14D872B6E4
:103FA0000A4951F8230068B170B4094C058834F807
:103FB0001320466841F82360521B24F8132062B690
:103FC00070BC704762B6704700207047CC93FF1FEB
:103FD0007896FF1F013803280BD872B6074B53F8A9
:103FE000203043B100205B680130002BFBD162B66A
:103FF0007047002070471846F9E700BF2094FF1F64
:10400000F0B472B61A491B4E012311F8014B194F37
:104010009A00240742F0010505D556F8324064B1F4
:1040200056F83520BAB10133052BEED162B6124BEA
:1040300000221A70F0BC00F00DBD0F4C0F4D21781E
:1040400047F8325007EB431308304A1E586022707D
:1040500062B6F0BC70470849094B0A7847F835301A
:1040600007EBC5030830013A58600A7062B6F0E702
:10407000E48600000080FF1F4994FF1F8800400075
:10408000C8004000431E032B1DD81B4A400140F0CE
:10409000100030B4104472B6184CE25C032A1BD8EE
:1040A000DFE802F00212151703220D88E25410F027
:1040B000080F14BFC823882343EA0543083103606F
:1040C000416062B630BC704708300222EDE705223D
:1040D000EBE708300422E8E7094A52F8230038B138
:1040E000084A52F82300416042F8231062B6E9E71B
:1040F00042F82310034AF7E70080FF1F5894FF1F80
:104100002094FF1F3094FF1F2DE9F04FDFF800A32C
:10411000DFF800B387B044E0A84F4FEA930807EBFD
:10412000C809013ED9F8042003F00803F6B2A2F151
:10413000080003F0FF04002B40F0FC8057F83830F3
:104140001B0C99B222F8081C002B00F0EA809C4B53
:1041500022F8064C42F8044C53F82620002A00F0BE
:104160002982984D55F826305860974C45F826001E
:1041700034F81630194424F8161000F04BFC0028CF
:1041800000F01182914A924B19F0080F00F10800DB
:1041900018BF1346C9F8040047F8383008238AF8D6
:1041A00000309AF80040E4B260071AD5894B1B78BA
:1041B000A3B189490A7802F0FF0322B1013BDBB2C7
:1041C0000B7003B900BE85490A7802F0FF032AB1DB
:1041D000013BDBB20B70002B00F0BB8104238AF89B
:1041E000003004F0080303F0FF02002B00F0C6804B
:1041F0009BF80030DBB21E098ED19C086F4F57F838
:10420000342007EBC401C2F38302013A49680C2A47
:1042100000F28380DFE802F07777818181818181FC
:1042200040818181070008686D4B6E4D0193674B9B
:104230004A686D4E47F8343081B240F28164684B71
:104240006A60286000220120A1421A603A61BA61C6
:10425000307000F2E180B1F5D06F80F02582B1F5C9
:10426000817F00F0DE8100F2C181802900F034827C
:10427000822940F0DC81A9885C4B042900F2D881B6
:104280005B4C89000B44227062701A78930740F1EE
:1042900022832070022023E2514B01931A683AB323
:1042A000544B514E5449188834780D78402886462E
:1042B00045F0020828BF4FF0400E002C84F00104A6
:1042C0003470CEEB00000CBF8824C82407EBC8066E
:1042D00080B285F0010544EA0E447260188047F808
:1042E000384072440D70002800F0B780019B1A60BE
:1042F0003C4B1A88B2F5A06F0FD100219A78597003
:104300003E4B1A7009E0374A108842F2210290426F
:1043100000F0A8802D4A47F83420394A0123137051
:104320003CE72A4A2A4B19F0080F18BF134647F8F2
:10433000383033E700F08EFB324A334952F82630EA
:10434000002B00F03B8158688C5D42F8260003F199
:104350000802C9F80420032C05D8DFE804F02C0279
:10436000292602228A551A8819F0080F0CBF8823C3
:10437000C82343EA024347F838300FE7E00700F16B
:10438000EB80210600F12881A20706D51F4A2049AB
:1043900013780220DBB213700870E30602D51C4BC1
:1043A00010221A7007B0BDE8F08F04228A55DAE7B0
:1043B00005228A55D7E703228A55D4E70080FF1FDC
:1043C000CC93FF1F7893FF1F7896FF1FC800400013
:1043D000880040005494FF1FDD93FF1F5C94FF1F73
:1043E0007493FF1F4094FF1FDC93FF1FC020074002
:1043F0004C94FF1F8893FF1F4894FF1F982007408D
:10440000942007402094FF1F5894FF1F88200740E6
:10441000802007409020074042F22104A14200F092
:10442000948043D8B1F5086F00F0A881B1F5106F02
:1044300040F0FD80B84AB94CA978117004F18005AC
:1044400003E00834AC4200F09E81236A1906F8D5D7
:10445000606A083800F0FEFAF3E7BEF1400F18BFBB
:10446000002243E7AE4ACD1D11F8013B02F8013F9F
:10447000A942F9D1AB4A1268862A00F01181AA49F3
:10448000AA4E0A78307882F00105002842F0020234
:104490000D700CBF8821C82147F8321007EBC2020B
:1044A00080F0010000213070516033E742F2212496
:1044B000A14240F0FE81DFF8BCC29D4B9D49AC7823
:1044C000DCF800501D6081460C7000200290804690
:1044D0008446044694490D7845F0020E07EBCE035E
:1044E000B9F1000F5C600CBF8824C82444EA0803BB
:1044F00085F0010447F83E3032700C70DFF81CE2A2
:104500008A4BDFF82482002840F09880BCF1400FED
:104510001BD144F0020407EBC403029FDFF8FCE167
:104520005F60002A40F09F80020442F08802074446
:104530004EF8342086F800900D703B46402804D198
:1045400000207D4A019910800B607C4A0123137082
:10455000E3E600F0C7FB41E6704B784872491A6108
:104560004FF0020E80F800E0754F0A70754919602F
:104570009960754E754D764C9A610D213970FF2109
:104580003170DFF8F4E129702270724D724A8EF8B2
:1045900000109F27012406F8047C5D600470DA6037
:1045A00007B0BDE8F08F6D4A47F838001378013343
:1045B0001370F3E543F82600694DD6E58B5D032BB8
:1045C00067D801A252F823F09D4100009D410000F0
:1045D0001D4600001746000059495C4B80220D2003
:1045E00008701A70A2077FF5D8AECFE640F202320B
:1045F000914240F05681A98801F07F01042916D824
:104600006A88A2B94E4C89000C448146217841F059
:104610000201217059E701238B55BFE500238B551B
:10462000BCE5A98801F07F01042940F24781444B91
:104630000F221A70414A012313706EE640287FF65C
:1046400068AF44F002040EEBC401029E4E60AAB1B2
:10465000444A83F800903346403888F8005040338D
:104660004EF834206DE70204029B86F8009042F079
:10467000C8020D7003444EF834205FE783F80090C1
:10468000029B304A88F80050403840334EF83420BE
:1046900057E719F0080F0CBF022303238B557DE564
:1046A000314A0F211170EAE6304A5468002CBED01E
:1046B0006888B5F804E003E00C325468002CB6D0EA
:1046C00013888342F8D153887345F5D1000A032833
:1046D0000CBF2078108903E0254C02202270627004
:1046E000EA88824280F00C810F490D78402A45F01B
:1046F000020E944607EBCE0028BF4FF0400C04EBAF
:104700000C0344600293CCEB02004FEA0C484FF0DC
:1047100001090022C824E9E65494FF1F0080FF1F0E
:104720007F96FF1F8096FF1F4894FF1FDC93FF1F9B
:104730008896FF1F6C94FF1F8893FF1F94200740EB
:10474000C0200740880040008820074080200740A4
:10475000982007408C93FF1FE093FF1F4994FF1F91
:104760007893FF1FC8004000DD93FF1FE88600001C
:104770004C94FF1F7093FF1F8C200740684A694CC0
:1047800012782270ACE76849684B694A029169491E
:10479000694C6A4D039405964FF0000988461C4603
:1047A00016460495206828B1456800F053F928465C
:1047B000002DF9D100232360049B30681A460023A2
:1047C00042F8293028B1456800F044F92846002D08
:1047D000F9D100223260029A98F800301146002286
:1047E00041F8042B039A0291023B4FF0000122F89A
:1047F0001910032B07D8DFE803F0340234024FF01E
:10480000010388F8003009F10109B9F1040F04F13E
:10481000040406F1040608F10108C3D1484B059EC3
:10482000DFF83091DFF8308100211970012518F888
:10483000013B09F8043B1A0718D4AC0044F002020B
:1048400044F00304002347F8323047F834303D4B3E
:10485000994505F10105EAD196F8009089F0010229
:1048600033E64FF0000388F80030CCE700F0D2F8D0
:10487000AC0007EB451300F10802002837D05A605E
:10488000314B47F8343000F0C5F844F0010307EB32
:10489000C30200F1080100B351602C4A47F83320ED
:1048A000CCE7B1F5A06F7FF4C2AE00224FF0010952
:1048B0000BE642F221329142F7D0B8E66A88002A2C
:1048C0007FF4B5AE224C89000C448146217821F05A
:1048D00002012170F9E5022002E7194B44F00102C0
:1048E0001B7847F83200164A01331370A6E7144BC1
:1048F000134A1B78AC00013347F834001370C2E749
:104900004028844628BF4FF0400C04EB0C03CCEB4E
:1049100000004FEA0C48029300224FF00109D9E54C
:104920005494FF1F4C94FF1F3094FF1FCC93FF1F24
:104930002094FF1F5894FF1F7896FF1F7893FF1F46
:104940004994FF1FD420074088004000C800400061
:10495000C0200740C4200740E48600002DE9F8434A
:10496000204C01F04BFD002204F1880023461A6020
:104970005A60083383424FF00001F8D11A4A1B4FA6
:1049800013681B4D1B481C4EDFF87880DFF878C099
:10499000DFF87890DFF878E043F480231360C4F305
:1049A00007233B70C4F307432B70240EFF2302F54B
:1049B00028320470114D88F8003011488CF800300E
:1049C000D4323370012389F8003070268EF800103D
:1049D0004FF40074102107F8183C2E700460117019
:1049E000BDE8F8830080FF1F348004409C2007400E
:1049F000B0200740B42007401020074049E400E001
:104A000008E100E08020074088200740942007400C
:104A10000021074072B60D480268B2FA82F30B2BF0
:104A200010DC4FF00041D94022EA0102026062B678
:104A3000074803EBC303DB00C2180021C150104636
:104A40005160704762B60020704700BF2487FF1F87
:104A5000BC83FF1F0D4B0E4AC31AA2FB03231B0985
:104A60000B2B0CD80B4A127852B972B60A484FF089
:104A70000041026821FA03F31A43026062B67047EC
:104A8000064A1278002AF0D0FFF7BABABC83FF1F9B
:104A9000398EE3384994FF1F2487FF1F5494FF1F6A
:104AA00038B50F4D286878B143880288C1180133A2
:104AB00093420C7A02D24380204638BDFFF7CAFFEA
:104AC000002320462B6038BD064B1B782BB10320FA
:104AD000FFF762FA28600028E6D14FF0FF3038BDBA
:104AE0006894FF1F5494FF1F10B5094C206818B13B
:104AF00043881844007A10BD064B1B782BB1032065
:104B0000FFF74AFA20600028F2D14FF0FF3010BDC5
:104B10006894FF1F5494FF1F044B054A1B6890883C
:104B20001BB11A885B88D31A184470476894FF1F1A
:104B30007896FF1F0B4B1B789BB110B50A4C206871
:104B400048B1FFF787FF002303202360FFF724FA13
:104B500030B1FFF77FFF0320FFF71EFA0028F8D1DE
:104B600010BD70475494FF1F6894FF1F2DE9F04F4C
:104B7000DFF8F89083B0012289F80020019169B331
:104B8000DFF8EC80364F019E8346D8F80000B0B3C2
:104B9000344D4488C4F14001B14228BF314604EB92
:104BA000010E00221FFA8EFE2A70761AA0F802E08B
:104BB00000F1080251B1013C224459441BF8014B59
:104BC00002F8014F8B45F9D1B0F802E0BEF13F0F7A
:104BD0000BD8254A05211170002ED6D1019800234B
:104BE00089F8003003B0BDE8F08F40220280014612
:104BF0000420FFF747FA0022C8F80020E9E73A78D6
:104C00002AB3184D4AF2F9244FF0010A07E0013C9B
:104C100016D02A78A2B900F045F93A78BAB1042042
:104C2000FFF7D8F90728F2D889F800A0FFF7F2FEBD
:104C3000C8F800000028ACD10C4B013C1870E8D13A
:104C400001234FF0FF302B7003B0BDE8F08F00233D
:104C50004FF0FF3089F8003003B0BDE8F08F00BF9F
:104C60005494FF1F6494FF1F5C94FF1F5D94FF1F0B
:104C70006094FF1F00B583B002AB012103F8010D62
:104C80001846FFF773FF03B05DF804FBF8B5114B4E
:104C90001B788BB1104E114D346801272F7064B111
:104CA0000F4A638800271770214623800420FFF7EE
:104CB000E9F9376000232B70F8BDFFF7ABFE084B16
:104CC00028B1014604201C70FFF7DCF9F2E71F70E1
:104CD000F0E700BF5494FF1F6094FF1F5D94FF1F17
:104CE0005C94FF1F38B50E4B1B7873B90D4C2168CF
:104CF00061B103F0FF054B880B800420FFF7C2F978
:104D0000256038BD084B01221A7038BDFFF782FEBE
:104D10000028F7D00146BDE838400420FFF7B2B9BB
:104D20005D94FF1F6094FF1F5C94FF1F0368C9B26E
:104D30001B6818470368C9B21B6818470368C9B2E3
:104D40001B6818470368C9B21B68184708B50846AE
:104D500000F080FB012008BD08B5084600F07AFB92
:104D6000012008BD38B508460D4603F009F9044690
:104D70000146284600F078FB204638BD10B50846AD
:104D80001446114600F070FB204610BD00F0DCBB5D
:104D900000F048BC08B5084600F034FB003018BFEE
:104DA000012008BD08B5084600F00AFB003018BF16
:104DB000012008BD0846114600F09EBA084600F0E2
:104DC000D5BA00BF084600F07BBA00BF00F01ABA9F
:104DD0004B0803F1376000F5D830B0FBF1F000F07C
:104DE00077B900BF10B54B0803F13760144600F5E2
:104DF000D830B0FBF1F000F06BF92046BDE8104070
:104E000000F0D4B900F094BB00F0F4BB00F0BEBBDE
:104E100000F0ACBB704700BF044B054A1A604FF46A
:104E20007A71002299601A711A7370477094FF1F8B
:104E30006486000008B5FBF719FBFBF73FFB00F0A9
:104E400031F8FAE702F040BC00B5064A0368128860
:104E50005B6883B001A9ADF804200222984703B033
:104E60005DF804FBBC860000FFF764BEFFF70EBFD1
:104E7000FFF73ABEFFF714BEFFF74EBE08461146D5
:104E8000FFF774BE704700BF044B054A1A604FF429
:104E90007A71002299601A711A7370478094FF1F0B
:104EA000C886000010B5154C237803B110BD01234E
:104EB0002370FFF731FE58B900F058FB70B900F0CD
:104EC000F7FE88B901F0C0F9A0B90023237010BD26
:104ED000FFF7D8FF00F04AFB0028F0D0FFF79AFF59
:104EE00000F0E6FE0028EDD001F06EFB01F0ACF919
:104EF0000028EAD001F01CFCE7E700BF9094FF1FF8
:104F000030B42948294A2A4B2A4D6024E1210470F3
:104F100011701B78284C082B30D00A2B27482849C1
:104F200037D00C2B0CBF35223D2212232A60236080
:104F300002600B60234B24491B78244ABBB1012338
:104F40000B601360224B23491B78234A012B26D97F
:104F5000042B0FD9082B1ED9102B94BF862387232F
:104F60000B6013601D4B01221A7030BC70470B6040
:104F70001360E7E784230B601360F3E700F58E20EE
:104F80000F490830012213232A60236002600B605E
:104F9000D0E73922F7E785230B601360E2E780232F
:104FA0000B601360DEE700BF004007400140074090
:104FB0002887FF1F08B003400CB0034008B00B4027
:104FC0000CB00B409294FF1F20B0034020B00B4068
:104FD0002987FF1F24B0034024B00B409194FF1F8A
:104FE000F0B44D1E2E46002400E00134B0FBF2F375
:104FF00002FB1300092800F130078ABF3730F8B2EE
:10500000C0B206F8010F1846002BEED10A195370F2
:105010004CB1107815F8016F28700133E01A834203
:1050200002F80169F5DB0846F0BC70472DE9F84F3E
:10503000214B1B6807460BB101221A70DFF88890DC
:105040001E4D99F80040DFF884801D4E01343F2C3E
:105050008ABF4FF0000A5FFA84FA5446AB462B78B9
:10506000A34216D1FEF740FE40281FDC33791B0611
:10507000F5D59BF8003001333F2B86BF0022134645
:10508000DAB218F80330DBB2F3712A702B78A3423E
:10509000E8D00C490A4BFFB208F804700120BC228A
:1050A000087089F800A0DA70BDE8F88FFF28D6DD17
:1050B000FFF7F8FED3E700BF2495FF1F2195FF1FE0
:1050C00000A006402095FF1F2895FF1F9C94FF1FFE
:1050D000274A28491368F0B543F4806313600A78BF
:1050E000254F264E264D274C274900233B70337011
:1050F0002B7023700B70002A35D0152A26D0234B35
:105100001B78012B2AD0052B03D1214B4FF4517270
:105110001A60204B204C2149C0F34436C0F3471598
:105120001E7000F01F005D7004224FF0020E8827F1
:105130003C26402598729A704FF4005083F813E093
:105140005A751F74DE7025700860F0BD144B40F274
:1051500013321A600D4B1B78012BD4D1114B4FF435
:1051600051721A60D5E7104B40F213321A60C6E74D
:1051700034800440DC94FF1F9894FF1F9994FF1F14
:105180002895FF1F2195FF1F2095FF1F2A87FF1FCE
:105190001CC0044000A006402DE400E004E100E053
:1051A00018C0044044A0044040A00440144B1449DB
:1051B0009B7803F0EC0200F003031343420700F076
:1051C0000F0248BF43F01003042A8B7013D00C4B1E
:1051D0000B4A5B79C10603F0EF0348BF43F01003AD
:1051E00053719379820603F0EF03054A48BF43F0F9
:1051F0001003937170478B7943F040038B71E6E79E
:1052000000A00640214B1B685B053ED510B5204C25
:10521000237823B1FFF746FE2378002BFAD11D48EF
:105220001D4A1E4B4FF4005400210460D1701B78BE
:10523000E3B1152B03D11A4B40F203121A60194B3C
:105240001B7803F07F03012B1AD0052B03D1164BDB
:1052500040F203121A60154B154816491A680023CC
:1052600003700B700AB10123137010BD124B40F292
:1052700003121A600B4B1B7803F07F03012BE4D160
:105280000E4B40F203121A60E5E770473480044089
:105290002095FF1F84E100E000A00640DC94FF1F82
:1052A00018C004402A87FF1F1CC004409494FF1FAD
:1052B0009894FF1F9994FF1F40A0044044A004400D
:1052C0000A4A38B50546137803F0FF04002BFAD1DB
:1052D00001212846FEF79CFD21462846FEF792FD57
:1052E000034A044B52F835201A6038BD2095FF1F41
:1052F0004C8500002495FF1F09B140F08000174A3B
:105300001378984216D010B4154C246864050FD554
:1053100003F07F03012B1CD0052B11D0002900F0D6
:105320007F0114BF6023442301290DD0052902D039
:10533000107010BC70470B4943F440730B60F7E7E3
:10534000084B00241C60E9E7074943F440730B60F5
:10535000EEE7054B00241C60E0E700BF2A87FF1F33
:10536000348004401CC0044044A00440104B1A7810
:1053700082420AD00F490968490505D5AAB1152A04
:1053800009D068B1152801D0187070470A4A40F258
:1053900013311160F8E7084A002111600028F1D1AB
:1053A000064A40F213311160EEE704490A60E8E76B
:1053B000DC94FF1F3480044018C0044040A0044027
:1053C0000D4B1B6813F4806305D0212805D90B4BC6
:1053D00000201860704718467047094B10B5074CFD
:1053E00053F8303023600121FEF712FD23680022BC
:1053F0001A70012010BD00BF348004409494FF1F38
:105400004C8500000F4B1B6813F4806308D01228F2
:1054100008D0142811D00C4A537B03F0FE035373B9
:1054200000207047094B40F202321A60064A537B53
:1054300043F00103537301207047054B40F20232E1
:105440001A60F3E73480044000A006400CA004403A
:1054500014C00440034B1B685B0501D5FFF7E6BD94
:10546000704700BF348004402DE9F84F294B1B687A
:105470005A0548D5284B1B6805460BB101221A7006
:1054800005EB010A554540D2DFF89C80234CDFF83C
:105490009C90234F0AE015F8012B09F80B20214AB4
:1054A0000123AA45137088F800602ED098F80030C8
:1054B000227803F1010BBBF13F0F86BF0026B346F4
:1054C0005FFA8BF69345E6D1BC22FA7005E03A7993
:1054D00013060BD422789345DDD1FEF705FC402856
:1054E000F5DDFF28F6DDFFF7DDFCF3E7227801327A
:1054F0003F2A86BF00210A46D1B219F80220D2B253
:10550000FA712170E6E7BDE8F88F054BBC22DA702E
:10551000BDE8F88F348004402495FF1F2195FF1FBC
:1055200000A006402095FF1F2895FF1F9C94FF1F99
:1055300010B5044C237823B1FFF7B4FC2378002B7B
:10554000FAD110BD2095FF1F064A074B1B78107833
:10555000DBB2C0B283422CBF3F3000F1FF30C01A33
:10556000704700BF2195FF1F2895FF1F054A064B76
:1055700010781B78C0B2DBB2984238BF4030C01AF6
:10558000704700BF9894FF1F9994FF1F30B4154BCC
:10559000154C1A782378D2B2DBB29A421ED001336E
:1055A0003F2B0ED91149124B087819680023C0B25D
:1055B000237021B1D31A1A2B01DC00230B7030BCED
:1055C00070470A480A49C05C0968DDB2C0B225705C
:1055D0000029F4D09A4238BF4032EBE74FF0FF3059
:1055E000EDE700BF9894FF1F9994FF1FE094FF1F01
:1055F0009494FF1F084A094B12781B78DBB29A4239
:1056000007D00133402B28BF0023054AD05CC0B22D
:1056100070474FF0FF3070479894FF1F9994FF1F19
:10562000E094FF1F0D4B1B685B0516D530B40C4B87
:105630000C4CDA780C480D4902F0CB024025DA70A8
:105640005D74DA7842F03402DA7023780268DBB2F3
:105650000B700AB10023137030BC704734800440D3
:1056600000A006409994FF1F9494FF1F9894FF1F79
:10567000F0B4384B1A7912F0300F2CD072B6997DF5
:1056800001F0FF0200293DD062B6334F334938782C
:105690000D78334E1C46C0B2EDB2431C402BE1796D
:1056A00028BF0023AB4202F1FF32C9B21CBFF15444
:1056B000184612F0FF02F0D12A4B1B68C2B23A70B2
:1056C0004BB1A84236BFC5F14005401B4019272801
:1056D000C4BF01221A701F49CA78D2B2150616D467
:1056E00052060DD51B4B1B795B0609D51E4B1F4976
:1056F0001B6800220A7003B11A70164B3C22DA7044
:10570000F0BC70474022D9795A7462B6E3E70B794E
:105710001C06E5D5164B174E1C783378E4B2DBB285
:105720009C420ED0144D01E0A3420AD00133402B1D
:1057300028BF00230879E85CC0B2C871087D07283B
:10574000F2D9DBB2034933700B79180644BF7C23CE
:10575000CB70C5E700A006409894FF1F9994FF1FE7
:10576000E094FF1F9494FF1F2495FF1F2095FF1FB7
:105770002895FF1F2195FF1F9C94FF1F274A28494A
:105780001368F0B543F4006313600A78254F264E82
:10579000264D274C27490023092A3B7033702B7074
:1057A00023700B7035D01A2A26D0234B1B780A2B76
:1057B0002AD01F2B03D1214B4FF451721A60204B7A
:1057C000204C2149C0F34436C0F347151E7000F049
:1057D0001F005D7004224FF0020E88273C264025F2
:1057E00098729A704FF4004083F813E05A751F7452
:1057F000DE7025700860F0BD144B40F213321A6061
:105800000D4B1B780A2BD4D1114B4FF451721A60F7
:10581000D5E7104B40F213321A60C6E734800440DB
:105820002B87FF1F9C95FF1F3195FF1FA495FF1F1E
:105830009D95FF1F3095FF1F2C87FF1F00D0044050
:1058400000B006402FE400E004E100E004D0044092
:1058500010B004400CB00440144B14499B7803F082
:10586000EC0200F003031343420700F00F0248BFAD
:1058700043F01003042A8B7013D00C4B0B4A5B7956
:10588000C10603F0EF0348BF43F01003537193794F
:10589000820603F0EF03054A48BF43F010039371FB
:1058A00070478B7943F040038B71E6E700B0064008
:1058B000224B1B681B053FD510B5214C237823B123
:1058C000FFF7F0FA2378002BFAD11E481E4A1F4B2F
:1058D0004FF4004400210460D1701B78092B1CD0C8
:1058E0001A2B03D11A4B40F203121A60194B1B7882
:1058F00003F07F030A2B1AD01F2B03D1164B40F263
:1059000003121A60154B164816491A6800230370D3
:105910000B700AB10123137010BD134B40F2031238
:105920001A600C4B1B7803F07F030A2BE4D10F4B5A
:1059300040F203121A60E5E7704700BF348004406C
:105940003095FF1F84E100E000B006402B87FF1F69
:1059500004D004402C87FF1F00D004402C95FF1F6B
:105960009C95FF1F3195FF1F0CB0044010B0044000
:105970000A4A38B50546137803F0FF04002BFAD124
:1059800001212846FEF744FA21462846FEF73AFA56
:10599000034A044B52F835201A6038BD3095FF1F7A
:1059A0004C850000A095FF1F09B140F08000174A08
:1059B0001378984216D010B4154C246824050FD5DE
:1059C00003F07F030A2B1CD01F2B11D0002900F0FD
:1059D0007F0114BF602344230A290DD01F2902D060
:1059E000107010BC70470B4943F440730B60F7E72D
:1059F000084B00241C60E9E7074943F440730B603F
:105A0000EEE7054B00241C60E0E700BF2C87FF1F7A
:105A10003480044000D0044010B00440124B1A7887
:105A200082420CD011490968090507D5092A16D008
:105A30001A2A0AD009280DD01A2801D018707047E8
:105A40000B4A40F213311160F8E7094A0021092896
:105A50001160F1D1074A40F213311160EEE7054AB7
:105A600000211160E6E700BF2B87FF1F3480044050
:105A700004D004400CB004400D4B1B6813F40063C9
:105A800005D0212805D90B4B002018607047184617
:105A90007047094B10B5074C53F830302360012193
:105AA000FEF7B6F9236800221A70012010BD00BF6E
:105AB000348004402C95FF1F4C8500000C4B1B6864
:105AC00013F4006306D0172806D00A4A537B03F06C
:105AD000FE03537300207047074B064A40F2023121
