:1000000000800020BD010000CD5500008555000096
:100010008555000085550000855500008555000078
:10002000855500008555000085550000CD55000020
:10003000CD55000085550000E16E0000E56F000021
:10004000CD550000CD550000CD550000CD55000028
:10005000CD550000CD550000CD550000CD55000018
:10006000CD550000CD550000CD550000CD55000008
:10007000CD550000CD550000CD550000CD550000F8
:10008000CD550000CD550000CD550000CD550000E8
:10009000CD550000CD550000CD550000CD550000D8
:1000A000CD550000CD550000CD550000CD550000C8
:1000B000CD550000CD550000CD550000CD550000B8
:1000C000CD550000CD550000CD550000CD550000A8
:1000D000CD550000CD550000CD550000CD55000098
:1000E000CD550000CD550000CD550000CD55000088
:1000F000CD550000195F0000CD55000021730000B0
:10010000CD5500004D740000CD550000CD550000C8
:10011000CD550000CD550000CD550000CD55000057
:10012000CD550000CD550000CD550000CD55000047
:10013000CD550000CD550000CD550000CD55000037
:10014000CD550000CD550000CD550000CD55000027
:10015000CD550000CD550000CD550000CD55000017
:10016000CD55000095610000CD550000CD55000033
:10017000CD550000CD550000CD550000CD550000F7
:10018000CD550000CD550000CD550000CD550000E7
:10019000CD550000CD550000CD550000CD550000D7
:1001A000CD550000CD550000CD550000CD550000C7
:1001B000CD550000CD550000CD550000564B4CF2FA
:1001C000205210B51A804DF628121A8000BF00BFC9
:1001D00005F000FA514B4FF010621A60504A9A60D5
:1001E000504ADA60504A136813F4807304D14F49BF
:1001F0000B604FF4A85313604D4B1A78110703D5C9
:100200001A7842F008021A704A4B4B492A221A7097
:100210004A4A4B4B8B4204D252F8040F43F8040B6A
:10022000F8E7484B484900228B4202D243F8042B9E
:10023000FAE74649464A002352F8230041F82300D2
:1002400001336F2BF8D1434B434A802103F8011B44
:100250009342FBD1414B3D4A1A60414B8A221A70AE
:10026000A3F5805324225A70A0221A709A7992071B
:10027000FCD59A79D406FCD43A4A937903F00C035E
:10028000082B384BF9D103221A7140225A719A79FE
:100290009006FCD5334A9179324B4906FBD5324A58
:1002A000324911600221516020221A709A7902F0BD
:1002B0000C020C2AFAD12E4B2E4A1A602E4B2F4AD2
:1002C0001A6000225A60072243F8042C2C4AC3F813
:1002D0000C2D62B605F08EFA144B1B68DA0705D5B3
:1002E000284805F01BFA284B284A1A60284B1B782F
:1002F0005B0609D5244C254B22689A4204D121483B
:1003000005F00CFA0023236008F036F905F068F9CF
:1003100006F0E6FEFEE700BF0E20054030800440F8
:10032000823F04000100002B10D0034014D0034092
:1003300002D0074000E007403490FF1FAC96000059
:100340002087FF1F3890FF1F54A8FF1F0082FF1F48
:100350000000000000E400E05FE400E008ED00E0E1
:100360000050064000400640448004400000030165
:1003700004800440C010050014E000E0FF76010096
:100380000000202042CE1C051CE00340A5C3945A67
:1003900000F00740FFFFFFFFFFFFFFFFFFFFFFFF32
:1003A000FFFFFFFFFFFFFFFFFFFFFFFFFFFFFFFF5D
:1003B000FFFFFFFFFFFFFFFFFFFFFFFFFFFFFFFF4D
:1003C000FFFFFFFFFFFFFFFFFFFFFFFFFFFFFFFF3D
:1003D000FFFFFFFFFFFFFFFFFFFFFFFFFFFFFFFF2D
:1003E000FFFFFFFFFFFFFFFFFFFFFFFFFFFFFFFF1D
:1003F000FFFFFFFFFFFFFFFFFFFFFFFFFFFFFFFF0D
:10040000FFFFFFFFFFFFFFFFFFFFFFFFDEF9FFFF23
:1004100010B5054C237833B9044B13B10448AFF33E
:1004200000800123237010BD3890FF1F00000000E2
:10043000B0960000084B10B51BB108490848AFF34F
:1004400000800848036803B910BD074B002BFBD0A0
:10045000BDE81040184700BF000000003C90FF1F9F
:10046000B09600003490FF1F0000000008B544F66D
:10047000206005F081FA00210E2005F067F90021C7
:100480000F2005F063F90021102005F05FF901212C
:10049000142005F05BF901210D2005F057F9012129
:1004A000022005F053F90021142005F049F90D2030
:1004B000012105F045F90248BDE8084000F0E2BB23
:1004C0005890FF1F014804F09BBA00BF5890FF1FCF
:1004D00000B585B004F054FF0E2110220A238DE8E8
:1004E0000E000448044A05490F2300F061FA05B0E4
:1004F0005DF804FB5890FF1F2C87FF1F3C87FF1FF0
:10050000F0B5104C83B024680194019C0467DDE9C8
:100510000867DDE90A450C998163C0E906234FF6B7
:10052000FF73A0F8443086460023C0E90867C0E99D
:100530000A45A0F84230A0F8463080F8483003B0B1
:10054000F0BD00BF58A5FF1F90F84830002B66D0C3
:100550002DE9F047D0E9004582B0824622462B467D
:10056000D0E9040107F028F8DAE918230FF2D009DE
:10057000D9E90089CDE9000107F0D2F9DAE91E23B3
:1005800007F01CF842464B4606460F4607F058FC5B
:10059000002835D0CAE91E8946464F46DAE91623B7
:1005A000DDE9000107F0BCF932463B4607F006F8EA
:1005B000DAE9202306460F462046294606F0FCFFCE
:1005C000DAE91A2307F0ACF902460B463046394601
:1005D00006F0F2FF00221E4B07F0A2F91AA3D3E99E
:1005E000002306460F4607F02BFCC8B90022194B22
:1005F0003046394607F006FCD0B16FF07F0010E0BE
:10060000DFF854904FF0000842464B4630463946DA
:1006100007F0F8FB0028BDD1CAE91E67BEE77047A6
:100620007F20CAE920458AF8080002B0BDE8F087BB
:100630003046394607F00EFC40B2F2E7AFF30080D7
:1006400000000000C0FFDF400000000000C05F406D
:100650000000703F000060C00000E0C0D0B516464A
:100660001F4604460022104B3046394607F082FAF6
:1006700006460F4602460B46C4E91467D4E9080152
:1006800007F04EF90022C4E918010023304639462C
:1006900007F0AEFB38B932463B46D4E90A0107F011
:1006A00069FAC4E91A01D0BD00408F4010B5044674
:1006B000084607F0BFF8C4E9000110BD012A10B5D3
:1006C000044605D0D0E9040107F0ECFB80B210BD70
:1006D000B0F94620B0F84430B0F8420011449942D5
:1006E000A8BF19468142A8BF88B207F0A3F8C4E9A1
:1006F000040107F0D7FB80B210BD00BFA3F5FF4394
:100700007F3BA0F84630A0F84410A0F84220704784
:100710002DE9D04316461F460446002200233046EA
:10072000394607F06FFB002833D100220023DDE9B2
:10073000060107F067FB00282BD100220023DDE92A
:10074000080107F05FFB20BBDDE90623D4E914892B
:10075000C4E90823DDE90823C4E90667C4E90A23DC
:10076000C4E9166742464B46DDE9060107F0D8F8B2
:100770000022C4E9180100234046494607F038FB2F
:1007800038B942464B46DDE9080107F0F3F9C4E900
:100790001A01BDE8D08300BF2DE9F047D0E900235E
:1007A000D0E90667824600240025C0E9202382B0F4
:1007B00030463946CAE91E4522462B4607F022FB41
:1007C000002830D1DAE9088922462B4640464946BE
:1007D00007F018FB38BBDAE90A231046194622460F
:1007E0002B46CDE9000107F00DFBE0B9DAE9141260
:1007F000CAE91667134640460A46494616461F464A
:1008000007F08EF82246CAE918012B4630463946D1
:1008100007F0EEFA38B932463B46DDE9000107F051
:10082000A9F9CAE91A0102B0BDE8F08790F848209A
:1008300002B1704710B50446FFF7AEFF012384F8FC
:10084000483010BD002380F84830704710B504468A
:10085000B0F9460006F0FEFFC4E9040110BD00BF78
:100860002DE9F041846874B1A3686568033323F00F
:100870000303CA18AA42A36005D804F10C00A260C1
:100880001844BDE8F081C768B942884638BFB84609
:10089000054608F10C000E4607F096FE40B17F00B9
:1008A00080E81001A8608660EF600C30BDE8F08140
:1008B000BDE8F081084606F025BA00BF08B5064835
:1008C00004F0A6FE30B1054B034800221A605A60BE
:1008D00004F0A4FE08BD00BF4CA5FF1F50A5FF1FDC
:1008E00038B541F2C825044690F8201140594FF020
:1008F000FF3204F067F981B22046FFF7D7FE94F883
:10090000211160594FF0FF3204F05CF981B204F11B
:100910009000BDE83840FFF7C9BE00BF38B541F2CE
:10092000C82405464FF0FF3200590C2104F02CF981
:1009300028594FF0FF32102104F03AF928594FF0AE
:10094000FF32022104F02AF9285901220C2104F077
:100950001BF928590122102104F02AF928590122F3
:100960000221BDE8384004F019B900BF41F2D0437C
:1009700070B50546C152084606F05CFF00220A4BDE
:1009800007F0F8F805F5A65402460B46C4E906231D
:100990002846FFF763FE05F19000D4E90623BDE881
:1009A0007040FFF75BBE00BF00408F40FFFFFFFFBE
:1009B0002DE9F04F8BB0002600270446324D0492FB
:1009C000CDE90267CDE90067904689469B46002144
:1009D0002BA3D3E90023BDF858A0FFF791FDCDE983
:1009E0000267CDE90067CDF8108025A3D3E9002385
:1009F00004F190000121FFF783FD2B68099341F278
:100A0000C4229DF85000099984F8210100239DF823
:100A10005400C4F8241184F8220184F820B14FF462
:100A2000B670A35284F82331A4F8283106F060FB95
:100A3000804604F077F82B680893DDF820E02B68F7
:100A40000793079F2B68069341F2E44241F2D423B7
:100A500041F2C82141F2D82004F5A756069D44F87A
:100A6000018044F800E0514637602046A55044F824
:100A70000390FFF77BFF20460BB0BDE8F08F00BF6F
:100A8000000000A09999A93F58A5FF1F10B5782133
:100A90000446642004F0D6FC04F118000822652105
:100AA00004F0F8FC04F1200008226D2104F0F2FCAF
:100AB00004F128000822752104F0ECFC04F1320056
:100AC00002227D2104F0E6FC04F1300002227F21A5
:100AD00004F0E0FC04F134000222812104F0DAFC8D
:100AE00004F1A8000822832104F0D4FC04F1B00032
:100AF00008228B2104F0CEFC04F1B80008229321D7
:100B000004F0C8FC04F1C20002229B2104F0C2FCE4
:100B100004F1C00002229D2104F0BCFC04F1C400D9
:100B200002229F21BDE8104004F0B4BC2DE9F0433F
:100B30008DB00DF11708814645466524204604F026
:100B400067FC01346D2C05F8010FF7D10DF11F077B
:100B50003D46204604F05CFC0134752C05F8010F7D
:100B6000F7D10DF127063546204604F051FC01343B
:100B70007D2C05F8010FF7D1204604F049FC8DF8D3
:100B800014007E2004F044FC8DF815007F2004F052
:100B90003FFC8DF81600802004F03AFC8DF8170019
:100BA000812004F035FC8DF81200822004F030FC26
:100BB000DDE90A458DF81300DDE90801DDE90623CA
:100BC000CDE90001CDE902454846FFF7A1FDBDF89A
:100BD0001230BDF81620BDF814104846FFF78EFD00
:100BE0008324204604F014FC01348B2C08F8010FF8
:100BF000F7D1204604F00CFC0134932C07F8010FC8
:100C0000F7D1204604F004FC01349B2C06F8010FB8
:100C1000F7D1204604F0FCFB8DF814009C2004F072
:100C2000F7FB8DF815009D2004F0F2FB8DF81600FF
:100C30009E2004F0EDFB8DF817009F2004F0E8FBE8
:100C40008DF81200A02004F0E3FBDDE90A45DDE9A0
:100C5000086709F19009DDE906238DF81300CDE955
:100C600002454846CDE90067FFF752FDBDF8123056
:100C7000BDF81620BDF8141048460DB0BDE8F0438D
:100C8000FFF73CBD70B50446642004F0C1FB782832
:100C900024D02046FFF742FE04F1900541F2D046F1
:100CA00001224FF400412046FFF708FD01222846AB
:100CB0004FF40041FFF702FDA05B06F0BBFD0246CA
:100CC0000B462046FFF7CAFCA05B06F0B3FD0246C8
:100CD0000B462846BDE87040FFF7C0BC2046FFF732
:100CE00025FFD6E72DE9F04F0378013B87B0064694
:100CF0000D46072B17D8DFE813F008003301490031
:100D0000260019005B0083000A0146680C68304623
:100D100008F0B6F8236802465B68314620469847DB
:100D20006B681844686007B0BDE8F08F0868AA4A8D
:100D300003681B68934240F059832D2005F0E2FFC1
:100D40006B681844686006AC0022736804F8032DD1
:100D5000A248A0FB0312D20802EB8201A3EB4103DD
:100D6000303304F8013D1346002AF2D12E682046A4
:100D700008F086F83368024621465B68304698479B
:100D80006B681844686007B0BDE8F08F0868746845
:100D9000934A036893495B68002C16BF11460522ED
:100DA000042298476B681844686007B0BDE8F08F6C
:100DB0000868894F036874681B68BB4240F013835E
:100DC0005B2005F09FFF6B686468184468602CB96D
:100DD00059E205F097FF6B6803446B60201D2946BC
:100DE000FFF780FF24682C20002C00F04C822A683A
:100DF00013681B68BB42ECD010462C219847EAE7E9
:100E00000868754F036874681B68BB4240F0E8824D
:100E10007B2005F077FF6B68D4F804801844686085
:100E2000B8F1000F00F02582D8F804602868002E81
:100E30005DD003681B68BB4240F00A82222005F0A7
:100E400061FF6B68013E03446B6016F8010FD8B177
:100E5000222800F0BE81644B03E05A78824200F001
:100E6000B9819C780233002CF7D12B681A6812687C
:100E7000BA4240F0CC8105F045FF6B6818446860C9
:100E800016F8010F0028E3D1286803681B68BB42ED
:100E900040F0DB81222005F035FF6B6803442868B1
:100EA0006B6003681B68BB422ED13A2005F02AFF15
:100EB0006B6803446B6008F108002946FFF712FFD6
:100EC000D8F80080B8F1000F00F0D38128680368DB
:100ED0001B68BB4240F0BF812C2005F013FF6B68FC
:100EE000D8F8046003446B602868002EA1D1036821
:100EF0003E495B68042298476B681844686028681C
:100F000003681B68BB42D0D03A219847D0E74668B7
:100F10003146304607F0D8FA002800F05782002109
:100F2000304607F0DBFA002840F0CB820021304643
:100F300007F0CAFA00285DD13146304607F028F89C
:100F40000146304607F0C0FA002853D028682849E7
:100F5000036808225B6898476B6818446860E2E69B
:100F600046680868002E00F0528203681A4F1B681A
:100F7000BB4240F04782222005F0C4FE6B68184453
:100F8000013E686016F8010FD8B1222800F04381B5
:100F9000154B03E05A78824200F03E819C78023380
:100FA000002CF7D12B681A681268BA4240F05D81B4
:100FB00005F0A8FE6B681844686016F8010F002859
:100FC000E3D1286803681B68BB4240F012822220EC
:100FD00005F098FED4E600BFB5080000CDCCCCCC1F
:100FE000C0920000C8920000E0920000D892000079
:100FF000F0920000A949304607F084FA002840F03A
:10100000718104460021304607F086FA002863D03B
:10101000A349304607F06CFA00285DD00021304625
:1010200007F05CFA002840F064820021304607F0A7
:1010300055FA002840F096820021304607F04EFA1B
:10104000002840F086829749304607F047FA30B1D1
:101050003046954907F0A4F8203C064624B293494F
:10106000304607F03BFA30B13046914907F098F826
:10107000103C064624B28F49304607F02FFA30B1B3
:1010800030468D4907F08CF8083C064624B28B495F
:10109000304607F023FA30B13046894907F080F82E
:1010A000043C064624B28749304607F017FA30B1AF
:1010B0003046854907F074F8023C064624B24FF0EA
:1010C0007E51304607F00AFA30B130467F4907F0CA
:1010D00067F8013C064624B2304607F027FA8046FE
:1010E00007F006F80146304606F050FF784907F051
:1010F00057F8064607F01AFA074606F0F9FF0146C8
:10110000304606F043FF014606F042FF07F00EFAB4
:10111000704B07449F420DD908F10108002C00F0E4
:10112000DF81B8F1090F40F22682013424B2002792
:101130004FF0010806AE002306F8033D6649B146AC
:10114000A1FB0823DB0803EB8302A8EB4202303249
:1011500009F8012D9846DFF880A1002BF0D1D5F8D1
:1011600000B0484607F08CFEDBF8003002465B68B2
:101170004946584698476B6818446860002F40F00D
:101180004F81002CC0F2BF813FF4CDAD2868534A97
:1011900003681B68934240F0D581652005F0B2FDDD
:1011A0006B684F491844002368608DF8153081FB47
:1011B0000432E317C3EBA20202EB8203A4EB430366
:1011C000303314B206F8013D002CF0D130462C68C3
:1011D0009EE50446286803681B68BB4210D15C206A
:1011E00005F090FDD5F800E06B68DEF8002012688D
:1011F0000344BA426B6006D1204605F083FD3CE60D
:101200005C219847EEE721467046904735E6014657
:101210001846904731E60446286803681B68BB42BD
:1012200020D15C2005F06EFDD5F800E06B68DEF89B
:10123000002012680344BA426B600FD1204605F0CB
:1012400061FD6B6803446B609CE62221984724E6AD
:1012500022219847F5E52C21984740E62146704623
:101260009047EEE75C219847DEE701461846904735
:10127000A0E6286803681B68BB4240F0C0807D2060
:1012800005F040FD7CE5286803681B68BB4240F020
:10129000B3805D2005F036FD72E500BF8096184BE7
:1012A000ACC52737B3CE010CAEC59D747D1D90260D
:1012B000CA1B0E5A95BFD63320BCBE4C6F12833A60
:1012C00000401C46CDCCCC3D0000C842000020416F
:1012D000002474493F420F00CDCCCCCCB5080000AF
:1012E00067666666A649304607F016F9002800F0E2
:1012F0008C8030464FF0FF4107F006F84FF48074C1
:1013000006469F49304607F007F938B130464FF09E
:10131000FF4106F0F9FF8034064624B29849304672
:1013200007F0FAF838B130464FF0FF4106F0ECFF15
:101330004034064624B29349304607F0E3F830B112
:101340003046904906F0E0FF2034064624B28E492C
:10135000304607F0D7F830B130468B4906F0D4FF5D
:101360001034064624B28949304607F0CBF830B134
:101370003046864906F0C8FF0834064624B2844940
:10138000304607F0BFF830B13046814906F0BCFF67
:101390000434064624B27F49304607F0B3F830B132
:1013A00030467C4906F0B0FF0234064624B27A4942
:1013B000304607F0A7F800283FF424AE30467649BF
:1013C00006F0A2FF0134064624B21BE628687349E2
:1013D000036803225B6898476B6818446860A2E45E
:1013E0007B21984717E55B219847ECE42D2198472E
:1013F000A6E422219847C3E45D219847C0E47D21FB
:101400009847BDE422219847B8E5044679E7036888
:1014100063495B68042298476B681844686082E4FB
:10142000AAFB0723DB0803EB8303B7EB430F5CD175
:10143000062002E0002900F08880AAFB0737FF0899
:10144000AAFB0712C3B2D208591E02EB8202C9B22C
:10145000B7EB420F48B2EDD0023B00225BB28DF8F1
:10146000072000283ED0DBB206AAC3EB020EDFF84D
:1014700040C1AEF1120E0DF10700ACFB0712D2080D
:1014800002EB8201A7EB4101303100F8011D7045EC
:101490001746F2D1DB430DF10702134403F1FF3885
:1014A0002E222F6803F8012C404607F0E9FC3B6828
:1014B00002465B684146384698476B681844686046
:1014C0005FE62868374A03681B68934255D12D2090
:1014D00005F018FC6B68184406F10046686025E5C5
:1014E000274627E60DF10703D8E78DF80780052387
:1014F000B9E730464FF0FF4106F052FEA4F5807484
:10150000064624B291E528682749036802225B68F1
:1015100098476B68254918440022644268608DF83A
:10152000152081FB0432E317C3EBA20202EB820316
:10153000A4EB430404F1300306F8013D1446002AED
:10154000EFD143E6652198472AE606AB03F8111D63
:10155000A4E730464FF0FF4106F022FE403C06462D
:1015600024B270E530464FF0FF4106F019FE803C92
:10157000064624B260E50027DCE52D219847A9E75F
:10158000FFFF7F7FAEC59D74CA1B0E5A20BCBE4CA8
:1015900000401C460000C84200002041D0920000DC
:1015A000D8920000B5080000D49200006766666615
:1015B000CDCCCCCC2DE9F04186B00546DFF8BC821D
:1015C000CDF8088000264FF480774FF4867004969B
:1015D000059706F0F9FF002800F0CE8108230DEBF7
:1015E00003044FF400728360964B066180E8C000EC
:1015F00004900592C46000F10C0620461021984723
:10160000044610B100230360037273680BB9D1E183
:1016100013461A68002AFBD11C602CB18A4B636008
:101620008A4BE360022323727768002F00F0EB817E
:101630003C4603E02468002C00F043816168844844
:1016400007F0B2FA0028F5D10222824B2272E36041
:101650007768002F00F0D2813C4603E02468002C1C
:1016600000F04E8161687C4807F09EFA0028F5D1B1
:1016700002227A4B2272E3607768002F00F0BA8171
:101680003C4603E02468002C00F0568161687448F1
:1016900007F08AFA0028F5D10222724B2272E36029
:1016A0007768002F00F0A1813C4603E02468002CFD
:1016B00000F0E68061686C4807F076FA0028F5D102
:1016C00041F2D043694AEB5AE36000238DE80C00F5
:1016D000042121727B2005F015FB019B7768644E85
:1016E00018440190002F00F094807D680098002D30
:1016F00054D003681B68B34240F08580222005F077
:1017000001FB019B013D0344019315F8010FC0B19A
:10171000222853D0574B02E05A7882424FD09C780F
:101720000233002CF8D1009B1A681268B2425CD1D7
:1017300005F0E8FA019B1844019015F8010F002804
:10174000E6D1009803681B68B3425FD1222005F000
:10175000D9FA019B03440098019303681B68B342C4
:1017600029D13A2005F0CEFA019B6946034407F1DE
:1017700008000193FFF7B6FA3F68002F49D00098A0
:1017800003681B68B3423BD12C2005F0BBFA019BD8
:101790007D68034401930098002DAAD1036836495F
:1017A0005B6804229847019B1844019000980368E5
:1017B0001B68B342D5D03A219847D5E70446009834
:1017C00003681B68B34218D15C2005F09BFADDF872
:1017D00000E0019BDEF8002012680344B24201934E
:1017E00007D1204605F08EFAA4E701461846904737
:1017F000A0E72146704690479CE75C219847E6E7C2
:101800002C219847C3E7222198477AE7222198475D
:101810009FE7009803681B68B34240F0AA807D20D0
:1018200005F070FA114805F065FC0498CDF80880C1
:1018300028B1046806F0D0FE2046002CF9D106B08D
:10184000BDE8F08161080000FC92000000930000F8
:101850000C93000010930000249300002C930000D0
:101860003493000040930000489300003C87FF1F22
:10187000B5080000E0920000D8920000BC92000081
:101880003068A0B1036810211B68984704460028FF
:1018900000F0A98000237768036003723FB92746F0
:1018A0003C4677604CB15A4B636009E71F463B6882
:1018B000002BFBD13C60002CF5D1564B8DE8180075
:1018C00008E73068002800F08580036810211B6855
:1018D00098470746002800F0848000227368026061
:1018E000027243B97760002F3FF4B2AE4A4B7B607F
:1018F0003C46A9E613461A68002AFBD11F60F2E7AE
:101900003068002864D0036810211B68984704469B
:10191000002864D000227368026002723BB97460D0
:10192000002C3FF4A9AE3D4B6360A1E613461A6854
:10193000002AFBD11C60F3E73068A8B103681021CE
:101940001B6898470446002847D000237768036047
:1019500003724FB9274677603C46002C3FF4A0AE97
:101960002F4B636098E61F463B68002BFBD13C6021
:10197000F3E77D21984755E72A4F3B6813F00104B0
:101980001AD0294E746814B909E024683CB1616822
:10199000264807F009F90028F7D1234E40E63468BD
:1019A0001CB12368204E1B6827E61F4E7368002B6E
:1019B0007FF42FAE746030E6384603F029FE1A4EED
:1019C0000028DFD038463460746003F027FED9E782
:1019D0003B46ACE73B4627468DE77768B9E7736837
:1019E0009CE773687DE7776858E7306800283FF424
:1019F00057AF47E730680028ADD09FE73068002830
:101A000081D104468BE7306800283FF46BAF5CE778
:101A1000489300003C87FF1F0C93000024930000B4
:101A20003493000040A5FF1F44A5FF1FFC92000057
:101A30002DE9F04786B00646DFF80883CDF8088028
:101A400000254FF480774FF486700495059706F0D3
:101A5000BBFD002800F07B8508230DEB03044FF449
:101A600000728360AA4B049080E8A0000561059293
:101A7000C46000F10C07204610219847044610B1BD
:101A80000023036003727B6813B900F098BD13460E
:101A90001A68002AFBD11C602CB19E4B63609E4BE0
:101AA000E360022323723C68002C40F07784DFF867
:101AB0009892D9F8003013F0010400F08685974B16
:101AC0001D689946002D40F09284DFF880A2944C66
:101AD000DAF80030DB0740F1A585D4F804A0BAF1AC
:101AE000000F00F0B684554603E02D68002D00F08D
:101AF000048569688B4807F057F80028F5D104225F
:101B000001232A72EB60D4F804A0BAF1000F00F0B0
:101B1000A686554603E02D68002D00F0A78469686D
:101B2000814807F041F80028F5D1D6E9000106F018
:101B3000D9F90823E8602B72D4F804A0BAF1000F99
:101B400000F08886554603E02D68002D00F0B38430
:101B50006968764807F028F80028F5D1D6E906012B
:101B600006F0C0F90823E8602B72D4F804A0BAF19B
:101B7000000F00F05F86554603E02D68002D00F051
:101B8000708369686A4807F00FF80028F5D1D6E934
:101B9000080106F0A7F90823E8602B72D4F804A026
:101BA000BAF1000F00F04186554603E02D68002D84
:101BB00000F08C8369685F4806F0F6FF0028F5D1D5
:101BC000D6E90A0106F08EF90823E8602B72D4F8F2
:101BD00004A0BAF1000F00F02386554603E02D68FB
:101BE000002D00F094836968534806F0DDFF00285B
:101BF000F5D1738EEB6004232B72D4F804A0BAF1F4
:101C0000000F00F00886554603E02D68002D00F017
:101C1000A0836968494806F0C7FF0028F5D1338ED4
:101C2000EB6004232B72D4F804A0BAF1000F00F08B
:101C3000ED85554603E02D68002D00F0D8826968D7
:101C40003F4806F0B1FF0028F5D1B38EEB600423C6
:101C50002B72D9F80050002D40F09282DFF8EC9002
:101C60002F4CD9F8003013F0010500F02C85D4F882
:101C70000490B9F1000F00F0B5824D4603E02D68E5
:101C8000002D00F0D0826968264806F08DFF0028FC
:101C9000F5D1042202232A72EB60D4F80490B9F142
:101CA000000F00F07F854D4603E02D68002D00F009
:101CB000EA8169681C4806F077FF0028F5D1D6E96B
:101CC000240106F00FF90823E8602B72D4F8049081
:101CD000B9F1000F00F096854D4603E02D68002D08
:101CE00000F0F4816968114806F05EFF0028F5D124
:101CF000D6E92A0106F0F6F80823E8602B72D4F83A
:101D00000490B9F1000F00F079854D4624E000BF42
:101D100061080000FC9200005093000050A5FF1FD6
:101D200044A5FF1F5C930000609300006C930000CB
:101D30007093000074930000789300007C9300007F
:101D400080930000BC9200004CA5FF1F40A5FF1F20
:101D50002D68002D00F0D8816968A34806F024FFA3
:101D60000028F5D1D6E92C0106F0BCF80823E8607C
:101D70002B72D4F80490B9F1000F00F03B854D466A
:101D800003E02D68002D00F0DD816968974806F0BA
:101D90000BFF0028F5D1D6E92E0106F0A3F80823A1
:101DA000E8602B72D4F80490B9F1000F00F00A85B6
:101DB0004D4603E02D68002D00F0288169688C48AD
:101DC00006F0F2FE0028F5D1B6F8C230EB6004232D
:101DD0002B72D4F80490B9F1000F00F007854D463E
:101DE00003E02D68002D00F030816968814806F01D
:101DF000DBFE0028F5D1B6F8C030EB6004232B726F
:101E0000D4F80490B9F1000F00F0E9844D4603E0E6
:101E10002D68002D00F0C7806968774806F0C4FE81
:101E20000028F5D1B6F8C430744AEB6000238DE881
:101E30000C00042129727B2004F064FF019B7F6861
:101E40006F4E18440190002F00F094807D68009838
:101E5000002D54D003681B68B34240F085802220D7
:101E600004F050FF019B013D0344019315F8010F5D
:101E7000C0B1222853D0634B02E05A7882424FD03F
:101E80009C780233002CF8D1009B1A681268B24289
:101E90005CD104F037FF019B1844019015F8010F45
:101EA0000028E6D1009803681B68B3425FD1222066
:101EB00004F028FF019B03440098019303681B680A
:101EC000B34229D13A2004F01DFF019B6946034427
:101ED00007F108000193FEF705FF3F68002F49D086
:101EE000009803681B68B3423BD12C2004F00AFF22
:101EF000019B7D68034401930098002DAAD10368DB
:101F000041495B6804229847019B1844019000985E
:101F100003681B68B342D5D03A219847D5E70446F9
:101F2000009803681B68B34218D15C2004F0EAFEF5
:101F3000DDF800E0019BDEF8002012680344B242A5
:101F4000019307D1204604F0DDFEA4E701461846C0
:101F50009047A0E72146704690479CE75C21984750
:101F6000E6E72C219847C3E7222198477AE7222108
:101F700098479FE7009803681B68B34240F01783B7
:101F80007D2004F0BFFE1D4805F0B4F80498CDF89C
:101F9000088028B1046806F01FFB2046002CF9D108
:101FA00006B0BDE8F0872068002800F07083036861
:101FB00010211B6898470546002800F00D84002278
:101FC0006368026002722BB965604DB10A4B6B60A9
:101FD00028E713461A68002AFBD11D60002DF5D1B1
:101FE000064B8DE8280026E77093000074930000EC
:101FF000789300007C930000809300003C87FF1FD3
:10200000B5080000E0920000D89200002068002887
:1020100000F03F83036810211B6898478146002821
:1020200000F0D8830022636802600272002B00F087
:10203000CD831A684D46002A40F02D831D60002D87
:102040003FF4C7AE994B6B60BEE6206878B1036879
:1020500010211B6898470546002800F0B183002234
:10206000636802600272002B00F0A5839946D9F8DC
:102070000030002BFAD1C9F80050002D3FF4C0AE5B
:102080008B4B6B60B7E62068002800F00A8303687A
:1020900010211B6898478146002800F08A8300229F
:1020A000636802600272002B00F080831A684D465C
:1020B000002A40F0F8821D60A946B9F1000F3FF4F4
:1020C00005AE7C4BC9F804304D46F8E5206878B180
:1020D000036810211B6898470546002800F06083BC
:1020E0000022636802600272002B00F0548399465C
:1020F000D9F80030002BFAD1C9F80050002D3FF478
:10210000FEAD6D4B6B60F3E5206878B1036810217C
:102110001B6898470546002800F03B83002263684F
:1021200002600272002B00F02F839946D9F800302C
:10213000002BFAD1C9F80050002D3FF41AAE5F4BC6
:102140006B600FE6206878B1036810211B68984720
:102150000546002800F016830022636802600272C0
:10216000002B00F00A839946D9F80030002BFAD1F1
:10217000C9F80050002D3FF415AE514B6B600AE6D4
:102180002B6808211B6828469847002800F0928297
:102190000023056043600446D9F8000038B10368A5
:1021A0000C211B68984710B1002303600371D9F814
:1021B00004200AB9A0E21A461368002BFBD1106074
:1021C00000283FF454AD2368002B13BF22460022A1
:1021D0000023072382600371D4F80490B9F1000F43
:1021E0007FF44BAD2068002800F0BD821DE0206820
:1021F000002800F08482036810211B6898478246FB
:10220000002800F0B8820022636802600272002B8E
:1022100040F0AF82C4F804A05546002D3FF419AD3C
:10222000284B6B6011E5206878B1036810211B68AA
:1022300098470546002800F09A82002263680260F1
:102240000272002B00F08E829946D9F80030002BE4
:10225000FAD1C9F80050002D3FF41FAD1A4B6B6046
:1022600017E52068D0B1036810211B6898478246A3
:10227000002800F075820022636802600272002B61
:1022800040F06B82C4F804A0BAF1000F3FF486ACB2
:102290000A4BCAF80430554679E49A46DAF8003019
:1022A000002BFAD1CAF80050AA46EDE77893000057
:1022B0007C930000609300006C930000709300001A
:1022C00074930000809300005C9300002068B8B114
:1022D000036810211B6898470546002800F03B82E0
:1022E0000022636802600272AA4643B9C4F804A0DF
:1022F0005546002D3FF46BAC9F4B6B6060E49A46F3
:10230000DAF80030002BFAD1CAF80050F1E7206863
:10231000C0B1036810211B6898478246002800F06E
:1023200018820022636802600272002B40F00E8265
:10233000C4F804A05546002D3FF45FAC8F4B6B6092
:1023400057E49A46DAF80030002BFAD1CAF8005068
:10235000F1E72068D0B1036810211B6898478246D6
:10236000002800F0F1810022636802600272002BF5
:1023700040F0E781C4F804A0BAF1000F3FF453AC79
:102380007F4BCAF80430554649E49A46DAF80030E3
:10239000002BFAD1CAF80050AA46EDE723680821BD
:1023A0001B6820469847002800F02B81002304601A
:1023B000436081467D68002D00F02E812C4603E0AD
:1023C0002468002C00F0B28061686E4806F0ECFBD7
:1023D0000028F5D1D9F80050002D15BF06220022A3
:1023E0004B4600232272E360002D3FF46EAB2B6856
:1023F00008211B6828469847002800F0F980002330
:10240000056043600446D9F8000038B103680C2128
:102410001B68984710B1002303600371D9F80420AA
:102420000AB9E2E01A461368002BFBD110600028BD
:102430003FF453AB2368002B13BF22460022002336
:10244000072382600371D4F804A0BAF1000F7FF46F
:102450004AAB2068002852D1C4F804A05546002D8C
:102460003FF451AB484B6B60FFF749BB2068002835
:1024700000F0A880036810211B6898478246002856
:1024800000F05D81002263680260027263B9C4F8E3
:1024900004A05546BAF1000F3FF44EAB3B4BCAF8CF
:1024A0000430FFF742BB13461A68002AFBD1C3F879
:1024B00000A05546EEE72068C0B1036810211B68F4
:1024C00098470546002800F03881002263680260C2
:1024D0000272AA464BB9C4F804A05546002D3FF439
:1024E00044AB2B4B6B60FFF739BB9A46DAF80030F0
:1024F000002BFAD1CAF80050F0E7206878B10368E1
:1025000010211B6898470546002800F0148100221E
:10251000636802600272AA46002B9DD09A46DAF8E0
:102520000030002BFAD1CAF8005098E7386800282C
:1025300000F0FA80036810211B68984705460028C0
:1025400000F0E58000227B6802600272E0E0114F3B
:102550003B6813F0010400F08D800F4D6C6814B9D6
:102560001EE02468E4B161680C4806F01DFB0028F9
:10257000F7D1094FFFF793BA7493000078930000E6
:102580007C930000509300005C9300006093000077
:102590006C93000040A5FF1F44A5FF1FFC920000A4
:1025A0002C683CB12368A64F1B68FFF764BA7D21F5
:1025B0009847E8E4A24F7B68002B7FF469AA7C600F
:1025C000FFF76ABA5346AA466EE7484603F020F87A
:1025D00000283FF474AA9B4D48462C606C60A946C5
:1025E00003F01CF82D68FFF76DBAC9F804001EE768
:1025F000DFF85CA2DAF8003013F001051FD0904C30
:1026000001E7914D2B6813F0010424D07D68DFF8B9
:102610003492002D7FF4D2AE386800288AD17D60D4
:102620002C467DE0504602F0F3FF00283FF455AA07
:1026300050462560656002F0F1FFFFF74EBA504644
:1026400002F0E6FF0028DAD07D4C50462560656038
:1026500002F0E4FFD7E6284602F0DAFF0028D5D0E2
:10266000DFF8E0912846C9F80040C9F8044002F0BC
:10267000D5FF9FE6384602F0CBFF714D00283FF4AE
:102680006DAF38462C606C6002F0C8FF66E74B46C1
:10269000A0E44B4600E013461A68002AFBD11D60F7
:1026A000CDE44B4600E013461A68002AFBD11D60BA
:1026B000A94602E5DFF898A1DAF8003013F0010529
:1026C0000ED05F4C68E5484602F0A2FF00283FF4B8
:1026D000CEAA48462560656002F0A0FFFFF7C7BAA2
:1026E000504602F095FF0028EBD0554C504625602F
:1026F000656002F093FF4FE5C9F8040060E55346BA
:1027000000E013461A68002AFBD11D6085E57B684E
:102710000BB984E713461A68002AFBD11D602C46CA
:102720002DB14A4B6B6055E62B462546F3E7D9F8A9
:102730000050FFF7C7B96368EDE66368C9E66368F0
:10274000A4E655469A4621E6636810E655469A4641
:10275000F8E56368E9E56368C6E555469A469DE590
:1027600063688CE5A946C4F804904D4673E5636838
:1027700067E55546C6E7636849E5A946C4F804908D
:102780004D46F7E46368EBE4A946C4F804904D466F
:10279000D2E46368C6E4A946C4F804904D46ADE4AB
:1027A0006368A1E4206800287FF471ACC4F8049049
:1027B00083E4636877E4A946C4F804904D465CE47A
:1027C000636850E4206800287FF424ACC4F80490C7
:1027D0004D4634E4636829E46368FFF7F4BB20687E
:1027E00000287FF4E4AB0546FFF7EEBB2068002825
:1027F000E2D02CE420680028C0D0A5E4206800289E
:10280000C3D083E420680028C6D061E42068002893
:102810007FF4F1ACFEE4206800287FF49CADA9E5CC
:10282000206800287FF475AD82E5206800287FF4D9
:102830004FAD5BE5206800287FF415AD22E500BFB1
:1028400044A5FF1F50A5FF1F4CA5FF1F509300007C
:1028500040A5FF1F206800287FF42FAE3BE62068CC
:1028600000287FF407AE12E603681A78093A262A90
:1028700027D8DFE802F01A1A26261A262626262648
:10288000262626262626262626262626261A2626F4
:1028900026262626262626262626262614005A788A
:1028A0002A2A0FD02F2A07D07047591C01605A7866
:1028B0000B46DBE70A2AF8D0013303601A78002AB6
:1028C000F8D17047591C4A1C02604B78002BF8D095
:1028D0002A2B01D01146F6E753782F2BFAD1CB1CC7
:1028E0000360CA78C2E700BF2DE9F04F056885B0E4
:1028F00081465DB32A68082112682846904728B3AC
:10290000002205604260044609F104063046FFF7E4
:10291000ABFFD9F8042011787B291FD0B74E33685C
:1029200013F0010503D0B64805B0BDE8F08F30467E
:1029300002F06EFE0028F6D0B14C3046256065608E
:1029400002F06CFE204605B0BDE8F08FAB4E326859
:1029500012F0010500F0C980A94CD5E70132C9F891
:1029600004203046FFF780FFD9F8042011787D2934
:1029700000F0EA8047F6ED7801943046D9F8085027
:10298000FFF772FFD9F804201078272879D0222881
:1029900077D020F02003413BA0F12B01192BC9B2C5
:1029A00062D90E2928FA01F35CD9D9F8083000243D
:1029B0005A1CC9F808201C70002DAFD03046FFF714
:1029C00053FFD9F804301A783A2AA7D199F80C2085
:1029D0000133C9F80430002AA0D0013A89F80C204C
:1029E0003046FFF741FFD9F804301F785B2F00F025
:1029F000E4807B2F40F0AF804846FFF775FF036807
:102A00008246002B00F061814FF0070B99F80C30E3
:102A1000013389F80C30019B5F683C461FB9BCE16B
:102A20002468002C6ED06168284606F0BDF80028A6
:102A3000F6D184F808B0C4F80CA03046FFF714FFB4
:102A4000D9F8042013787D2B7DD03046FFF70CFF9A
:102A5000D9F804301A782C2A7FF460AF0133C9F812
:102A600004308AE7DC07A0D5D9F808300132591CB8
:102A7000C9F80420C9F808101870D9F80420107893
:102A800087E7571CC9F804705378002B8DD00232A9
:102A90009842C9F8042012D187E7D9F80820511CC0
:102AA000C9F808101370D9F804703B78002B3FF474
:102AB0007CAF7A1C9842C9F804203FF476AF5C2BB7
:102AC000EBD17B784F49622B02D10CE093420AD0C4
:102AD00011F8022F002AF9D1002B3FF466AF02371C
:102AE000C9F80470D9E74B78F6E7304602F090FD5C
:102AF00000283FF431AF424C30462560656002F05B
:102B00008DFD01E7019B1868002800F0C98003686B
:102B100010211B6898470746002800F07282019A2E
:102B20000023516803600372002900F03B813C469A
:102B300000E019460B68002BFBD10C60002C3FF421
:102B4000EDAE656075E7019C01322046C9F80420AE
:102B500005B0BDE8F08F272F1CBF223FB7FA87F7DB
:102B6000304614BF7F090127D9F808A0FFF77CFE83
:102B7000D9F804201078272852D0222850D020F0ED
:102B80002003413BA0F12B01192BC9B279D90E29A1
:102B900028FA01F373D9D9F808300022591CC9F872
:102BA00008101A70BAF1000F00F08F8097420CBF26
:102BB0004FF0010B4FF0020B28E7D9F800703FB33C
:102BC0003B6808211B683846984708B30760446093
:102BD00007463046FFF748FED9F804301A785B2ADA
:102BE00079D0094B1B6813F001075BD0074F3B6896
:102BF000002B6AD0BA464FF0060B07E740A5FF1F2F
:102C000044A5FF1FE49200004CA5FF1F50A5FF1F25
:102C1000BA4B1B6813F0010700F0C880B84FD8E723
:102C2000541CC9F804405378002BB4D002328342BC
:102C3000C9F8042010D1AEE7D9F80820511CC9F812
:102C400008101370D9F804402378002BA3D0621C1D
:102C50009842C9F804209ED05C2BEDD16378A94935
:102C6000622B02D11AE0934218D011F8022F002AE9
:102C7000F9D1002B8FD00234C9F80440DCE7DB0720
:102C800089D5D9F808300132591CC9F80420C9F88F
:102C900008101870D9F80420107870E74B78E8E72E
:102CA000394647E7954802F0B3FC00289ED0944B84
:102CB00092481F605F6002F0B1FC914F97E70133CB
:102CC000C9F804303B68002B94D199F80C200132EC
:102CD00089F80C2022E60133C9F804303046FFF7AA
:102CE000C3FDD9F804301A785D2AE8D099F80C3081
:102CF000002B3FF476AF013B89F80C303046FFF7EC
:102D0000B3FDD9F8043093F800A0BAF15B0F60D09E
:102D1000BAF17B0F40F085804846FFF7E5FD036878
:102D20000446002B00F077814FF0070A99F80C3029
:102D3000013389F80C30386838B103680C211B68FE
:102D4000984710B10023036003717A680AB93AE02A
:102D50001A461368002BFBD1106000283FF441AFE6
:102D600080F804A084603046FFF77EFDD9F8043077
:102D70001A785D2A29D03046FFF776FDD9F804206D
:102D800013782C2B7FF42DAF99F80C300132C9F851
:102D90000420002B3FF425AFADE7019B1868002805
:102DA0007FF4B5AE019B3C465F60C7E6534802F036
:102DB0002FFC00283FF432AF514B50481F605F603A
:102DC00002F02CFC2AE77860C7E70133C9F8043029
:102DD0000DE7D9F80040002C00F0FC8023680821A2
:102DE0001B6820469847002800F0F4800023046008
:102DF000436004463046FFF737FDD9F804301A78AF
:102E00005B2A00F09D803D4B1B6813F0010400F02D
:102E100089803B4C2368002B00F0FD804FF0060AB0
:102E200084E7BAF1270F1CBFAAF1220ABAFA8AFA7C
:102E3000304614BF4FEA5A1A4FF0010AD9F8084039
:102E4000FFF712FDD9F8042092F800E0BEF1270F39
:102E500030D0BEF1220F2DD02EF020014139AEF13D
:102E60002B031929DBB216D90E2B28FA03F110D93E
:102E7000D9F808300022591CC9F808101A70002C23
:102E800000F0C98092450CBF4FF0010A4FF0020AD2
:102E90004CE7C907ECD5D9F808300132591CC9F8FC
:102EA0000420C9F8081083F800E0D9F8042092F84B
:102EB00000E0D1E7501CC9F804005378002BD7D0AC
:102EC00002329E45C9F8042010D1D1E7D9F8082074
:102ED000511CC9F808101370D9F804000378002BAE
:102EE000C6D0421C9E45C9F80420C1D05C2BEDD150
:102EF00043780449622B09D112E000BF4CA5FF1FA3
:102F000050A5FF1FE4920000934209D011F8022F50
:102F1000002AF9D1002BABD00230C9F80400D5E764
:102F20004B78F7E7414802F073FB00283FF471AF9C
:102F30003F4B3E481C605C6002F070FB3C4C69E714
:102F40000133C9F804303046FFF78EFCD9F804305D
:102F50001A785D2A58D00DF1080B4FF0000A594637
:102F600048468DF808A000F065F800283FF44BAF04
:102F70002068002837D003680C211B689847034657
:102F800018B1C0F800A080F804A062680AB928E06F
:102F90000A4611680029FBD11360002B3FF433AFC0
:102FA0009BE80300043383E803003046FFF75CFC32
:102FB000D9F804301A785D2A33D03046FFF754FC34
:102FC000D9F804301A782C2A7FF41DAF0133C9F8E0
:102FD0000430C4E7154B1B6813F0010405D0144CF2
:102FE00008E76360D9E70346CFE7104802F010FB1B
:102FF0000028F4D00E4B0D481C605C6002F00EFB04
:10300000EDE7019B59688FE50133C9F80430236867
:10301000002B7FF403AF99F80C30013389F80C30A2
:10302000DFE50133C9F80430F4E600BF4CA5FF1F0B
:1030300050A5FF1F2DE9F043057B83B01DB928463D
:1030400003B0BDE8F0830446013D071D0573384613
:103050000E46FFF709FC63681D785B2D4BD07B2D76
:1030600033D0272D1CBF223DB5FA85F5384614BF55
:103070006D090125A768FFF7F7FB6068017827292C
:103080005ED022295CD047F6ED7E21F02003413B43
:10309000A1F12B02192BD2B224D90E2A2EFA02F357
:1030A0001ED9A3680022591CA1601A70002F00F0DD
:1030B0008780002D75D1012577603570237B2846E8
:1030C0000133237303B0BDE8F0832046FFF70CFC07
:1030D0000368002B74D00723706033700125EDE77F
:1030E000DB07DED5A36801305A1C6060A26019704E
:1030F00060680178C9E72568002D63D02B68082136
:103100001B682846984700285CD000230560436070
:1031100005463846FFF7A8FB63681A785B2A5AD041
:10312000DFF874815A4DD8F8003013F001073CD015
:103130002B68002B44D00623756033700125BDE752
:1031400000F1010EC4F804E04378002BA9D002304E
:103150008B4260600FD1A4E7A268501CA06013707E
:10316000D4F804E09EF80030002B9AD00EF1010252
:103170009942626095D05C2BEED19EF801304548B3
:10318000622B02D10BE0934209D010F8022F002AE3
:10319000F9D1002B85D00EF102026260DCE74378A2
:1031A000F7E702237760337088E7404602F030FA91
:1031B0000028BDD040462F606F6002F02FFAB7E7BD
:1031C00000257BE7DFF8D080D8F8003013F0010548
:1031D0004BD02F4D9DE7013363603846FFF744FB2A
:1031E00063681A785D2A3BD0E8464FF000094146F3
:1031F00020468DF80090FFF71DFF002890D028682A
:1032000088B303680C211B689847864618B1C0F83C
:10321000009080F804906A680AB936E01A4613688C
:10322000002BFBD1C2F800E0BEF1000F3FF478AFF5
:1032300098E803000EF1040E8EE803003846FFF70D
:1032400013FB63681A785D2A0AD03846FFF70CFB37
:1032500063681A782C2A7FF463AF01336360C6E792
:103260000133636064E78646D5E7404602F0D0F953
:103270000028AED0DFF818904046C9F80050C9F8D1
:10328000045002F0CBF94D4643E7C5F804E0CBE724
:1032900050A5FF1FE49200004CA5FF1FFFFFFFFF9A
:1032A000002800F01F812DE9F04F03782B2B83B00D
:1032B00000F0AC802D2B00F09A800022742B01923C
:1032C00000F09D8003F0DF024E2A00F00481492ABD
:1032D00000F0A280A3F13002092A00F27E810FF2F1
:1032E0002839D9E9008900220024002510E024199A
:1032F0006D41AF00A60047EA9477A4197D41E41818
:1033000045EBE37510F8013FA3F1300109290DD811
:10331000A04579EB0501A3F13003E8DA10F8013F8D
:10332000A3F130010132092912B2F1D92E2B7FD03D
:10333000017801F0DF01452900F0A58000239E18E7
:103340002046294604F0BEFA002EC0F2E280F707BC
:103350004CBFBB4BBB4B002204F0E2FAB5074CBF9D
:10336000B94BB84B002204F0DBFA740740F1BC8083
:103370009DA3D3E9002304F0D3FA320740F1BA80C9
:103380009BA3D3E9002304F0CBFAF30640F1AF800E
:1033900099A3D3E9002304F0C3FAB70640F1AD8046
:1033A00097A3D3E9002304F0BBFA75064CBFA74BE3
:1033B000A44B002204F0B4FA34064FF000024CBFD4
:1033C000A24BA04B04F0ACFAF3054FF0000200F161
:1033D00097809C4B04F0A4FA0A460199034611B366
:1033E00002F100421846114603B0BDE8F08F0123F8
:1033F00001934378742B00F101007FF463AF914A8D
:1034000000231846114603B0BDE8F08F0023019356
:10341000EFE7BEF1000F75D18C4A8D49019800236A
:10342000984218BF0A461846114603B0BDE8F08F0F
:103430004178A1F13003DEB2092E00F101003FF620
:1034400078AF71A7D7E90067A64277EB050110DBDB
:1034500024196D414FEA850B4FEA840A4BEA947BAD
:1034600014EB0A0445EB0B05013AE41845EBE37550
:1034700012B210F8011FA1F130035FFA83FEBEF112
:10348000090FE1D955E743782D2B00F083802B2BD2
:1034900000F0A080461C303BD9B209293FF64EAF60
:1034A0009918B1F59A7FB7DC4FF0000E05E001EBFB
:1034B00047039918B1F59A7FABDC16F8011F303934
:1034C000C8B2092803EB8307F1D9BEF1000F3FF41E
:1034D00036AF5B4233E75F4A00231846114603B01C
:1034E000BDE8F08F014670470022564B43E70022AB
:1034F000544B50E70022534B45E70022514B52E713
:10350000524B67E7019B002B6BD000234FF000422A
:1035100089E77642F70757D53DA3D3E9002304F0A6
:10352000FFF9B5074DD53CA3D3E9002304F0F8F922
:10353000740743D53AA3D3E9002304F0F1F9320725
:1035400039D539A3D3E9002304F0EAF9F3063ED5CF
:1035500037A3D3E9002304F0E3F9B70628D536A34F
:10356000D3E9002304F0DCF975064CBF0023354B8A
:10357000002204F0D5F934064FF000024CBF0023BE
:10358000304B04F0CDF9F3054FF000027FF521AF89
:1035900000231FE78378303BD9B2092900F10206E6
:1035A0005AD8D118B1F59A7FACDC4FF0010E84E700
:1035B0000022244BD6E70022224BC5E70022214BF4
:1035C000BBE700221F4BB1E700221E4BA7E70022FA
:1035D0001C4BC0E7861C83785DE700220024002591
:1035E000A4E6019B1A461EE7000000000088C340C5
:1035F0000000000084D797410000004079C3414398
:10360000000000C0B5B8934698999999999901001E
:10361000000000A09999B93F00000040E17A843F82
:10362000000000E0E2361A3F000000E08E79453EDF
:10363000000000A0B2D29C3C000000E023F6493913
:10364000000024400000F03F000059400000F07FDF
:103650000000F0FF0000F87F00233AE72DE9F04F6B
:103660009F4EA04D33688FB041F2D822059300F5EC
:103670009657059B8350B84600214FF4807204464C
:103680001B3708F1180806950891099232680492D0
:10369000049AD31AB3F5FA6F09D316E0336804938A
:1036A000049BD8F800209B1AB3F5FA6F0DD203F0F3
:1036B0007BFA0028F2D003F03BFAC0B20D2807F8DD
:1036C000010F15D0D8F80030E0E70721864803F055
:1036D00095FA864803F00EFD0898069528B104680F
:1036E00004F07AFF2046002CF9D10FB0BDE8F08F2E
:1036F00004F596531C3306A90A220AA80B930C93CF
:103700000A918DF83420FFF7EFF803680646002B86
:1037100068D0D0F80480B8F1000F53D0474602E0DB
:103720003F68002F4ED07968714805F03DFA0028B7
:10373000F6D13B7A012B4BD0022B00D1F86807461B
:103740006C49384605F030FA78B36B49384605F0D5
:103750002BFA002838D06949384605F025FA0028A8
:1037600057D06749384605F01FFA002800F05B8102
:103770006449384605F018FA00283BD062493846BB
:1037800005F012FA002800F0A8816049384605F0DB
:103790000BFA002840F056810446204600210134EF
:1037A00001F050FEB4F5006FF7D108980695002897
:1037B0009BD0046804F010FF2046002CF9D10FB014
:1037C000BDE8F08F0027BBE72046FDF7F3FEECE7EE
:1037D000FF682FB139464E4805F0E6F90028AED013
:1037E0003846ACE714214B4803F008FA3F4803F091
:1037F00081FC71E7204604F19006FDF727F830467A
:10380000FDF724F82046FDF71DF83046FDF71AF8BD
:10381000CBE7B8F1000F05D110E0D8F80080B8F17F
:10382000000F0BD0D8F804103B4805F0BDF9002874
:10383000F3D198F80830062B00F059813748036817
:10384000DA0740F11F81364B5B681BB11A79072AF2
:1038500000F04781334B1B68D80740F12181324B80
:103860005F6817B910E03F6877B179682F4805F0B5
:103870009BF90028F7D13B7A052B00F24081DFE865
:1038800003F003A5A5A3A39F002120460122FCF776
:1038900015FF7668903416B90BE036684EB1716842
:1038A0001D4805F081F90028F7D1337A062B00F086
:1038B0001A811A480368DB0740F10181184B5B68E5
:1038C0002BB11B681BB11A79072A00F00E81154B2A
:1038D0001B68D90740F1C780134B5E6856BB38E0C0
:1038E00058A5FF1FBC920000889300003C87FF1F73
:1038F000FC920000A8930000B4930000C493000061
:10390000D8930000E4930000EC930000F4930000CF
:10391000D892000090930000509300004CA5FF1F28
:1039200050A5FF1F40A5FF1F44A5FF1FD093000017
:10393000366876B171689B4805F036F90028F7D1F2
:10394000337A052B00F2D680DFE803F0030F0F0D6A
:103950000D09002120460122FCF7B0FE25E7F3689F
:103960005B4299B2F6E7B189F4E7F368002B00F007
:1039700090871A78742A00F089872B2A00F08387B1
:103980002D2A40F0778701275A78A2F130000928C4
:1039900003F1010100F29E871046002303EB83022E
:1039A00000EB420211F8010FA0F13006303A092E67
:1039B00093B2F3D9002F00F06C875B4299B2C9E74C
:1039C000FB685B4299B260E7B9895EE7FB68002B50
:1039D00000F060861A78742A00F049872B2A00F0DC
:1039E00042872D2A40F035874FF0010E5A78A2F118
:1039F0003000092803F1010100F26F87104600230F
:103A000003EB830200EB420211F8010FA0F1300733
:103A1000303A092F93B2F3D9BEF1000F00F03A8685
:103A20005B4299B231E7204604F19006FCF70EFFA5
:103A30003046FCF70BFF2046FCF7F8FE3046FCF75B
:103A4000F5FEB2E65849384605F0AEF800285BD0DE
:103A50003846564905F0A8F800287FF4A6AE20465F
:103A6000FDF7E6FFA1E6524801F0D2FD00283FF441
:103A700033AF504E4E4800233360736001F0CEFDEB
:103A800033462AE701F0C4FD00283FF4DCAE4A4F7C
:103A90004A4800233B607B6001F0C0FD3B46D3E613
:103AA000434801F0B5FD00283FF4D9AE414F4048EE
:103AB00000233B607B6001F0B1FD3B46D0E601F0A6
:103AC000A7FD00283FF4FAAE3B4E3C48002333608C
:103AD000736001F0A3FD3346F1E62046FCF7D6FF04
:103AE00063E69B68BCE6F368E9E69B68F5E6D8F810
:103AF0000C30A9E6F06804F019FD81B22AE7F868F5
:103B000004F014FD81B2C0E6B8F1000F05D110E059
:103B1000D8F80080B8F1000F0BD0D8F8041028486E
:103B200005F042F80028F3D198F80830062B00F091
:103B3000B485224B1B68DA0701D4FCF7BFFE1E4B8D
:103B40005B681BB11A79072A00F0AB85184B194F37
:103B50001B68DB0740F1BE857F6817B91AE03F6834
:103B6000C7B17968174805F01FF80028F7D13B7AEC
:103B7000052B00F2BA86DFE813F00D0020052005C2
:103B8000EC04EC04E704A3F13002092A98BF0021F9
:103B900040F22A850027D6F80480B8F1000F18D12A
:103BA00023E000BFD09300000094000014940000B4
:103BB00040A5FF1F44A5FF1F50A5FF1F4CA5FF1FD9
:103BC0005093000078930000D8F80080B8F1000FFF
:103BD0000BD0D8F80410944804F0E6FF0028F3D185
:103BE00098F80830062B00F08385904B1B68D807A7
:103BF00001D4FCF763FE8E4B5B681BB11A79072A70
:103C000000F065858B4B1B68D90740F14D858A4BC9
:103C1000D3F80480B8F1000F05D11FE0D8F8008078
:103C2000B8F1000F1AD0D8F80410844804F0BCFF93
:103C30000028F3D198F80830052B00F28786DFE8DA
:103C400013F00D0024042404200420041804A3F11C
:103C50003002092A98BF002040F22F844FF000085C
:103C6000D6F80490B9F1000F05D110E0D9F8009012
:103C7000B9F1000F0BD0D9F804106B4804F094FF91
:103C80000028F3D199F80830062B00F0B185674B76
:103C90001B68DA0701D4FCF711FE654B5B681BB1AA
:103CA0001A79072A00F0A885624B1B68DB0740F1F0
:103CB0008C85614BD3F80490B9F1000F05D11FE05A
:103CC000D9F80090B9F1000F1AD0D9F804105C4867
:103CD00004F06AFF0028F3D199F80830052B00F2B0
:103CE0002E86DFE813F00D009803980395039503E3
:103CF0009003A2F13001092998BF002140F2A58369
:103D00000023394642462046FCF7F8FC776817B98D
:103D10000BE03F684FB17968434804F045FF002845
:103D2000F7D13B7A062B00F04D85404B1B68D80736
:103D300001D4FCF7C3FD3E4B5B681BB11A79072A1F
:103D400000F03D853B4B3C4F1B68D90740F129856E
:103D50007F6817B913E03F688FB17968394804F07C
:103D600023FF0028F7D13B7A052B00F29F85DFE87F
:103D700013F00600440344033E033E0337030027C9
:103D8000B946D6F80480B8F1000F05D110E0D8F894
:103D90000080B8F1000F0BD0D8F80410224804F0CE
:103DA00003FF0028F3D198F80830062B00F0278590
:103DB0001E4B1B68DA0701D4FCF780FD1C4B5B68C7
:103DC0001BB11A79072A00F01E851A4B1B68DB0706
:103DD00040F14984184BD3F80480B8F1000F05D1A5
:103DE00018E0D8F80080B8F1000F13D0D8F804100C
:103DF000154804F0D9FE0028F3D198F80830052BB7
:103E000000F24C85DFE813F00600E502E502DE0271
:103E1000DE02D6024FF00008C246D6F804B0BBF16D
:103E2000000F18D123E000BF509300004CA5FF1FE6
:103E300050A5FF1F40A5FF1F44A5FF1F7C93000056
:103E4000809300006C93000070930000DBF800B0DA
:103E5000BBF1000F0BD0DBF804109F4804F0A4FE68
:103E60000028F3D19BF80830062B00F00F849B4B01
:103E70001B68D80701D4FCF721FD994B5B681BB187
:103E80001A79072A00F0ED83964B1B68D90740F199
:103E9000D683954BD3F804B0BBF1000F05D118E0E1
:103EA000DBF800B0BBF1000F13D0DBF804108F4833
:103EB00004F07AFE0028F3D19BF80830052B00F2BD
:103EC0006E85DFE813F00600AE03AE03B503B5035D
:103ED000A60300231A469446514640469A46E346B6
:103EE0003A46CDE900014B462046CDE902ABFCF74E
:103EF0000FFC7768903417B90BE03F684FB17968D1
:103F0000754804F051FE0028F7D13B7A062B00F0EB
:103F10000384724B1B68DA0701D4FCF7CFFC704BAB
:103F20005B682BB11B681BB11A79072A00F0F68376
:103F30006C4B6D4F1B68DB0740F1E1837F6817B95D
:103F40001AE03F68C7B17968694804F02DFE00287F
:103F5000F7D13B7A052B00F23285DFE813F00D0034
:103F60000303030301030103FD02A3F13002092A45
:103F700098BF002140F20D830027D6F80480B8F1E5
:103F8000000F05D110E0D8F80080B8F1000F0BD079
:103F9000D8F80410504804F007FE0028F3D198F830
:103FA0000830062B00F0A8834C4B1B68D80701D4BF
:103FB000FCF784FC4A4B5B682BB11B681BB11A7978
:103FC000072A00F0BF83474B1B68D90740F1A8833D
:103FD000454BD3F80480B8F1000F05D11FE0D8F8A5
:103FE0000080B8F1000F1AD0D8F80410414804F04E
:103FF000DBFD0028F3D198F80830052B00F2D784B8
:10400000DFE813F00D0073027302C401C401BD01A7
:10401000A3F13002092A98BF002040F27E824FF0BF
:104020000008D6F80490B9F1000F05D110E0D9F8D6
:104030000090B9F1000F0BD0D9F80410264804F015
:10404000B3FD0028F3D199F80830062B00F0A483C3
:10405000224B1B68DA0701D4FCF730FC204B5B686D
:104060002BB11B681BB11A79072A00F098831D4BEE
:104070001B68DB0740F1D9831B4BD3F80490B9F1DF
:10408000000F05D11FE0D9F80090B9F1000F1AD048
:10409000D9F80410184804F087FD0028F3D199F8E6
:1040A0000830052B00F20F84DFE813F00D003B0110
:1040B0003B01380138013301A2F13003092B98BFCD
:1040C000002040F248810023394642462046FCF752
:1040D00015FB7768A7B91DE0509300004CA5FF1FA2
:1040E00050A5FF1F40A5FF1F44A5FF1F74930000AC
:1040F000789300007C930000809300003F684FB1EC
:104100007968A44804F050FD0028F7D13B7A062BCB
:1041100000F09D83A04B1B68D80701D4FCF7CEFBB1
:104120009E4B5B682BB11B681BB11A79072A00F004
:104130007A839B4B9B4F1B68D90740F167837F684D
:1041400017B913E03F688FB17968974804F02CFDE8
:104150000028F7D13B7A052B00F2AF83DFE813F09C
:104160000600D300D300CD00CD00C6000027B9461D
:10417000D6F80480B8F1000F05D110E0D8F800801F
:10418000B8F1000F0BD0D8F80410824804F00CFDF1
:104190000028F3D198F80830062B00F0F8827E4B07
:1041A0001B68DA0701D4FCF789FB7C4B5B682BB1F9
:1041B0001B681BB11A79072A00F0EC82784B1B6848
:1041C000DB0740F1D282774BD3F80480B8F1000FBF
:1041D00005D115E0D8F80080B8F1000F10D0D8F85C
:1041E0000410724804F0E0FC0028F3D198F808307D
:1041F000052B00F29583DFE803F00372726B6B63AB
:104200004FF00008C246766816B90BE036684EB12A
:104210007168604804F0C8FC0028F7D1337A062B97
:1042200000F0A1825C4B1B68D80701D4FCF746FB69
:104230005A4B5B682BB11B681BB11A79072A00F037
:104240009082574B574E1B68D90740F17D827668A4
:1042500016B910E0366876B17168554804F0A4FCD0
:104260000028F7D1337A052B00F25483DFE803F0FE
:104270000322221C1C1500231A46944640461E4663
:1042800051463A466746CDE900014B46CDE9026703
:104290002046FCF73DFAFFF788BAF06803F0CAFA47
:1042A000034601F10042E8E7F06803F0C3FA034671
:1042B0000A46E2E7F068FEF7F3FF03460A46DCE74A
:1042C000D8F80C0003F0B6FA804601F1004A9AE7EC
:1042D000D8F80C0003F0AEFA80468A4693E7D8F887
:1042E0000C00FEF7DDFF80468A468CE7F86803F095
:1042F000A1FA074601F100493AE7F86803F09AFA93
:104300000746894634E7F868FEF7CAFF074689463C
:104310002EE7D9F80C305B429BB2D5E6B9F80C30E9
:10432000D2E6D9F80C10002900F006830A78742A26
:1043300000F0FF822B2A00F0FA822D2A7FF4BCAE17
:1043400001204A78A2F1300EBEF1090F01F10103FC
:1043500000F2A2821946002303EB830302EB43031E
:1043600011F8012FA2F1300E303BBEF1090F9BB2C4
:10437000F2D900283FF4A8AE5B429BB2A4E6D8F87D
:104380000C30C3F100081FFA88F84AE6B8F80C8030
:1043900047E600BF509300004CA5FF1F50A5FF1F2C
:1043A00040A5FF1F44A5FF1F6C9300007093000001
:1043B00074930000D8F80C0003F03CFA804601F139
:1043C000004A2AE5D8F80C0003F034FA80468A4601
:1043D00023E5D8F80C00FEF763FF80468A461CE50B
:1043E000F86803F027FA074601F10049C9E4F868C4
:1043F00003F020FA07468946C3E4F868FEF750FF49
:1044000007468946BDE4D9F80C305B429BB278E49C
:10441000B9F80C3075E4D9F80C00002800F0AA8235
:104420000278742A00F09E822B2A00F099822D2AAD
:104430007FF45FAC01214278A2F1300EBEF1090F8A
:1044400000F1010300F28A821846002303EB830384
:1044500002EB430310F8012FA2F1300E303BBEF106
:10446000090F9BB2F2D900293FF44BAC5B429BB2DF
:1044700047E4D8F80C30C3F100081FFA88F8FFF7BA
:10448000EFBBB8F80C80FFF7EBBBD8F80C10002995
:1044900000F082820B78742B00F07A822B2B00F0D4
:1044A00075822D2B7FF4D3AB01204B78A3F1300222
:1044B000092A01F1010100F228821A46002303EBC8
:1044C000830302EB430311F8012FA2F1300E303BBE
:1044D000BEF1090F9BB2F2D9002800F01882C3F197
:1044E00000081FFA88F8FFF7BBBBD8F80C100029AA
:1044F00000F049820B78742B00F041822B2B00F0E6
:104500003C822D2B7FF484AD01204B78A3F1300247
:10451000092A01F1010100F2E3811A46002303EBAD
:10452000830302EB430311F8012FA2F1300E303B5D
:10453000BEF1090F9BB2F2D9002800F0D381C3F17C
:1045400000081FFA88F86CE5FF687F42BFB2FFF7EA
:1045500022BBBF89FFF71FBBFF687F42BFB20CE5DC
:10456000BF890AE5FF68002F3FF407AD3B78742B45
:1045700000F0C5812B2B00F0C0812D2B7FF4F5AC12
:1045800001217B78A3F13002092A07F1010700F22B
:10459000B2811A46002303EB830302EB430317F8AF
:1045A000012FA2F13000303B09289BB2F3D900293A
:1045B00000F0A8815F42BFB2DFE4FF68002F3FF444
:1045C000EAAA3B78742B00F007822B2B00F00282C2
:1045D0002D2B7FF4D8AA01217B78A3F13002092A80
:1045E00007F1010700F2F4811A46002303EB83036D
:1045F00002EB430317F8012FA2F13000303B0928EA
:104600009BB2F3D9002900F0E0815F42BFB2FFF70F
:10461000C2BADBF80C0003F00DF9034601F10042C9
:1046200059E4DBF80C00FEF73BFE03460A4652E471
:10463000DBF80C0003F0FEF803460A464BE4CB48D7
:1046400000F0E6FF00283FF424ACDFF824B3C748AD
:104650000023CBF80030CBF8043000F0DFFF5B46DE
:1046600018E49B6816E4C14800F0D2FF00283FF42C
:10467000B1ABDFF8FC82BD480023C8F80030C8F8B1
:10468000043000F0CBFF4346FFF7A5BBDBF80C304E
:10469000FFF7F4BB1946FFF7F8B8D8F80C30FFF76E
:1046A0004FBA9F68FFF758BAB04800F0B1FF002832
:1046B0003FF4ADAADFF8B882AC480023C8F8003058
:1046C000C8F8043000F0AAFF4346FFF7A1BA9B6880
:1046D000FFF79EBAA54800F09BFF00283FF43CAAD4
:1046E0000023A2483B607B6000F098FFFFF734BADC
:1046F000D8F80C30FFF780BAD8F80C305BE49B4850
:1047000000F086FF00283FF419AC002397483B6077
:104710007B6000F083FF11E4FB6801E49F680DE417
:10472000924800F075FF00283FF452ACDFF8408259
:104730008E480023C8F80030C8F8043000F06EFF3F
:10474000434646E49B6844E4884800F061FF002843
:104750003FF47DAD002385483360736000F05EFF59
:1047600075E59E6873E5F36863E5804800F050FFE7
:1047700000283FF428ADDFF8F8817C480023C8F812
:104780000030C8F8043000F049FF43461CE5D8F873
:104790000C300BE59B6817E5D9F80C305FE49B689B
:1047A0006BE4724800F034FF00283FF4D1AA0023E4
:1047B0006E483B607B6000F031FFFFF7C9BA9F682D
:1047C000FFF7C6BAFB68FFF7B7BA684800F020FFEA
:1047D00000283FF46EAADFF8989164480023C9F8D6
:1047E0000030C9F8043000F019FF4B46FFF762BAF9
:1047F000D9F80C30FFF752BA9B68FFF75BBAD8F8CC
:104800000C30FFF7DCBA9B68FFF7E5BA574800F0B9
:10481000FFFE00283FF493AC002354483B607B60CC
:1048200000F0FCFE8BE49F6889E4504800F0F0FE45
:1048300000283FF421ACDFF838914C480023C9F838
:104840000030C9F8043000F0E9FE4B4615E4FB687F
:1048500067E4A2F1300109293FF616A819464FF086
:10486000000EFFF7CBB84FF0000EFFF7BFB80121E5
:10487000FFF70BB8A2F1300109293FF66AA81946E3
:104880000027FFF789B80027FFF77EB80121FFF75F
:1048900061B81946FFF75EB800236AE5D8F80C0046
:1048A00002F0EAFF80468A46FFF7B7BAF86802F0DE
:1048B000E3FF07468946FFF764BAF86802F0DCFFB9
:1048C0000746894654E4D9F80C0003F02FFE83B262
:1048D000FFF7FABB0023FFF76DB80023FFF79CB882
:1048E000002329E69846FFF79CBBF86803F01EFEFC
:1048F00087B2FFF750B9002359E6002141E60127AE
:10490000FFF73BBB1F46FFF738BB0023E4E59846A3
:10491000FFF7A6B9F06802F0AFFF03460A46ACE421
:10492000D8F80C0002F0A8FF80468A466BE400200D
:1049300007E50123FFF7C8BB0B46FFF7C5BBD9F856
:104940000C0003F0F3FD83B2FFF7DBB9D8F80C00DD
:1049500003F0ECFD1FFA80F8FFF782B9002382E52F
:10496000002168E50123FFF7CCB900BF40A5FF1F78
:1049700044A5FF1F0346FFF7C4B90020C5E54FF06B
:104980000108FFF74EBB8846FFF74BBB00208CE5C4
:104990004FF00108FFF764B98846FFF761B9DBF80B
:1049A0000C0002F069FF03460A46FFF794BAD8F8F4
:1049B0000C0003F0BBFD1FFA80F8FFF732BBF8686C
:1049C00003F0B4FD87B2FFF7D8BA1F46FFF7E3B88C
:1049D000002317E60021FFE50127FFF7DCB800BF41
:1049E00041F2D42310B50446C05803681B699847A8
:1049F00020B12046BDE81040FEF730BE10BD00BF1C
:104A00002DE9F04390F82331022B87B0044601D002
:104A1000FFF7E6FF414E41F2E4423368009300990C
:104A2000A358994261D13368019304F5A75141F22B
:104A3000D040019B0A68205A9B1A984208D994F8E2
:104A40002331022B11D0012B55D007B0BDE8F083E4
:104A500002440A602046FBF777FD04F19000FBF763
:104A600073FD94F82331022BEDD1B4F92851002DB8
:104A7000EBDD33680293029BD4F82471274ADB1BD9
:104A8000042BE2D913680393ADB2C5F5FA76B6B23A
:104A900004F59652039BD2F8008004EB8601DB1BE1
:104AA000C1F82C31A31998F9082083F8FC28D8E91B
:104AB000040103F0F7F904EB4609013DA9F8F00AF7
:104AC000D8E9000103F0EEF90537322EA9F8D80E27
:104AD000A4F82851C4F82471B7D141F2C423404648
:104AE000E15A0122FBF7EAFDAFE70133A35020466C
:104AF000FBF7F6FE97E733680493049BD4F8241180
:104B0000064A5B1AB3F57A7F9FD313680593059B1A
:104B1000C4F8243107B0BDE8F08300BF58A5FF1FDB
:104B200000F02EBC38B5124A124B00F1AC05002142
:104B3000044600F0AFFA28460F4B104A012100F05E
:104B4000A9FA0F490F4A022384F858310B68C4F8B8
:104B5000605143F00063C4F86851C4F85C41C4F884
:104B600064410B60136843F000632046136038BD56
:104B70002C940000849400002894000058940000B5
:104B80003C80044030800440012A03D0D0F85C010E
:104B900000F010B9D0F8600100F00CB9012A03D080
:104BA000D0F85C0100F04EB9D0F8600100F04AB9CD
:104BB000012A03D0D0F85C0100F058B8D0F86001A9
:104BC00000F054B8531C13D02AB1012A07D1D0F8F1
:104BD000600100F047BBD0F85C0100F043BBD0F8A7
:104BE0005C212148D38A9BB243F00103D3827047F2
:104BF00070B50446D0F85C010D4600F011FB294663
:104C00000646D4F8600100F00BFB76B1A8B1D4F8E9
:104C10005C31D4F86001597D427D914298BF1846BD
:104C20002946BDE8704000F01DBB68B12946D4F8A4
:104C30006001BDE8704000F015BB2946D4F85C0166
:104C4000BDE8704000F00EBBD4F85C11D4F86021D0
:104C5000CB8A05489BB243F00403CB82D38A9BB234
:104C600043F00403D38270BD90EEFEFF38B5437E5F
:104C700004460D46DBB9A36D012D4FEA43131DD940
:104C800003F184430122042D9A6009D9082D23D908
:104C9000102D1AD91A605A60202384F8203038BDAC
:104CA00000221A605A60042384F8203038BD00F0D6
:104CB0001BF8A36D012D4FEA4313E1D803F18442A1
:104CC0000023936084F8203038BD002183E806007B
:104CD000102384F8203038BD00211A605960082361
:104CE00084F8203038BD00BFF8B5836D5B0103F157
:104CF00084430446DA6942B102F01EFAA36D5B01F7
:104D000003F18443DA69002AF6D19B6923B1E38A6F
:104D10009BB243F00203E38272B6637E002B37D06E
:104D2000216F636FA26F0F68E06F1B68D4F880106B
:104D300016680568D4F8842009681268606E3B44E0
:104D400033442B440B441344C3F34E03D4F88C5028
:104D5000D4F89010D4F8942043F4004303602F68F3
:104D6000D4F898000B681668D4F89C100568D4F83D
:104D7000A02009681268A06E3B4433442B440B44C6
:104D80001344C3F34E0343F40043002203606276EE
:104D900062B6A37E6BB10221204600F053F80221D7
:104DA000204600F0D1F804212046FFF75FFF0023E2
:104DB000A376F8BD38B5C37E8B4211D0437E04463E
:104DC0000D466BBB092D0CD8E36B5B0103F18443EB
:104DD0000022DA609A60FF210823E161E37638BDA2
:104DE00038BD0B2D1FD90D2D0DD8E36B5B0103F1E1
:104DF000844300200121D860996040F6FF720C23A3
:104E0000E261E37638BDE36B5B0103F18443012289
:104E1000DA609A604FF6FF711023E161E37638BDE6
:104E2000FFF762FFCEE7E36B5B0103F184430120F0
:104E30000021D860996040F2FF320A23E261E376F4
:104E400038BD00BF90F824308B4256D070B5437EF9
:104E500005460C46002B34D1A31F032B2A6C16D910
:104E6000520102F184420021D1606CBBEB6B946073
:104E70005B0103F1844301221046DA61002601211F
:104E800083E8420098615A6185F8244070BDEB6B5D
:104E900052015B0103F1844302F1844201210020AD
:104EA000062CD160596019605861986126D0072C92
:104EB00029D0082C0CBF90609160D86185F82440FF
:104EC00070BDFFF711FFC7E7012C0DD0022C31D0C8
:104ED000032C1BD0042C19D0052C21D0EB8A9BB2BB
:104EE00043F00103EB8270BDEB6B91605B0103F15A
:104EF00084432046DC612246C0E770479060D96158
:104F000085F8244070BD9160D961BDE7EB6B5B0112
:104F100003F18443012090600246D9610846ADE761
:104F2000EB6B5B0103F184430126966008460A4659
:104F3000D961A3E7EB6B91605B0103F184430A46FF
:104F4000D96101209AE700BF38B590F825308B422F
:104F500021D0437E05460C46F3B974B1012C2DD007
:104F6000022C38D0032C1CD0042C14D1EB6B5B0129
:104F700003F1844300221A610BE0EA6B2B6C5201AF
:104F80005B0103F1844302F18442012111615C6001
:104F90001C6085F8254038BDFFF7A6FE002CDDD14A
:104FA000EBE7EA6B2B6C52015B0103F1844302F1E6
:104FB00084420121116159601960EAE7EA6B2B6CA8
:104FC00052015B0103F1844302F184420021146128
:104FD0001C605960DDE7EA6B2B6C52015B0102F14A
:104FE0008442012103F184430020116183E803001E
:104FF000CFE700BF70B5026C04460023C3760121E1
:10500000052504200226E361AA4084F8203084F8B4
:10501000216084F8223084F8231084F8245084F826
:1050200025006376E38202F1844294F821006375DF
:10503000116188B1164A1370626D84F82130AA405C
:1050400002F18442136072B6A36D6176AB4003F146
:1050500084439961D96162B6012520460A21FFF790
:10506000A9FE2046A5762021FFF700FE294620460E
:10507000FFF7E8FE29462046FFF766FF72B6A36DEC
:1050800065765B0103F184439D61DD6162B670BDAD
:10509000014007402DE9F0418262454A454EC36216
:1050A000CD0401EB81072A44FF004FF400330029AF
:1050B00001763E4403634264DFF83CE13E4F3F49E2
:1050C0003F4A404BDFF8348105F1804CAE442F4419
:1050D00029442A442B440CF56C3CC0F834C0C0F879
:1050E00038E0C7630164C2650366DFF814C1DFF806
:1050F00014E1354F3549364A364BA844AC44AE44EA
:105100002F4429442A442B44C0F84880C0F84CC09E
:10511000C0F850E04765816542678367DFF8E88043
:10512000DFF8E8C0DFF8E8E02B4F2C492C4A2D4B84
:10513000A844AC44AE442F4429442A442B44C0F82C
:105140006480C0F868C0C0F86CE00767C167C0F849
:105150008820C0F88C30DFF8BC80DFF8BCC0DFF8F6
:10516000BCE0214F2149224A224BAC44AE442944A1
:105170002A442B44A8442F4414BF3A253925044619
:10518000C0F88080C0F884C0C0F890E0C0F8947087
:10519000C0F89810C0F89C20C0F8A030C0F8A460F7
:1051A00080F8A850FFF726FF2046BDE8F08100BF39
:1051B00010B003401060034008B003400CB003403F
:1051C00050B0034028B0034020B0034024B0034057
:1051D0003CB0034040B0034038B0034044B003400B
:1051E00054B0034058B0034060B0034064B0034083
:1051F00068B003406CB0034004B0034014B00340F7
:1052000018B003401CB003402CB0034030B0034042
:1052100034B0034048B003404CB003405CB003409E
:105220002B2907D8836A585C00F01F001F3818BF6D
:105230000120704700207047836A026C5B5C52015A
:10524000190602F184424CBF00210121116172B69E
:1052500090F82210426B03F01F0303EB81131360DD
:1052600062B670472B292DE9F84F82465BD8836AD6
:105270005B5C03F01F031F2B55D0437D427E01333F
:105280008B464375002A75D1DAF854305B0103F17F
:105290008443DC69003418BF0124002C4DD1A046A2
:1052A000A146264627462546DAF858305B0103F129
:1052B000844300225946DA605046FFF7BDFF01E003
:1052C00001F03AFFDAF854305B0103F18443DB6903
:1052D000002BF5D172B6DAF834305B0103F1844368
:1052E000DB69002B3DD0DAF84430186880B262B632
:1052F00094B172B6DAF83C20DAF84030DAF854109B
:10530000C2F80090DAF85820C3F80080DAF8343098
:105310000F6016601D6062B69AF81530013B8AF87E
:105320001530BDE8F88FBAF8163014489BB243F038
:105330000403AAF81630BDE8F88F72B6DAF83450D4
:10534000DAF83C00DAF84010DAF85420DAF858308D
:105350002D68D0F80090D1F8008017681E6862B6FA
:10536000A2E7BAF8163005489BB243F01003AAF83A
:105370001630BCE7FFF7B8FC86E700BF90EEFEFFF3
:10538000F0B51B4B1B4E596818689A68DB6885B0EE
:105390006C460FC4337899071DD5174A174C1378FC
:1053A000174913F0700318BF1370164A164B802765
:1053B000177000263320032226706D4608701A707D
:1053C00072B6043C45F001052046A84762B6237832
:1053D00013F0700309D10D4B064901E0013B02D0E7
:1053E0000A78D207FAD505B0F0BD237005B0F0BD3C
:1053F00088940000010002400000024004000240C6
:105400000B000240070002400A000240410D030069
:10541000B0F5006F0AD210B5094B1B78DB070446C4
:1054200006D504F1A0500078C0B210BD002070472E
:10543000FFF7A6FF04F1A0500078C0B210BD00BF76
:1054400001000240B0F5006F17D238B50F4B1B7842
:10545000DA070D46044611D504F1A0500378AB429B
:105460000AD00B4A137813F0700318BF1370074A61
:1054700005701378DB07FCD538BD7047FFF780FF58
:1054800004F1A0500378AB42EBD1F5E701000240F4
:1054900000000240B1F5006F60D2F0B5374B1B78C9
:1054A000DB0785B00C465AD5B2F5006F03D28B18D6
:1054B000B3F5006F5ED3C1F50062314D2F4B14F090
:1054C000030118D002292DD004F1A05607783178B5
:1054D0008F4200F1010008D0297811F0700118BF47
:1054E000297037701978C907FCD5013A0134002AB0
:1054F000E5D105B0F0BD032A14D904F1A05650F847
:10550000047B31688F4208D0297811F0700118BFF0
:10551000297037601978CF07FCD5043A0434002A83
:10552000CDD1E6E7012ACFD004F1A05790F801E0F1
:1055300001783E8841EA0E218E4200F1020008D037
:105540002E7816F0700618BF2E7039801978CE07A5
:10555000FCD5023A0234002AB1D1CAE7704703925F
:1055600002910190FFF70CFF01A807C8B2F5006F88
:105570009DD3A0E7002AA0D1BBE700BF01000240F5
:105580000000024008B5104C08E0236859050DD40E
:1055900023681A050FD42368DB0411D42368580349
:1055A000F3D500F0F7FD23685905F1D500F0B4FC00
:1055B00023681A05EFD501F0B3FE2368DB04EDD5AF
:1055C00001F044FFEAE700BF3480044008B5FFF76C
:1055D000D9FF00BF014B10221A8070470020054000
:1055E000704700BF094908B50B6830B16A461844D6
:1055F000A2F58052904202D20860184608BD02F01F
:10560000B5FF0C2303604FF0FF3008BD2087FF1F5C
:105610000078B0FA80F04009704700BF01230370A2
:10562000704700BFEFF3138070B9EFF310836BB9CD
:10563000EFF305825AB94FF48070EFF311832BB169
:10564000984228BF184670474FF0FF3070470F2A26
:1056500001D81846F1E7014BD05CEEE7F0E300E03B
:1056600010B40F4B53F8302092F880422CB1012334
:1056700069B182F8803010BC704703EBC0035B68EF
:105680001A6841B922F002021A6010BC704782F811
:10569000003110BC704742F003021A6010BC704722
:1056A000989400001C4A02EBC00301295B6811D0EA
:1056B00004291BD052F83000002280F8802229B142
:1056C000022920D0032922D01A6070474FF480723B
:1056D0001A60704752F830004FF4A27280F88012BE
:1056E0001A601A6822F020021A60704752F83010CF
:1056F0004FF4A272012081F880021A601A6842F009
:1057000020021A60704740F203121A6070474FF48B
:1057100081721A60704700BF9894000030B4054B46
:10572000054D064C002210211A602A602060196085
:1057300030BC704714D0034004D0034000D0034075
:10574000212801D8FFF78CBF704700BF212801D85E
:10575000FFF7A8BF704700BF2DE9F843054672B6B2
:10576000204F214B214A1B683C68126862B65201E7
:1057700002D5322B88BF013495B3C3F5BB331C4E21
:10578000DFF86490DFF86480FF334FF47A72A6FB91
:10579000031302FB04F404EB931472B6D9F800105F
:1057A0003A68D8F800E062B6C1F5BB33FF33A6FB18
:1057B00003031EF0806FC4EB93134FF47A7002D092
:1057C000322988BF013200FB0233B3F57A7F04D35C
:1057D000013D05D004F57A74DFE701F0ADFCDCE7AC
:1057E000BDE8F88358A5FF1F18E000E004ED00E0D5
:1057F000ABAAAAAAF8B52D4B2D49DFF8D0E0DFF807
:10580000D0C02C4E2C4D2D4C2D4A2E4F4FF4000065
:1058100018604FF0807018604FF0007018604FF003
:10582000806018604FF00060186000200860282336
:105830004BF6FF71CCF80010CEF8003033601360E7
:105840002B6023603B60B3629362092245F8242CED
:10585000C4F8D80F05F57F65C7F8D41F07F5FF27F3
:1058600007F5FA67C6F8F83F2B6006F5FF26C4F87F
:10587000D42F05F5FD2504F5FF24386006F2F476F3
:105880001148316005F5FF6504F5FD642B60236068
:10589000026001F09FFC3220FFF75EFF01F0A6F8E6
:1058A0004FF4AF70BDE8F840FFF756BF08E100E0E5
:1058B0000480034014800340248003402C80034074
:1058C0001C8003403480034000800B400C80034068
:1058D000088003402DE9F84F214B1B6807460BB1A8
:1058E00001221A70DFF888901E4D99F80040DFF809
:1058F00084801D4E01343F2C8ABF4FF0000A5FFAAE
:1059000084FA5446AB462B78A34216D1FFF78AFEA1
:1059100040281FDC33791B06F5D59BF80030013396
:105920003F2B86BF00221346DAB218F80330DBB2F1
:10593000F3712A702B78A342E8D00C490A4BFFB2CE
:1059400008F804700120BC22087089F800A0DA7001
:10595000BDE8F88FFF28D6DD01F0EEFBD3E700BFEE
:10596000ECA5FF1FE9A5FF1F00A00640E8A5FF1F4B
:10597000F0A5FF1F64A5FF1F274A28491368F0B54B
:1059800043F4806313600A78254F264E264D274C3A
:10599000274900233B7033702B7023700B70002A53
:1059A00035D0152A26D0234B1B78012B2AD0052B66
:1059B00003D1214B4FF451721A60204B204C2149E6
:1059C000C0F34436C0F347151E7000F01F005D7031
:1059D00004224FF0020E88273C26402598729A70C8
:1059E0004FF4005083F813E05A751F74DE70257071
:1059F0000860F0BD144B40F213321A600D4B1B7857
:105A0000012BD4D1114B4FF451721A60D5E7104BD2
:105A100040F213321A60C6E734800440A4A5FF1F89
:105A200060A5FF1F61A5FF1FF0A5FF1FE9A5FF1FD0
:105A3000E8A5FF1F2487FF1F1CC0044000A00640EC
:105A40002DE400E004E100E018C0044044A004405C
:105A500040A00440144B14499B7803F0EC0200F082
:105A600003031343420700F00F0248BF43F0100343
:105A7000042A8B7013D00C4B0B4A5B79C10603F0E0
:105A8000EF0348BF43F0100353719379820603F08C
:105A9000EF03054A48BF43F01003937170478B79B9
:105AA00043F040038B71E6E700A00640214B1B68E2
:105AB0005B053ED510B5204C237823B101F03CFBAB
:105AC0002378002BFAD11D481D4A1E4B4FF4005479
:105AD00000210460D1701B78E3B1152B03D11A4B60
