:1000000000800020BD010000A953000061530000E2
:100010006153000061530000615300006153000010
:10002000615300006153000061530000A9530000B8
:10003000A953000061530000BD6C0000C16D0000B9
:10004000A9530000A9530000A9530000A9530000C0
:10005000A9530000A9530000A9530000A9530000B0
:10006000A9530000A9530000A9530000A9530000A0
:10007000A9530000A9530000A9530000A953000090
:10008000A9530000A9530000A9530000A953000080
:10009000A9530000A9530000A9530000A953000070
:1000A000A9530000A9530000A9530000A953000060
:1000B000A9530000A9530000A9530000A953000050
:1000C000A9530000A9530000A9530000A953000040
:1000D000A9530000A9530000A9530000A953000030
:1000E000A9530000A9530000A9530000A953000020
:1000F000A9530000F55C0000A9530000FD7000004A
:10010000A953000029720000A9530000A953000060
:10011000A9530000A9530000A9530000A9530000EF
:10012000A9530000A9530000A9530000A9530000DF
:10013000A9530000A9530000A9530000A9530000CF
:10014000A9530000A9530000A9530000A9530000BF
:10015000A9530000A9530000A9530000A9530000AF
:10016000A9530000715F0000A9530000A9530000CB
:10017000A9530000A9530000A9530000A95300008F
:10018000A9530000A9530000A9530000A95300007F
:10019000A9530000A9530000A9530000A95300006F
:1001A000A9530000A9530000A9530000A95300005F
:1001B000A9530000A9530000A9530000564B4CF26C
:1001C000205210B51A804DF628121A8000BF00BFC9
:1001D00005F0EEF8514B4FF010621A60504A9A60E9
:1001E000504ADA60504A136813F4807304D14F49BF
:1001F0000B604FF4A85313604D4B1A78110703D5C9
:100200001A7842F008021A704A4B4B492A221A7097
:100210004A4A4B4B8B4204D252F8040F43F8040B6A
:10022000F8E7484B484900228B4202D243F8042B9E
:10023000FAE74649464A002352F8230041F82300D2
:1002400001336F2BF8D1434B434A802103F8011B44
:100250009342FBD1414B3D4A1A60414B8A221A70AE
:10026000A3F5805324225A70A0221A709A7992071B
:10027000FCD59A79D406FCD43A4A937903F00C035E
:10028000082B384BF9D103221A7140225A719A79FE
:100290009006FCD5334A9179324B4906FBD5324A58
:1002A000324911600221516020221A709A7902F0BD
:1002B0000C020C2AFAD12E4B2E4A1A602E4B2F4AD2
:1002C0001A6000225A60072243F8042C2C4AC3F813
:1002D0000C2D62B605F07CF9144B1B68DA0705D5C6
:1002E000284805F009F9284B284A1A60284B1B7842
:1002F0005B0609D5244C254B22689A4204D121483B
:1003000005F0FAF80023236008F024F805F056F809
:1003100006F0D4FDFEE700BF0E200540308004400B
:10032000823F04000100002B10D0034014D0034092
:1003300002D0074000E007403490FF1F60940000A7
:100340002087FF1F3890FF1F54A8FF1F0082FF1F48
:100350000000000000E400E05FE400E008ED00E0E1
:100360000050064000400640448004400000030165
:1003700004800440C010050014E000E0FF76010096
:1003800000002020567510051CE00340A5C3945AB8
:1003900000F00740FFFFFFFFFFFFFFFFFFFFFFFF32
:1003A000FFFFFFFFFFFFFFFFFFFFFFFFFFFFFFFF5D
:1003B000FFFFFFFFFFFFFFFFFFFFFFFFFFFFFFFF4D
:1003C000FFFFFFFFFFFFFFFFFFFFFFFFFFFFFFFF3D
:1003D000FFFFFFFFFFFFFFFFFFFFFFFFFFFFFFFF2D
:1003E000FFFFFFFFFFFFFFFFFFFFFFFFFFFFFFFF1D
:1003F000FFFFFFFFFFFFFFFFFFFFFFFFFFFFFFFF0D
:10040000FFFFFFFFFFFFFFFFFFFFFFFFDEF9FFFF23
:1004100010B5054C237833B9044B13B10448AFF33E
:1004200000800123237010BD3890FF1F00000000E2
:1004300064940000084B10B51BB108490848AFF39D
:1004400000800848036803B910BD074B002BFBD0A0
:10045000BDE81040184700BF000000003C90FF1F9F
:10046000649400003490FF1F0000000008B544F6BB
:10047000206005F06FF900210E2005F055F80021ED
:100480000F2005F051F80021102005F04DF8012152
:10049000142005F049F801210D2005F045F801214F
:1004A000022005F041F80021142005F037F80D2056
:1004B000012105F033F80248BDE8084000F0AABB6E
:1004C0005890FF1F014804F001BA00BF5890FF1F69
:1004D00000B585B004F0BAFE0E2110220A238DE883
:1004E0000E000448044A05490F2300F061FA05B0E4
:1004F0005DF804FB5890FF1F2C87FF1F3C87FF1FF0
:10050000F0B5104C83B024680194019C0467DDE9C8
:100510000867DDE90A450C998163C0E906234FF6B7
:10052000FF73A0F8443086460023C0E90867C0E99D
:100530000A45A0F84230A0F8463080F8483003B0B1
:10054000F0BD00BF58A5FF1F90F84830002B66D0C3
:100550002DE9F047D0E9004582B0824622462B467D
:10056000D0E9040106F016FFDAE918230FF2D009EA
:10057000D9E90089CDE9000107F0C0F8DAE91E23C6
:1005800006F00AFF42464B4606460F4607F046FB7A
:10059000002835D0CAE91E8946464F46DAE91623B7
:1005A000DDE9000107F0AAF832463B4606F0F4FE0A
:1005B000DAE9202306460F462046294606F0EAFEE1
:1005C000DAE91A2307F09AF802460B463046394614
:1005D00006F0E0FE00221E4B07F090F81AA3D3E9C4
:1005E000002306460F4607F019FBC8B90022194B35
:1005F0003046394607F0F4FAD0B16FF07F0010E0D2
:10060000DFF854904FF0000842464B4630463946DA
:1006100007F0E6FA0028BDD1CAE91E67BEE77047B9
:100620007F20CAE920458AF8080002B0BDE8F087BB
:100630003046394607F0FCFA40B2F2E7AFF30080EB
:1006400000000000C0FFDF400000000000C05F406D
:100650000000703F000060C00000E0C0D0B516464A
:100660001F4604460022104B3046394607F070F909
:1006700006460F4602460B46C4E91467D4E9080152
:1006800007F03CF80022C4E918010023304639463F
:1006900007F09CFA38B932463B46D4E90A0107F024
:1006A00057F9C4E91A01D0BD00408F4010B5044687
:1006B000084606F0ADFFC4E9000110BD012A10B5DF
:1006C000044605D0D0E9040107F0DAFA80B210BD83
:1006D000B0F94620B0F84430B0F8420011449942D5
:1006E000A8BF19468142A8BF88B206F091FFC4E9AD
:1006F000040107F0C5FA80B210BD00BFA3F5FF43A7
:100700007F3BA0F84630A0F84410A0F84220704784
:100710002DE9D04316461F460446002200233046EA
:10072000394607F05DFA002833D100220023DDE9C5
:10073000060107F055FA00282BD100220023DDE93D
:10074000080107F04DFA20BBDDE90623D4E914893E
:10075000C4E90823DDE90823C4E90667C4E90A23DC
:10076000C4E9166742464B46DDE9060106F0C6FFBE
:100770000022C4E9180100234046494607F026FA42
:1007800038B942464B46DDE9080107F0E1F8C4E913
:100790001A01BDE8D08300BF2DE9F047D0E900235E
:1007A000D0E90667824600240025C0E9202382B0F4
:1007B00030463946CAE91E4522462B4607F010FA54
:1007C000002830D1DAE9088922462B4640464946BE
:1007D00007F006FA38BBDAE90A2310461946224622
:1007E0002B46CDE9000107F0FBF9E0B9DAE9141274
:1007F000CAE91667134640460A46494616461F464A
:1008000006F07CFF2246CAE918012B4630463946DD
:1008100007F0DCF938B932463B46DDE9000107F064
:1008200097F8CAE91A0102B0BDE8F08790F84820AD
:1008300002B1704710B50446FFF7AEFF012384F8FC
:10084000483010BD002380F84830704710B504468A
:10085000B0F9460006F0ECFEC4E9040110BD00BF8B
:100860002DE9F041846874B1A3686568033323F00F
:100870000303CA18AA42A36005D804F10C00A260C1
:100880001844BDE8F081C768B942884638BFB84609
:10089000054608F10C000E4607F084FD40B17F00CC
:1008A00080E81001A8608660EF600C30BDE8F08140
:1008B000BDE8F081084606F013B900BF08B5064848
:1008C00004F094FD30B1054B034800221A605A60D1
:1008D00004F092FD08BD00BF4CA5FF1F50A5FF1FEF
:1008E00038B541F2C825044690F8201140594FF020
:1008F000FF3204F0CDF881B22046FFF7D7FE94F81E
:10090000211160594FF0FF3204F0C2F881B204F1B6
:100910009000BDE83840FFF7C9BE00BF38B541F2CE
:10092000C82405464FF0FF3200590C2104F092F81C
:1009300028594FF0FF32102104F0A0F828594FF049
:10094000FF32022104F090F8285901220C2104F012
:1009500081F828590122102104F090F82859012229
:100960000221BDE8384004F07FB800BF41F2D04317
:1009700070B50546C152084606F04AFE00220A4BF1
:1009800006F0E6FF05F5A65402460B46C4E9062329
:100990002846FFF763FE05F19000D4E90623BDE881
:1009A0007040FFF75BBE00BF00408F40FFFFFFFFBE
:1009B0002DE9F04F8BB0002600270446324D0492FB
:1009C000CDE90267CDE90067904689469B46002144
:1009D0002BA3D3E90023BDF858A0FFF791FDCDE983
:1009E0000267CDE90067CDF8108025A3D3E9002385
:1009F00004F190000121FFF783FD2B68099341F278
:100A0000C4229DF85000099984F8210100239DF823
:100A10005400C4F8241184F8220184F820B14FF462
:100A2000B670A35284F82331A4F8283106F04EFAA8
:100A3000804603F0DDFF2B680893DDF820E02B688B
:100A40000793079F2B68069341F2E44241F2D423B7
:100A500041F2C82141F2D82004F5A756069D44F87A
:100A6000018044F800E0514637602046A55044F824
:100A70000390FFF77BFF20460BB0BDE8F08F00BF6F
:100A8000000000A09999A93F58A5FF1F10B5782133
:100A90000446642004F03CFCD4E9060107F0F0F8B9
:100AA000C1B2652004F034FCD4E9080107F0E8F88D
:100AB000C1B26D2004F02CFCD4E90A0107F0E0F883
:100AC000C1B2752004F024FC94F832107D2004F0AB
:100AD0001FFC94F830107F2004F01AFC94F83410B6
:100AE000812004F015FCD4E92A0107F0C9F8C1B24D
:100AF000832004F00DFCD4E92C0107F0C1F8C1B249
:100B00008B2004F005FCD4E92E0107F0B9F8C1B23E
:100B1000932004F0FDFB94F8C2109B2004F0F8FB36
:100B200094F8C0109D2004F0F3FB94F8C4109F20AB
:100B3000BDE8104004F0ECBB2DE9F04F044685B051
:100B4000652004F0CBFB80466D2004F0C7FB824695
:100B5000752004F0C3FB83467D2004F0BFFB0546EF
:100B60007F2004F0BBFB0646812004F0B7FB07465C
:100B7000404606F04DFD80465846894606F048FD41
:100B8000CDE90201504606F043FD4246CDE90001A1
:100B90004B462046FFF7BCFDBBB2B2B2A9B220461D
:100BA000FFF7ACFD832004F099FB06468B2004F090
:100BB00095FB8246932004F091FB83469B2004F032
:100BC0008DFB05469D2004F089FB80469F2004F0A4
:100BD00085FB8146304606F01BFD064658460F460B
:100BE00006F016FDCDE90201504606F011FD9034E5
:100BF000CDE9000132463B462046FFF789FD2046FD
:100C00001FFA89F31FFA88F2A9B205B0BDE8F04FC8
:100C1000FFF774BD70B50446642004F05FFB7828CC
:100C200024D02046FFF77AFE04F1900541F2D04629
:100C300001224FF400412046FFF740FD01222846E3
:100C40004FF40041FFF73AFDA05B06F0E1FC0246DD
:100C50000B462046FFF702FDA05B06F0D9FC0246DA
:100C60000B462846BDE87040FFF7F8BC2046FFF76A
:100C700063FFD6E72DE9F04F0378013B87B00646C6
:100C80000D46072B17D8DFE813F0080033014900A1
:100C9000260019005B0083000A0146680C68304694
:100CA00007F0CEFF236802465B683146204698472E
:100CB0006B681844686007B0BDE8F08F0868AA4AFE
:100CC00003681B68934240F059832D2005F008FF0C
:100CD0006B681844686006AC0022736804F8032D42
:100CE000A248A0FB0312D20802EB8201A3EB41034E
:100CF000303304F8013D1346002AF2D12E68204615
:100D000007F09EFF3368024621465B6830469847ED
:100D10006B681844686007B0BDE8F08F08687468B5
:100D2000934A036893495B68002C16BF114605225D
:100D3000042298476B681844686007B0BDE8F08FDC
:100D40000868894F036874681B68BB4240F01383CE
:100D50005B2005F0C5FE6B686468184468602CB9B8
:100D600059E205F0BDFE6B6803446B60201D294607
:100D7000FFF780FF24682C20002C00F04C822A68AA
:100D800013681B68BB42ECD010462C219847EAE759
:100D90000868754F036874681B68BB4240F0E882BE
:100DA0007B2005F09DFE6B68D4F8048018446860D1
:100DB000B8F1000F00F02582D8F804602868002EF2
:100DC0005DD003681B68BB4240F00A82222005F018
:100DD00087FE6B68013E03446B6016F8010FD8B1C3
:100DE000222800F0BE81644B03E05A78824200F072
:100DF000B9819C780233002CF7D12B681A681268ED
:100E0000BA4240F0CC8105F06BFE6B681844686014
:100E100016F8010F0028E3D1286803681B68BB425D
:100E200040F0DB81222005F05BFE6B6803442868FC
:100E30006B6003681B68BB422ED13A2005F050FE60
:100E40006B6803446B6008F108002946FFF712FF46
:100E5000D8F80080B8F1000F00F0D381286803684B
:100E60001B68BB4240F0BF812C2005F039FE6B6847
:100E7000D8F8046003446B602868002EA1D1036891
:100E80003E495B68042298476B681844686028688C
:100E900003681B68BB42D0D03A219847D0E7466828
:100EA0003146304607F0FEF9002800F05782002155
:100EB000304607F001FA002840F0CB82002130468E
:100EC00007F0F0F900285DD13146304606F04EFFBC
:100ED0000146304607F0E6F9002853D02868284933
:100EE000036808225B6898476B6818446860E2E60C
:100EF00046680868002E00F0528203681A4F1B688B
:100F0000BB4240F04782222005F0EAFD6B6818449E
:100F1000013E686016F8010FD8B1222800F0438125
:100F2000154B03E05A78824200F03E819C780233F0
:100F3000002CF7D12B681A681268BA4240F05D8124
:100F400005F0CEFD6B681844686016F8010F0028A4
:100F5000E3D1286803681B68BB4240F0128222205C
:100F600005F0BEFDD4E600BFB5080000CDCCCCCC6A
:100F70008090000088900000A090000098900000F1
:100F8000B0900000A949304607F0AAF9002840F0C7
:100F9000718104460021304607F0ACF9002863D087
:100FA000A349304607F092F900285DD00021304671
:100FB00007F082F9002840F064820021304607F0F3
:100FC0007BF9002840F096820021304607F074F942
:100FD000002840F086829749304607F06DF930B11D
:100FE0003046954906F0CAFF203C064624B2934994
:100FF000304607F061F930B13046914906F0BEFF46
:10100000103C064624B28F49304607F055F930B1FE
:1010100030468D4906F0B2FF083C064624B28B49A3
:10102000304607F049F930B13046894906F0A6FF4D
:10103000043C064624B28749304607F03DF930B1FA
:101040003046854906F09AFF023C064624B24FF02E
:101050007E51304607F030F930B130467F4906F016
:101060008DFF013C064624B2304607F04DF980461C
:1010700006F02CFF0146304606F076FE784906F071
:101080007DFF064607F040F9074606F01FFF0146C0
:10109000304606F069FE014606F068FE07F034F9B6
:1010A000704B07449F420DD908F10108002C00F055
:1010B000DF81B8F1090F40F22682013424B2002703
:1010C0004FF0010806AE002306F8033D6649B1461D
:1010D000A1FB0823DB0803EB8302A8EB42023032BA
:1010E00009F8012D9846DFF880A1002BF0D1D5F842
:1010F00000B0484607F0A4FDDBF8003002465B680C
:101100004946584698476B6818446860002F40F07D
:101110004F81002CC0F2BF813FF4CDAD2868534A07
:1011200003681B68934240F0D581652005F0D8FC28
:101130006B684F491844002368608DF8153081FBB7
:101140000432E317C3EBA20202EB8203A4EB4303D6
:10115000303314B206F8013D002CF0D130462C6833
:101160009EE50446286803681B68BB4210D15C20DA
:1011700005F0B6FCD5F800E06B68DEF800201268D8
:101180000344BA426B6006D1204605F0A9FC3CE658
:101190005C219847EEE721467046904735E60146C8
:1011A0001846904731E60446286803681B68BB422E
:1011B00020D15C2005F094FCD5F800E06B68DEF8E7
:1011C000002012680344BA426B600FD1204605F03C
:1011D00087FC6B6803446B609CE62221984724E6F9
:1011E00022219847F5E52C21984740E62146704694
:1011F0009047EEE75C219847DEE7014618469047A6
:10120000A0E6286803681B68BB4240F0C0807D20D0
:1012100005F066FC7CE5286803681B68BB4240F06B
:10122000B3805D2005F05CFC72E500BF8096184B32
:10123000ACC52737B3CE010CAEC59D747D1D90267D
:10124000CA1B0E5A95BFD63320BCBE4C6F12833AD0
:1012500000401C46CDCCCC3D0000C84200002041DF
:10126000002474493F420F00CDCCCCCCB50800001F
:1012700067666666A649304607F03CF8002800F02D
:101280008C8030464FF0FF4106F02CFF4FF4807405
:1012900006469F49304607F02DF838B130464FF0EA
:1012A000FF4106F01FFF8034064624B298493046BD
:1012B00007F020F838B130464FF0FF4106F012FF3A
:1012C0004034064624B29349304607F009F830B15D
:1012D0003046904906F006FF2034064624B28E4977
:1012E000304606F0FDFF30B130468B4906F0FAFE7D
:1012F0001034064624B28949304606F0F1FF30B179
:101300003046864906F0EEFE0834064624B284498B
:10131000304606F0E5FF30B13046814906F0E2FE86
:101320000434064624B27F49304606F0D9FF30B176
:1013300030467C4906F0D6FE0234064624B27A498D
:10134000304606F0CDFF00283FF424AE3046764903
:1013500006F0C8FE0134064624B21BE6286873492D
:10136000036803225B6898476B6818446860A2E4CE
:101370007B21984717E55B219847ECE42D2198479E
:10138000A6E422219847C3E45D219847C0E47D216B
:101390009847BDE422219847B8E5044679E70368F9
:1013A00063495B68042298476B681844686082E46C
:1013B000AAFB0723DB0803EB8303B7EB430F5CD1E6
:1013C000062002E0002900F08880AAFB0737FF080A
:1013D000AAFB0712C3B2D208591E02EB8202C9B29D
:1013E000B7EB420F48B2EDD0023B00225BB28DF862
:1013F000072000283ED0DBB206AAC3EB020EDFF8BE
:1014000040C1AEF1120E0DF10700ACFB0712D2087D
:1014100002EB8201A7EB4101303100F8011D70455C
:101420001746F2D1DB430DF10702134403F1FF38F5
:101430002E222F6803F8012C404607F001FC3B6880
:1014400002465B684146384698476B6818446860B6
:101450005FE62868374A03681B68934255D12D2000
:1014600005F03EFB6B68184406F10046686025E510
:10147000274627E60DF10703D8E78DF807800523F7
:10148000B9E730464FF0FF4106F078FDA4F58074CF
:10149000064624B291E528682749036802225B6862
:1014A00098476B68254918440022644268608DF8AB
:1014B000152081FB0432E317C3EBA20202EB820387
:1014C000A4EB430404F1300306F8013D1446002A5E
:1014D000EFD143E6652198472AE606AB03F8111DD4
:1014E000A4E730464FF0FF4106F048FD403C064679
:1014F00024B270E530464FF0FF4106F03FFD803CDE
:10150000064624B260E50027DCE52D219847A9E7CF
:10151000FFFF7F7FAEC59D74CA1B0E5A20BCBE4C18
:1015200000401C460000C84200002041909000008E
:1015300098900000B5080000949000006766666609
:10154000CDCCCCCC2DE9F04186B00546DFF8BC828D
:10155000CDF8088000264FF480774FF4867004960B
:10156000059706F01FFF002800F0CE8108230DEB41
:1015700003044FF400728360964B066180E8C0005C
:1015800004900592C46000F10C0620461021984793
:10159000044610B100230360037273680BB9D1E1F4
:1015A00013461A68002AFBD11C602CB18A4B636079
:1015B0008A4BE360022323727768002F00F0EB81EF
:1015C0003C4603E02468002C00F0438161688448B5
:1015D00007F0CAF90028F5D10222824B2272E3609B
:1015E0007768002F00F0D2813C4603E02468002C8D
:1015F00000F04E8161687C4807F0B6F90028F5D10B
:1016000002227A4B2272E3607768002F00F0BA81E1
:101610003C4603E02468002C00F056816168744861
:1016200007F0A2F90028F5D10222724B2272E36082
:101630007768002F00F0A1813C4603E02468002C6D
:1016400000F0E68061686C4807F08EF90028F5D15B
:1016500041F2D043694AEB5AE36000238DE80C0065
:10166000042121727B2005F03BFA019B7768644ED0
:1016700018440190002F00F094807D680098002DA0
:1016800054D003681B68B34240F08580222005F0E7
:1016900027FA019B013D0344019315F8010FC0B1E6
:1016A000222853D0574B02E05A7882424FD09C7880
:1016B0000233002CF8D1009B1A681268B2425CD148
:1016C00005F00EFA019B1844019015F8010F00284F
:1016D000E6D1009803681B68B3425FD1222005F071
:1016E000FFF9019B03440098019303681B68B34210
:1016F00029D13A2005F0F4F9019B6946034407F12A
:1017000008000193FFF7B6FA3F68002F49D0009810
:1017100003681B68B3423BD12C2005F0E1F9019B23
:101720007D68034401930098002DAAD103683649CF
:101730005B6804229847019B184401900098036855
:101740001B68B342D5D03A219847D5E704460098A4
:1017500003681B68B34218D15C2005F0C1F9DDF8BD
:1017600000E0019BDEF8002012680344B2420193BE
:1017700007D1204605F0B4F9A4E701461846904782
:10178000A0E72146704690479CE75C219847E6E732
:101790002C219847C3E7222198477AE722219847CE
:1017A0009FE7009803681B68B34240F0AA807D2041
:1017B00005F096F9114805F08BFB0498CDF80880E8
:1017C00028B1046806F0F6FD2046002CF9D106B0D9
:1017D000BDE8F08161080000BC900000C0900000EE
:1017E000CC900000D0900000E4900000EC9000004D
:1017F000F490000000910000089100003C87FF1F5A
:10180000B5080000A0900000989000007C900000B7
:101810003068A0B1036810211B689847044600286F
:1018200000F0A98000237768036003723FB9274660
:101830003C4677604CB15A4B636009E71F463B68F2
:10184000002BFBD13C60002CF5D1564B8DE81800E5
:1018500008E73068002800F08580036810211B68C5
:1018600098470746002800F08480002273680260D1
:10187000027243B97760002F3FF4B2AE4A4B7B60EF
:101880003C46A9E613461A68002AFBD11F60F2E71E
:101890003068002864D0036810211B68984704460C
:1018A000002864D000227368026002723BB9746041
:1018B000002C3FF4A9AE3D4B6360A1E613461A68C5
:1018C000002AFBD11C60F3E73068A8B1036810213F
:1018D0001B6898470446002847D0002377680360B8
:1018E00003724FB9274677603C46002C3FF4A0AE08
:1018F0002F4B636098E61F463B68002BFBD13C6092
:10190000F3E77D21984755E72A4F3B6813F0010420
:101910001AD0294E746814B909E024683CB1616892
:10192000264807F021F80028F7D1234E40E6346816
:101930001CB12368204E1B6827E61F4E7368002BDE
:101940007FF42FAE746030E6384603F04FFD1A4E38
:101950000028DFD038463460746003F04DFDD9E7CD
:101960003B46ACE73B4627468DE77768B9E77368A7
:101970009CE773687DE7776858E7306800283FF494
:1019800057AF47E730680028ADD09FE730680028A0
:1019900081D104468BE7306800283FF46BAF5CE7E9
:1019A000089100003C87FF1FCC900000E4900000ED
:1019B000F490000040A5FF1F44A5FF1FBC9000004D
:1019C0002DE9F04786B00646DFF80883CDF8088099
:1019D00000254FF480774FF486700495059706F044
:1019E000E1FC002800F07B8508230DEB03044FF495
:1019F00000728360AA4B049080E8A0000561059204
:101A0000C46000F10C07204610219847044610B12D
:101A10000023036003727B6813B900F098BD13467E
:101A20001A68002AFBD11C602CB19E4B63609E4B50
:101A3000E360022323723C68002C40F07784DFF8D7
:101A40009892D9F8003013F0010400F08685974B86
:101A50001D689946002D40F09284DFF880A2944CD6
:101A6000DAF80030DB0740F1A585D4F804A0BAF11C
:101A7000000F00F0B684554603E02D68002D00F0FD
:101A8000048569688B4806F06FFF0028F5D10422B1
:101A900001232A72EB60D4F804A0BAF1000F00F021
:101AA000A686554603E02D68002D00F0A7846968DE
:101AB000814806F059FF0028F5D1D6E9000106F06B
:101AC000FFF80823E8602B72D4F804A0BAF1000FE5
:101AD00000F08886554603E02D68002D00F0B384A1
:101AE0006968764806F040FF0028F5D1D6E906017E
:101AF00006F0E6F80823E8602B72D4F804A0BAF1E7
:101B0000000F00F05F86554603E02D68002D00F0C1
:101B1000708369686A4806F027FF0028F5D1D6E986
:101B2000080106F0CDF80823E8602B72D4F804A071
:101B3000BAF1000F00F04186554603E02D68002DF4
:101B400000F08C8369685F4806F00EFF0028F5D12D
:101B5000D6E90A0106F0B4F80823E8602B72D4F83D
:101B600004A0BAF1000F00F02386554603E02D686B
:101B7000002D00F094836968534806F0F5FE0028B4
:101B8000F5D1738EEB6004232B72D4F804A0BAF164
:101B9000000F00F00886554603E02D68002D00F088
:101BA000A0836968494806F0DFFE0028F5D1338E2E
:101BB000EB6004232B72D4F804A0BAF1000F00F0FC
:101BC000ED85554603E02D68002D00F0D882696848
:101BD0003F4806F0C9FE0028F5D1B38EEB60042320
:101BE0002B72D9F80050002D40F09282DFF8EC9073
:101BF0002F4CD9F8003013F0010500F02C85D4F8F3
:101C00000490B9F1000F00F0B5824D4603E02D6855
:101C1000002D00F0D0826968264806F0A5FE002855
:101C2000F5D1042202232A72EB60D4F80490B9F1B2
:101C3000000F00F07F854D4603E02D68002D00F079
:101C4000EA8169681C4806F08FFE0028F5D1D6E9C4
:101C5000240106F035F80823E8602B72D4F80490CC
:101C6000B9F1000F00F096854D4603E02D68002D78
:101C700000F0F4816968114806F076FE0028F5D17D
:101C8000D6E92A0106F01CF80823E8602B72D4F884
:101C90000490B9F1000F00F079854D4624E000BFB3
:101CA00061080000BC9000001091000050A5FF1FCB
:101CB00044A5FF1F1C910000209100002C91000002
:101CC0003091000034910000389100003C910000F8
:101CD000409100007C9000004CA5FF1F40A5FF1F15
:101CE0002D68002D00F0D8816968A34806F03CFEFD
:101CF0000028F5D1D6E92C0105F0E2FF0823E860C1
:101D00002B72D4F80490B9F1000F00F03B854D46DA
:101D100003E02D68002D00F0DD816968974806F02A
:101D200023FE0028F5D1D6E92E0105F0C9FF0823CE
:101D3000E8602B72D4F80490B9F1000F00F00A8526
:101D40004D4603E02D68002D00F0288169688C481D
:101D500006F00AFE0028F5D1B6F8C230EB60042385
:101D60002B72D4F80490B9F1000F00F007854D46AE
:101D700003E02D68002D00F030816968814806F08D
:101D8000F3FD0028F5D1B6F8C030EB6004232B72C8
:101D9000D4F80490B9F1000F00F0E9844D4603E057
:101DA0002D68002D00F0C7806968774806F0DCFDDB
:101DB0000028F5D1B6F8C430744AEB6000238DE8F2
:101DC0000C00042129727B2004F08AFE019B7F68AD
:101DD0006F4E18440190002F00F094807D680098A9
:101DE000002D54D003681B68B34240F08580222048
:101DF00004F076FE019B013D0344019315F8010FA9
:101E0000C0B1222853D0634B02E05A7882424FD0AF
:101E10009C780233002CF8D1009B1A681268B242F9
:101E20005CD104F05DFE019B1844019015F8010F90
:101E30000028E6D1009803681B68B3425FD12220D6
:101E400004F04EFE019B03440098019303681B6855
:101E5000B34229D13A2004F043FE019B6946034472
:101E600007F108000193FEF705FF3F68002F49D0F6
:101E7000009803681B68B3423BD12C2004F030FE6D
:101E8000019B7D68034401930098002DAAD103684B
:101E900041495B6804229847019B184401900098CF
:101EA00003681B68B342D5D03A219847D5E704466A
:101EB000009803681B68B34218D15C2004F010FE40
:101EC000DDF800E0019BDEF8002012680344B24216
:101ED000019307D1204604F003FEA4E7014618460B
:101EE0009047A0E72146704690479CE75C219847C1
:101EF000E6E72C219847C3E7222198477AE7222179
:101F000098479FE7009803681B68B34240F0178327
:101F10007D2004F0E5FD1D4804F0DAFF0498CDF8BB
:101F2000088028B1046806F045FA2046002CF9D153
:101F300006B0BDE8F0872068002800F070830368D1
:101F400010211B6898470546002800F00D840022E8
:101F50006368026002722BB965604DB10A4B6B6019
:101F600028E713461A68002AFBD11D60002DF5D121
:101F7000064B8DE8280026E73091000034910000E0
:101F8000389100003C910000409100003C87FF1F09
:101F9000B5080000A090000098900000206800287C
:101FA00000F03F83036810211B6898478146002892
:101FB00000F0D8830022636802600272002B00F0F8
:101FC000CD831A684D46002A40F02D831D60002DF8
:101FD0003FF4C7AE994B6B60BEE6206878B10368EA
:101FE00010211B6898470546002800F0B1830022A5
:101FF000636802600272002B00F0A5839946D9F84D
:102000000030002BFAD1C9F80050002D3FF4C0AECB
:102010008B4B6B60B7E62068002800F00A830368EA
:1020200010211B6898478146002800F08A8300220F
:10203000636802600272002B00F080831A684D46CC
:10204000002A40F0F8821D60A946B9F1000F3FF464
:1020500005AE7C4BC9F804304D46F8E5206878B1F0
:10206000036810211B6898470546002800F060832C
:102070000022636802600272002B00F054839946CC
:10208000D9F80030002BFAD1C9F80050002D3FF4E8
:10209000FEAD6D4B6B60F3E5206878B103681021ED
:1020A0001B6898470546002800F03B8300226368C0
:1020B00002600272002B00F02F839946D9F800309D
:1020C000002BFAD1C9F80050002D3FF41AAE5F4B37
:1020D0006B600FE6206878B1036810211B68984791
:1020E0000546002800F01683002263680260027231
:1020F000002B00F00A839946D9F80030002BFAD162
:10210000C9F80050002D3FF415AE514B6B600AE644
:102110002B6808211B6828469847002800F0928207
:102120000023056043600446D9F8000038B1036815
:102130000C211B68984710B1002303600371D9F884
:1021400004200AB9A0E21A461368002BFBD11060E4
:1021500000283FF454AD2368002B13BF2246002211
:102160000023072382600371D4F80490B9F1000FB3
:102170007FF44BAD2068002800F0BD821DE0206890
:10218000002800F08482036810211B68984782466B
:10219000002800F0B8820022636802600272002BFF
:1021A00040F0AF82C4F804A05546002D3FF419ADAD
:1021B000284B6B6011E5206878B1036810211B681B
:1021C00098470546002800F09A8200226368026062
:1021D0000272002B00F08E829946D9F80030002B55
:1021E000FAD1C9F80050002D3FF41FAD1A4B6B60B7
:1021F00017E52068D0B1036810211B689847824614
:10220000002800F075820022636802600272002BD1
:1022100040F06B82C4F804A0BAF1000F3FF486AC22
:102220000A4BCAF80430554679E49A46DAF8003089
:10223000002BFAD1CAF80050AA46EDE73891000009
:102240003C910000209100002C9100003091000092
:1022500034910000409100001C9100002068B8B14A
:10226000036810211B6898470546002800F03B8250
:102270000022636802600272AA4643B9C4F804A04F
:102280005546002D3FF46BAC9F4B6B6060E49A4663
:10229000DAF80030002BFAD1CAF80050F1E72068D4
:1022A000C0B1036810211B6898478246002800F0DF
:1022B00018820022636802600272002B40F00E82D6
:1022C000C4F804A05546002D3FF45FAC8F4B6B6003
:1022D00057E49A46DAF80030002BFAD1CAF80050D9
:1022E000F1E72068D0B1036810211B689847824647
:1022F000002800F0F1810022636802600272002B66
:1023000040F0E781C4F804A0BAF1000F3FF453ACE9
:102310007F4BCAF80430554649E49A46DAF8003053
:10232000002BFAD1CAF80050AA46EDE7236808212D
:102330001B6820469847002800F02B81002304608A
:10234000436081467D68002D00F02E812C4603E01D
:102350002468002C00F0B28061686E4806F004FB2F
:102360000028F5D1D9F80050002D15BF0622002213
:102370004B4600232272E360002D3FF46EAB2B68C6
:1023800008211B6828469847002800F0F9800023A0
:10239000056043600446D9F8000038B103680C2199
:1023A0001B68984710B1002303600371D9F804201B
:1023B0000AB9E2E01A461368002BFBD1106000282E
:1023C0003FF453AB2368002B13BF224600220023A7
:1023D000072382600371D4F804A0BAF1000F7FF4E0
:1023E0004AAB2068002852D1C4F804A05546002DFD
:1023F0003FF451AB484B6B60FFF749BB20680028A6
:1024000000F0A880036810211B68984782460028C6
:1024100000F05D81002263680260027263B9C4F853
:1024200004A05546BAF1000F3FF44EAB3B4BCAF83F
:102430000430FFF742BB13461A68002AFBD1C3F8E9
:1024400000A05546EEE72068C0B1036810211B6864
:1024500098470546002800F0388100226368026032
:102460000272AA464BB9C4F804A05546002D3FF4A9
:1024700044AB2B4B6B60FFF739BB9A46DAF8003060
:10248000002BFAD1CAF80050F0E7206878B1036851
:1024900010211B6898470546002800F0148100228F
:1024A000636802600272AA46002B9DD09A46DAF851
:1024B0000030002BFAD1CAF8005098E7386800289D
:1024C00000F0FA80036810211B6898470546002831
:1024D00000F0E58000227B6802600272E0E0114FAC
:1024E0003B6813F0010400F08D800F4D6C6814B947
:1024F0001EE02468E4B161680C4806F035FA002853
:10250000F7D1094FFFF793BA3491000038910000DA
:102510003C910000109100001C91000020910000EF
:102520002C91000040A5FF1F44A5FF1FBC90000098
:102530002C683CB12368A64F1B68FFF764BA7D2165
:102540009847E8E4A24F7B68002B7FF469AA7C607F
:10255000FFF76ABA5346AA466EE7484602F046FFBE
:1025600000283FF474AA9B4D48462C606C60A94635
:1025700002F042FF2D68FFF76DBAC9F804001EE7AC
:10258000DFF85CA2DAF8003013F001051FD0904CA0
:1025900001E7914D2B6813F0010424D07D68DFF82A
:1025A0003492002D7FF4D2AE386800288AD17D6045
:1025B0002C467DE0504602F019FF00283FF455AA52
:1025C00050462560656002F017FFFFF74EBA50468F
:1025D00002F00CFF0028DAD07D4C50462560656083
:1025E00002F00AFFD7E6284602F000FF0028D5D007
:1025F000DFF8E0912846C9F80040C9F8044002F02D
:10260000FBFE9FE6384602F0F1FE714D00283FF4D4
:102610006DAF38462C606C6002F0EEFE66E74B460C
:10262000A0E44B4600E013461A68002AFBD11D6067
:10263000CDE44B4600E013461A68002AFBD11D602A
:10264000A94602E5DFF898A1DAF8003013F0010599
:102650000ED05F4C68E5484602F0C8FE00283FF403
:10266000CEAA48462560656002F0C6FEFFF7C7BAED
:10267000504602F0BBFE0028EBD0554C504625607A
:10268000656002F0B9FE4FE5C9F8040060E5534605
:1026900000E013461A68002AFBD11D6085E57B68BF
:1026A0000BB984E713461A68002AFBD11D602C463B
:1026B0002DB14A4B6B6055E62B462546F3E7D9F81A
:1026C0000050FFF7C7B96368EDE66368C9E6636861
:1026D000A4E655469A4621E6636810E655469A46B2
:1026E000F8E56368E9E56368C6E555469A469DE501
:1026F00063688CE5A946C4F804904D4673E56368A9
:1027000067E55546C6E7636849E5A946C4F80490FD
:102710004D46F7E46368EBE4A946C4F804904D46DF
:10272000D2E46368C6E4A946C4F804904D46ADE41B
:102730006368A1E4206800287FF471ACC4F80490B9
:1027400083E4636877E4A946C4F804904D465CE4EA
:10275000636850E4206800287FF424ACC4F8049037
:102760004D4634E4636829E46368FFF7F4BB2068EE
:1027700000287FF4E4AB0546FFF7EEBB2068002895
:10278000E2D02CE420680028C0D0A5E4206800280E
:10279000C3D083E420680028C6D061E42068002804
:1027A0007FF4F1ACFEE4206800287FF49CADA9E53D
:1027B000206800287FF475AD82E5206800287FF44A
:1027C0004FAD5BE5206800287FF415AD22E500BF22
:1027D00044A5FF1F50A5FF1F4CA5FF1F109100002F
:1027E00040A5FF1F206800287FF42FAE3BE620683D
:1027F00000287FF407AE12E603681A78093A262A01
:1028000027D8DFE802F01A1A26261A2626262626B8
:10281000262626262626262626262626261A262664
:1028200026262626262626262626262614005A78FA
:102830002A2A0FD02F2A07D07047591C01605A78D6
:102840000B46DBE70A2AF8D0013303601A78002A26
:10285000F8D17047591C4A1C02604B78002BF8D005
:102860002A2B01D01146F6E753782F2BFAD1CB1C37
:102870000360CA78C2E700BF2DE9F04F056885B054
:1028800081465DB32A68082112682846904728B31C
:10289000002205604260044609F104063046FFF755
:1028A000ABFFD9F8042011787B291FD0B74E3368CD
:1028B00013F0010503D0B64805B0BDE8F08F3046EF
:1028C00002F094FD0028F6D0B14C304625606560DA
:1028D00002F092FD204605B0BDE8F08FAB4E3268A5
:1028E00012F0010500F0C980A94CD5E70132C9F802
:1028F00004203046FFF780FFD9F8042011787D29A5
:1029000000F0EA8047F6ED7801943046D9F8085097
:10291000FFF772FFD9F804201078272879D02228F1
:1029200077D020F02003413BA0F12B01192BC9B235
:1029300062D90E2928FA01F35CD9D9F808300024AD
:102940005A1CC9F808201C70002DAFD03046FFF784
:1029500053FFD9F804301A783A2AA7D199F80C20F5
:102960000133C9F80430002AA0D0013A89F80C20BC
:102970003046FFF741FFD9F804301F785B2F00F095
:10298000E4807B2F40F0AF804846FFF775FF036877
:102990008246002B00F061814FF0070B99F80C3054
:1029A000013389F80C30019B5F683C461FB9BCE1DC
:1029B0002468002C6ED06168284605F0D5FF0028F9
:1029C000F6D184F808B0C4F80CA03046FFF714FF25
:1029D000D9F8042013787D2B7DD03046FFF70CFF0B
:1029E000D9F804301A782C2A7FF460AF0133C9F883
:1029F00004308AE7DC07A0D5D9F808300132591C29
:102A0000C9F80420C9F808101870D9F80420107803
:102A100087E7571CC9F804705378002B8DD0023219
:102A20009842C9F8042012D187E7D9F80820511C30
:102A3000C9F808101370D9F804703B78002B3FF4E4
:102A40007CAF7A1C9842C9F804203FF476AF5C2B27
:102A5000EBD17B784F49622B02D10CE093420AD034
:102A600011F8022F002AF9D1002B3FF466AF02378C
:102A7000C9F80470D9E74B78F6E7304602F0B6FCA7
:102A800000283FF431AF424C30462560656002F0CB
:102A9000B3FC01E7019B1868002800F0C9800368B7
:102AA00010211B6898470746002800F07282019A9F
:102AB0000023516803600372002900F03B813C460B
:102AC00000E019460B68002BFBD10C60002C3FF492
:102AD000EDAE656075E7019C01322046C9F804201F
:102AE00005B0BDE8F08F272F1CBF223FB7FA87F74C
:102AF000304614BF7F090127D9F808A0FFF77CFEF4
:102B0000D9F804201078272852D0222850D020F05D
:102B10002003413BA0F12B01192BC9B279D90E2911
:102B200028FA01F373D9D9F808300022591CC9F8E2
:102B300008101A70BAF1000F00F08F8097420CBF96
:102B40004FF0010B4FF0020B28E7D9F800703FB3AC
:102B50003B6808211B683846984708B30760446003
:102B600007463046FFF748FED9F804301A785B2A4A
:102B700079D0094B1B6813F001075BD0074F3B6806
:102B8000002B6AD0BA464FF0060B07E740A5FF1F9F
:102B900044A5FF1FA49000004CA5FF1F50A5FF1FD8
:102BA000BA4B1B6813F0010700F0C880B84FD8E794
:102BB000541CC9F804405378002BB4D0023283422D
:102BC000C9F8042010D1AEE7D9F80820511CC9F883
:102BD00008101370D9F804402378002BA3D0621C8E
:102BE0009842C9F804209ED05C2BEDD16378A949A6
:102BF000622B02D11AE0934218D011F8022F002A5A
:102C0000F9D1002B8FD00234C9F80440DCE7DB0790
:102C100089D5D9F808300132591CC9F80420C9F8FF
:102C200008101870D9F80420107870E74B78E8E79E
:102C3000394647E7954802F0D9FB00289ED0944BCF
:102C400092481F605F6002F0D7FB914F97E7013316
:102C5000C9F804303B68002B94D199F80C2001325C
:102C600089F80C2022E60133C9F804303046FFF71A
:102C7000C3FDD9F804301A785D2AE8D099F80C30F1
:102C8000002B3FF476AF013B89F80C303046FFF75C
:102C9000B3FDD9F8043093F800A0BAF15B0F60D00F
:102CA000BAF17B0F40F085804846FFF7E5FD0368E9
:102CB0000446002B00F077814FF0070A99F80C309A
:102CC000013389F80C30386838B103680C211B686F
:102CD000984710B10023036003717A680AB93AE09B
:102CE0001A461368002BFBD1106000283FF441AF57
:102CF00080F804A084603046FFF77EFDD9F80430E8
:102D00001A785D2A29D03046FFF776FDD9F80420DD
:102D100013782C2B7FF42DAF99F80C300132C9F8C1
:102D20000420002B3FF425AFADE7019B1868002875
:102D30007FF4B5AE019B3C465F60C7E6534802F0A6
:102D400055FB00283FF432AF514B50481F605F6085
:102D500002F052FB2AE77860C7E70133C9F8043074
:102D60000DE7D9F80040002C00F0FC802368082112
:102D70001B6820469847002800F0F4800023046078
:102D8000436004463046FFF737FDD9F804301A781F
:102D90005B2A00F09D803D4B1B6813F0010400F09E
:102DA00089803B4C2368002B00F0FD804FF0060A21
:102DB00084E7BAF1270F1CBFAAF1220ABAFA8AFAED
:102DC000304614BF4FEA5A1A4FF0010AD9F80840AA
:102DD000FFF712FDD9F8042092F800E0BEF1270FAA
:102DE00030D0BEF1220F2DD02EF020014139AEF1AE
:102DF0002B031929DBB216D90E2B28FA03F110D9AF
:102E0000D9F808300022591CC9F808101A70002C93
:102E100000F0C98092450CBF4FF0010A4FF0020A42
:102E20004CE7C907ECD5D9F808300132591CC9F86C
:102E30000420C9F8081083F800E0D9F8042092F8BB
:102E400000E0D1E7501CC9F804005378002BD7D01C
:102E500002329E45C9F8042010D1D1E7D9F80820E4
:102E6000511CC9F808101370D9F804000378002B1E
:102E7000C6D0421C9E45C9F80420C1D05C2BEDD1C0
:102E800043780449622B09D112E000BF4CA5FF1F13
:102E900050A5FF1FA4900000934209D011F8022F03
:102EA000002AF9D1002BABD00230C9F80400D5E7D5
:102EB0004B78F7E7414802F099FA00283FF471AFE8
:102EC0003F4B3E481C605C6002F096FA3C4C69E760
:102ED0000133C9F804303046FFF78EFCD9F80430CE
:102EE0001A785D2A58D00DF1080B4FF0000A5946A8
:102EF00048468DF808A000F065F800283FF44BAF75
:102F00002068002837D003680C211B6898470346C7
:102F100018B1C0F800A080F804A062680AB928E0DF
:102F20000A4611680029FBD11360002B3FF433AF30
:102F30009BE80300043383E803003046FFF75CFCA2
:102F4000D9F804301A785D2A33D03046FFF754FCA4
:102F5000D9F804301A782C2A7FF41DAF0133C9F850
:102F60000430C4E7154B1B6813F0010405D0144C62
:102F700008E76360D9E70346CFE7104802F036FA66
:102F80000028F4D00E4B0D481C605C6002F034FA4F
:102F9000EDE7019B59688FE50133C9F804302368D8
:102FA000002B7FF403AF99F80C30013389F80C3013
:102FB000DFE50133C9F80430F4E600BF4CA5FF1F7C
:102FC00050A5FF1F2DE9F043057B83B01DB92846AE
:102FD00003B0BDE8F0830446013D071D0573384684
:102FE0000E46FFF709FC63681D785B2D4BD07B2DE7
:102FF00033D0272D1CBF223DB5FA85F5384614BFC6
:103000006D090125A768FFF7F7FB6068017827299C
:103010005ED022295CD047F6ED7E21F02003413BB3
:10302000A1F12B02192BD2B224D90E2A2EFA02F3C7
:103030001ED9A3680022591CA1601A70002F00F04D
:103040008780002D75D1012577603570237B284658
:103050000133237303B0BDE8F0832046FFF70CFC77
:103060000368002B74D00723706033700125EDE7EF
:10307000DB07DED5A36801305A1C6060A2601970BE
:1030800060680178C9E72568002D63D02B680821A6
:103090001B682846984700285CD0002305604360E1
:1030A00005463846FFF7A8FB63681A785B2A5AD0B2
:1030B000DFF874815A4DD8F8003013F001073CD086
:1030C0002B68002B44D00623756033700125BDE7C3
:1030D00000F1010EC4F804E04378002BA9D00230BF
:1030E0008B4260600FD1A4E7A268501CA0601370EF
:1030F000D4F804E09EF80030002B9AD00EF10102C3
:103100009942626095D05C2BEED19EF80130454823
:10311000622B02D10BE0934209D010F8022F002A53
:10312000F9D1002B85D00EF102026260DCE7437812
:10313000F7E702237760337088E7404602F056F9DC
:103140000028BDD040462F606F6002F055F9B7E708
:1031500000257BE7DFF8D080D8F8003013F00105B8
:103160004BD02F4D9DE7013363603846FFF744FB9A
:1031700063681A785D2A3BD0E8464FF00009414663
:1031800020468DF80090FFF71DFF002890D028689A
:1031900088B303680C211B689847864618B1C0F8AD
:1031A000009080F804906A680AB936E01A461368FD
:1031B000002BFBD1C2F800E0BEF1000F3FF478AF66
:1031C00098E803000EF1040E8EE803003846FFF77E
:1031D00013FB63681A785D2A0AD03846FFF70CFBA8
:1031E00063681A782C2A7FF463AF01336360C6E703
:1031F0000133636064E78646D5E7404602F0F6F89F
:103200000028AED0DFF818904046C9F80050C9F841
:10321000045002F0F1F84D4643E7C5F804E0CBE76F
:1032200050A5FF1FA49000004CA5FF1FFFFFFFFF4C
:10323000002800F01F812DE9F04F03782B2B83B07D
:1032400000F0AC802D2B00F09A800022742B0192AC
:1032500000F09D8003F0DF024E2A00F00481492A2D
:1032600000F0A280A3F13002092A00F27E810FF261
:103270002839D9E9008900220024002510E024190A
:103280006D41AF00A60047EA9477A4197D41E41888
:1032900045EBE37510F8013FA3F1300109290DD882
:1032A000A04579EB0501A3F13003E8DA10F8013FFE
:1032B000A3F130010132092912B2F1D92E2B7FD0AE
:1032C000017801F0DF01452900F0A58000239E1858
:1032D0002046294604F0E4F9002EC0F2E280F70708
:1032E0004CBFBB4BBB4B002204F008FAB5074CBFE8
:1032F000B94BB84B002204F001FA740740F1BC80CE
:103300009DA3D3E9002304F0F9F9320740F1BA8014
:103310009BA3D3E9002304F0F1F9F30640F1AF8059
:1033200099A3D3E9002304F0E9F9B70640F1AD8091
:1033300097A3D3E9002304F0E1F975064CBFA74B2E
:10334000A44B002204F0DAF934064FF000024CBF1F
:10335000A24BA04B04F0D2F9F3054FF0000200F1AC
:1033600097809C4B04F0CAF90A460199034611B3B1
:1033700002F100421846114603B0BDE8F08F012368
:1033800001934378742B00F101007FF463AF914AFD
:1033900000231846114603B0BDE8F08F00230193C7
:1033A000EFE7BEF1000F75D18C4A8D4901980023DB
:1033B000984218BF0A461846114603B0BDE8F08F80
:1033C0004178A1F13003DEB2092E00F101003FF691
:1033D00078AF71A7D7E90067A64277EB050110DB4C
:1033E00024196D414FEA850B4FEA840A4BEA947B1E
:1033F00014EB0A0445EB0B05013AE41845EBE375C1
:1034000012B210F8011FA1F130035FFA83FEBEF182
:10341000090FE1D955E743782D2B00F083802B2B42
:1034200000F0A080461C303BD9B209293FF64EAFD0
:103430009918B1F59A7FB7DC4FF0000E05E001EB6B
:1034400047039918B1F59A7FABDC16F8011F3039A4
:10345000C8B2092803EB8307F1D9BEF1000F3FF48E
:1034600036AF5B4233E75F4A00231846114603B08C
:10347000BDE8F08F014670470022564B43E700221B
:10348000544B50E70022534B45E70022514B52E783
:10349000524B67E7019B002B6BD000234FF000429B
:1034A00089E77642F70757D53DA3D3E9002304F017
:1034B00025F9B5074DD53CA3D3E9002304F01EF947
:1034C000740743D53AA3D3E9002304F017F9320770
:1034D00039D539A3D3E9002304F010F9F3063ED51A
:1034E00037A3D3E9002304F009F9B70628D536A39A
:1034F000D3E9002304F002F975064CBF0023354BD5
:10350000002204F0FBF834064FF000024CBF002309
:10351000304B04F0F3F8F3054FF000027FF521AFD4
:1035200000231FE78378303BD9B2092900F1020656
:103530005AD8D118B1F59A7FACDC4FF0010E84E770
:103540000022244BD6E70022224BC5E70022214B64
:10355000BBE700221F4BB1E700221E4BA7E700226A
:103560001C4BC0E7861C83785DE700220024002501
:10357000A4E6019B1A461EE7000000000088C34035
:103580000000000084D797410000004079C3414308
:10359000000000C0B5B8934698999999999901008F
:1035A000000000A09999B93F00000040E17A843FF3
:1035B000000000E0E2361A3F000000E08E79453E50
:1035C000000000A0B2D29C3C000000E023F6493984
:1035D000000024400000F03F000059400000F07F50
:1035E0000000F0FF0000F87F00233AE72DE9F04FDC
:1035F0009F4EA04D336891B041F2D822079300F559
:103600009657079B8350B84600214FF480720446BA
:103610001B3708F1180808950A910B923268069238
:10362000069AD31AB3F5FA6F09D316E033680693F6
:10363000069BD8F800209B1AB3F5FA6F0DD203F061
:10364000A1F90028F2D003F061F9C0B20D2807F803
:10365000010F15D0D8F80030E0E70721864803F0C5
:10366000BBF9864803F034FC0A98089528B1046831
:1036700004F0A0FE2046002CF9D111B0BDE8F08F77
:1036800004F596531C3308A90A220CA80D930E9337
:103690000C918DF83C20FFF7EFF803680646002BED
:1036A00067D0D0F80480B8F1000F52D0474602E04E
:1036B0003F68002F4DD07968714805F055F9002812
:1036C000F6D13B7A012B4AD0022B00D1F86807468D
:1036D0006C49384605F048F970B36B49384605F037
:1036E00043F9002837D06949384605F03DF90028EC
:1036F00056D06749384605F037F9002800F05D815B
:103700006449384605F030F900283AD06249384615
:1037100005F02AF9002800F099816049384605F043
:1037200023F9002800F09F8138465D4905F01CF917
:1037300010B92046FEF744F90A98089500289CD055
:10374000046804F037FE2046002CF9D111B0BDE822
:10375000F08F0027BCE72046FDF7F4FEECE7FF689A
:103760002FB139464F4805F0FFF80028AFD0384652
:10377000ADE714214C4803F02FF9404803F0A8FBB3
:1037800072E7204604F19006FDF760F83046FDF739
:103790005DF82046FDF756F83046FDF753F8CBE7C5
:1037A000B8F1000F05D110E0D8F80080B8F1000F93
:1037B0000BD0D8F804103D4805F0D6F80028F3D116
:1037C00098F80830062B00F0498139480368DA0779
:1037D00040F11F81374B5B681BB11A79072A00F053
:1037E0003981354B1B68DF0740F12181334B5F681E
:1037F00017B910E03F6877B17968314805F0B4F83F
:103800000028F7D13B7A052B00F26786DFE803F04A
:1038100003A8A8A6A6A2002120460122FCF74EFF7D
:103820007668903416B90BE036684EB171681F485F
:1038300005F09AF80028F7D1337A062B00F00C81B6
:103840001B480368DB0740F1D6801A4B5B682BB13D
:103850001B681BB11A79072A00F00381164B1B68FD
:10386000DE0740F1B980154B5E686EBB3BE000BFE0
:1038700058A5FF1F7C900000489100003C87FF1F67
:10388000BC900000689100007491000084910000D9
:1038900098910000A4910000AC910000B491000048
:1038A000C891000098900000509100001091000015
:1038B0004CA5FF1F50A5FF1F40A5FF1F44A5FF1FDC
:1038C00090910000366876B17168A64805F04CF812
:1038D0000028F7D1337A052B00F2F985DFE803F0F1
:1038E000030F0F0D0D09002120460122FCF7E6FE13
:1038F00022E7F3685B4299B2F6E7B189F4E7F3682F
:10390000002B00F068871A78742A00F061872B2A50
:1039100000F05B872D2A40F04F8701275A78A2F1EB
:103920003000092803F1010100F2B387104600239B
:1039300003EB830200EB420211F8010FA0F1300605
:10394000303A092E93B2F3D9002F00F044875B423E
:1039500099B2C9E7FB685B4299B25DE7B9895BE759
:10396000FB68002B00F0BF851A78742A00F03A87B4
:103970002B2A00F033872D2A40F067864FF0010E86
:103980005A78A2F13000092803F1010100F24B87B7
:103990001046002303EB830200EB420211F8010FF3
:1039A000A0F13007303A092F93B2F3D9BEF1000FDE
:1039B00000F099855B4299B22EE7204604F190060B
:1039C000FCF744FF3046FCF741FF2046FCF72EFF92
:1039D0003046FCF72BFFAFE6634801F007FD0028F7
:1039E0003FF441AF614E604800233360736001F0E3
:1039F00003FD334638E701F0F9FC00283FF425AF1A
:103A00005B4E5C4800233360736001F0F5FC334685
:103A10001CE701F0EBFC00283FF4DCAE544F5548A6
:103A200000233B607B6001F0E7FC3B46D3E64E4859
:103A300001F0DCFC00283FF4D9AE4C4F4A4800238B
:103A40003B607B6001F0D8FC3B46D0E62046FDF7AA
:103A50001DF871E69B68CAE6F368F7E6D8F80C3003
:103A6000B9E69B6800E7B8F1000F05D110E0D8F87F
:103A70000080B8F1000F0BD0D8F804103E4804F0D5
:103A800073FF0028F3D198F80830062B00F08D86DC
:103A9000384B1B68D80740F18486354B5B681BB1F7
:103AA0001A79072A00F085862F4B304F1B68D907FB
:103AB00040F169867F6817B91AE03F68C7B1796835
:103AC0002E4804F051FF0028F7D13B7A052B00F275
:103AD000EA85DFE813F00D00C004C0046804680440
:103AE0006104A3F13002092A98BF002040F2CA8481
:103AF0004FF00008776817B90BE03F684FB179685D
:103B00001D4804F031FF0028F7D13B7A062B00F066
:103B10002A86184B1B68DA0740F12186144B5B6834
:103B20001BB11A79072A00F021860F4B0F4F1B6833
:103B3000DB0740F106867F6817B92AE03F6847B384
:103B400079680F4804F010FF0028F7D13B7A052B65
:103B500000F2BE85DFE813F01D00F203F203EF036D
:103B6000EF03E9039091000040A5FF1F44A5FF1F4C
:103B700050A5FF1F4CA5FF1F1091000038910000B9
:103B80003C910000A3F13002092A98BF002040F2C6
:103B9000EC834FF00009776817B90BE03F684FB12D
:103BA0007968914804F0E0FE0028F7D13B7A062BB3
:103BB00000F0DF858D4B1B68D80740F1E0858C4B0A
:103BC0005B681BB11A79072A00F0D685894B8A4FAA
:103BD0001B68D90740F153857F6817B91AE03F6821
:103BE000C7B17968854804F0BFFE0028F7D13B7A59
:103BF000052B00F25285DFE813F00D00F303F30309
:103C0000F103F103ED03A2F13001092998BF00216E
:103C100040F2FE8300234A4641462046FCF76EFDF3
:103C2000776817B90BE03F684FB179686E4804F0C8
:103C30009BFE0028F7D13B7A062B00F069846B4B82
:103C40001B68DA0740F16084694B5B681BB11A7925
:103C5000072A00F06084674B674F1B68DB0740F161
:103C600045847F6817B913E03F688FB1796864486D
:103C700004F07AFE0028F7D13B7A052B00F22F855D
:103C8000DFE813F00600A203A2039C039C03950344
:103C90000027B946D6F80480B8F1000F05D110E02E
:103CA000D8F80080B8F1000F0BD0D8F804104E48B7
:103CB00004F05AFE0028F3D198F80830062B00F0E3
:103CC00039854A4B1B68D80740F13085484B5B6803
:103CD0001BB11A79072A00F03185464B1B68D907BA
:103CE00040F11185444BD3F80480B8F1000F05D1A1
:103CF00018E0D8F80080B8F1000F13D0D8F80410FD
:103D0000404804F031FE0028F3D198F80830052B24
:103D100000F2AD84DFE813F00600D403D403980367
:103D2000980390034FF00008C246D6F804B0BBF1E8
:103D3000000F05D110E0DBF800B0BBF1000F0BD095
:103D4000DBF80410284804F00FFE0028F3D19BF89C
:103D50000830062B00F0F783244B1B68DA0740F18C
:103D6000EF83234B5B681BB11A79072A00F0EE83BF
:103D7000204B1B68DB0740F1D1831F4BD3F804B005
:103D8000BBF1000F05D118E0DBF800B0BBF1000F6C
:103D900013D0DBF804101C4804F0E6FD0028F3D132
:103DA0009BF80830052B00F25A84DFE813F0060078
:103DB00082038203B702B702AF0200231A46944679
:103DC000514640469A46E3463A464B46CDE9000105
:103DD000CDE902AB2046FCF79BFC776804F1900329
:103DE0000593AFB91EE000BF109100004CA5FF1F66
:103DF00050A5FF1F40A5FF1F44A5FF1F40910000D5
:103E00002C91000030910000349100003F684FB1C8
:103E10007968834804F0A8FD0028F7D13B7A062B87
:103E200000F0E3847F4B1B68D80740F1E9847E4BA8
:103E30005B682BB11B681BB11A79072A00F0D88484
:103E40007A4B7B4F1B68D90740F134847F6817B9E0
:103E50001AE03F68C7B17968764804F085FD00280C
:103E6000F7D13B7A052B00F24184DFE813F00D0017
:103E7000E701E701E401E401DE01A3F13002092AD0
:103E800098BF002040F2F1814FF00008776817B921
:103E90000BE03F684FB17968614804F065FD002888
:103EA000F7D13B7A062B00F0CC835E4B1B68DA0718
:103EB00040F1C4835C4B5B682BB11B681BB11A7962
:103EC000072A00F0C083594B594F1B68DB0740F1AC
:103ED000A8837F6817B91AE03F68C7B17968564868
:103EE00004F042FD0028F7D13B7A052B00F205844F
:103EF000DFE813F00D00D101D10198019801920182
:103F0000A3F13002092A98BF002040F2DB814FF074
:103F10000009776817B90BE03F684FB179684048EE
:103F200004F022FD0028F7D13B7A062B00F07583C0
:103F30003C4B1B68DC0740F16D833B4B5B682BB14E
:103F40001B681BB11A79072A00F06983374B384F79
:103F50001B68D80740F151837F6817B91AE03F68A2
:103F6000C7B17968354804F0FFFC0028F7D13B7AE7
:103F7000052B00F2F382DFE813F00D002401240189
:103F8000220122011E01A2F13003092B98BF00205B
:103F900040F22F8100234A4641460598FCF7AEFBCC
:103FA000776817B90BE03F684FB179681C4804F097
:103FB000DBFC0028F7D13B7A062B00F0F082194B8E
:103FC0001B68D90740F1E882174B5B682BB11B686F
:103FD0001BB11A79072A00F0E482144B144F1B68B6
:103FE000DA0740F1CC827F6817B913E03F688FB1E0
:103FF0007968134804F0B8FC0028F7D13B7A052B08
:1040000000F2A682DFE813F00600D100D100CB0059
:10401000CB00C4000027B9467468ACB91EE000BFED
:10402000109100004CA5FF1F50A5FF1F40A5FF1FCA
:1040300044A5FF1F389100003C9100004091000012
:104040002C91000024684CB16168A94804F08CFCF4
:104050000028F7D1237A062B00F0CB82A54B1B68F2
:10406000DB0740F1C382A44B5B682BB11B681BB11B
:104070001A79072A00F0BF82A04B1B68DC0740F1C9
:10408000A6829F4B5C6814B910E0246874B1616823
:104090009C4804F069FC0028F7D1237A052B00F234
:1040A0006882DFE803F0036F6F6969624FF0000810
:1040B000C246766816B90BE036684EB171688C4816
:1040C00004F052FC0028F7D1337A062B00F07B82F3
:1040D000884B1B68D80740F17382874B5B682BB114
:1040E0001B681BB11A79072A00F06F82834B844E3C
:1040F0001B68D90740F15782766816B910E0366818
:1041000076B17168804804F02FFC0028F7D1337A2B
:10411000052B00F22882DFE803F00322221C1C1585
:1041200000231A46944640461E4651463A46674684
:10413000CDE900014B46CDE902670598FCF7E8FAA6
:10414000FFF7FABAF06803F063FA034601F10042A0
:10415000E8E7F06803F05CFA03460A46E2E7F06835
:10416000FFF766F803460A46DCE7E06803F050FA1A
:10417000804601F1004A9CE7E06803F049FA804676
:104180008A4696E7E068FFF753F880468A4690E74C
:10419000F86803F03DFA074601F100493CE7F8688A
:1041A00003F036FA0746894636E7F868FFF740F825
:1041B0000746894630E7FB685B429BB2EBE6BB896A
:1041C000E9E6F968002900F039830A78742A00F0DA
:1041D00032832B2A00F02D832D2A7FF4D4AE0120C8
:1041E0004A78A2F13007092F01F1010300F254834C
:1041F0001946002303EB830302EB430311F8012F5D
:10420000A2F13007303B092F9BB2F3D900283FF4CD
:10421000C2AE5B429BB2BEE6FB68C3F100091FFA67
:1042200089F976E6B7F80C9073E6FB68C3F10008ED
:104230001FFA88F82AE6B7F80C8027E6F968002903
:1042400000F017830B78742B00F00F832B2B00F0FA
:104250000A832D2B7FF411AE01204B78A3F130029D
:10426000092A01F1010100F210831A46002303EB31
:10427000830302EB430311F8012FA2F13007303B17
:10428000092F9BB2F3D9002800F0D082C3F10008B7
:104290001FFA88F8FAE5F968002900F0BB820B786C
:1042A000742B00F0B3822B2B00F0AE822D2B7FF409
:1042B00027AE01204B78A3F13002092A01F1010158
:1042C00000F2BF821A46002303EB830302EB430391
:1042D00011F8012FA2F13007303B092F9BB2F3D91F
:1042E000002800F0B482C3F100091FFA89F910E632
:1042F000109100004CA5FF1F50A5FF1F40A5FF1FF8
:1043000044A5FF1F3091000034910000DBF80C0041
:1043100003F07EF9034601F1004250E5DBF80C00A2
:1043200003F076F903460A4649E5FB68C3F1000944
:104330001FFA89F92FE4B7F80C902CE4F9680029EA
:1043400000F08E820B78742B00F086822B2B00F00D
:1043500081822D2B7FF416AC01204B78A3F1300223
:10436000092A01F1010100F26E821A46002303EBD3
:10437000830302EB430311F8012FA2F13007303B16
:10438000092F9BB2F3D9002800F04A82C3F100093B
:104390001FFA89F9FFF7FFBBFB68C3F100081FFA9A
:1043A00088F8FFF7A7BBB7F80C80FFF7A3BBF86846
:1043B00003F02EF9074601F100496BE4F86803F0B9
:1043C00027F90746894665E4F868FEF731FF074696
:1043D00089465FE4FB685B429BB21CE4BB891AE43C
:1043E000F868002800F05F820278742A00F0588292
:1043F0002B2A00F053822D2A7FF405AC012142784C
:10440000A2F13007092F00F1010300F240821846A3
:10441000002303EB830302EB430310F8012FA2F107
:104420003007303B092F9BB2F3D900293FF4F3AB9F
:104430005B429BB2FFF7EFBBD8F80C0003F0E8F843
:10444000804601F1004A70E4D8F80C0003F0E0F86F
:1044500080468A4669E4F968002900F013820B78E7
:10446000742B00F00B822B2B00F006822D2B7FF497
:1044700038AB01204B78A3F13002092A01F1010188
:1044800000F2E3811A46002303EB830302EB4303AC
:1044900011F8012FA2F13007303B092F9BB2F3D95D
:1044A000002800F0BA81C3F100081FFA88F8FFF76E
:1044B00021BBDBF80C00FEF7BBFE03460A467EE498
:1044C000D8F80C00FEF7B4FE80468A462DE4F0686A
:1044D00003F01AFF81B2FFF707BAF86803F014FF80
:1044E00081B2FFF799B91946FFF796B9C24800F0B3
:1044F0007DFF00283FF4B5AB0023BF483B607B60E5
:1045000000F07AFFFFF7ADBBFCF7D8F9FFF79CBBD3
:10451000FB68FFF79ABB9F68FFF7A3BBB64800F0A4
:1045200065FF00283FF429ACDFF8D0B2B248002381
:10453000CBF80030CBF8043000F05EFF5B461DE4A2
:10454000FCF7BCF90DE4DBF80C300BE49B6815E4D8
:10455000F86803F07FF8074689465DE5F86803F0E0
:10456000D3FE83B217E5F06803F074F803460A46F9
:10457000D8E5E06803F06EF880468A4699E59E48E3
:1045800000F034FF00283FF42EAD00239A483B6032
:104590007B6000F031FF26E5FCF790F914E5FB683D
:1045A00013E59F681FE5944800F020FF00283FF4C2
:1045B000A3AD002390483360736000F01DFF9BE5BE
:1045C000FCF77CF989E5F36888E59E6894E58A48FC
:1045D00000F00CFF00283FF454AD884C86480023BF
:1045E0002360636000F008FF23464BE5FCF766F9A3
:1045F00039E5E36838E59B6844E57F4800F0F6FE5E
:1046000000283FF4A9AC00237B483B607B6000F0AE
:10461000F3FEA1E4FCF752F98FE4FB688EE49F6897
:104620009AE4754800F0E2FE00283FF452AC002303
:1046300071483B607B6000F0DFFE4AE4FCF73EF926
:1046400038E4FB6837E49F6843E4A2F130010929AC
:104650003FF6E1A819464FF0000EFFF799B9DBF8D5
:104660000C0002F0F7FF03460A46FFF7A8BBD8F894
:104670000C0002F0EFFF80468A46FFF756BB5E480B
:1046800000F0B4FE00283FF4A7AA00235A483B607C
:104690007B6000F0B1FEFFF79FBAF86803F034FECC
:1046A00083B2FFF7B8BAF86803F02EFE1FFA80F85D
:1046B000FFF720BA504800F099FE00283FF4C6AB3F
:1046C00000234D483B607B6000F096FEFFF7BEBBC9
:1046D000F86803F019FE1FFA80F9FFF75CBAF86872
:1046E00002F0B8FF07468946FFF7D4BAF86803F02E
:1046F0000BFE1FFA80F8FFF7C9BBF86803F004FE51
:104700001FFA80F905E43C4800F070FE00283FF4F1
:10471000E9AADFF8E88038480023C8F80030C8F874
:10472000043000F069FE4346FFF7DDBAFCF7C6F837
:10473000FFF7CCBAD8F80C30FFF7C9BA9B68FFF77F
:10474000D2BA2D4800F052FE00283FF4F4A900230D
:1047500029483B607B6000F04FFEFFF7ECB9FCF7A7
:10476000ADF8FFF7DBB9FB68FFF7D9B99F68FFF732
:10477000E2B9FB68FFF724BA9F68FFF72DBAFCF790
:104780009DF8FFF71CBA1C4800F030FE00283FF4EB
:1047900091A9002318483B607B6000F02DFEFFF7D5
:1047A00089B9FCF78BF8FFF778B9D8F80C30FFF728
:1047B00075B99F68FFF77EB9A2F1300109293FF66C
:1047C00092A819460027FFF7B1B80027FFF7A6B84F
:1047D0000121FFF789B81946FFF786B84FF0000EA0
:1047E000FFF7CEB80121FFF717B8FB68FFF720BB32
:1047F0009F68FFF72BBB00BF40A5FF1F44A5FF1F0D
:10480000FCF75CF8FFF713BB002053E54FF00109FC
:10481000FFF77FBB8946FFF77CBB9846FFF76AB975
:104820009946FFF7B8B90023FFF7C0B89846FFF7DD
:104830002DBB0020D4E40123FFF7ADBB0B46FFF7EF
:10484000AABB00234CE500239DE5002328E69946FA
:10485000FFF75FBB002080E54FF00109FFF79BB930
:104860008946FFF798B90020F7E44FF00108FFF7F9
:104870000DBB8846FFF70ABB0020FBE54FF001089F
:10488000FFF738B98846FFF735B90023FBE400236A
:10489000CBE50023FFF758B80023B7E40021AEE5CD
:1048A0000123FFF7B8B90346FFF7B5B941F2D423A6
:1048B00010B50446C05803681B69984720B12046CC
:1048C000BDE81040FEF792BE10BD00BF2DE9F043D9
:1048D00090F82331022B87B0044601D0FFF7E6FFA2
:1048E000414E41F2E442336800930099A358994243
:1048F00061D13368019304F5A75141F2D040019B87
:104900000A68205A9B1A984208D994F82331022B3E
:1049100011D0012B55D007B0BDE8F08302440A60E6
:104920002046FBF711FE04F19000FBF70DFE94F812
:104930002331022BEDD1B4F92851002DEBDD336882
:104940000293029BD4F82471274ADB1B042BE2D983
:1049500013680393ADB2C5F5FA76B6B204F5965274
:10496000039BD2F8008004EB8601DB1BC1F82C31DD
:10497000A31998F9082083F8FC28D8E9040103F06A
:104980007FF904EB4609013DA9F8F00AD8E90001D6
:1049900003F076F90537322EA9F8D80EA4F828517D
:1049A000C4F82471B7D141F2C4234046E15A012230
:1049B000FBF784FEAFE70133A3502046FBF790FFDF
:1049C00097E733680493049BD4F82411064A5B1AD2
:1049D000B3F57A7F9FD313680593059BC4F8243100
:1049E00007B0BDE8F08300BF58A5FF1F00F02EBC44
:1049F00038B5124A124B00F1AC050021044600F014
:104A0000AFFA28460F4B104A012100F0A9FA0F49CE
:104A10000F4A022384F858310B68C4F8605143F000
:104A20000063C4F86851C4F85C41C4F864410B6089
:104A3000136843F000632046136038BDE091000026
:104A400038920000DC9100000C9200003C80044091
:104A500030800440012A03D0D0F85C0100F010B986
:104A6000D0F8600100F00CB9012A03D0D0F85C0145
:104A700000F04EB9D0F8600100F04AB9012A03D025
:104A8000D0F85C0100F058B8D0F8600100F054B8DC
:104A9000531C13D02AB1012A07D1D0F8600100F0CD
:104AA00047BBD0F85C0100F043BBD0F85C21214843
:104AB000D38A9BB243F00103D382704770B504469A
:104AC000D0F85C010D4600F011FB29460646D4F8EB
:104AD000600100F00BFB76B1A8B1D4F85C31D4F8DA
:104AE0006001597D427D914298BF18462946BDE834
:104AF000704000F01DBB68B12946D4F86001BDE8E4
:104B0000704000F015BB2946D4F85C01BDE8704048
:104B100000F00EBBD4F85C11D4F86021CB8A0548B4
:104B20009BB243F00403CB82D38A9BB243F00403CD
:104B3000D38270BD90EEFEFF38B5437E04460D462D
:104B4000DBB9A36D012D4FEA43131DD903F1844353
:104B50000122042D9A6009D9082D23D9102D1AD9C4
:104B60001A605A60202384F8203038BD00221A6071
:104B70005A60042384F8203038BD00F01BF8A36D80
:104B8000012D4FEA4313E1D803F1844200239360DF
:104B900084F8203038BD002183E80600102384F813
:104BA000203038BD00211A605960082384F8203075
:104BB00038BD00BFF8B5836D5B0103F18443044643
:104BC000DA6942B102F0A6F9A36D5B0103F18443F7
:104BD000DA69002AF6D19B6923B1E38A9BB243F0DC
:104BE0000203E38272B6637E002B37D0216F636FBE
:104BF000A26F0F68E06F1B68D4F880101668056814
:104C0000D4F8842009681268606E3B4433442B4416
:104C10000B441344C3F34E03D4F88C50D4F89010D3
:104C2000D4F8942043F4004303602F68D4F898002C
:104C30000B681668D4F89C100568D4F8A0200968A1
:104C40001268A06E3B4433442B440B441344C3F31B
:104C50004E0343F4004300220360627662B6A37EF3
:104C60006BB10221204600F053F80221204600F0EB
:104C7000D1F804212046FFF75FFF0023A376F8BD9B
:104C800038B5C37E8B4211D0437E04460D466BBBC4
:104C9000092D0CD8E36B5B0103F184430022DA6039
:104CA0009A60FF210823E161E37638BD38BD0B2D02
:104CB0001FD90D2D0DD8E36B5B0103F18443002058
:104CC0000121D860996040F6FF720C23E261E3761F
:104CD00038BDE36B5B0103F184430122DA609A6023
:104CE0004FF6FF711023E161E37638BDFFF762FFF5
:104CF000CEE7E36B5B0103F1844301200021D86020
:104D0000996040F2FF320A23E261E37638BD00BFCA
:104D100090F824308B4256D070B5437E05460C4641
:104D2000002B34D1A31F032B2A6C16D9520102F198
:104D300084420021D1606CBBEB6B94605B0103F19A
:104D4000844301221046DA610026012183E84200F3
:104D500098615A6185F8244070BDEB6B52015B018C
:104D600003F1844302F1844201210020062CD1602A
:104D7000596019605861986126D0072C29D0082CF9
:104D80000CBF90609160D86185F8244070BDFFF73A
:104D900011FFC7E7012C0DD0022C31D0032C1BD002
:104DA000042C19D0052C21D0EB8A9BB243F00103CF
:104DB000EB8270BDEB6B91605B0103F18443204695
:104DC000DC612246C0E770479060D96185F82440D5
:104DD00070BD9160D961BDE7EB6B5B0103F184436A
:104DE000012090600246D9610846ADE7EB6B5B019C
:104DF00003F184430126966008460A46D961A3E779
:104E0000EB6B91605B0103F184430A46D961012099
:104E10009AE700BF38B590F825308B4221D0437E09
:104E200005460C46F3B974B1012C2DD0022C38D0B4
:104E3000032C1CD0042C14D1EB6B5B0103F18443D5
:104E400000221A610BE0EA6B2B6C52015B0103F14B
:104E5000844302F18442012111615C601C6085F889
:104E6000254038BDFFF7A6FE002CDDD1EBE7EA6B4D
:104E70002B6C52015B0103F1844302F18442012156
:104E8000116159601960EAE7EA6B2B6C52015B0112
:104E900003F1844302F18442002114611C605960D3
:104EA000DDE7EA6B2B6C52015B0102F184420121C8
:104EB00003F184430020116183E80300CFE700BFC2
:104EC00070B5026C04460023C37601210525042039
:104ED0000226E361AA4084F8203084F8216084F837
:104EE000223084F8231084F8245084F82500637657
:104EF000E38202F1844294F821006375116188B164
:104F0000164A1370626D84F82130AA4002F184427F
:104F1000136072B6A36D6176AB4003F1844399616F
:104F2000D96162B6012520460A21FFF7A9FE204675
:104F3000A5762021FFF700FE29462046FFF7E8FE70
:104F400029462046FFF766FF72B6A36D65765B01C2
:104F500003F184439D61DD6162B670BD014007408D
:104F60002DE9F0418262454A454EC362CD0401EB12
:104F700081072A44FF004FF40033002901763E44A4
:104F800003634264DFF83CE13E4F3F493F4A404BF8
:104F9000DFF8348105F1804CAE442F4429442A4483
:104FA0002B440CF56C3CC0F834C0C0F838E0C76343
:104FB0000164C2650366DFF814C1DFF814E1354F00
:104FC0003549364A364BA844AC44AE442F442944B4
:104FD0002A442B44C0F84880C0F84CC0C0F850E0C8
:104FE0004765816542678367DFF8E880DFF8E8C0DE
:104FF000DFF8E8E02B4F2C492C4A2D4BA844AC4459
:10500000AE442F4429442A442B44C0F86480C0F89D
:1050100068C0C0F86CE00767C167C0F88820C0F8B6
:105020008C30DFF8BC80DFF8BCC0DFF8BCE0214F7B
:105030002149224A224BAC44AE4429442A442B4401
:10504000A8442F4414BF3A2539250446C0F880806F
:10505000C0F884C0C0F890E0C0F89470C0F8981010
:10506000C0F89C20C0F8A030C0F8A46080F8A85018
:10507000FFF726FF2046BDE8F08100BF10B00340D7
:105080001060034008B003400CB0034050B0034030
:1050900028B0034020B0034024B003403CB003409C
:1050A00040B0034038B0034044B0034054B0034024
:1050B00058B0034060B0034064B0034068B00340A0
:1050C0006CB0034004B0034014B0034018B0034078
:1050D0001CB003402CB0034030B0034034B0034058
:1050E00048B003404CB003405CB003402B2907D8C4
:1050F000836A585C00F01F001F3818BF01207047FA
:1051000000207047836A026C5B5C5201190602F151
:1051100084424CBF00210121116172B690F8221027
:10512000426B03F01F0303EB8113136062B67047F9
:105130002B292DE9F84F82465BD8836A5B5C03F02C
:105140001F031F2B55D0437D427E01338B46437591
:10515000002A75D1DAF854305B0103F18443DC692D
:10516000003418BF0124002C4DD1A046A14626468C
:1051700027462546DAF858305B0103F184430022C4
:105180005946DA605046FFF7BDFF01E001F0C2FE6C
:10519000DAF854305B0103F18443DB69002BF5D16D
:1051A00072B6DAF834305B0103F18443DB69002B1B
:1051B0003DD0DAF84430186880B262B694B172B665
:1051C000DAF83C20DAF84030DAF85410C2F80090EF
:1051D000DAF85820C3F80080DAF834300F6016602F
:1051E0001D6062B69AF81530013B8AF81530BDE8AB
:1051F000F88FBAF8163014489BB243F00403AAF8AB
:105200001630BDE8F88F72B6DAF83450DAF83C00A0
:10521000DAF84010DAF85420DAF858302D68D0F86F
:105220000090D1F8008017681E6862B6A2E7BAF84D
:10523000163005489BB243F01003AAF81630BCE7BD
:10524000FFF7B8FC86E700BF90EEFEFFF0B51B4B02
:105250001B4E596818689A68DB6885B06C460FC4A5
:10526000337899071DD5174A174C1378174913F04F
:10527000700318BF1370164A164B8027177000264C
:105280003320032226706D4608701A7072B6043CF3
:1052900045F001052046A84762B6237813F0700355
:1052A00009D10D4B064901E0013B02D00A78D20733
:1052B000FAD505B0F0BD237005B0F0BD3C920000FA
:1052C0000100024000000240040002400B000240C6
:1052D000070002400A000240410D0300B0F5006FD4
:1052E0000AD210B5094B1B78DB07044606D504F13A
:1052F000A0500078C0B210BD00207047FFF7A6FF95
:1053000004F1A0500078C0B210BD00BF01000240FF
:10531000B0F5006F17D238B50F4B1B78DA070D4682
:10532000044611D504F1A0500378AB420AD00B4AD1
:10533000137813F0700318BF1370074A05701378C1
:10534000DB07FCD538BD7047FFF780FF04F1A050A4
:105350000378AB42EBD1F5E70100024000000240C8
:1053600008B5104C08E0236859050DD423681A05C8
:105370000FD42368DB0411D423685803F3D500F05D
:10538000F7FD23685905F1D500F0B4FC23681A0530
:10539000EFD501F0B3FE2368DB04EDD501F044FF47
:1053A000EAE700BF3480044008B5FFF7D9FF00BF2B
:1053B000014B10221A80704700200540704700BF43
:1053C000094908B50B6830B16A461844A2F5805205
:1053D000904202D20860184608BD02F0B5FF0C23C7
:1053E00003604FF0FF3008BD2087FF1F0078B0FA40
:1053F00080F04009704700BF01230370704700BF71
:10540000EFF3138070B9EFF310836BB9EFF30582FC
:105410005AB94FF48070EFF311832BB1984228BF33
:10542000184670474FF0FF3070470F2A01D81846D2
:10543000F1E7014BD05CEEE7F0E300E010B40F4B76
:1054400053F8302092F880422CB1012369B182F8E0
:10545000803010BC704703EBC0035B681A6841B929
:1054600022F002021A6010BC704782F8003110BCB2
:10547000704742F003021A6010BC70474C92000063
:105480001C4A02EBC00301295B6811D004291BD020
:1054900052F83000002280F8802229B1022920D061
:1054A000032922D01A6070474FF480721A60704747
:1054B00052F830004FF4A27280F880121A601A6815
:1054C00022F020021A60704752F830104FF4A27296
:1054D000012081F880021A601A6842F020021A60E6
:1054E000704740F203121A6070474FF481721A60DD
:1054F000704700BF4C92000030B4054B054D064C80
:10550000002210211A602A602060196030BC7047A8
:1055100014D0034004D0034000D00340212801D818
:10552000FFF78CBF704700BF212801D8FFF7A8BF45
:10553000704700BF2DE9F843054672B6204F214B56
:10554000214A1B683C68126862B6520102D5322BB0
:1055500088BF013495B3C3F5BB331C4EDFF86490AC
:10556000DFF86480FF334FF47A72A6FB031302FB6B
:1055700004F404EB931472B6D9F800103A68D8F822
:1055800000E062B6C1F5BB33FF33A6FB03031EF098
:10559000806FC4EB93134FF47A7002D0322988BF26
:1055A000013200FB0233B3F57A7F04D3013D05D00D
:1055B00004F57A74DFE701F0ADFCDCE7BDE8F883C1
:1055C00058A5FF1F18E000E004ED00E0ABAAAAAA6E
:1055D000F8B52D4B2D49DFF8D0E0DFF8D0C02C4EC8
:1055E0002C4D2D4C2D4A2E4F4FF4000018604FF0DB
:1055F000807018604FF0007018604FF08060186085
:105600004FF0006018600020086028234BF6FF71FF
:10561000CCF80010CEF80030336013602B602360AC
:105620003B60B3629362092245F8242CC4F8D80F7A
:1056300005F57F65C7F8D41F07F5FF2707F5FA675B
:10564000C6F8F83F2B6006F5FF26C4F8D42F05F501
:10565000FD2504F5FF24386006F2F4761148316028
:1056600005F5FF6504F5FD642B602360026001F021
:105670009FFC3220FFF75EFF01F0A6F84FF4AF70F9
:10568000BDE8F840FFF756BF08E100E004800340A2
:1056900014800340248003402C8003401C8003407E
:1056A0003480034000800B400C800340088003409E
:1056B0002DE9F84F214B1B6807460BB101221A70E8
:1056C000DFF888901E4D99F80040DFF884801D4E69
:1056D00001343F2C8ABF4FF0000A5FFA84FA544627
:1056E000AB462B78A34216D1FFF78AFE40281FDC79
:1056F00033791B06F5D59BF8003001333F2B86BF6D
:1057000000221346DAB218F80330DBB2F3712A70C4
:105710002B78A342E8D00C490A4BFFB208F804707A
:105720000120BC22087089F800A0DA70BDE8F88F6B
:10573000FF28D6DD01F0EEFBD3E700BFECA5FF1F8D
:10574000E9A5FF1F00A00640E8A5FF1FF0A5FF1F69
:1057500064A5FF1F274A28491368F0B543F4806306
:1057600013600A78254F264E264D274C27490023E3
:105770003B7033702B7023700B70002A35D0152AC4
:1057800026D0234B1B78012B2AD0052B03D1214B8C
:105790004FF451721A60204B204C2149C0F344361B
:1057A000C0F347151E7000F01F005D7004224FF01B
:1057B000020E88273C26402598729A704FF40050BC
:1057C00083F813E05A751F74DE7025700860F0BD11
:1057D000144B40F213321A600D4B1B78012BD4D1BD
:1057E000114B4FF451721A60D5E7104B40F213324F
:1057F0001A60C6E734800440A4A5FF1F60A5FF1F00
:1058000061A5FF1FF0A5FF1FE9A5FF1FE8A5FF1F6A
:105810002487FF1F1CC0044000A006402DE400E0C8
:1058200004E100E018C0044044A0044040A004404B
:10583000144B14499B7803F0EC0200F0030313436C
:10584000420700F00F0248BF43F01003042A8B7098
:1058500013D00C4B0B4A5B79C10603F0EF0348BF32
:1058600043F0100353719379820603F0EF03054A66
:1058700048BF43F01003937170478B7943F04003A6
:105880008B71E6E700A00640214B1B685B053ED507
:1058900010B5204C237823B101F03CFB2378002B7A
:1058A000FAD11D481D4A1E4B4FF4005400210460DC
:1058B000D1701B78E3B1152B03D11A4B40F20312C0
:1058C0001A60194B1B7803F07F03012B1AD0052BAC
:1058D00003D1164B40F203121A60154B15481649B6
:1058E0001A68002303700B700AB10123137010BDF6
:1058F000124B40F203121A600B4B1B7803F07F032C
:10590000012BE4D10E4B40F203121A60E5E7704719
:1059100034800440E8A5FF1F84E100E000A00640B9
:10592000A4A5FF1F18C004402487FF1F1CC004400B
:105930005CA5FF1F60A5FF1F61A5FF1F40A00440DD
:1059400044A004400A4A38B50546137803F0FF0422
:10595000002BFAD101212846FFF7E6FD2146284613
:10596000FFF7DCFD034A044B52F835201A6038BDBE
:10597000E8A5FF1F4C920000ECA5FF1F09B140F005
:105980008000174A1378984216D010B4154C24683A
:1059900064050FD503F07F03012B1CD0052B11D01C
:1059A000002900F07F0114BF6023442301290DD09A
:1059B000052902D0107010BC70470B4943F44073A6
:1059C0000B60F7E7084B00241C60E9E7074943F444
:1059D00040730B60EEE7054B00241C60E0E700BF5E
:1059E0002487FF1F348004401CC0044044A00440AE
:1059F000104B1A7882420AD00F490968490505D52B
:105A0000AAB1152A09D068B1152801D018707047BD
:105A10000A4A40F213311160F8E7084A0021116088
:105A20000028F1D1064A40F213311160EEE7044933
:105A30000A60E8E7A4A5FF1F3480044018C00440B2
:105A400040A004400D4B1B6813F4806305D021284F
:105A500005D90B4B00201860704718467047094B5A
:105A600010B5074C53F8303023600121FFF75CFD7F
:105A7000236800221A70012010BD00BF348004404A
:105A80005CA5FF1F4C9200000F4B1B6813F4806352
:105A900008D0122808D0142811D00C4A537B03F0E8
:105AA000FE03537300207047094B40F202321A6024
:105AB000064A537B43F00103537301207047054BA3
:105AC00040F202321A60F3E73480044000A006403E
:105AD0000CA0044014C00440034B1B685B0501D5B7
