:1000000000800020BD010000095F0000C15E00000B
:10001000C15E0000C15E0000C15E0000C15E000064
:10002000C15E0000C15E0000C15E0000095F00000B
:10003000095F0000C15E00001D780000217900000A
:10004000095F0000095F0000095F0000095F000010
:10005000095F0000095F0000095F0000095F000000
:10006000095F0000095F0000095F0000095F0000F0
:10007000095F0000095F0000095F0000095F0000E0
:10008000095F0000095F0000095F0000095F0000D0
:10009000095F0000095F0000095F0000095F0000C0
:1000A000095F0000095F0000095F0000095F0000B0
:1000B000095F0000095F0000095F0000095F0000A0
:1000C000095F0000095F0000095F0000095F000090
:1000D000095F0000095F0000095F0000095F000080
:1000E000095F0000095F0000095F0000095F000070
:1000F000095F000055680000095F00008D7E000068
:10010000095F0000B97F0000095F0000095F00007F
:10011000095F0000095F0000095F0000095F00003F
:10012000095F0000095F0000095F0000095F00002F
:10013000095F0000095F0000095F0000095F00001F
:10014000095F0000095F0000095F0000095F00000F
:10015000095F0000095F0000095F0000095F0000FF
:10016000095F0000D16A0000095F0000095F00001C
:10017000095F0000095F0000095F0000095F0000DF
:10018000095F0000095F0000095F0000095F0000CF
:10019000095F0000095F0000095F0000095F0000BF
:1001A000095F0000095F0000095F0000095F0000AF
:1001B000095F0000095F0000095F0000564B4CF228
:1001C000205210B51A804DF628121A8000BF00BFC9
:1001D00005F09EFE514B4FF010621A60504A9A6033
:1001E000504ADA60504A136813F4807304D14F49BF
:1001F0000B604FF4A85313604D4B1A78110703D5C9
:100200001A7842F008021A704A4B4B492A221A7097
:100210004A4A4B4B8B4204D252F8040F43F8040B6A
:10022000F8E7484B484900228B4202D243F8042B9E
:10023000FAE74649464A002352F8230041F82300D2
:1002400001336F2BF8D1434B434A802103F8011B44
:100250009342FBD1414B3D4A1A60414B8A221A70AE
:10026000A3F5805324225A70A0221A709A7992071B
:10027000FCD59A79D406FCD43A4A937903F00C035E
:10028000082B384BF9D103221A7140225A719A79FE
:100290009006FCD5334A9179324B4906FBD5324A58
:1002A000324911600221516020221A709A7902F0BD
:1002B0000C020C2AFAD12E4B2E4A1A602E4B2F4AD2
:1002C0001A6000225A60072243F8042C2C4AC3F813
:1002D0000C2D62B605F02CFF144B1B68DA0705D510
:1002E000284805F0B9FE284B284A1A60284B1B788D
:1002F0005B0609D5244C254B22689A4204D121483B
:1003000005F0AAFE0023236008F028FF05F006FE92
:1003100007F084FBFEE700BF0E200540308004405C
:10032000823F04000100002B10D0034014D0034092
:1003300002D0074000E007403490FF1F58A30000A0
:100340002087FF1F3890FF1F44A8FF1F0082FF1F58
:100350000000000000E400E05FE400E008ED00E0E1
:100360000050064000400640448004400000030165
:1003700004800440C010050014E000E0FF76010096
:100380000000202011EB30031CE00340A5C3945A69
:1003900000F00740FFFFFFFFFFFFFFFFFFFFFFFF32
:1003A000FFFFFFFFFFFFFFFFFFFFFFFFFFFFFFFF5D
:1003B000FFFFFFFFFFFFFFFFFFFFFFFFFFFFFFFF4D
:1003C000FFFFFFFFFFFFFFFFFFFFFFFFFFFFFFFF3D
:1003D000FFFFFFFFFFFFFFFFFFFFFFFFFFFFFFFF2D
:1003E000FFFFFFFFFFFFFFFFFFFFFFFFFFFFFFFF1D
:1003F000FFFFFFFFFFFFFFFFFFFFFFFFFFFFFFFF0D
:10040000FFFFFFFFFFFFFFFFFFFFFFFFDEF9FFFF23
:1004100010B5054C237833B9044B13B10448AFF33E
:1004200000800123237010BD3890FF1F00000000E2
:100430005CA30000084B10B51BB108490848AFF396
:1004400000800848036803B910BD074B002BFBD0A0
:10045000BDE81040184700BF000000003C90FF1F9F
:100460005CA300003490FF1F0000000070B544F64C
:10047000206082B005F01EFF00210E2005F004FE72
:1004800000210F2005F000FE0021102005F0FCFDEA
:100490000121142005F0F8FD01210D2005F0F4FDE7
:1004A00001210220164C174D05F0EEFD002114200D
:1004B00005F0E4FD01210D2005F0E0FD204600F0EF
:1004C00069FC04F18806204600F042FA304600F04C
:1004D0003FFA204600F02CFA304600F029FA0821B5
:1004E000094807F029F80221D4E90423284600919D
:1004F00007F0EEFA284602B0BDE8704007F098BA5F
:100500005890FF1F3C87FF1FB49E0000014804F075
:10051000FFBE00BF5890FF1F00B585B005F0CEFBB1
:100520000E2110220A238DE80E000448044A0549D2
:100530000F2300F0C9FA05B05DF804FB5890FF1FC7
:100540002C87FF1F3C87FF1F2DE9D003114C80F83B
:10055000361083B024680194DDE90889C0E90623D8
:10056000DDE90A230C9E019C84664FF6FF71A0F81A
:10057000421000218663C0E90889C0E90A23A0F877
:100580004010A0F8441080F8461003B0BDE8D00336
:10059000704700BF48A5FF1F90F84630002B66D07B
:1005A0002DE9F047D0E9004582B0824622462B462D
:1005B000D0E9040107F0B6FDDAE916230FF2D009FD
:1005C000D9E90089CDE9000107F060FFDAE91C23D1
:1005D00007F0AAFD42464B4606460F4608F0E6F9EC
:1005E000002835D0CAE91C8946464F46DAE914236B
:1005F000DDE9000107F04AFF32463B4607F094FD73
:10060000DAE91E2306460F462046294607F08AFDF2
:10061000DAE9182307F03AFF02460B46304639461E
:1006200007F080FD00221E4B07F030FF1AA3D3E92C
:10063000002306460F4608F0B9F9C8B90022194B45
:100640003046394608F094F9D0B16FF07F0010E0E1
:10065000DFF854904FF0000842464B46304639468A
:1006600008F086F90028BDD1CAE91C67BEE77047CB
:100670007F20CAE91E458AF8080002B0BDE8F0876D
:100680003046394608F0B2F940B2F2E7AFF30080E5
:1006900000000000C0FFDF400000000000C05F401D
:1006A0000000703F000060C00000E0C070B50B4665
:1006B00081EAE1710546A1EBE3710A06806B58BF40
:1006C000CEB295F83610026848BF7F2602290CBFCB
:1006D000042400241268802104EBD3749047A86B93
:1006E000036821461B689847A86B036831461B685E
:1006F0009847A86B0368311901F07F011B68BDE8BA
:100700007040184790F90810FFF7D0BFD0B51646D3
:100710001F4604460022104B3046394607F0E0FFE2
:1007200006460F4602460B46C4E91267D4E90801A3
:1007300007F0ACFE0022C4E916010023304639461A
:1007400008F00CF938B932463B46D4E90A0107F003
:10075000C7FFC4E91801D0BD00408F4010B5044662
:10076000084607F01DFEC4E9000110BD012A10B5BE
:10077000044605D0D0E9040108F060F980B210BD4C
:10078000B0F94420B0F84230B0F84000114499422A
:10079000A8BF19468142A8BF88B207F001FEC4E98C
:1007A000040108F04BF980B210BD00BFA3F5FF4370
:1007B0007F3BA0F84430A0F84210A0F840207047DA
:1007C00010B50446D0E9000108F038F980B20304FE
:1007D00044BFA4F84200608610BD00BF10B50446B7
:1007E000D0E9000108F02AF947F6FE7380B298427A
:1007F0009CBFA4F84000208610BD00BF10B5044681
:10080000D0E9000108F01AF9A0F5FF407F38A4F8FC
:10081000440010BD2DE9D04316461F460446002271
:1008200000233046394608F0A3F8002833D10022CF
:100830000023DDE9060108F09BF800282BD10022F7
:100840000023DDE9080108F093F820BBDDE9062369
:10085000D4E91289C4E90823DDE90823C4E906675D
:10086000C4E90A23C4E9146742464B46DDE90601A0
:1008700007F00CFE0022C4E9160100234046494659
:1008800008F06CF838B942464B46DDE9080107F03C
:1008900027FFC4E91801BDE8D08300BF2DE9F04768
:1008A000D0E90023D0E90667824600240025C0E98C
:1008B0001E2382B030463946CAE91C4522462B46E3
:1008C00008F056F8002830D1DAE9088922462B468C
:1008D0004046494608F04CF838BBDAE90A2310468E
:1008E000194622462B46CDE9000108F041F8E0B94F
:1008F000DAE91212CAE91467134640460A46494625
:1009000016461F4607F0C2FD2246CAE916012B46CD
:100910003046394608F022F838B932463B46DDE920
:10092000000107F0DDFECAE9180102B0BDE8F0875A
:1009300090F8462002B1704710B50446FFF7AEFFAD
:10094000012384F8463010BD002380F846307047FC
:10095000B0F94420B0F8421002F5FF437F338B42D8
:1009600010B50446B0F84000A8BF0B468342A8BFAC
:1009700098B207F015FDC4E9040110BD2DE9F0415E
:10098000846874B1A3686568033323F00303CA184D
:10099000AA42A36005D804F10C00A2601844BDE887
:1009A000F081C768B942884638BFB846054608F1A5
:1009B0000C000E4608F0FAFB40B17F0080E8100101
:1009C000A8608660EF600C30BDE8F081BDE8F08182
:1009D000084606F035BE00BF08B5064805F0B6FA71
:1009E00030B1054B034800221A605A6005F0B4FA92
:1009F00008BD00BF3CA5FF1F40A5FF1F38B541F251
:100A0000B825044690F8101140594FF0FF3204F019
:100A100077FD81B22046FFF7A1FE94F811116059CD
:100A20004FF0FF3204F06CFD81B204F18800BDE8A4
:100A30003840FFF793BE00BF38B541F2B8240546F1
:100A40004FF0FF320059102104F03CFD28594FF0BF
:100A5000FF32102104F04AFD28594FF0FF320221E5
:100A600004F03AFD28590122102104F02BFD2859E9
:100A70000122102104F03AFD285901220221BDE88B
:100A8000384004F029BD00BF00F5A65370B50546F7
:100A90001980084607F084FC00220A4B07F020FE6C
:100AA00005F5A65402460B46C4E902232846FFF783
:100AB0002DFE05F18800D4E90223BDE87040FFF760
:100AC00025BE00BF00408F402DE9F04F8BB00026BF
:100AD00000270446304D0492CDE90267CDE9006756
:100AE000904689469B4600224FF080430121BDF885
:100AF00058A0FFF729FDCDE90267CDE90067CDF8E1
:100B0000108000224FF0804304F188000221FFF79B
:100B10001BFD2B68099341F2B4229DF850000999FE
:100B200084F8110100239DF85400C4F8141184F8CE
:100B3000120184F810B14FF4B670A35284F8133147
:100B4000A4F8183106F072FF804604F089FC2B6887
:100B50000893DDF820E02B680793079E2B68069327
:100B600041F2D44241F2C42341F2B82141F2C827F4
:100B700041F2D045069844F8018044F807E0514618
:100B80006651A050204644F80390FFF77DFF2046B1
:100B90000BB0BDE8F08F00BF48A5FF1F10B578214E
:100BA0000446642005F0ECF804F1180008226521E1
:100BB00005F00EF904F1200008226D2105F008F976
:100BC00004F128000822752105F002F904F1320031
:100BD00002227D2105F0FCF804F1300002227F2181
:100BE00005F0F6F804F134000222812105F0F0F856
:100BF00004F1A0000822832105F0EAF804F1A8001E
:100C000008228B2105F0E4F804F1B00008229321BA
:100C100005F0DEF804F1BA0002229B2105F0D8F8B5
:100C200004F1B80002229D2105F0D2F804F1BC00C5
:100C300002229F21BDE8104005F0CAB82DE9F0431B
:100C40008DB00DF11708814645466524204605F014
:100C50007DF801346D2C05F8010FF7D10DF11F0758
:100C60003D46204605F072F80134752C05F8010F59
:100C7000F7D10DF127063546204605F067F8013417
:100C80007D2C05F8010FF7D1204605F05FF88DF8AF
:100C900014007E2005F05AF88DF815007F2005F02D
:100CA00055F88DF81600802005F050F88DF81700E3
:100CB000812005F04BF88DF81200822005F046F8EF
:100CC000DDE90A458DF81300DDE90801DDE90623B9
:100CD000CDE90001CDE902454846FFF79BFDBDF88F
:100CE0001230BDF81620BDF814104846FFF75EFD1F
:100CF0008324204605F02AF801348B2C08F8010FD4
:100D0000F7D1204605F022F80134932C07F8010FA3
:100D1000F7D1204605F01AF801349B2C06F8010F94
:100D2000F7D1204605F012F88DF814009C2005F04C
:100D30000DF88DF815009D2005F008F88DF81600C7
:100D40009E2005F003F88DF817009F2004F0FEFFA9
:100D50008DF81200A02004F0F9FFDDE90A45DDE975
:100D6000086709F18809DDE906238DF81300CDE94C
:100D700002454846CDE90067FFF74CFDBDF812304B
:100D8000BDF81620BDF8141048460DB0BDE8F0437C
:100D9000FFF70CBD70B50446642004F0D7FF782837
:100DA00024D02046FFF748FE04F1880504F5A65636
:100DB00001224FF400412046FFF7D8FC01222846CB
:100DC0004FF40041FFF7D2FC308807F0E9FA024601
:100DD0000B462046FFF79AFC308807F0E1FA0246FE
:100DE0000B462846BDE87040FFF790BC2046FFF751
:100DF00025FFD6E72DE9F04F0378013B87B0064683
:100E00000D46072B17D8DFE813F00800330149001F
:100E1000260019005B0083000A0146680C68304612
:100E200008F02EFE236802465B683146204698474C
:100E30006B681844686007B0BDE8F08F0868AA4A7C
:100E400003681B68934240F059832D2006F0F8FB9D
:100E50006B681844686006AC0022736804F8032DC0
:100E6000A248A0FB0312D20802EB8201A3EB4103CC
:100E7000303304F8013D1346002AF2D12E68204693
:100E800008F0FEFD3368024621465B68304698470D
:100E90006B681844686007B0BDE8F08F0868746834
:100EA000934A036893495B68002C16BF11460522DC
:100EB000042298476B681844686007B0BDE8F08F5B
:100EC0000868894F036874681B68BB4240F013834D
:100ED0005B2006F0B5FB6B686468184468602CB949
:100EE00059E206F0ADFB6B6803446B60201D294698
:100EF000FFF780FF24682C20002C00F04C822A6829
:100F000013681B68BB42ECD010462C219847EAE7D7
:100F10000868754F036874681B68BB4240F0E8823C
:100F20007B2006F08DFB6B68D4F804801844686061
:100F3000B8F1000F00F02582D8F804602868002E70
:100F40005DD003681B68BB4240F00A82222006F095
:100F500077FB6B68013E03446B6016F8010FD8B154
:100F6000222800F0BE81644B03E05A78824200F0F0
:100F7000B9819C780233002CF7D12B681A6812686B
:100F8000BA4240F0CC8106F05BFB6B6818446860A5
:100F900016F8010F0028E3D1286803681B68BB42DC
:100FA00040F0DB81222006F04BFB6B68034428688D
:100FB0006B6003681B68BB422ED13A2006F040FBF1
:100FC0006B6803446B6008F108002946FFF712FFC5
:100FD000D8F80080B8F1000F00F0D38128680368CA
:100FE0001B68BB4240F0BF812C2006F029FB6B68D8
:100FF000D8F8046003446B602868002EA1D1036810
:101000003E495B68042298476B681844686028680A
:1010100003681B68BB42D0D03A219847D0E74668A6
:101020003146304608F01CF8002800F057820021B5
:10103000304608F01FF8002840F0CB8200213046EF
:1010400008F00EF800285DD13146304607F06CFDFF
:101050000146304608F004F8002853D02868284993
:10106000036808225B6898476B6818446860E2E68A
:1010700046680868002E00F0528203681A4F1B6809
:10108000BB4240F04782222006F0DAFA6B6818442F
:10109000013E686016F8010FD8B1222800F04381A4
:1010A000154B03E05A78824200F03E819C7802336F
:1010B000002CF7D12B681A681268BA4240F05D81A3
:1010C00006F0BEFA6B681844686016F8010F002835
:1010D000E3D1286803681B68BB4240F012822220DB
:1010E00006F0AEFAD4E600BFD1090000CDCCCCCCDE
:1010F000CC9E0000D49E0000EC9E0000E49E000008
:10110000FC9E0000A949304607F0C8FF002840F0C7
:10111000718104460021304607F0CAFF002863D0E1
:10112000A349304607F0B0FF00285DD000213046CB
:1011300007F0A0FF002840F064820021304607F04D
:1011400099FF002840F096820021304607F092FF78
:10115000002840F086829749304607F08BFF30B177
:101160003046954907F0E8FD203C064624B29349F5
:10117000304607F07FFF30B13046914907F0DCFD83
:10118000103C064624B28F49304607F073FF30B159
:1011900030468D4907F0D0FD083C064624B28B4905
:1011A000304607F067FF30B13046894907F0C4FD8B
:1011B000043C064624B28749304607F05BFF30B155
:1011C0003046854907F0B8FD023C064624B24FF090
:1011D0007E51304607F04EFF30B130467F4907F070
:1011E000ABFD013C064624B2304607F091FF804635
:1011F00007F04AFD0146304607F094FC784907F0B5
:101200009BFD064607F084FF074607F03DFD0146BB
:10121000304607F087FC014607F086FC07F078FFB0
:10122000704B07449F420DD908F10108002C00F0D3
:10123000DF81B8F1090F40F22682013424B2002781
:101240004FF0010806AE002306F8033D6649B1469B
:10125000A1FB0823DB0803EB8302A8EB4202303238
:1012600009F8012D9846DFF880A1002BF0D1D5F8C0
:1012700000B0484608F004FCDBF8003002465B682A
:101280004946584698476B6818446860002F40F0FC
:101290004F81002CC0F2BF813FF4CDAD2868534A86
:1012A00003681B68934240F0D581652006F0C8F9B9
:1012B0006B684F491844002368608DF8153081FB36
:1012C0000432E317C3EBA20202EB8203A4EB430355
:1012D000303314B206F8013D002CF0D130462C68B2
:1012E0009EE50446286803681B68BB4210D15C2059
:1012F00006F0A6F9D5F800E06B68DEF80020126869
:101300000344BA426B6006D1204606F099F93CE6E8
:101310005C219847EEE721467046904735E6014646
:101320001846904731E60446286803681B68BB42AC
:1013300020D15C2006F084F9D5F800E06B68DEF877
:10134000002012680344BA426B600FD1204606F0B9
:1013500077F96B6803446B609CE62221984724E68A
:1013600022219847F5E52C21984740E62146704612
:101370009047EEE75C219847DEE701461846904724
:10138000A0E6286803681B68BB4240F0C0807D204F
:1013900006F056F97CE5286803681B68BB4240F0FC
:1013A000B3805D2006F04CF972E500BF8096184BC3
:1013B000ACC52737B3CE010CAEC59D747D1D9026FC
:1013C000CA1B0E5A95BFD63320BCBE4C6F12833A4F
:1013D00000401C46CDCCCC3D0000C842000020415E
:1013E000002474493F420F00CDCCCCCCD109000081
:1013F00067666666A649304607F05AFE002800F088
:101400008C8030464FF0FF4107F04AFD4FF4807466
:1014100006469F49304607F04BFE38B130464FF044
:10142000FF4107F03DFD8034064624B2984930461E
:1014300007F03EFE38B130464FF0FF4107F030FD77
:101440004034064624B29349304607F027FE30B1B7
:101450003046904907F024FD2034064624B28E49D8
:10146000304607F01BFE30B130468B4907F018FDBF
:101470001034064624B28949304607F00FFE30B1D9
:101480003046864907F00CFD0834064624B28449EC
:10149000304607F003FE30B13046814907F000FDC9
:1014A0000434064624B27F49304607F0F7FD30B1D8
:1014B00030467C4907F0F4FC0234064624B27A49EF
:1014C000304607F0EBFD00283FF424AE3046764965
:1014D00007F0E6FC0134064624B21BE6286873498F
:1014E000036803225B6898476B6818446860A2E44D
:1014F0007B21984717E55B219847ECE42D2198471D
:10150000A6E422219847C3E45D219847C0E47D21E9
:101510009847BDE422219847B8E5044679E7036877
:1015200063495B68042298476B681844686082E4EA
:10153000AAFB0723DB0803EB8303B7EB430F5CD164
:10154000062002E0002900F08880AAFB0737FF0888
:10155000AAFB0712C3B2D208591E02EB8202C9B21B
:10156000B7EB420F48B2EDD0023B00225BB28DF8E0
:10157000072000283ED0DBB206AAC3EB020EDFF83C
:1015800040C1AEF1120E0DF10700ACFB0712D208FC
:1015900002EB8201A7EB4101303100F8011D7045DB
:1015A0001746F2D1DB430DF10702134403F1FF3874
:1015B0002E222F6803F8012C404608F061FA3B68A0
:1015C00002465B684146384698476B681844686035
:1015D0005FE62868374A03681B68934255D12D207F
:1015E00006F02EF86B68184406F10046686025E5A1
:1015F000274627E60DF10703D8E78DF80780052376
:10160000B9E730464FF0FF4107F096FBA4F5807430
:10161000064624B291E528682749036802225B68E0
:1016200098476B68254918440022644268608DF829
:10163000152081FB0432E317C3EBA20202EB820305
:10164000A4EB430404F1300306F8013D1446002ADC
:10165000EFD143E6652198472AE606AB03F8111D52
:10166000A4E730464FF0FF4107F066FB403C0646DA
:1016700024B270E530464FF0FF4107F05DFB803C3F
:10168000064624B260E50027DCE52D219847A9E74E
:10169000FFFF7F7FAEC59D74CA1B0E5A20BCBE4C97
:1016A00000401C460000C84200002041DC9E0000B3
:1016B000E49E0000D1090000E09E000067666666B7
:1016C000CDCCCCCC2DE9F04FAC4A4B1E82FB034273
:1016D000DB17C3EB62138FB0013313F0FF030593E5
:1016E00000F014830023A64D0391814602930493D6
:1016F00000244FF48076A34B0A934FF486700C9429
:101700000D9607F053FD00283BD008238360049B0F
:1017100004604FF4007204610AAC46600C900D92B4
:10172000C46000F10C0B002B00F04E84002C00F084
:101730007484236820461B681021984707460028B8
:1017400000F070840023DBF804600360037216B9B4
:1017500000F064BC1E463368002BFBD13760002FBD
:1017600000F04284884B7B60DBF80040874BFB60D5
:1017700002233B72DBF804604EBB002C40F0528326
:1017800060E3834B1B6813F0010400F0C383814BBB
:1017900093E85000049B002B40F0CF83002E00F014
:1017A0001184374603E03F68002F00F08983796891
:1017B000754807F0E9FF0028F5D1DFF8D8B1764B7E
:1017C000FB6002233B72DBF80460002ED5D0374665
:1017D00003E03F68002F00F0248379686F4807F02A
:1017E000D3FF0028F5D1039BFB6004233B72DBF899
:1017F0000460002E00F03D83374603E03F68002F71
:1018000000F0F1827968664807F0BEFF0028F5D144
:10181000059BFB6004233B72049BDBF804600133EF
:101820000493002E00F00284374603E03F68002F47
:1018300000F0B48279685B4807F0A6FF0028F5D174
:10184000049BFB6004233B72002C40F07C82564ECC
:101850003368DB0740F19C83DFF85CA1CDF818B05A
:1018600000230193C346029A019BD618039A9A4219
:10187000B6B200F0BD80DAF80040002C00F0D6814E
:10188000236808211B6820469847002800F0F4814F
:101890000023046043600446DAF8000038B10368AE
:1018A0000C211B68984710B1002303600371DAF81C
:1018B00004200AB9F0E11A461368002BFBD110602E
:1018C00040B12368002B16BFA34600230723C0F8AE
:1018D00008B00371D4F80480B8F1000F00F0B281B1
:1018E000474603E03F68002F00F0828179682F4867
:1018F00007F04AFF0028F5D109EB86020421D2F84F
:101900001C21FA603972D4F80480B8F1000F00F09D
:101910001282474603E03F68002F00F04881796853
:10192000234807F031FF0028F5D106F5AE62042107
:1019300039F81220FA603972D4F80480B8F1000F37
:1019400000F0F181474603E03F68002F00F00F816F
:101950007968184807F018FF0028F5D106F264727C
:10196000042139F81220FA603972D4F80480B8F1F1
:10197000000F00F0D081474624E000BF1F85EB51E7
:10198000D1090000C89E0000089F0000189F0000B9
:1019900030A5FF1F34A5FF1F0C9F0000209F0000F3
:1019A0002C9F0000389F00003CA5FF1F489F0000AF
:1019B0004C9F0000509F000040A5FF1F3F68002F74
:1019C00000F0B5807968A34807F0DEFE0028F5D165
:1019D0004E4496F9EC28002AAEBF0421524205215C
:1019E0003972FA60019B0133642B01937FF43BAFA2
:1019F0000023994A09937B20D8460892DDF818B055
:101A000005F01EFE099BDBF8046018440990002EC7
:101A100000F05D8177680898002F58D003681B6834
:101A2000AB4240F03681222005F00AFE099B013FBF
:101A30000344099317F8011FC9B1222957D0874BD6
:101A400002E05A788A4253D09C780233002CF8D1B5
:101A5000089803681B68AB4260D1084605F0F0FDAA
:101A6000099B1844099017F8011F0029E5D108982F
:101A700003681B68AB4240F00981222005F0E0FDBD
:101A8000099B03440898099303681B68AB422BD158
:101A90003A2005F0D5FD099B08A9034406F108008A
:101AA0000993FFF7A7F93668002E00F01081089817
:101AB00003681B68AB4240F0E6802C2005F0C0FDB7
:101AC000099B7768034409930898002FA6D10368FF
:101AD00063495B6804229847099B18440990089859
:101AE00003681B68AB42D3D03A219847D3E70C4632
:101AF000089803681B68AB4216D15C2005F0A0FD76
:101B0000DDF820E0099BDEF8002012680344AA42B9
:101B1000099305D1204605F093FDA1E798479FE77B
:101B20002146704690479BE75C219847E8E720688C
:101B300088B1036810211B6898470746002800F009
:101B40005C820021626801600172002A00F050820C
:101B5000904600E09846D8F80030002BFAD1C8F83B
:101B60000070002F3FF43EAF3A4A7A6030E72068B9
:101B700088B1036810211B6898470746002800F0C9
:101B800076820021626801600172002A00F06A8298
:101B9000904600E09846D8F80030002BFAD1C8F8FB
:101BA0000070002F3FF4E1AE2E4A7A60D6E620683E
:101BB00090B1036810211B6898478046002800F008
:101BC0004F820023626803600372002A00F0B7802E
:101BD0004746904600E09846D8F80030002BFAD1EE
:101BE000C8F80070002F3FF4A7AE1F4A7A609CE649
:101BF0002068002800F08D80036810211B6898473A
:101C00008046002800F0FB810023616803600372B6
:101C1000D9B1474600E019460B68002BFBD10F6095
:101C2000002F3FF470AE114A7A6065E6104B1B68D6
:101C300013F0010433D00F4CD4F80480B8F1000F36
:101C40007FF44EAE20680028D6D1C4F80480474601
:101C5000E6E700BF589F00003C87FF1FEC9E000096
:101C6000E49E0000509F00004C9F0000489F000031
:101C700030A5FF1F34A5FF1F9E4B1B6813F0010406
:101C800019D09D4C08E62C21984719E72221984746
:101C9000F6E622219847C9E6CAF8040010E69548FE
:101CA00004F054F90028C6D0934B92481C605C6045
:101CB00004F052F9BFE78F4804F048F90028E0D05B
:101CC0008D4B8C481C605C6004F046F9D9E708989D
:101CD00003681B68AB4240F0F0807D2005F0B0FC4B
:101CE000864805F0A5FE0C98854B0A9328B1046838
:101CF00007F064FA2046002CF9D1029B059A643360
:101D00009BB20293049B9342FFF6F2AC0FB0BDE886
:101D1000F08F414680E7206800287FF40AAFC4F8BE
:101D2000048047461DE7206800287FF422AFC4F8EE
:101D30000480474635E7206800287FF43AAFC4F8AE
:101D4000048047464EE7236808211B6820469847D1
:101D5000002800F00A810023046043600746DBF896
:101D60000440002C00F00C81264603E03668002E6B
:101D700000F083807168634807F006FD0028F5D104
:101D80003B68002B079B18BF3B461A4607930CBFC6
:101D900000230623F260BA4633725FE5002C00F0A0
:101DA000E180236820461B681021984706460028DA
:101DB00000F048810022DBF80430026002720BB9A7
:101DC00037E113461A68002AFBD11E603746002E01
:101DD00000F035814C4B7360049BDBF80040FB60E6
:101DE00004233B7230E584B1236820461B68102130
:101DF00098470746002800F02D810023DBF8046097
:101E0000036003720EB920E11E463368002BFBD13C
:101E10003760002F00F0FD803C4B7B60DBF800401A
:101E2000F6E4CCB1236820461B681021984707468A
:101E3000002800F012810023DBF8046003600372C5
:101E400056B93E463746CBF804605FB1304B7B60F5
:101E5000DBF80040C7E41E463368002BFBD1376037
:101E6000002FF3D1DBF80460DBF80040002E7FF494
:101E7000C3AC002C00F0EA80B6E7DBF800000028D5
:101E800000F0C480036810211B68984704460028AE
:101E900000F0B9800022DBF80430026002720BB956
:101EA00073E013461A68002AFBD11C60002C00F076
:101EB000A880144B6360264662E77D2198470FE7B0
:101EC000DFF834B084B1236820461B68102198479E
:101ED0000746002800F085800023DBF804600360DB
:101EE00003720EB974E01E463368002BFBD13760D5
:101EF00070E000BF30A5FF1F34A5FF1F3C87FF1F08
:101F0000C89E0000409F0000389F00002C9F0000EA
:101F1000209F0000574804F019F800283FF437AC20
:101F2000554B54481C605C6004F016F8524B93E823
:101F30005000049B002B3FF431ACDFF83CB1002E85
:101F40003FF4F4AB374679684C4807F01DFC002895
:101F50003FF40CAC3F68002FF5D1002C7FF4E9ABC7
:101F6000FFF7F9BB334626462CE7454E336813F09E
:101F700001041BD0DBF80440424F002C7FF4F4AE88
:101F8000DBF8000000287FF47DAFCBF804408DE73C
:101F9000304603F0DBFF00283FF45EAC394B30469F
:101FA0001C605C609A4603F0D7FF57E4304603F0AC
:101FB000CDFF0028DED0334F30463C607C6003F01C
:101FC000CBFFCCE6DFF8B0B0002C7FF47CAF274627
:101FD000CBF8047047B1294B7B60DBF80040FFF77A
:101FE000EEBBDBF804607CE7DBF80040FFF7EBBBFF
:101FF000B846C4F804804746B3E56268A5E5616861
:1020000006E6BA462AE4DBF8043048E723463446BD
:1020100048E7DBF80040FFF7FFBB2746CBF804702A
:10202000FFF79DBBDBF80460FFF791BB002C7FF44A
:10203000B8AECBF804603746002E7FF4CBAEDBF8A9
:10204000004001E4DBF80430B9E63E46CBF804601A
:102050003746DEE6DBF80460D4E6DBF80460EFE642
:102060006268B2E5B846C4F80480474699E56268FC
:102070008BE500BF30A5FF1F34A5FF1F089F0000A0
:102080003CA5FF1F40A5FF1F2DE9F04186B0054686
:10209000DFF8BC82CDF8088000264FF480774FF43B
:1020A00086700496059707F081F8002800F0CE812D
:1020B00008230DEB03044FF400728360964B066116
:1020C00080E8C00004900592C46000F10C06204630
:1020D00010219847044610B100230360037273680F
:1020E0000BB9D1E113461A68002AFBD11C602CB150
:1020F0008A4B63608A4BE360022323727768002F68
:1021000000F0EB813C4603E02468002C00F04381A2
:102110006168844807F038FB0028F5D10222824B21
:102120002272E3607768002F00F0D2813C4603E022
:102130002468002C00F04E8161687C4807F024FB85
:102140000028F5D102227A4B2272E3607768002FD3
:1021500000F0BA813C4603E02468002C00F0568170
:102160006168744807F010FB0028F5D10222724B19
:102170002272E3607768002F00F0A1813C4603E003
:102180002468002C00F0E68061686C4807F0FCFAD7
:102190000028F5D105F5A655694A2B88E360002390
:1021A0008DE80C00042121727B2005F049FA019B87
:1021B0007768644E18440190002F00F094807D6889
:1021C0000098002D54D003681B68B34240F085800E
:1021D000222005F035FA019B013D0344019315F8D7
:1021E000010FC0B1222853D0574B02E05A788242E7
:1021F0004FD09C780233002CF8D1009B1A681268EB
:10220000B2425CD105F01CFA019B1844019015F80C
:10221000010F0028E6D1009803681B68B3425FD124
:10222000222005F00DFA019B0344009801930368F6
:102230001B68B34229D13A2005F002FA019B694696
:10224000034407F108000193FEF7D4FD3F68002F17
:1022500049D0009803681B68B3423BD12C2005F09D
:10226000EFF9019B7D68034401930098002DAAD1EA
:10227000036836495B6804229847019B1844019023
:10228000009803681B68B342D5D03A219847D5E738
:102290000446009803681B68B34218D15C2005F01F
:1022A000CFF9DDF800E0019BDEF80020126803445E
:1022B000B242019307D1204605F0C2F9A4E70146D6
:1022C00018469047A0E72146704690479CE75C215E
:1022D0009847E6E72C219847C3E7222198477AE7F9
:1022E000222198479FE7009803681B68B34240F09B
:1022F000AA807D2005F0A4F9114805F099FB049807
:10230000CDF8088028B1046806F058FF2046002C5C
:10231000F9D106B0BDE8F0817D090000089F0000FA
:102320005C9F0000689F00006C9F0000809F000081
:10233000889F0000909F00009C9F0000A49F0000C9
:102340003C87FF1FD1090000EC9E0000E49E0000C6
:10235000C89E00003068A0B1036810211B68984730
:102360000446002800F0A980002377680360037208
:102370003FB927463C4677604CB15A4B636009E74A
:102380001F463B68002BFBD13C60002CF5D1564B1F
:102390008DE8180008E73068002800F085800368A1
:1023A00010211B6898470746002800F0848000220F
:1023B00073680260027243B97760002F3FF4B2AED7
:1023C0004A4B7B603C46A9E613461A68002AFBD1BB
:1023D0001F60F2E73068002864D0036810211B6892
:1023E00098470446002864D0002273680260027295
:1023F0003BB97460002C3FF4A9AE3D4B6360A1E68D
:1024000013461A68002AFBD11C60F3E73068A8B1B4
:10241000036810211B6898470446002847D0002312
:102420007768036003724FB9274677603C46002CFB
:102430003FF4A0AE2F4B636098E61F463B68002B2D
:10244000FBD13C60F3E77D21984755E72A4F3B6875
:1024500013F001041AD0294E746814B909E02468F5
:102460003CB16168264807F08FF90028F7D1234E68
:1024700040E634681CB12368204E1B6827E61F4ED7
:102480007368002B7FF42FAE746030E6384603F09B
:102490005DFD1A4E0028DFD038463460746003F0CA
:1024A0005BFDD9E73B46ACE73B4627468DE77768BF
:1024B000B9E773689CE773687DE7776858E7306829
:1024C00000283FF457AF47E730680028ADD09FE7BA
:1024D0003068002881D104468BE7306800283FF43B
:1024E0006BAF5CE7A49F00003C87FF1F689F000064
:1024F000809F0000909F000030A5FF1F34A5FF1FA4
:10250000089F00002DE9F04786B00646DFF81083EB
:10251000CDF8088000254FF480774FF4867004953D
:10252000059706F043FE002800F08F8508230DEB89
:1025300003044FF400728360AC4B049080E8A00069
:1025400005610592C46000F10C07204610219847F0
:10255000044610B10023036003727B6813B900F0D6
:1025600097BD13461A68002AFBD11C602CB1A04B02
:102570006360A04BE360022323723C68002C40F0B0
:10258000A783DFF8A092D9F8003013F0010400F01F
:10259000FF85994B1D689946002D40F0C283DFF8F6
:1025A00088A2964CDAF80030DB0740F19985D4F820
:1025B00004A0BAF1000F00F0E683554603E02D6851
:1025C000002D00F0FD8369688D4807F0DDF80028D4
:1025D000F5D1042201232A72EB60D4F804A0BAF1E9
:1025E000000F00F0AC86554603E02D68002D00F08A
:1025F00005846968834807F0C7F80028F5D1D6E953
:10260000000106F03BFA0823E8602B72D4F804A01E
:10261000BAF1000F00F08E86554603E02D68002DBC
:1026200000F00F846968784807F0AEF80028F5D10B
:10263000D6E9060106F022FA0823E8602B72D4F8E6
:1026400004A0BAF1000F00F07086554603E02D6833
:10265000002D00F0188469686C4807F095F8002890
:10266000F5D1D6E9080106F009FA0823E8602B72D3
:10267000D4F804A0BAF1000F00F05286554603E0EA
:102680002D68002D00F022846968614807F07CF80D
:102690000028F5D1D6E90A0106F0F0F90823E86030
:1026A0002B72D4F804A0BAF1000F00F0348655461E
:1026B00003E02D68002D00F02B846968554807F071
:1026C00063F80028F5D1738EEB6004232B72D4F8E5
:1026D00004A0BAF1000F00F01986554603E02D68FA
:1026E000002D00F03A8469684B4807F04DF8002847
:1026F000F5D1338EEB6004232B72D4F804A0BAF129
:10270000000F00F0FE85554603E02D68002D00F017
:1027100046846968414807F037F80028F5D1B6F9D2
:102720003430002BAEBF04225B4205222A72EB60DC
:10273000D9F80050002D40F09482DFF8EC902F4C37
:10274000D9F8003013F0010500F00385D4F80490A7
:10275000B9F1000F00F0B7824D4603E02D68002D5F
:1027600000F043846968264807F00EF80028F5D188
:10277000042202232A72EB60D4F80490B9F1000F0E
:1027800000F0BB854D4603E02D68002D00F0EC8184
:1027900069681C4806F0F8FF0028F5D1D6E9220147
:1027A00006F06CF90823E8602B72D4F80490B9F1B4
:1027B000000F00F09E854D4603E02D68002D00F0CF
:1027C000F1816968104806F0DFFF0028F5D1D6E9ED
:1027D000280106F053F90823E8602B72D4F804901E
:1027E000B9F1000F00F081854D4623E07D0900001E
:1027F000089F0000AC9F000040A5FF1F34A5FF1FED
:10280000B89F0000BC9F0000C89F0000CC9F000044
:10281000D09F0000D49F0000D89F0000DC9F0000E4
:10282000C89E00003CA5FF1F30A5FF1F2D68002D8E
:1028300000F0D6816968A54806F0A6FF0028F5D10A
:10284000D6E92A0106F01AF90823E8602B72D4F8B9
:102850000490B9F1000F00F008854D4603E02D68A3
:10286000002D00F0DB816968994806F08DFF002893
:10287000F5D1D6E92C0106F001F90823E8602B72A6
:10288000D4F80490B9F1000F00F02B854D4603E019
:102890002D68002D00F02C8169688E4806F074FFC9
:1028A0000028F5D1B6F8BA30EB6004232B72D4F8C7
:1028B0000490B9F1000F00F010854D4603E02D683B
:1028C000002D00F033816968834806F05DFF002821
:1028D000F5D1B6F8B830EB6004232B72D4F804902D
:1028E000B9F1000F00F0ED844D4603E02D68002D96
:1028F00000F0CD806968794806F046FF0028F5D1E0
:10290000B6F9BC307649002BACBF042205222A72EE
:102910004FF000028DE80600B8BF5B42EB607B2001
:1029200004F08EFE019B7F686E4E18440190002FCC
:1029300000F094807D680098002D54D003681B68D7
:10294000B34240F08580222004F07AFE019B013DD5
:102950000344019315F8010FC0B1222853D0624BF4
:1029600002E05A7882424FD09C780233002CF8D192
:10297000009B1A681268B2425CD104F061FE019BB0
:102980001844019015F8010F0028E6D1009803685B
:102990001B68B3425FD1222004F052FE019B034426
:1029A0000098019303681B68B34229D13A2004F0D0
:1029B00047FE019B6946034407F108000193FEF7B7
:1029C00019FA3F68002F49D0009803681B68B3428A
:1029D0003BD12C2004F034FE019B7D68034401931D
:1029E0000098002DAAD1036840495B6804229847EB
:1029F000019B18440190009803681B68B342D5D02E
:102A00003A219847D5E70446009803681B68B3420B
:102A100018D15C2004F014FEDDF800E0019BDEF824
:102A2000002012680344B242019307D1204604F00B
:102A300007FEA4E7014618469047A0E721467046E6
:102A400090479CE75C219847E6E72C219847C3E72D
:102A5000222198477AE7222198479FE70098036848
:102A60001B68B34240F00C837D2004F0E9FD1C4854
:102A700004F0DEFF0498CDF8088028B1046806F061
:102A80009DFB2046002CF9D106B0BDE8F0872068F8
:102A9000002800F04A83036810211B68984781468C
:102AA000002800F017840022636802600272002B85
:102AB00000F00B841A684D46002A40F038831D60F0
:102AC000002D00F09983054B6B6019E7CC9F000047
:102AD000D09F0000D49F0000D89F0000DC9F000022
:102AE0003C87FF1FD1090000EC9E0000E49E00001F
:102AF000206878B1036810211B68984705460028B4
:102B000000F0DD830022636802600272002B00F097
:102B1000D1839946D9F80030002BFAD1C9F800507A
:102B2000002D3FF4C4AE9E4B6B60BBE6206878B1CD
:102B3000036810211B6898470546002800F0B883F9
:102B40000022636802600272002B00F0AC83994699
:102B5000D9F80030002BFAD1C9F80050002D3FF40D
:102B6000BDAE904B6B60B4E6206878B1036810216D
:102B70001B6898470546002800F09383002263688D
:102B800002600272002B00F087839946D9F800306A
:102B9000002BFAD1C9F80050002D3FF406AE824B4D
:102BA0006B60FBE5206878B1036810211B689847CB
:102BB0000546002800F06E830022636802600272FE
:102BC000002B00F062839946D9F80030002BFAD12F
:102BD000C9F80050002D3FF401AE744B6B60F6E570
:102BE000206878B1036810211B68984705460028C3
:102BF00000F049830022636802600272002B00F03B
:102C00003D839946D9F80030002BFAD1C9F800501D
:102C1000002D3FF41CAE664B6B6011E62068002867
:102C200000F0D582036810211B6898478146002870
:102C300000F022830022636802600272002B00F021
:102C400018831A684D46002A40F0C3821D60A946C9
:102C5000B9F1000F3FF414AE564BC9F804304D469D
:102C600007E62B6808211B6828469847002800F0D3
:102C700067820023056043600446D9F8000038B13C
:102C800003680C211B68984710B10023036003718F
:102C9000D9F804200AB950E21A461368002BFBD178
:102CA000106000283FF452AD2368002B13BF22466A
:102CB00000220023072382600371D4F80490B9F145
:102CC000000F7FF449AD2068002800F0AF828EE14C
:102CD000236808211B6820469847002800F0468298
:102CE00000230460436081467D68002D00F0498226
:102CF0002C4603E02468002C00F0968161682E4881
:102D000006F042FD0028F5D1D9F80050002D15BF7E
:102D1000062200224B4600232272E360002D3FF47E
:102D20003EAC2B6808211B6828469847002800F015
:102D3000B8810023056043600446D9F8000038B12B
:102D400003680C211B68984710B1002303600371CE
:102D5000D9F804200AB9A1E11A461368002BFBD167
:102D6000106000283FF423AC2368002B13BF2246D9
:102D700000220023072382600371D4F804A0BAF173
:102D8000000F7FF41AAC2068E0B9C4F804A0BAF1CF
:102D9000000F3FF422AC094BCAF80430554618E442
:102DA000D49F0000D89F0000BC9F0000C89F000077
:102DB000CC9F0000D09F0000AC9F0000B89F000097
:102DC000206898B1036810211B6898478246002844
:102DD00000F049820022636802600272002BD4D0A6
:102DE00055469A46DAF8003023B19A46DAF80030B0
:102DF000002BFAD1CAF80050AA46C8E72068C8B12B
:102E0000036810211B6898478246002800F0298239
:102E10000022636802600272002B40F01F82C4F837
:102E200004A05546002D3FF4F1ABA24B6B60FFF7B9
:102E3000E6BB9A46DAF80030002BFAD1CAF8005007
:102E4000F0E72068C0B1036810211B689847054669
:102E5000002800F001820022636802600272AA4624
:102E60004BB9C4F804A05546002D3FF4E8AB924B93
:102E70006B60FFF7DDBB9A46DAF80030002BFAD121
:102E8000CAF80050F0E72068C8B1036810211B6839
:102E900098478246002800F0DD81002263680260C6
:102EA0000272002B40F0D381C4F804A05546002DD7
:102EB0003FF4DEAB814B6B60FFF7D3BB9A46DAF889
:102EC0000030002BFAD1CAF80050F0E72068C0B1FA
:102ED000036810211B6898470546002800F0B5815B
:102EE0000022636802600272AA464BB9C4F804A0CB
:102EF0005546002D3FF4D5AB714B6B60FFF7CABB55
:102F00009A46DAF80030002BFAD1CAF80050F0E700
:102F10002068002800F0BF80036810211B689847D4
:102F20008246002800F08F810022636802600272EE
:102F300063B9C4F804A05546BAF1000F3FF4C7AB1B
:102F4000604BCAF80430FFF7BEBB13461A68002A6C
:102F5000FBD1C3F800A05546EEE72068C0B1036876
:102F600010211B6898470546002800F06A8100225E
:102F7000636802600272AA464BB9C4F804A05546C1
:102F8000002D3FF4BAAB504B6B60FFF7B2BB9A46D3
:102F9000DAF80030002BFAD1CAF80050F0E72068C8
:102FA000D8B1036810211B6898478246002800F0BA
:102FB00046810022636802600272002B40F03C816F
:102FC000C4F804A0BAF1000F3FF4B2AB3F4BCAF80B
:102FD00004305546FFF7A3BB9A46DAF80030002BC1
:102FE000FAD1CAF80050AA46ECE7206878B1036825
:102FF00010211B6898470546002800F01B8100221D
:10300000636802600272002B00F00F819946D9F8C4
:103010000030002BFAD1C9F80050002D3FF4ACABC2
:103020002B4B6B60FFF7A4BB3868002800F0FA80D8
:10303000036810211B6898470546002800F0E180CE
:1030400000227B6802600272DCE0224F3B6813F0D2
:1030500001045ED0204D6C6814B90AE0246844B1C4
:1030600061681E4806F090FB0028F7D11A4FFFF761
:1030700080BA2C683CB12368174F1B68FFF765BA0C
:103080007D219847F3E4144F7B68002B7FF46AAAF4
:103090007C60FFF76BBA5346AA4657E7C9F80400AD
:1030A0005FE6DFF830A0DAF8003013F0010524D035
:1030B000094C42E6BC9F0000C89F0000CC9F000066
:1030C000D09F0000D49F0000D89F0000DC9F00002C
:1030D000B89F000030A5FF1F34A5FF1F089F000008
:1030E000504602F033FF00283FF461AA50462560A5
:1030F000656002F031FFFFF75ABA504602F026FF32
:103100000028D5D0904C50462560656002F024FF21
:1031100013E6384602F01AFF8B4D00289BD0384644
:103120002C606C6002F018FF95E74B4600E01346F8
:103130001A68002AFBD11D60C2E4C9F80400B0E59A
:10314000DFF818A2DAF8003013F0010548D07E4C01
:1031500093E5484602F0FAFE00283FF4F7AA4846F5
:103160002560656002F0F8FEFFF7F0BA774D2B6836
:1031700013F001041CD07D68DFF8D491002D7FF49A
:10318000B7AD386800287FF453AF7D602C4641E02E
:10319000484602F0DBFE00283FF4FBA96C4D484690
:1031A0002C606C60A94602F0D7FE2D68FFF7F4B9D9
:1031B000284602F0CBFE0028DDD0DFF894912846A7
:1031C000C9F80040C9F8044002F0C6FE8CE54B4641
:1031D00000E013461A68002AFBD11D60A94637E5B6
:1031E000504602F0B3FE0028B1D0574C504625603F
:1031F000656002F0B1FE40E5564B8DE82800FFF710
:103200008EBB7B680BB9C0E713461A68002AFBD156
:103210001D602C4615B1504B6B6075E5D9F8005018
:10322000FFF7BAB92B462546EFE7A946C4F8049044
:103230004D46F2E66368E6E655469A46CDE6636893
:10324000BBE6636897E6636872E663684CE65546DA
:103250009A4634E6636824E6636800E655469A4673
:10326000E8E56368D8E56368B8E5206800287FF47E
:10327000D9ACC4F80490EBE46368DFE4A946C4F871
:1032800004904D46C4E46368B8E4A946C4F80490C9
:103290004D469FE4636893E4A946C4F804904D4604
:1032A0007AE463686EE4A946C4F804904D4655E498
:1032B000636849E4A946C4F804904D4630E4636865
:1032C00024E4206800287FF4E6ABC4F804904D465F
:1032D000FFF7F6BB6368FFF7EABB20680028E3D07E
:1032E00026E420680028E6D004E420680028C6D040
:1032F00078E420680028C9D056E420680028CCD0A3
:1033000034E4206800287FF44CAE59E62068002899
:103310007FF425AE31E6206800287FF4FDAD08E695
:10332000206800287FF4D4ADE0E5206800287FF411
:10333000ACADB9E5206800287FF485AD91E5206843
:1033400000287FF45DAD6AE534A5FF1F3CA5FF1F93
:1033500040A5FF1F3C87FF1FAC9F000030A5FF1F4B
:1033600003681A78093A262A27D8DFE802F01A1AE1
:1033700026261A26262626262626262626262626F9
:1033800026262626261A26262626262626262626E9
:103390002626262614005A782A2A0FD02F2A07D04C
:1033A0007047591C01605A780B46DBE70A2AF8D0AF
:1033B000013303601A78002AF8D17047591C4A1C5F
:1033C00002604B78002BF8D02A2B01D01146F6E78B
:1033D00053782F2BFAD1CB1C0360CA78C2E700BF09
:1033E0002DE9F04F056885B081465DB32A68082154
:1033F00012682846904728B30022056042600446C0
:1034000009F104063046FFF7ABFFD9F80420117824
:103410007B291FD0B74E336813F0010503D0B6489F
:1034200005B0BDE8F08F304602F090FD0028F6D0E0
:10343000B14C30462560656002F08EFD204605B037
:10344000BDE8F08FAB4E326812F0010500F0C98084
:10345000A94CD5E70132C9F804203046FFF780FFB8
:10346000D9F8042011787D2900F0EA8047F6ED783C
:1034700001943046D9F80850FFF772FFD9F80420BC
:103480001078272879D0222877D020F02003413BDC
:10349000A0F12B01192BC9B262D90E2928FA01F328
:1034A0005CD9D9F8083000245A1CC9F808201C70CF
:1034B000002DAFD03046FFF753FFD9F804301A780B
:1034C0003A2AA7D199F80C200133C9F80430002A10
:1034D000A0D0013A89F80C203046FFF741FFD9F817
:1034E00004301F785B2F00F0E4807B2F40F0AF802A
:1034F0004846FFF775FF03688246002B00F06181A4
:103500004FF0070B99F80C30013389F80C30019B10
:103510005F683C461FB9BCE12468002C6ED061682E
:10352000284606F031F90028F6D184F808B0C4F82E
:103530000CA03046FFF714FFD9F8042013787D2B38
:103540007DD03046FFF70CFFD9F804301A782C2ACA
:103550007FF460AF0133C9F804308AE7DC07A0D5F7
:10356000D9F808300132591CC9F80420C9F80810EC
:103570001870D9F80420107887E7571CC9F8047030
:103580005378002B8DD002329842C9F8042012D112
:1035900087E7D9F80820511CC9F808101370D9F82A
:1035A00004703B78002B3FF47CAF7A1C9842C9F83A
:1035B00004203FF476AF5C2BEBD17B784F49622B34
:1035C00002D10CE093420AD011F8022F002AF9D15F
:1035D000002B3FF466AF0237C9F80470D9E74B7887
:1035E000F6E7304602F0B2FC00283FF431AF424C1F
:1035F00030462560656002F0AFFC01E7019B18686A
:10360000002800F0C980036810211B68984707460E
:10361000002800F07282019A00235168036003724F
:10362000002900F03B813C4600E019460B68002B66
:10363000FBD10C60002C3FF4EDAE656075E7019C9A
:1036400001322046C9F8042005B0BDE8F08F272FCD
:103650001CBF223FB7FA87F7304614BF7F09012706
:10366000D9F808A0FFF77CFED9F8042010782728A5
:1036700052D0222850D020F02003413BA0F12B0152
:10368000192BC9B279D90E2928FA01F373D9D9F8BF
:1036900008300022591CC9F808101A70BAF1000F3E
:1036A00000F08F8097420CBF4FF0010B4FF0020BE0
:1036B00028E7D9F800703FB33B6808211B683846FB
:1036C000984708B30760446007463046FFF748FE56
:1036D000D9F804301A785B2A79D0094B1B6813F0AB
:1036E00001075BD0074F3B68002B6AD0BA464FF00A
:1036F000060B07E730A5FF1F34A5FF1FF09E000053
:103700003CA5FF1F40A5FF1FBA4B1B6813F0010724
:1037100000F0C880B84FD8E7541CC9F8044053786B
:10372000002BB4D002328342C9F8042010D1AEE796
:10373000D9F80820511CC9F808101370D9F80440B2
:103740002378002BA3D0621C9842C9F804209ED095
:103750005C2BEDD16378A949622B02D11AE0934228
:1037600018D011F8022F002AF9D1002B8FD0023483
:10377000C9F80440DCE7DB0789D5D9F80830013205
:10378000591CC9F80420C9F808101870D9F8042089
:10379000107870E74B78E8E7394647E7954802F03C
:1037A000D5FB00289ED0944B92481F605F6002F0CA
:1037B000D3FB914F97E70133C9F804303B68002BE6
:1037C00094D199F80C20013289F80C2022E60133BB
:1037D000C9F804303046FFF7C3FDD9F804301A7831
:1037E0005D2AE8D099F80C30002B3FF476AF013B0E
:1037F00089F80C303046FFF7B3FDD9F8043093F860
:1038000000A0BAF15B0F60D0BAF17B0F40F0858069
:103810004846FFF7E5FD03680446002B00F077817A
:103820004FF0070A99F80C30013389F80C303868EA
:1038300038B103680C211B68984710B1002303605E
:1038400003717A680AB93AE01A461368002BFBD173
:10385000106000283FF441AF80F804A08460304637
:10386000FFF77EFDD9F804301A785D2A29D030465A
:10387000FFF776FDD9F8042013782C2B7FF42DAFB9
:1038800099F80C300132C9F80420002B3FF425AF21
:10389000ADE7019B186800287FF4B5AE019B3C465C
:1038A0005F60C7E6534802F051FB00283FF432AF97
:1038B000514B50481F605F6002F04EFB2AE7786072
:1038C000C7E70133C9F804300DE7D9F80040002CF0
:1038D00000F0FC80236808211B68204698470028D8
:1038E00000F0F48000230460436004463046FFF794
:1038F00037FDD9F804301A785B2A00F09D803D4BE3
:103900001B6813F0010400F089803B4C2368002BF6
:1039100000F0FD804FF0060A84E7BAF1270F1CBFC4
:10392000AAF1220ABAFA8AFA304614BF4FEA5A1AA2
:103930004FF0010AD9F80840FFF712FDD9F804202A
:1039400092F800E0BEF1270F30D0BEF1220F2DD04B
:103950002EF020014139AEF12B031929DBB216D923
:103960000E2B28FA03F110D9D9F808300022591C7F
:10397000C9F808101A70002C00F0C98092450CBFDD
:103980004FF0010A4FF0020A4CE7C907ECD5D9F80D
:1039900008300132591CC9F80420C9F8081083F80E
:1039A00000E0D9F8042092F800E0D1E7501CC9F8F3
:1039B00004005378002BD7D002329E45C9F804206A
:1039C00010D1D1E7D9F80820511CC9F8081013709C
:1039D000D9F804000378002BC6D0421C9E45C9F8D4
:1039E0000420C1D05C2BEDD143780449622B09D16E
:1039F00012E000BF3CA5FF1F40A5FF1FF09E000086
:103A0000934209D011F8022F002AF9D1002BABD034
:103A10000230C9F80400D5E74B78F7E7414802F0D7
:103A200095FA00283FF471AF3F4B3E481C605C6044
:103A300002F092FA3C4C69E70133C9F80430304691
:103A4000FFF78EFCD9F804301A785D2A58D00DF1B2
:103A5000080B4FF0000A594648468DF808A000F0C0
:103A600065F800283FF44BAF2068002837D0036882
:103A70000C211B689847034618B1C0F800A080F8D5
:103A800004A062680AB928E00A4611680029FBD13F
:103A90001360002B3FF433AF9BE80300043383E84B
:103AA00003003046FFF75CFCD9F804301A785D2A31
:103AB00033D03046FFF754FCD9F804301A782C2A5A
:103AC0007FF41DAF0133C9F80430C4E7154B1B6800
:103AD00013F0010405D0144C08E76360D9E70346EE
:103AE000CFE7104802F032FA0028F4D00E4B0D4810
:103AF0001C605C6002F030FAEDE7019B59688FE5CD
:103B00000133C9F804302368002B7FF403AF99F820
:103B10000C30013389F80C30DFE50133C9F804308B
:103B2000F4E600BF3CA5FF1F40A5FF1F2DE9F043B1
:103B3000057B83B01DB9284603B0BDE8F083044679
:103B4000013D071D057338460E46FFF709FC636803
:103B50001D785B2D4BD07B2D33D0272D1CBF223DF4
:103B6000B5FA85F5384614BF6D090125A768FFF73A
:103B7000F7FB6068017827295ED022295CD047F6E0
:103B8000ED7E21F02003413BA1F12B02192BD2B293
:103B900024D90E2A2EFA02F31ED9A3680022591C3A
:103BA000A1601A70002F00F08780002D75D10125CB
:103BB00077603570237B28460133237303B0BDE85B
:103BC000F0832046FFF70CFC0368002B74D007231A
:103BD000706033700125EDE7DB07DED5A3680130A7
:103BE0005A1C6060A260197060680178C9E7256896
:103BF000002D63D02B6808211B68284698470028B1
:103C00005CD000230560436005463846FFF7A8FBFB
:103C100063681A785B2A5AD0DFF874815A4DD8F855
:103C2000003013F001073CD02B68002B44D0062352
:103C3000756033700125BDE700F1010EC4F804E0A2
:103C40004378002BA9D002308B4260600FD1A4E7EB
:103C5000A268501CA0601370D4F804E09EF80030F5
:103C6000002B9AD00EF101029942626095D05C2B34
:103C7000EED19EF801304548622B02D10BE0934211
:103C800009D010F8022F002AF9D1002B85D00EF1AF
:103C900002026260DCE74378F7E702237760337063
:103CA00088E7404602F052F90028BDD040462F6018
:103CB0006F6002F051F9B7E700257BE7DFF8D080AD
:103CC000D8F8003013F001054BD02F4D9DE701339C
:103CD00063603846FFF744FB63681A785D2A3BD07F
:103CE000E8464FF00009414620468DF80090FFF766
:103CF0001DFF002890D0286888B303680C211B683A
:103D00009847864618B1C0F8009080F804906A6819
:103D10000AB936E01A461368002BFBD1C2F800E05E
:103D2000BEF1000F3FF478AF98E803000EF1040EE7
:103D30008EE803003846FFF713FB63681A785D2AA4
:103D40000AD03846FFF70CFB63681A782C2A7FF4F8
:103D500063AF01336360C6E70133636064E786469F
:103D6000D5E7404602F0F2F80028AED0DFF8189010
:103D70004046C9F80050C9F8045002F0EDF84D462D
:103D800043E7C5F804E0CBE740A5FF1FF09E000025
:103D90003CA5FF1F436810B523B149B11B68013929
:103DA000002BFAD10C4B1B68DB0706D50B4810BD66
:103DB0001A79072AF6D1986810BD074802F0C6F8AC
:103DC0000028F3D0054C044800232360636002F010
:103DD000C3F8204610BD00BF30A5FF1F34A5FF1F4C
:103DE00038B5446894B10D4601E0246874B1616847
:103DF000284605F0C9FC0028F7D1237A052B23D8E3
:103E0000DFE803F003090920200638BD002038BD93
:103E1000E068404238BDE268002AF6D01378742B7F
:103E20002CD02B2B28D02D2B12D101245378A3F189
:103E30003001092902F1010210D90020002CE4D040
:103E4000404238BDE06838BDE06805F03BF938BD58
:103E5000A3F13001092998BF0024D6D8303B0020B7
:103E600012F8011F00EB800003EB4000A1F13003CA
:103E7000D9B20929F4D9E1E70024D7E7012038BDF8
:103E8000002800F01F812DE9F04F03782B2B83B021
:103E900000F0AC802D2B00F09A800022742B019250
:103EA00000F09D8003F0DF024E2A00F00481492AD1
:103EB00000F0A280A3F13002092A00F27E810FF205
:103EC0002839D9E9008900220024002510E02419AE
:103ED0006D41AF00A60047EA9477A4197D41E4182C
:103EE00045EBE37510F8013FA3F1300109290DD826
:103EF000A04579EB0501A3F13003E8DA10F8013FA2
:103F0000A3F130010132092912B2F1D92E2B7FD051
:103F1000017801F0DF01452900F0A58000239E18FB
:103F20002046294604F084FA002EC0F2E280F7070A
:103F30004CBFBB4BBB4B002204F0A8FAB5074CBFEB
:103F4000B94BB84B002204F0A1FA740740F1BC80D1
:103F50009DA3D3E9002304F099FA320740F1BA8017
:103F60009BA3D3E9002304F091FAF30640F1AF805C
:103F700099A3D3E9002304F089FAB70640F1AD8094
:103F800097A3D3E9002304F081FA75064CBFA74B31
:103F9000A44B002204F07AFA34064FF000024CBF22
:103FA000A24BA04B04F072FAF3054FF0000200F1AF
:103FB00097809C4B04F06AFA0A460199034611B3B4
:103FC00002F100421846114603B0BDE8F08F01230C
:103FD00001934378742B00F101007FF463AF914AA1
:103FE00000231846114603B0BDE8F08F002301936B
:103FF000EFE7BEF1000F75D18C4A8D49019800237F
:10400000984218BF0A461846114603B0BDE8F08F23
:104010004178A1F13003DEB2092E00F101003FF634
:1040200078AF71A7D7E90067A64277EB050110DBEF
:1040300024196D414FEA850B4FEA840A4BEA947BC1
:1040400014EB0A0445EB0B05013AE41845EBE37564
:1040500012B210F8011FA1F130035FFA83FEBEF126
:10406000090FE1D955E743782D2B00F083802B2BE6
:1040700000F0A080461C303BD9B209293FF64EAF74
:104080009918B1F59A7FB7DC4FF0000E05E001EB0F
:1040900047039918B1F59A7FABDC16F8011F303948
:1040A000C8B2092803EB8307F1D9BEF1000F3FF432
:1040B00036AF5B4233E75F4A00231846114603B030
:1040C000BDE8F08F014670470022564B43E70022BF
:1040D000544B50E70022534B45E70022514B52E727
:1040E000524B67E7019B002B6BD000234FF000423F
:1040F00089E77642F70757D53DA3D3E9002304F0BB
:10410000C5F9B5074DD53CA3D3E9002304F0BEF9AA
:10411000740743D53AA3D3E9002304F0B7F9320773
:1041200039D539A3D3E9002304F0B0F9F3063ED51D
:1041300037A3D3E9002304F0A9F9B70628D536A39D
:10414000D3E9002304F0A2F975064CBF0023354BD8
:10415000002204F09BF934064FF000024CBF00230C
:10416000304B04F093F9F3054FF000027FF521AFD7
:1041700000231FE78378303BD9B2092900F10206FA
:104180005AD8D118B1F59A7FACDC4FF0010E84E714
:104190000022244BD6E70022224BC5E70022214B08
:1041A000BBE700221F4BB1E700221E4BA7E700220E
:1041B0001C4BC0E7861C83785DE7002200240025A5
:1041C000A4E6019B1A461EE7000000000088C340D9
:1041D0000000000084D797410000004079C34143AC
:1041E000000000C0B5B89346989999999999010033
:1041F000000000A09999B93F00000040E17A843F97
:10420000000000E0E2361A3F000000E08E79453EF3
:10421000000000A0B2D29C3C000000E023F6493927
:10422000000024400000F03F000059400000F07FF3
:104230000000F0FF0000F87F00233AE72DE9F04F7F
:10424000A94FAA4D3B6891B041F2C822079300F5EF
:104250009656079B8350B04600214FF48072044667
:104260000B3608F1080808950A910B923A680692F5
:10427000069AD31AB3F5FA6F09D316E03B68069392
:10428000069BD8F800209B1AB3F5FA6F0DD203F005
:1042900029F90028F2D003F0E9F8C0B20D2806F899
:1042A000010F15D0D8F80030E0E70721904803F05F
:1042B00043F9904803F0BCFB0A98089528B10468BC
:1042C00004F07CFF2046002CF9D111B0BDE8F08F3E
:1042D00004F596530C3308A90A220CA80D930E93EB
:1042E0000C918DF83C20FFF77BF803680490002BBD
:1042F00000F0D080049BD3F80490B9F1000F52D0A5
:104300004E4602E03668002E4DD071687A4805F0BE
:104310003BFA0028F6D1337A012B00F0AC80022B57
:1043200000D1F06875498046404605F02DFA002816
:1043300041D07349404605F027FA002800F0A680D6
:104340007049404605F020FA002859D06E49404691
:1043500005F01AFA002800F093816C49404605F0F8
:1043600013FA002800F02B826949404605F00CFA48
:10437000002800F033826749404605F005FA00281E
:1043800000F0AB806449404605F0FEF9002840F09B
:104390004582044620460021013401F0F1FCB4F5C9
:1043A000006FF7D11EE04FF000085449404605F079
:1043B000EBF90028BDD141F2B42141F2B0264FF40F
:1043C000FA734CF250300122A4516052A4F8183113
:1043D00084F813212046FCF7BBFA3B680C930C9B36
:1043E000C4F814310A98089500283FF46EAF0468A9
:1043F00004F0E4FE2046002CF9D111B0BDE8F08FA6
:10440000B9F1000F05D10FE0D9F80090B9F1000F14
:104410000AD0D9F80410414805F0B6F90028F3D1C4
:1044200099F80830062B5CD03D480368D90739D588
:104430003C4B5B6813B11A79072A7FD03A4B1B6853
:10444000D8073CD5394B5F681FB979E03F68002F2A
:1044500076D07968364805F097F90028F6D13B7A8E
:10446000052B00F23D82DFE813F06B00E100E10074
:10447000DF00DF00DB00F66836B131462D4805F07D
:1044800083F900283FF44EAF30464BE72046FDF756
:10449000FBFDA7E71421284803F04EF8154803F068
:1044A000C7FA09E701F052FD0028C1D01D4F1C4892
:1044B00000233B607B6001F04FFD3B46B9E71A48A3
:1044C00001F044FD0028BDD0184F174800233B6081
:1044D0007B6001F041FD3B46B5E72046FCF75EFB03
:1044E00080E7D9F80C30A4E748A5FF1FC89E00005C
:1044F000E49F00003C87FF1F089F000004A000000D
:1045000010A0000020A0000034A0000044A0000083
:1045100050A0000058A0000060A00000AC9F000068
:104520003CA5FF1F40A5FF1F30A5FF1F34A5FF1F9F
:104530002CA00000E49E0000EC9F00009B6882E736
:10454000002120460122FCF711F9049B5E688834A3
:1045500016B90BE036684EB17168A84805F014F939
:104560000028F7D1337A062B00F0B681A4480368FF
:10457000DA0740F19E81A34B5B682BB11B681BB12E
:104580001A79072A00F0AA819F4B1B68D90740F1CE
:1045900081819E4B5E6816B910E0366876B171680D
:1045A0009B4805F0F1F80028F7D1337A052B00F28B
:1045B0008E81DFE803F0030F0F0D0D090021204667
:1045C0000122FCF7D3F80DE7F3685B4299B2F6E7F6
:1045D000B189F4E7F3680BB31A78742A00F03684D3
:1045E0002B2A00F00E852D2A40F0028501265A78EC
:1045F000A2F13000092803F1010100F21086002326
:1046000003EB830302EB430311F8012FA2F1300007
:10461000303B09289BB2F3D9002ED6D11946CEE7FC
:10462000FB685B4299B28CE7B9898AE7FB68002B8B
:1046300000F080841A78742A00F02C852B2A00F070
:1046400026852D2A40F01A8501275A78A2F13000DC
:10465000092803F1010100F2DF85002303EB830346
:1046600002EB430311F8012FA2F13000303B09287F
:104670009BB2F3D9002F00F05D845B4299B260E7F2
:10468000B9F1000F05D115E0D9F80090B9F1000F8C
:1046900010D0D9F804105F4805F076F80028F3D15F
:1046A00099F80830052B00F22081DFE803F0035C65
:1046B0005C595954002120460122FCF757F8049B0D
:1046C0005E68883426B979E73668002E3FF476AF05
:1046D0007168514805F058F80028F5D1337A052B58
:1046E00000F2F58001A252F823F000BFBD450000A2
:1046F0000547000005470000D1450000D1450000F6
:10470000C9450000F368002B88D01A78742A00F09D
:104710009D832B2A00F01A842D2A40F00E84012755
:104720005A78A2F13000092803F1010100F249850D
:104730001046002303EB830200EB420211F8010F45
:10474000A0F13006303A092E93B2F3D9002F7FF44E
:104750003CAF194633E7D9F80C305B4299B2AAE76F
:10476000B9F80C10A7E7D9F80C30002B00F007843B
:104770001A78742A00F039842B2A00F033842D2A09
:1047800040F0278401265A78A2F13000092803F16D
:10479000010100F25C851046002303EB830200EB6D
:1047A000420211F8010FA0F13007303A092F93B2FD
:1047B000F3D9002E00F0E3835B4299B27BE72046F9
:1047C00004F18806FCF7C4F83046FCF7C1F820462F
:1047D000FCF7AEF83046FCF7ABF803E6204604F1F0
:1047E0008806FCF7B5F83046FCF7B2F82046FCF72F
:1047F000ABF83046FCF7A8F8F4E500BFAC9F00002A
:104800003CA5FF1F40A5FF1F30A5FF1F34A5FF1FBC
:104810002CA000003CA0000040A00000A24940469F
:1048200004F0B2FF002866D0A049404604F0ACFF77
:10483000002800F0B7829E49404604F0A5FF0028FA
:1048400000F0C0829B49404604F09EFF002800F023
:1048500099839949404604F097FF0646002800F0E6
:104860002D849649404604F08FFF002800F01584FF
:104870004046934904F088FF00287FF4B3AD02213D
:10488000D4E900238F48009103F022F98D4803F00A
:10489000CFF8A7E58C4801F059FB00283FF479AE2A
:1048A0008A4E894800233360736001F055FB33461C
:1048B00070E601F04BFB00283FF45DAE844E854866
:1048C00000233360736001F047FB334654E6F06821
:1048D00004F01EFC81B272E6F3684DE69B6859E66F
:1048E000F86804F015FC81B22BE6D9F80C0004F04E
:1048F0000FFC81B2DFE6B9F1000F05D110E0D9F865
:104900000090B9F1000F0BD0D9F80410724804F0F0
:104910003BFF0028F3D199F80830062B00F0748390
:104920006C4B1B68DA0701D4FCF756F8684B5B68E0
:104930001BB11A79072A00F06A83634B634F1B6827
:10494000DB0740F166837F6817B913E03F688FB1DA
:104950007968624804F018FF0028F7D13B7A052BEC
:1049600000F2C683DFE813F0060018021802020204
:104970000202FB010027B946049BD3F80480B8F17A
:10498000000F05D110E0D8F80080B8F1000F0BD06F
:10499000D8F80410504804F0F7FE0028F3D198F836
:1049A0000830062B00F042834A4B1B68DE0701D417
:1049B000FCF712F8464B5B681BB11A79072A00F026
:1049C0000683414B1B68D80740F1F2823F4BD3F876
:1049D0000480B8F1000F05D118E0D8F80080B8F1D4
:1049E000000F13D0D8F804103D4804F0CDFE002885
:1049F000F3D198F80830052B00F27383DFE813F049
:104A00000600A801A801A101A10199014FF0000829
:104A1000C246049BD3F804B0BBF1000F05D110E0EF
:104A2000DBF800B0BBF1000F0BD0DBF804102A4814
:104A300004F0AAFE0028F3D19BF80830062B00F002
:104A40008683244B1B68D90701D4FBF7C5FF204B95
:104A50005B681BB11A79072A00F07C831A4B1B682C
:104A6000DA0740F16583194BD3F804B0BBF1000FAE
:104A700005D139E0DBF800B0BBF1000F34D0DBF832
:104A80000410184804F080FE0028F3D19BF8083089
:104A9000052B00F24683DFE813F0270045014501AE
:104AA0003E013E01360100BF6CA0000080A0000066
:104AB00088A0000090A000009CA00000A8A000001A
:104AC000BCA000003C87FF1F30A5FF1F34A5FF1FBF
:104AD00040A5FF1F3CA5FF1FAC9F0000C89F000022
:104AE000CC9F0000D09F000000231A4694465146F8
:104AF00040469A46E3463A464B46CDE90001CDE9A9
:104B000002AB2046FBF786FE049B5F6804F1880336
:104B1000059317B90BE03F684FB17968964804F0E8
:104B200033FE0028F7D13B7A062B00F0F682934B38
:104B30001B68DB0701D4FBF74FFF914B5B682BB180
:104B40001B681BB11A79072A00F0E9828D4B8E4C45
:104B50001B68DF0740F12683646814B913E02468FA
:104B60008CB16168894804F00FFE0028F7D1237AE0
:104B7000052B00F2CC82DFE813F00600C000C00075
:104B8000BA00BA00B3000024A046049B5F6817B9BE
:104B90000BE03F684FB17968774804F0F5FD0028D5
:104BA000F7D13B7A062B00F00A83744B1B68DE07B3
:104BB00001D4FBF711FF724B5B682BB11B681BB173
:104BC0001A79072A00F0EC826E4B6F4F1B68D807EA
:104BD00040F1D9827F6817B910E03F6877B17968F2
:104BE0006B4804F0D1FD0028F7D13B7A052B00F289
:104BF0008882DFE803F0036F6F6969620027B946B6
:104C0000049B5E6816B90BE036684EB171685A486D
:104C100004F0BAFD0028F7D1337A062B00F0AF82FA
:104C2000564B1B68D90701D4FBF7D6FE544B5B6883
:104C30002BB11B681BB11A79072A00F0A282514BD5
:104C4000514E1B68DA0740F18782766816B910E08A
:104C5000366876B171684F4804F096FD0028F7D1A8
:104C6000337A052B00F28582DFE803F00321211B54
:104C70001B1400231A469A46384693464946CDE906
:104C8000000122464346CDE902AB0598FBF7C2FD81
:104C9000FFF7A8BBF06803F083FB034601F1004275
:104CA000E9E7F06803F07CFB03460A46E3E7F068B7
:104CB000FFF7E6F803460A46DDE7F86803F070FB05
:104CC000074601F100499BE7F86803F069FB0746D6
:104CD000894695E7F868FFF7D3F8074689468FE7D6
:104CE000E06803F05DFB044601F100484DE7E06831
:104CF00003F056FB0446884647E7E068FFF7C0F834
:104D00000446884641E7DBF80C0003F049FB034604
:104D100001F10042EAE6DBF80C0003F041FB034638
:104D20000A46E3E6DBF80C00FFF7AAF803460A465A
:104D3000DCE6D8F80C0003F033FB804601F1004AB2
:104D400067E6D8F80C0003F02BFB80468A4660E645
:104D5000D8F80C00FFF794F880468A4659E6F868C0
:104D600003F01EFB074601F1004905E6F86803F071
:104D700017FB07468946FFE5AC9F00003CA5FF1FD7
:104D800040A5FF1F30A5FF1F34A5FF1FC89F0000CF
:104D9000CC9F0000D09F0000F868FFF771F807462D
:104DA0008946E9E5B9F1000F58D0D9F80410BD489B
:104DB00004F0EAFC00284CD0D9F80090B9F1000FBB
:104DC000F3D14BE0B9F1000F0CD0D9F80410B5487D
:104DD00004F0DAFC002800F0BC80D9F80090B9F1AA
:104DE000000FF2D1B04B1B68DE0740F12B82AF4BB6
:104DF0005B681BB11A79072A00F02782AC4BAD4ED5
:104E00001B68D80740F1118276682EB9FFF7EABA1D
:104E10003668002E3FF4E6AA7168A74804F0B4FC97
:104E20000028F5D1337A052B00F24D8201A252F809
:104E300023F000BFE54300007D5200007D520000DA
:104E40007952000079520000555200000121FFF70D
:104E5000B6BB99F80830062B00F05081924B1B68C6
:104E6000DB0701D4FBF7B8FD904B5B681BB11A79E7
:104E7000072A00F082808E4B8E4E1B68DF0770D5AC
:104E800076682EB9FFF7AEBA3668002E3FF4AAAAAC
:104E90007168894804F078FC0028F5D1337A052B35
:104EA00000F2AB8101A252F823F000BFE5430000FD
:104EB000E54E0000E54E0000E14E0000E14E00002E
:104EC000C54E0000F0684042012800F0D280022860
:104ED0007FF488AA04F18800FBF772FCFFF782BA1E
:104EE000F068F1E7F268002A3FF47CAA1378742B8B
:104EF00000F0BF802B2B00F08D812D2B40F08181A5
:104F000001215378A3F13000092802F101023FF694
:104F100069AA303B002012F8016F00EB800003EB20
:104F20004000A6F13003DEB2092EF4D90029CBD01F
:104F30004042C9E71946FFF704BBA2F13001092935
:104F40003FF63CAB19460027FFF7F2BB0027FFF7FF
:104F5000E7BB99F80830062B7FF444AFD9F80C3042
:104F600046E7534800F0F2FF002889D0002350485C
:104F70003360736000F0F0FF82E79E6880E71946B7
:104F8000FFF799BBB9F1000F0BD0D9F804104548D1
:104F900004F0FAFB00284CD0D9F80090B9F1000FCA
:104FA000F3D1414B1B68DB0750D4FBF715FD4DE0F7
:104FB0003F4800F0CBFF00283FF408AD3D4E3C4891
:104FC00000233360736000F0C7FF3346FFE49B6843
:104FD000FDE4A2F1300109293FF66CAB1946002629
:104FE000FFF7D9BB0026FFF7CEBB0121FFF763BB5C
:104FF000A2F1300109293FF6E1AA19460026FFF780
:10500000FEBA0026FFF7F3BAD9F80C308FE49F6898
:1050100099E4274800F09AFF00283FF494AC00235D
:1050200023483B607B6000F097FF8CE4D8F80C309D
:10503000C1E499F80830062B00F0D780DFF86880CB
:10504000D8F8003013F0010700F0C18017480021A4
:10505000FEF7A0FE1849FEF7C3FE012800F0C88045
:1050600002287FF4BFA904F18800FBF7C7FBFFF714
:10507000B9B92046FBF7A4FBFFF7B4B9A2F13001A0
:1050800009293FF65DAA19460027FFF7E6BA00276F
:10509000FFF7DBBA0121FFF754BA2046FDF732FAD9
:1050A000FFF7A0B9AC9F00003CA5FF1F40A5FF1F64
:1050B00030A5FF1F34A5FF1FB89F0000024647F62A
:1050C000FF7320464FF6FF71FBF770FB324604F189
:1050D000880047F6FF734FF6FF71FBF767FBFFF79A
:1050E00081B9D8F80C0003F07DF980468A4690E437
:1050F000F86803F077F9074689463DE4D9F80C30A3
:10510000B3E6F86803F06EF90746894678E5E0688B
:1051100003F068F90446884637E5FB680EE59C68AD
:105120001AE5DBF80C0003F05DF903460A46DDE4FE
:105130006C4800F00BFF00283FF495AC6A4E6948BC
:1051400000233360736000F007FF33468CE4DBF824
:105150000C307DE49B6887E4624800F0F7FE00288D
:105160003FF473AD00235F483360736000F0F4FEDA
:105170006BE5F06803F036F903460A467BE5F36811
:1051800055E59E6861E5574800F0E0FE00283FF4D1
:1051900021AD002353483B607B6000F0DDFE19E544
:1051A0009F6817E54F4800F0D1FE00283FF4D4ACCB
:1051B00000234C482360636000F0CEFECCE4FB6823
:1051C000FAE40023002F7FF400AAFFF7C2BA40469A
:1051D00000F0BCFE00283FF439AF444E4046376033
:1051E000776000F0B9FE304631E7D9F80C002EE7C1
:1051F0002046FBF703FBFFF7F5B8F06803F062FF0A
:1052000062E6A3F13001092998BF00217FF681AE43
:10521000FFF7E8B8002174E60023FFF72BBA00235C
:10522000002E7FF4D2A9FFF7F9B92E4800F08EFEC8
:1052300000283FF4E9AD00232A483360736000F092
:105240008BFEE1E5FBF7C8FBD1E59E68DCE50023BA
:10525000FFF7AFBAF0684042012808D002287FF477
:10526000C1A804F18800FBF7B9FAFFF7BBB82046E4
:10527000FBF7B4FAFFF7B6B8F068EDE7F268002A7A
:105280003FF4B0A81378742BF1D02B2B27D02D2B03
:105290001DD101215378A3F13000092802F1010248
:1052A0003FF6A0A8303B002012F8016F00EB800011
:1052B00003EB4000A6F13003DEB2092EF4D9002939
:1052C000CAD04042C8E7F06803F0FCFEC4E7A3F18F
:1052D0003001092998BF0021E4D9FFF783B80021E4
:1052E000D8E700BF30A5FF1F34A5FF1F40A5FF1F53
:1052F00041F2C42310B50446C05803681B6998479F
:1053000020B12046BDE81040FEF798BF10BD00BF99
:105310002DE9F04390F81331022B87B0044601D0F9
:10532000FFF7E6FF4C4D41F2D4422B6801930199FF
:10533000A35899427CD12B68029341F2D04004F5E6
:10534000A652029B215812885B1A9A421ED994F8E1
:105350001331022B2ED0012B15D12B680493049B03
:10536000D4F814213C499B1AB3F57A7F0BD30B6810
:105370000593059BC4F81431022384F813310021EE
:105380000D2000F07BFE07B0BDE8F08311442150F2
:1053900004F188062046FBF7FFF83046FBF7FCF8DF
:1053A0002046FBF7AFF93046FBF7ACF994F8133120
:1053B000022BD0D1B4F91861002E3FDD2B68039386
:1053C000039BD4F81481C8EB0303022BDBD9B6B2DC
:1053D000C6F5FA75ADB241F2B0216F0004EB85035A
:1053E00054F801907A19C3F81C21631999F908201F
:1053F00083F8EC28D9E9040103F020FB2744013E9F
:10540000A7F8E00AD9E9000103F018FB08F103034B
:10541000322DA7F8C80EA4F81861C4F81431B2D11F
:1054200041F2B4234846E15A0122FBF79FF9AAE76B
:105430000133A3502046FBF7E1FA7CE7A3D184F8BF
:10544000136101210D2000F019FE20464FF4FA717E
:10545000FCF738F997E700BF48A5FF1F00F02EBC06
:1054600038B5124A124B00F1AC050021044600F099
:10547000AFFA28460F4B104A012100F0A9FA0F4954
:105480000F4A022384F858310B68C4F8605143F086
:105490000063C4F86851C4F85C41C4F864410B600F
:1054A000136843F000632046136038BDCCA00000B1
:1054B00024A10000C8A00000F8A000003C80044027
:1054C00030800440012A03D0D0F85C0100F010B90C
:1054D000D0F8600100F00CB9012A03D0D0F85C01CB
:1054E00000F04EB9D0F8600100F04AB9012A03D0AB
:1054F000D0F85C0100F058B8D0F8600100F054B862
:10550000531C13D02AB1012A07D1D0F8600100F052
:1055100047BBD0F85C0100F043BBD0F85C212148C8
:10552000D38A9BB243F00103D382704770B504461F
:10553000D0F85C010D4600F011FB29460646D4F870
:10554000600100F00BFB76B1A8B1D4F85C31D4F85F
:105550006001597D427D914298BF18462946BDE8B9
:10556000704000F01DBB68B12946D4F86001BDE869
:10557000704000F015BB2946D4F85C01BDE87040CE
:1055800000F00EBBD4F85C11D4F86021CB8A05483A
:105590009BB243F00403CB82D38A9BB243F0040353
:1055A000D38270BD90EEFEFF38B5437E04460D46B3
:1055B000DBB9A36D012D4FEA43131DD903F18443D9
:1055C0000122042D9A6009D9082D23D9102D1AD94A
:1055D0001A605A60202384F8203038BD00221A60F7
:1055E0005A60042384F8203038BD00F01BF8A36D06
:1055F000012D4FEA4313E1D803F184420023936065
:1056000084F8203038BD002183E80600102384F898
:10561000203038BD00211A605960082384F82030FA
:1056200038BD00BFF8B5836D5B0103F184430446C8
:10563000DA6942B102F036FBA36D5B0103F18443EA
:10564000DA69002AF6D19B6923B1E38A9BB243F061
:105650000203E38272B6637E002B37D0216F636F43
:10566000A26F0F68E06F1B68D4F880101668056899
:10567000D4F8842009681268606E3B4433442B449C
:105680000B441344C3F34E03D4F88C50D4F8901059
:10569000D4F8942043F4004303602F68D4F89800B2
:1056A0000B681668D4F89C100568D4F8A020096827
:1056B0001268A06E3B4433442B440B441344C3F3A1
:1056C0004E0343F4004300220360627662B6A37E79
:1056D0006BB10221204600F053F80221204600F071
:1056E000D1F804212046FFF75FFF0023A376F8BD21
:1056F00038B5C37E8B4211D0437E04460D466BBB4A
:10570000092D0CD8E36B5B0103F184430022DA60BE
:105710009A60FF210823E161E37638BD38BD0B2D87
:105720001FD90D2D0DD8E36B5B0103F184430020DD
:105730000121D860996040F6FF720C23E261E376A4
:1057400038BDE36B5B0103F184430122DA609A60A8
:105750004FF6FF711023E161E37638BDFFF762FF7A
:10576000CEE7E36B5B0103F1844301200021D860A5
:10577000996040F2FF320A23E261E37638BD00BF50
:1057800090F824308B4256D070B5437E05460C46C7
:10579000002B34D1A31F032B2A6C16D9520102F11E
:1057A00084420021D1606CBBEB6B94605B0103F120
:1057B000844301221046DA610026012183E8420079
:1057C00098615A6185F8244070BDEB6B52015B0112
:1057D00003F1844302F1844201210020062CD160B0
:1057E000596019605861986126D0072C29D0082C7F
:1057F0000CBF90609160D86185F8244070BDFFF7C0
:1058000011FFC7E7012C0DD0022C31D0032C1BD087
:10581000042C19D0052C21D0EB8A9BB243F0010354
:10582000EB8270BDEB6B91605B0103F1844320461A
:10583000DC612246C0E770479060D96185F824405A
:1058400070BD9160D961BDE7EB6B5B0103F18443EF
:10585000012090600246D9610846ADE7EB6B5B0121
:1058600003F184430126966008460A46D961A3E7FE
:10587000EB6B91605B0103F184430A46D96101201F
:105880009AE700BF38B590F825308B4221D0437E8F
:1058900005460C46F3B974B1012C2DD0022C38D03A
:1058A000032C1CD0042C14D1EB6B5B0103F184435B
:1058B00000221A610BE0EA6B2B6C52015B0103F1D1
:1058C000844302F18442012111615C601C6085F80F
:1058D000254038BDFFF7A6FE002CDDD1EBE7EA6BD3
:1058E0002B6C52015B0103F1844302F184420121DC
:1058F000116159601960EAE7EA6B2B6C52015B0198
:1059000003F1844302F18442002114611C60596058
:10591000DDE7EA6B2B6C52015B0102F1844201214D
:1059200003F184430020116183E80300CFE700BF47
:1059300070B5026C04460023C376012105250420BE
:105940000226E361AA4084F8203084F8216084F8BC
:10595000223084F8231084F8245084F825006376DC
:10596000E38202F1844294F821006375116188B1E9
:10597000164A1370626D84F82130AA4002F1844205
:10598000136072B6A36D6176AB4003F184439961F5
:10599000D96162B6012520460A21FFF7A9FE2046FB
:1059A000A5762021FFF700FE29462046FFF7E8FEF6
:1059B00029462046FFF766FF72B6A36D65765B0148
:1059C00003F184439D61DD6162B670BD0140074013
:1059D0002DE9F0418262454A454EC362CD0401EB98
:1059E00081072A44FF004FF40033002901763E442A
:1059F00003634264DFF83CE13E4F3F493F4A404B7E
:105A0000DFF8348105F1804CAE442F4429442A4408
:105A10002B440CF56C3CC0F834C0C0F838E0C763C8
:105A20000164C2650366DFF814C1DFF814E1354F85
:105A30003549364A364BA844AC44AE442F44294439
:105A40002A442B44C0F84880C0F84CC0C0F850E04D
:105A50004765816542678367DFF8E880DFF8E8C063
:105A6000DFF8E8E02B4F2C492C4A2D4BA844AC44DE
:105A7000AE442F4429442A442B44C0F86480C0F823
:105A800068C0C0F86CE00767C167C0F88820C0F83C
:105A90008C30DFF8BC80DFF8BCC0DFF8BCE0214F01
:105AA0002149224A224BAC44AE4429442A442B4487
:105AB000A8442F4414BF3A2539250446C0F88080F5
:105AC000C0F884C0C0F890E0C0F89470C0F8981096
:105AD000C0F89C20C0F8A030C0F8A46080F8A8509E
